{
  "_format": "hh-sol-artifact-1",
  "contractName": "Recruitment",
  "sourceName": "contracts/Recruitment.sol",
  "abi": [
    {
      "inputs": [],
      "stateMutability": "nonpayable",
      "type": "constructor"
    },
    {
      "anonymous": false,
      "inputs": [
        {
          "indexed": true,
          "internalType": "address",
          "name": "sender",
          "type": "address"
        },
        {
          "indexed": false,
          "internalType": "uint256",
          "name": "amount",
          "type": "uint256"
        }
      ],
      "name": "DepositCompleted",
      "type": "event"
    },
    {
      "inputs": [
        {
          "internalType": "address",
          "name": "",
          "type": "address"
        },
        {
          "internalType": "bytes32",
          "name": "",
          "type": "bytes32"
        }
      ],
      "name": "accountBalances",
      "outputs": [
        {
          "internalType": "uint256",
          "name": "",
          "type": "uint256"
        }
      ],
      "stateMutability": "view",
      "type": "function"
    },
    {
      "inputs": [
        {
          "internalType": "address",
          "name": "",
          "type": "address"
        },
        {
          "internalType": "uint256",
          "name": "",
          "type": "uint256"
        }
      ],
      "name": "accountCompleteDeposits",
      "outputs": [
        {
          "internalType": "uint8",
          "name": "",
          "type": "uint8"
        }
      ],
      "stateMutability": "view",
      "type": "function"
    },
    {
      "inputs": [
        {
          "internalType": "address",
          "name": "",
          "type": "address"
        },
        {
          "internalType": "uint256",
          "name": "",
          "type": "uint256"
        },
        {
          "internalType": "uint256",
          "name": "",
          "type": "uint256"
        }
      ],
      "name": "accountMonthlyRefundPcts",
      "outputs": [
        {
          "internalType": "uint8",
          "name": "",
          "type": "uint8"
        }
      ],
      "stateMutability": "view",
      "type": "function"
    },
    {
      "inputs": [
        {
          "internalType": "address",
          "name": "",
          "type": "address"
        }
      ],
      "name": "balances",
      "outputs": [
        {
          "internalType": "uint256",
          "name": "",
          "type": "uint256"
        }
      ],
      "stateMutability": "view",
      "type": "function"
    },
    {
      "inputs": [],
      "name": "getAccountCompleteDeposits",
      "outputs": [
        {
          "internalType": "uint8[]",
          "name": "",
          "type": "uint8[]"
        }
      ],
      "stateMutability": "view",
      "type": "function"
    },
    {
      "inputs": [],
      "name": "getAccountMonthlyRefundPcts",
      "outputs": [
        {
          "internalType": "uint8[3][]",
          "name": "",
          "type": "uint8[3][]"
        }
      ],
      "stateMutability": "view",
      "type": "function"
    },
    {
      "inputs": [
        {
          "internalType": "bytes32",
          "name": "token",
          "type": "bytes32"
        }
      ],
      "name": "getWhitelistedTokenAddresses",
      "outputs": [
        {
          "internalType": "address",
          "name": "",
          "type": "address"
        }
      ],
      "stateMutability": "view",
      "type": "function"
    },
    {
      "inputs": [
        {
          "internalType": "bytes32",
          "name": "token",
          "type": "bytes32"
        }
      ],
      "name": "getWhitelistedTokenDecimals",
      "outputs": [
        {
          "internalType": "uint8",
          "name": "",
          "type": "uint8"
        }
      ],
      "stateMutability": "view",
      "type": "function"
    },
    {
      "inputs": [
        {
          "internalType": "bytes32",
          "name": "symbol",
          "type": "bytes32"
        },
        {
          "internalType": "uint256",
          "name": "amount",
          "type": "uint256"
        },
        {
          "internalType": "uint8",
          "name": "index",
          "type": "uint8"
        }
      ],
      "name": "setFinalDeposit",
      "outputs": [],
      "stateMutability": "nonpayable",
      "type": "function"
    },
    {
      "inputs": [
        {
          "internalType": "bytes32",
          "name": "symbol",
          "type": "bytes32"
        },
        {
          "internalType": "uint8",
          "name": "month1RefundPct",
          "type": "uint8"
        },
        {
          "internalType": "uint8",
          "name": "month2RefundPct",
          "type": "uint8"
        },
        {
          "internalType": "uint8",
          "name": "month3RefundPct",
          "type": "uint8"
        }
      ],
      "name": "setInitialDeposit",
      "outputs": [],
      "stateMutability": "nonpayable",
      "type": "function"
    },
    {
      "inputs": [
        {
          "internalType": "bytes32",
          "name": "symbol",
          "type": "bytes32"
        },
        {
          "internalType": "address",
          "name": "tokenAddress",
          "type": "address"
        },
        {
          "internalType": "uint8",
          "name": "decimals",
          "type": "uint8"
        }
      ],
      "name": "whitelistToken",
      "outputs": [],
      "stateMutability": "nonpayable",
      "type": "function"
    },
    {
      "inputs": [
        {
          "internalType": "bytes32",
          "name": "",
          "type": "bytes32"
        }
      ],
      "name": "whitelistedTokenDecimals",
      "outputs": [
        {
          "internalType": "uint8",
          "name": "",
          "type": "uint8"
        }
      ],
      "stateMutability": "view",
      "type": "function"
    },
    {
      "inputs": [
        {
          "internalType": "bytes32",
          "name": "",
          "type": "bytes32"
        }
      ],
      "name": "whitelistedTokens",
      "outputs": [
        {
          "internalType": "address",
          "name": "",
          "type": "address"
        }
      ],
      "stateMutability": "view",
      "type": "function"
    },
    {
      "inputs": [
        {
          "internalType": "bytes32",
          "name": "symbol",
          "type": "bytes32"
        },
        {
          "internalType": "uint256",
          "name": "amount",
          "type": "uint256"
        }
      ],
      "name": "withdrawTokens",
      "outputs": [],
      "stateMutability": "nonpayable",
      "type": "function"
    }
  ],
  "bytecode": "0x60806040526103e860075534801561001657600080fd5b50336000806101000a81548173ffffffffffffffffffffffffffffffffffffffff021916908373ffffffffffffffffffffffffffffffffffffffff160217905550611e30806100666000396000f3fe608060405234801561001057600080fd5b50600436106100ea5760003560e01c806359a2f89c1161008c578063aa3d9a1511610066578063aa3d9a1514610283578063c4b497d7146102b3578063c9ad5f84146102cf578063e64fe366146102eb576100ea565b806359a2f89c146102175780635f3bf286146102475780636821f16a14610265576100ea565b80633f7f5e2a116100c85780633f7f5e2a1461016b578063466ac5521461019b57806346d8426b146101cb5780634a88ff48146101e7576100ea565b80631dc9ac38146100ef57806327e235e31461010b5780633586932b1461013b575b600080fd5b61010960048036038101906101049190611203565b61031b565b005b610125600480360381019061012091906112b4565b610683565b60405161013291906112f0565b60405180910390f35b6101556004803603810190610150919061130b565b61069b565b6040516101629190611347565b60405180910390f35b61018560048036038101906101809190611362565b6106d8565b60405161019291906113b1565b60405180910390f35b6101b560048036038101906101b091906113cc565b61071b565b6040516101c291906113b1565b60405180910390f35b6101e560048036038101906101e0919061141f565b61076d565b005b61020160048036038101906101fc919061130b565b61087e565b60405161020e91906113b1565b60405180910390f35b610231600480360381019061022c919061130b565b61089e565b60405161023e91906113b1565b60405180910390f35b61024f6108c8565b60405161025c9190611530565b60405180910390f35b61026d610983565b60405161027a9190611685565b60405180910390f35b61029d6004803603810190610298919061130b565b610a72565b6040516102aa9190611347565b60405180910390f35b6102cd60048036038101906102c891906116a7565b610aa5565b005b6102e960048036038101906102e4919061170e565b610de4565b005b6103056004803603810190610300919061174e565b61107d565b60405161031291906112f0565b60405180910390f35b816001600085815260200190815260200160002060009054906101000a900473ffffffffffffffffffffffffffffffffffffffff1673ffffffffffffffffffffffffffffffffffffffff1663dd62ed3e33306040518363ffffffff1660e01b815260040161038a92919061178e565b602060405180830381865afa1580156103a7573d6000803e3d6000fd5b505050506040513d601f19601f820116820180604052508101906103cb91906117cc565b101561040c576040517f08c379a00000000000000000000000000000000000000000000000000000000081526004016104039061187c565b60405180910390fd5b8060ff16600460003373ffffffffffffffffffffffffffffffffffffffff1673ffffffffffffffffffffffffffffffffffffffff1681526020019081526020016000208054905011610493576040517f08c379a000000000000000000000000000000000000000000000000000000000815260040161048a9061190e565b60405180910390fd5b81600360003373ffffffffffffffffffffffffffffffffffffffff1673ffffffffffffffffffffffffffffffffffffffff168152602001908152602001600020600085815260200190815260200160002060008282546104f3919061195d565b925050819055506001600084815260200190815260200160002060009054906101000a900473ffffffffffffffffffffffffffffffffffffffff1673ffffffffffffffffffffffffffffffffffffffff166323b872dd3330856040518463ffffffff1660e01b815260040161056a93929190611991565b6020604051808303816000875af1158015610589573d6000803e3d6000fd5b505050506040513d601f19601f820116820180604052508101906105ad9190611a00565b50600560003373ffffffffffffffffffffffffffffffffffffffff1673ffffffffffffffffffffffffffffffffffffffff1681526020019081526020016000208190806001815401808255809150506001900390600052602060002090602091828204019190069091909190916101000a81548160ff021916908360ff1602179055503373ffffffffffffffffffffffffffffffffffffffff167ffe49ff9074b43d72959bdaa84c28024687dc010a90ff7329c5c033aa02227e5e8360405161067691906112f0565b60405180910390a2505050565b60066020528060005260406000206000915090505481565b60006001600083815260200190815260200160002060009054906101000a900473ffffffffffffffffffffffffffffffffffffffff169050919050565b600560205281600052604060002081815481106106f457600080fd5b9060005260206000209060209182820401919006915091509054906101000a900460ff1681565b6004602052826000526040600020828154811061073757600080fd5b90600052602060002001816003811061074f57600080fd5b6020918282040191900692509250509054906101000a900460ff1681565b60008054906101000a900473ffffffffffffffffffffffffffffffffffffffff1673ffffffffffffffffffffffffffffffffffffffff163373ffffffffffffffffffffffffffffffffffffffff16146107fb576040517f08c379a00000000000000000000000000000000000000000000000000000000081526004016107f290611a79565b60405180910390fd5b806002600085815260200190815260200160002060006101000a81548160ff021916908360ff160217905550816001600085815260200190815260200160002060006101000a81548173ffffffffffffffffffffffffffffffffffffffff021916908373ffffffffffffffffffffffffffffffffffffffff160217905550505050565b60026020528060005260406000206000915054906101000a900460ff1681565b60006002600083815260200190815260200160002060009054906101000a900460ff169050919050565b6060600560003373ffffffffffffffffffffffffffffffffffffffff1673ffffffffffffffffffffffffffffffffffffffff16815260200190815260200160002080548060200260200160405190810160405280929190818152602001828054801561097957602002820191906000526020600020906000905b82829054906101000a900460ff1660ff16815260200190600101906020826000010492830192600103820291508084116109425790505b5050505050905090565b6060600460003373ffffffffffffffffffffffffffffffffffffffff1673ffffffffffffffffffffffffffffffffffffffff168152602001908152602001600020805480602002602001604051908101604052809291908181526020016000905b82821015610a6957838290600052602060002001600380602002604051908101604052809291908260038015610a55576020028201916000905b82829054906101000a900460ff1660ff1681526020019060010190602082600001049283019260010382029150808411610a1e5790505b5050505050815260200190600101906109e4565b50505050905090565b60016020528060005260406000206000915054906101000a900473ffffffffffffffffffffffffffffffffffffffff1681565b60006002600086815260200190815260200160002060009054906101000a900460ff16600a610ad49190611bcc565b600754610ae19190611c17565b9050806001600087815260200190815260200160002060009054906101000a900473ffffffffffffffffffffffffffffffffffffffff1673ffffffffffffffffffffffffffffffffffffffff1663dd62ed3e33306040518363ffffffff1660e01b8152600401610b5292919061178e565b602060405180830381865afa158015610b6f573d6000803e3d6000fd5b505050506040513d601f19601f82011682018060405250810190610b9391906117cc565b1015610bd4576040517f08c379a0000000000000000000000000000000000000000000000000000000008152600401610bcb90611ca5565b60405180910390fd5b80600360003373ffffffffffffffffffffffffffffffffffffffff1673ffffffffffffffffffffffffffffffffffffffff16815260200190815260200160002060008781526020019081526020016000206000828254610c34919061195d565b925050819055506001600086815260200190815260200160002060009054906101000a900473ffffffffffffffffffffffffffffffffffffffff1673ffffffffffffffffffffffffffffffffffffffff166323b872dd3330846040518463ffffffff1660e01b8152600401610cab93929190611991565b6020604051808303816000875af1158015610cca573d6000803e3d6000fd5b505050506040513d601f19601f82011682018060405250810190610cee9190611a00565b50600460003373ffffffffffffffffffffffffffffffffffffffff1673ffffffffffffffffffffffffffffffffffffffff16815260200190815260200160002060405180606001604052808660ff1660ff1681526020018560ff1660ff1681526020018460ff1660ff1681525090806001815401808255809150506001900390600052602060002001600090919091909150906003610d8e9291906110a2565b503373ffffffffffffffffffffffffffffffffffffffff167ffe49ff9074b43d72959bdaa84c28024687dc010a90ff7329c5c033aa02227e5e82604051610dd591906112f0565b60405180910390a25050505050565b60008054906101000a900473ffffffffffffffffffffffffffffffffffffffff1673ffffffffffffffffffffffffffffffffffffffff163373ffffffffffffffffffffffffffffffffffffffff1614610e72576040517f08c379a0000000000000000000000000000000000000000000000000000000008152600401610e6990611d11565b60405180910390fd5b806001600084815260200190815260200160002060009054906101000a900473ffffffffffffffffffffffffffffffffffffffff1673ffffffffffffffffffffffffffffffffffffffff166370a08231336040518263ffffffff1660e01b8152600401610edf9190611347565b602060405180830381865afa158015610efc573d6000803e3d6000fd5b505050506040513d601f19601f82011682018060405250810190610f2091906117cc565b11610f60576040517f08c379a0000000000000000000000000000000000000000000000000000000008152600401610f5790611d7d565b60405180910390fd5b80600360003373ffffffffffffffffffffffffffffffffffffffff1673ffffffffffffffffffffffffffffffffffffffff16815260200190815260200160002060008481526020019081526020016000206000828254610fc09190611d9d565b925050819055506001600083815260200190815260200160002060009054906101000a900473ffffffffffffffffffffffffffffffffffffffff1673ffffffffffffffffffffffffffffffffffffffff1663a9059cbb33836040518363ffffffff1660e01b8152600401611035929190611dd1565b6020604051808303816000875af1158015611054573d6000803e3d6000fd5b505050506040513d601f19601f820116820180604052508101906110789190611a00565b505050565b6003602052816000526040600020602052806000526040600020600091509150505481565b826003601f0160209004810192821561112b5791602002820160005b838211156110fc57835183826101000a81548160ff021916908360ff16021790555092602001926001016020816000010492830192600103026110be565b80156111295782816101000a81549060ff02191690556001016020816000010492830192600103026110fc565b505b509050611138919061113c565b5090565b5b8082111561115557600081600090555060010161113d565b5090565b600080fd5b6000819050919050565b6111718161115e565b811461117c57600080fd5b50565b60008135905061118e81611168565b92915050565b6000819050919050565b6111a781611194565b81146111b257600080fd5b50565b6000813590506111c48161119e565b92915050565b600060ff82169050919050565b6111e0816111ca565b81146111eb57600080fd5b50565b6000813590506111fd816111d7565b92915050565b60008060006060848603121561121c5761121b611159565b5b600061122a8682870161117f565b935050602061123b868287016111b5565b925050604061124c868287016111ee565b9150509250925092565b600073ffffffffffffffffffffffffffffffffffffffff82169050919050565b600061128182611256565b9050919050565b61129181611276565b811461129c57600080fd5b50565b6000813590506112ae81611288565b92915050565b6000602082840312156112ca576112c9611159565b5b60006112d88482850161129f565b91505092915050565b6112ea81611194565b82525050565b600060208201905061130560008301846112e1565b92915050565b60006020828403121561132157611320611159565b5b600061132f8482850161117f565b91505092915050565b61134181611276565b82525050565b600060208201905061135c6000830184611338565b92915050565b6000806040838503121561137957611378611159565b5b60006113878582860161129f565b9250506020611398858286016111b5565b9150509250929050565b6113ab816111ca565b82525050565b60006020820190506113c660008301846113a2565b92915050565b6000806000606084860312156113e5576113e4611159565b5b60006113f38682870161129f565b9350506020611404868287016111b5565b9250506040611415868287016111b5565b9150509250925092565b60008060006060848603121561143857611437611159565b5b60006114468682870161117f565b93505060206114578682870161129f565b9250506040611468868287016111ee565b9150509250925092565b600081519050919050565b600082825260208201905092915050565b6000819050602082019050919050565b6114a7816111ca565b82525050565b60006114b9838361149e565b60208301905092915050565b6000602082019050919050565b60006114dd82611472565b6114e7818561147d565b93506114f28361148e565b8060005b8381101561152357815161150a88826114ad565b9750611515836114c5565b9250506001810190506114f6565b5085935050505092915050565b6000602082019050818103600083015261154a81846114d2565b905092915050565b600081519050919050565b600082825260208201905092915050565b6000819050602082019050919050565b600060039050919050565b600081905092915050565b6000819050919050565b6000602082019050919050565b6115b48161157e565b6115be8184611589565b92506115c982611594565b8060005b838110156115fa5781516115e187826114ad565b96506115ec8361159e565b9250506001810190506115cd565b505050505050565b600061160e83836115ab565b60608301905092915050565b6000602082019050919050565b600061163282611552565b61163c818561155d565b93506116478361156e565b8060005b8381101561167857815161165f8882611602565b975061166a8361161a565b92505060018101905061164b565b5085935050505092915050565b6000602082019050818103600083015261169f8184611627565b905092915050565b600080600080608085870312156116c1576116c0611159565b5b60006116cf8782880161117f565b94505060206116e0878288016111ee565b93505060406116f1878288016111ee565b9250506060611702878288016111ee565b91505092959194509250565b6000806040838503121561172557611724611159565b5b60006117338582860161117f565b9250506020611744858286016111b5565b9150509250929050565b6000806040838503121561176557611764611159565b5b60006117738582860161129f565b92505060206117848582860161117f565b9150509250929050565b60006040820190506117a36000830185611338565b6117b06020830184611338565b9392505050565b6000815190506117c68161119e565b92915050565b6000602082840312156117e2576117e1611159565b5b60006117f0848285016117b7565b91505092915050565b600082825260208201905092915050565b7f416c6c6f77616e636520646f657320726561636820616d6f756e7420746f206260008201527f6520747265616e73666572726564210000000000000000000000000000000000602082015250565b6000611866602f836117f9565b91506118718261180a565b604082019050919050565b6000602082019050818103600083015261189581611859565b9050919050565b7f496e697469616c206465706f73697420696e64657820646f6573206e6f74206d60008201527f6174636821000000000000000000000000000000000000000000000000000000602082015250565b60006118f86025836117f9565b91506119038261189c565b604082019050919050565b60006020820190508181036000830152611927816118eb565b9050919050565b7f4e487b7100000000000000000000000000000000000000000000000000000000600052601160045260246000fd5b600061196882611194565b915061197383611194565b925082820190508082111561198b5761198a61192e565b5b92915050565b60006060820190506119a66000830186611338565b6119b36020830185611338565b6119c060408301846112e1565b949350505050565b60008115159050919050565b6119dd816119c8565b81146119e857600080fd5b50565b6000815190506119fa816119d4565b92915050565b600060208284031215611a1657611a15611159565b5b6000611a24848285016119eb565b91505092915050565b7f546869732066756e6374696f6e206973206e6f74207075626c69630000000000600082015250565b6000611a63601b836117f9565b9150611a6e82611a2d565b602082019050919050565b60006020820190508181036000830152611a9281611a56565b9050919050565b60008160011c9050919050565b6000808291508390505b6001851115611af057808604811115611acc57611acb61192e565b5b6001851615611adb5780820291505b8081029050611ae985611a99565b9450611ab0565b94509492505050565b600082611b095760019050611bc5565b81611b175760009050611bc5565b8160018114611b2d5760028114611b3757611b66565b6001915050611bc5565b60ff841115611b4957611b4861192e565b5b8360020a915084821115611b6057611b5f61192e565b5b50611bc5565b5060208310610133831016604e8410600b8410161715611b9b5782820a905083811115611b9657611b9561192e565b5b611bc5565b611ba88484846001611aa6565b92509050818404811115611bbf57611bbe61192e565b5b81810290505b9392505050565b6000611bd782611194565b9150611be2836111ca565b9250611c0f7fffffffffffffffffffffffffffffffffffffffffffffffffffffffffffffffff8484611af9565b905092915050565b6000611c2282611194565b9150611c2d83611194565b9250828202611c3b81611194565b91508282048414831517611c5257611c5161192e565b5b5092915050565b7f416c6c6f77616e6365206f66203130303020555344206e656564656421000000600082015250565b6000611c8f601d836117f9565b9150611c9a82611c59565b602082019050919050565b60006020820190508181036000830152611cbe81611c82565b9050919050565b7f4f6e6c79206f776e65722063616e207769746864726177210000000000000000600082015250565b6000611cfb6018836117f9565b9150611d0682611cc5565b602082019050919050565b60006020820190508181036000830152611d2a81611cee565b9050919050565b7f4e6f7420656e6f7567682062616c616e63657321000000000000000000000000600082015250565b6000611d676014836117f9565b9150611d7282611d31565b602082019050919050565b60006020820190508181036000830152611d9681611d5a565b9050919050565b6000611da882611194565b9150611db383611194565b9250828203905081811115611dcb57611dca61192e565b5b92915050565b6000604082019050611de66000830185611338565b611df360208301846112e1565b939250505056fea2646970667358221220338c2c2af35e28f2e4f55e64d4b2dd870d37c5cce269549875df3b184962c16164736f6c63430008110033",
  "linkReferences": {},
  "deployedLinkReferences": {}
}