{
  "_format": "hh-sol-artifact-1",
  "contractName": "Recruitment",
  "sourceName": "contracts/Recruitment.sol",
  "abi": [
    {
      "inputs": [],
      "stateMutability": "nonpayable",
      "type": "constructor"
    },
    {
      "inputs": [],
      "name": "SenderIsNotReferee",
      "type": "error"
    },
    {
      "anonymous": false,
      "inputs": [
        {
          "indexed": false,
          "internalType": "address",
          "name": "senderAddress",
          "type": "address"
        },
        {
          "indexed": false,
          "internalType": "address",
          "name": "companyAddress",
          "type": "address"
        },
        {
          "indexed": false,
          "internalType": "uint256",
          "name": "score",
          "type": "uint256"
        }
      ],
      "name": "CompanyScoreSubmitted",
      "type": "event"
    },
    {
      "anonymous": false,
      "inputs": [
        {
          "indexed": true,
          "internalType": "address",
          "name": "sender",
          "type": "address"
        },
        {
          "indexed": false,
          "internalType": "uint256",
          "name": "amount",
          "type": "uint256"
        }
      ],
      "name": "DepositCompleted",
      "type": "event"
    },
    {
      "anonymous": false,
      "inputs": [
        {
          "indexed": true,
          "internalType": "address",
          "name": "sender",
          "type": "address"
        },
        {
          "indexed": false,
          "internalType": "uint8",
          "name": "month1RefundPct",
          "type": "uint8"
        },
        {
          "indexed": false,
          "internalType": "uint8",
          "name": "month2RefundPct",
          "type": "uint8"
        },
        {
          "indexed": false,
          "internalType": "uint8",
          "name": "month3RefundPct",
          "type": "uint8"
        }
      ],
      "name": "PercentagesCompleted",
      "type": "event"
    },
    {
      "anonymous": false,
      "inputs": [
        {
          "indexed": false,
          "internalType": "address",
          "name": "senderAddress",
          "type": "address"
        },
        {
          "indexed": false,
          "internalType": "address",
          "name": "referrerWallet",
          "type": "address"
        },
        {
          "indexed": false,
          "internalType": "uint256",
          "name": "score",
          "type": "uint256"
        }
      ],
      "name": "ReferralScoreSubmitted",
      "type": "event"
    },
    {
      "inputs": [
        {
          "internalType": "address",
          "name": "",
          "type": "address"
        },
        {
          "internalType": "bytes32",
          "name": "",
          "type": "bytes32"
        }
      ],
      "name": "accountBalances",
      "outputs": [
        {
          "internalType": "uint256",
          "name": "",
          "type": "uint256"
        }
      ],
      "stateMutability": "view",
      "type": "function"
    },
    {
      "inputs": [
        {
          "internalType": "address",
          "name": "",
          "type": "address"
        },
        {
          "internalType": "uint256",
          "name": "",
          "type": "uint256"
        }
      ],
      "name": "accountCompleteDeposits",
      "outputs": [
        {
          "internalType": "uint8",
          "name": "",
          "type": "uint8"
        }
      ],
      "stateMutability": "view",
      "type": "function"
    },
    {
      "inputs": [
        {
          "internalType": "address",
          "name": "",
          "type": "address"
        },
        {
          "internalType": "uint256",
          "name": "",
          "type": "uint256"
        },
        {
          "internalType": "uint256",
          "name": "",
          "type": "uint256"
        }
      ],
      "name": "accountMonthlyRefundPcts",
      "outputs": [
        {
          "internalType": "uint8",
          "name": "",
          "type": "uint8"
        }
      ],
      "stateMutability": "view",
      "type": "function"
    },
    {
      "inputs": [
        {
          "internalType": "address",
          "name": "",
          "type": "address"
        }
      ],
      "name": "balances",
      "outputs": [
        {
          "internalType": "uint256",
          "name": "",
          "type": "uint256"
        }
      ],
      "stateMutability": "view",
      "type": "function"
    },
    {
      "inputs": [
        {
          "internalType": "address",
          "name": "",
          "type": "address"
        }
      ],
      "name": "candidateList",
      "outputs": [
        {
          "internalType": "address",
          "name": "wallet",
          "type": "address"
        },
        {
          "internalType": "string",
          "name": "email",
          "type": "string"
        },
        {
          "internalType": "uint256",
          "name": "score",
          "type": "uint256"
        }
      ],
      "stateMutability": "view",
      "type": "function"
    },
    {
      "inputs": [
        {
          "internalType": "address",
          "name": "",
          "type": "address"
        },
        {
          "internalType": "uint256",
          "name": "",
          "type": "uint256"
        }
      ],
      "name": "companyScores",
      "outputs": [
        {
          "internalType": "uint256",
          "name": "score",
          "type": "uint256"
        },
        {
          "internalType": "address",
          "name": "senderAddress",
          "type": "address"
        }
      ],
      "stateMutability": "view",
      "type": "function"
    },
    {
      "inputs": [
        {
          "internalType": "uint256",
          "name": "refId",
          "type": "uint256"
        },
        {
          "internalType": "string",
          "name": "email",
          "type": "string"
        }
      ],
      "name": "confirmReferral",
      "outputs": [],
      "stateMutability": "nonpayable",
      "type": "function"
    },
    {
      "inputs": [],
      "name": "getAccountCompleteDeposits",
      "outputs": [
        {
          "internalType": "uint8[]",
          "name": "",
          "type": "uint8[]"
        }
      ],
      "stateMutability": "view",
      "type": "function"
    },
    {
      "inputs": [],
      "name": "getAccountMonthlyRefundPcts",
      "outputs": [
        {
          "internalType": "uint8[3][]",
          "name": "",
          "type": "uint8[3][]"
        }
      ],
      "stateMutability": "view",
      "type": "function"
    },
    {
      "inputs": [
        {
          "internalType": "address",
          "name": "wallet",
          "type": "address"
        }
      ],
      "name": "getCandidate",
      "outputs": [
        {
          "components": [
            {
              "internalType": "address",
              "name": "wallet",
              "type": "address"
            },
            {
              "internalType": "string",
              "name": "email",
              "type": "string"
            },
            {
              "internalType": "uint256",
              "name": "score",
              "type": "uint256"
            }
          ],
          "internalType": "struct FrontDoorStructs.Candidate",
          "name": "",
          "type": "tuple"
        }
      ],
      "stateMutability": "view",
      "type": "function"
    },
    {
      "inputs": [
        {
          "internalType": "address",
          "name": "companyAddress",
          "type": "address"
        }
      ],
      "name": "getCompanyScores",
      "outputs": [
        {
          "components": [
            {
              "internalType": "uint256",
              "name": "score",
              "type": "uint256"
            },
            {
              "internalType": "address",
              "name": "senderAddress",
              "type": "address"
            }
          ],
          "internalType": "struct FrontDoorStructs.CompanyScore[]",
          "name": "",
          "type": "tuple[]"
        }
      ],
      "stateMutability": "view",
      "type": "function"
    },
    {
      "inputs": [
        {
          "internalType": "uint256",
          "name": "jobId",
          "type": "uint256"
        }
      ],
      "name": "getJob",
      "outputs": [
        {
          "components": [
            {
              "internalType": "uint256",
              "name": "id",
              "type": "uint256"
            },
            {
              "internalType": "uint256",
              "name": "bounty",
              "type": "uint256"
            }
          ],
          "internalType": "struct FrontDoorStructs.Job",
          "name": "",
          "type": "tuple"
        }
      ],
      "stateMutability": "view",
      "type": "function"
    },
    {
      "inputs": [
        {
          "internalType": "address",
          "name": "wallet",
          "type": "address"
        }
      ],
      "name": "getReferee",
      "outputs": [
        {
          "components": [
            {
              "internalType": "address",
              "name": "wallet",
              "type": "address"
            },
            {
              "internalType": "string",
              "name": "email",
              "type": "string"
            },
            {
              "internalType": "bytes32",
              "name": "emailHash",
              "type": "bytes32"
            },
            {
              "internalType": "uint256",
              "name": "score",
              "type": "uint256"
            }
          ],
          "internalType": "struct FrontDoorStructs.Referee",
          "name": "",
          "type": "tuple"
        }
      ],
      "stateMutability": "view",
      "type": "function"
    },
    {
      "inputs": [
        {
          "internalType": "uint256",
          "name": "refId",
          "type": "uint256"
        }
      ],
      "name": "getReferral",
      "outputs": [
        {
          "components": [
            {
              "internalType": "uint256",
              "name": "id",
              "type": "uint256"
            },
            {
              "internalType": "bool",
              "name": "confirmed",
              "type": "bool"
            },
            {
              "components": [
                {
                  "internalType": "address",
                  "name": "wallet",
                  "type": "address"
                },
                {
                  "internalType": "string",
                  "name": "email",
                  "type": "string"
                },
                {
                  "internalType": "uint256",
                  "name": "score",
                  "type": "uint256"
                }
              ],
              "internalType": "struct FrontDoorStructs.Referrer",
              "name": "referrer",
              "type": "tuple"
            },
            {
              "components": [
                {
                  "internalType": "address",
                  "name": "wallet",
                  "type": "address"
                },
                {
                  "internalType": "string",
                  "name": "email",
                  "type": "string"
                },
                {
                  "internalType": "bytes32",
                  "name": "emailHash",
                  "type": "bytes32"
                },
                {
                  "internalType": "uint256",
                  "name": "score",
                  "type": "uint256"
                }
              ],
              "internalType": "struct FrontDoorStructs.Referee",
              "name": "referee",
              "type": "tuple"
            },
            {
              "components": [
                {
                  "internalType": "uint256",
                  "name": "id",
                  "type": "uint256"
                },
                {
                  "internalType": "uint256",
                  "name": "bounty",
                  "type": "uint256"
                }
              ],
              "internalType": "struct FrontDoorStructs.Job",
              "name": "job",
              "type": "tuple"
            }
          ],
          "internalType": "struct FrontDoorStructs.Referral",
          "name": "",
          "type": "tuple"
        }
      ],
      "stateMutability": "view",
      "type": "function"
    },
    {
      "inputs": [],
      "name": "getReferralIDs",
      "outputs": [
        {
          "internalType": "uint256[]",
          "name": "",
          "type": "uint256[]"
        }
      ],
      "stateMutability": "view",
      "type": "function"
    },
    {
      "inputs": [
        {
          "internalType": "address",
          "name": "referrerWallet",
          "type": "address"
        }
      ],
      "name": "getReferralScores",
      "outputs": [
        {
          "components": [
            {
              "internalType": "uint256",
              "name": "score",
              "type": "uint256"
            },
            {
              "internalType": "address",
              "name": "senderAddress",
              "type": "address"
            }
          ],
          "internalType": "struct FrontDoorStructs.ReferralScore[]",
          "name": "",
          "type": "tuple[]"
        }
      ],
      "stateMutability": "view",
      "type": "function"
    },
    {
      "inputs": [
        {
          "internalType": "address",
          "name": "wallet",
          "type": "address"
        }
      ],
      "name": "getReferrer",
      "outputs": [
        {
          "components": [
            {
              "internalType": "address",
              "name": "wallet",
              "type": "address"
            },
            {
              "internalType": "string",
              "name": "email",
              "type": "string"
            },
            {
              "internalType": "uint256",
              "name": "score",
              "type": "uint256"
            }
          ],
          "internalType": "struct FrontDoorStructs.Referrer",
          "name": "",
          "type": "tuple"
        }
      ],
      "stateMutability": "view",
      "type": "function"
    },
    {
      "inputs": [
        {
          "internalType": "bytes32",
          "name": "token",
          "type": "bytes32"
        }
      ],
      "name": "getWhitelistedTokenAddresses",
      "outputs": [
        {
          "internalType": "address",
          "name": "",
          "type": "address"
        }
      ],
      "stateMutability": "view",
      "type": "function"
    },
    {
      "inputs": [
        {
          "internalType": "bytes32",
          "name": "token",
          "type": "bytes32"
        }
      ],
      "name": "getWhitelistedTokenDecimals",
      "outputs": [
        {
          "internalType": "uint8",
          "name": "",
          "type": "uint8"
        }
      ],
      "stateMutability": "view",
      "type": "function"
    },
    {
      "inputs": [
        {
          "internalType": "address",
          "name": "",
          "type": "address"
        },
        {
          "internalType": "address",
          "name": "",
          "type": "address"
        }
      ],
      "name": "hasScoredCompany",
      "outputs": [
        {
          "internalType": "bool",
          "name": "",
          "type": "bool"
        }
      ],
      "stateMutability": "view",
      "type": "function"
    },
    {
      "inputs": [
        {
          "internalType": "uint256",
          "name": "",
          "type": "uint256"
        }
      ],
      "name": "jobList",
      "outputs": [
        {
          "internalType": "uint256",
          "name": "id",
          "type": "uint256"
        },
        {
          "internalType": "uint256",
          "name": "bounty",
          "type": "uint256"
        }
      ],
      "stateMutability": "view",
      "type": "function"
    },
    {
      "inputs": [
        {
          "internalType": "address",
          "name": "",
          "type": "address"
        }
      ],
      "name": "refereeList",
      "outputs": [
        {
          "internalType": "address",
          "name": "wallet",
          "type": "address"
        },
        {
          "internalType": "string",
          "name": "email",
          "type": "string"
        },
        {
          "internalType": "bytes32",
          "name": "emailHash",
          "type": "bytes32"
        },
        {
          "internalType": "uint256",
          "name": "score",
          "type": "uint256"
        }
      ],
      "stateMutability": "view",
      "type": "function"
    },
    {
      "inputs": [
        {
          "internalType": "address",
          "name": "",
          "type": "address"
        },
        {
          "internalType": "uint256",
          "name": "",
          "type": "uint256"
        }
      ],
      "name": "referralIndex",
      "outputs": [
        {
          "internalType": "uint256",
          "name": "",
          "type": "uint256"
        }
      ],
      "stateMutability": "view",
      "type": "function"
    },
    {
      "inputs": [
        {
          "internalType": "uint256",
          "name": "",
          "type": "uint256"
        }
      ],
      "name": "referralList",
      "outputs": [
        {
          "internalType": "uint256",
          "name": "id",
          "type": "uint256"
        },
        {
          "internalType": "bool",
          "name": "confirmed",
          "type": "bool"
        },
        {
          "components": [
            {
              "internalType": "address",
              "name": "wallet",
              "type": "address"
            },
            {
              "internalType": "string",
              "name": "email",
              "type": "string"
            },
            {
              "internalType": "uint256",
              "name": "score",
              "type": "uint256"
            }
          ],
          "internalType": "struct FrontDoorStructs.Referrer",
          "name": "referrer",
          "type": "tuple"
        },
        {
          "components": [
            {
              "internalType": "address",
              "name": "wallet",
              "type": "address"
            },
            {
              "internalType": "string",
              "name": "email",
              "type": "string"
            },
            {
              "internalType": "bytes32",
              "name": "emailHash",
              "type": "bytes32"
            },
            {
              "internalType": "uint256",
              "name": "score",
              "type": "uint256"
            }
          ],
          "internalType": "struct FrontDoorStructs.Referee",
          "name": "referee",
          "type": "tuple"
        },
        {
          "components": [
            {
              "internalType": "uint256",
              "name": "id",
              "type": "uint256"
            },
            {
              "internalType": "uint256",
              "name": "bounty",
              "type": "uint256"
            }
          ],
          "internalType": "struct FrontDoorStructs.Job",
          "name": "job",
          "type": "tuple"
        }
      ],
      "stateMutability": "view",
      "type": "function"
    },
    {
      "inputs": [
        {
          "internalType": "address",
          "name": "",
          "type": "address"
        },
        {
          "internalType": "uint256",
          "name": "",
          "type": "uint256"
        }
      ],
      "name": "referralScores",
      "outputs": [
        {
          "internalType": "uint256",
          "name": "score",
          "type": "uint256"
        },
        {
          "internalType": "address",
          "name": "senderAddress",
          "type": "address"
        }
      ],
      "stateMutability": "view",
      "type": "function"
    },
    {
      "inputs": [
        {
          "internalType": "address",
          "name": "",
          "type": "address"
        },
        {
          "internalType": "uint256",
          "name": "",
          "type": "uint256"
        }
      ],
      "name": "referredEmails",
      "outputs": [
        {
          "internalType": "string",
          "name": "",
          "type": "string"
        }
      ],
      "stateMutability": "view",
      "type": "function"
    },
    {
      "inputs": [
        {
          "internalType": "address",
          "name": "",
          "type": "address"
        }
      ],
      "name": "referrerList",
      "outputs": [
        {
          "internalType": "address",
          "name": "wallet",
          "type": "address"
        },
        {
          "internalType": "string",
          "name": "email",
          "type": "string"
        },
        {
          "internalType": "uint256",
          "name": "score",
          "type": "uint256"
        }
      ],
      "stateMutability": "view",
      "type": "function"
    },
    {
      "inputs": [
        {
          "internalType": "string",
          "name": "email",
          "type": "string"
        }
      ],
      "name": "registerCandidate",
      "outputs": [],
      "stateMutability": "nonpayable",
      "type": "function"
    },
    {
      "inputs": [
        {
          "internalType": "uint256",
          "name": "bounty",
          "type": "uint256"
        }
      ],
      "name": "registerJob",
      "outputs": [],
      "stateMutability": "nonpayable",
      "type": "function"
    },
    {
      "inputs": [
        {
          "internalType": "string",
          "name": "email",
          "type": "string"
        }
      ],
      "name": "registerReferee",
      "outputs": [],
      "stateMutability": "nonpayable",
      "type": "function"
    },
    {
      "inputs": [
        {
          "internalType": "uint256",
          "name": "jobId",
          "type": "uint256"
        },
        {
          "internalType": "string",
          "name": "refereeMail",
          "type": "string"
        }
      ],
      "name": "registerReferral",
      "outputs": [],
      "stateMutability": "nonpayable",
      "type": "function"
    },
    {
      "inputs": [
        {
          "internalType": "string",
          "name": "email",
          "type": "string"
        }
      ],
      "name": "registerReferrer",
      "outputs": [],
      "stateMutability": "nonpayable",
      "type": "function"
    },
    {
      "inputs": [
        {
          "internalType": "bytes32",
          "name": "symbol",
          "type": "bytes32"
        },
        {
          "internalType": "uint256",
          "name": "amount",
          "type": "uint256"
        },
        {
          "internalType": "uint8",
          "name": "index",
          "type": "uint8"
        }
      ],
      "name": "setFinalDeposit",
      "outputs": [],
      "stateMutability": "nonpayable",
      "type": "function"
    },
    {
      "inputs": [
        {
          "internalType": "uint8",
          "name": "month1RefundPct",
          "type": "uint8"
        },
        {
          "internalType": "uint8",
          "name": "month2RefundPct",
          "type": "uint8"
        },
        {
          "internalType": "uint8",
          "name": "month3RefundPct",
          "type": "uint8"
        }
      ],
      "name": "setPercentages",
      "outputs": [],
      "stateMutability": "nonpayable",
      "type": "function"
    },
    {
      "inputs": [
        {
          "internalType": "uint256",
          "name": "score",
          "type": "uint256"
        },
        {
          "internalType": "address",
          "name": "companyAddress",
          "type": "address"
        }
      ],
      "name": "submitCompanyScore",
      "outputs": [
        {
          "internalType": "bytes32",
          "name": "",
          "type": "bytes32"
        }
      ],
      "stateMutability": "nonpayable",
      "type": "function"
    },
    {
      "inputs": [
        {
          "internalType": "uint256",
          "name": "score",
          "type": "uint256"
        },
        {
          "internalType": "address",
          "name": "referrerWallet",
          "type": "address"
        }
      ],
      "name": "submitReferralScore",
      "outputs": [
        {
          "internalType": "bytes32",
          "name": "",
          "type": "bytes32"
        }
      ],
      "stateMutability": "nonpayable",
      "type": "function"
    },
    {
      "inputs": [
        {
          "internalType": "bytes32",
          "name": "symbol",
          "type": "bytes32"
        },
        {
          "internalType": "address",
          "name": "tokenAddress",
          "type": "address"
        },
        {
          "internalType": "uint8",
          "name": "decimals",
          "type": "uint8"
        }
      ],
      "name": "whitelistToken",
      "outputs": [],
      "stateMutability": "nonpayable",
      "type": "function"
    },
    {
      "inputs": [
        {
          "internalType": "bytes32",
          "name": "",
          "type": "bytes32"
        }
      ],
      "name": "whitelistedTokenDecimals",
      "outputs": [
        {
          "internalType": "uint8",
          "name": "",
          "type": "uint8"
        }
      ],
      "stateMutability": "view",
      "type": "function"
    },
    {
      "inputs": [
        {
          "internalType": "bytes32",
          "name": "",
          "type": "bytes32"
        }
      ],
      "name": "whitelistedTokens",
      "outputs": [
        {
          "internalType": "address",
          "name": "",
          "type": "address"
        }
      ],
      "stateMutability": "view",
      "type": "function"
    }
  ],
  "bytecode": "0x60806040526103e860105534801561001657600080fd5b50336000806101000a81548173ffffffffffffffffffffffffffffffffffffffff021916908373ffffffffffffffffffffffffffffffffffffffff160217905550614eb8806100666000396000f3fe608060405234801561001057600080fd5b506004361061023c5760003560e01c8063617d82451161013b578063a7013e2d116100b8578063d298c2281161007c578063d298c228146107c3578063d29bde54146107f5578063d7828a4e14610825578063e64fe36614610855578063ffab7a5f146108855761023c565b8063a7013e2d146106d0578063aa3d9a1514610703578063b7adcf1d14610733578063bf22c45714610763578063cbb8e56c146107935761023c565b80638330d0d8116100ff5780638330d0d8146105ef57806391240f441461061f5780639eb88db61461064f578063a437a6771461066b578063a4ba668d1461069f5761023c565b8063617d82451461053757806363262a58146105675780636821f16a1461059957806369b28c50146105b7578063802ee04d146105d35761023c565b80633f7f5e2a116101c95780634a9fefc71161018d5780634a9fefc71461046d5780634d85c1591461049d57806354cda908146104b957806359a2f89c146104e95780635f3bf286146105195761023c565b80633f7f5e2a146103a557806345962bcd146103d5578063466ac552146103f157806346d8426b146104215780634a88ff481461043d5761023c565b80631a2517f9116102105780631a2517f9146102ef5780631dc9ac381461030b57806322de72d41461032757806327e235e3146103455780633586932b146103755761023c565b80629ef9851461024157806301787b411461025d578063029c66301461028e5780630c33c522146102be575b600080fd5b61025b60048036038101906102569190613547565b6108b5565b005b61027760048036038101906102729190613624565b6109cf565b604051610285929190613682565b60405180910390f35b6102a860048036038101906102a391906136ab565b610a30565b6040516102b59190613704565b60405180910390f35b6102d860048036038101906102d3919061371f565b610b8b565b6040516102e692919061374c565b60405180910390f35b610309600480360381019061030491906137ae565b610baf565b005b6103256004803603810190610320919061382d565b610dab565b005b61032f611113565b60405161033c919061393e565b60405180910390f35b61035f600480360381019061035a9190613960565b6111a8565b60405161036c919061398d565b60405180910390f35b61038f600480360381019061038a91906139a8565b6111c0565b60405161039c91906139d5565b60405180910390f35b6103bf60048036038101906103ba9190613624565b6111fd565b6040516103cc91906139ff565b60405180910390f35b6103ef60048036038101906103ea919061371f565b611240565b005b61040b60048036038101906104069190613a1a565b6112a1565b60405161041891906139ff565b60405180910390f35b61043b60048036038101906104369190613a6d565b6112f3565b005b610457600480360381019061045291906139a8565b611404565b60405161046491906139ff565b60405180910390f35b61048760048036038101906104829190613960565b611424565b6040516104949190613b9e565b60405180910390f35b6104b760048036038101906104b29190613bc0565b61156f565b005b6104d360048036038101906104ce9190613960565b611935565b6040516104e09190613cfa565b60405180910390f35b61050360048036038101906104fe91906139a8565b611a33565b60405161051091906139ff565b60405180910390f35b610521611a5d565b60405161052e9190613dda565b60405180910390f35b610551600480360381019061054c91906136ab565b611b18565b60405161055e9190613704565b60405180910390f35b610581600480360381019061057c9190613960565b611dd9565b60405161059093929190613e46565b60405180910390f35b6105a1611eab565b6040516105ae9190613fb7565b60405180910390f35b6105d160048036038101906105cc9190613547565b611f9a565b005b6105ed60048036038101906105e89190613bc0565b61207e565b005b6106096004803603810190610604919061371f565b6124d4565b6040516106169190614162565b60405180910390f35b61063960048036038101906106349190613960565b612764565b60405161064691906141e7565b60405180910390f35b61066960048036038101906106649190613547565b6128b9565b005b6106856004803603810190610680919061371f565b61299d565b604051610696959493929190614247565b60405180910390f35b6106b960048036038101906106b49190613624565b612c00565b6040516106c7929190613682565b60405180910390f35b6106ea60048036038101906106e59190613960565b612c61565b6040516106fa94939291906142a8565b60405180910390f35b61071d600480360381019061071891906139a8565b612d39565b60405161072a91906139d5565b60405180910390f35b61074d60048036038101906107489190613960565b612d6c565b60405161075a9190614344565b60405180910390f35b61077d6004803603810190610778919061371f565b612eb7565b60405161078a9190614366565b60405180910390f35b6107ad60048036038101906107a89190613624565b612ef8565b6040516107ba9190614381565b60405180910390f35b6107dd60048036038101906107d89190613960565b612fb1565b6040516107ec93929190613e46565b60405180910390f35b61080f600480360381019061080a9190613960565b613083565b60405161081c9190614481565b60405180910390f35b61083f600480360381019061083a91906144a3565b613181565b60405161084c91906144e3565b60405180910390f35b61086f600480360381019061086a91906144fe565b6131b0565b60405161087c919061398d565b60405180910390f35b61089f600480360381019061089a9190613624565b6131d5565b6040516108ac919061398d565b60405180910390f35b600060405180608001604052803373ffffffffffffffffffffffffffffffffffffffff168152602001838152602001836040516020016108f5919061457a565b6040516020818303038152906040528051906020012081526020016000815250905080600960003373ffffffffffffffffffffffffffffffffffffffff1673ffffffffffffffffffffffffffffffffffffffff16815260200190815260200160002060008201518160000160006101000a81548173ffffffffffffffffffffffffffffffffffffffff021916908373ffffffffffffffffffffffffffffffffffffffff16021790555060208201518160010190816109b3919061479d565b5060408201518160020155606082015181600301559050505050565b601260205281600052604060002081815481106109eb57600080fd5b9060005260206000209060020201600091509150508060000154908060010160009054906101000a900473ffffffffffffffffffffffffffffffffffffffff16905082565b60008060405180604001604052808581526020013373ffffffffffffffffffffffffffffffffffffffff168152509050601160008473ffffffffffffffffffffffffffffffffffffffff1673ffffffffffffffffffffffffffffffffffffffff1681526020019081526020016000208190806001815401808255809150506001900390600052602060002090600202016000909190919091506000820151816000015560208201518160010160006101000a81548173ffffffffffffffffffffffffffffffffffffffff021916908373ffffffffffffffffffffffffffffffffffffffff16021790555050507f4c0bc119f406ebd414035b070d41a6499102f0d6525b74480a49edf320a508ba338486604051610b4f9392919061486f565b60405180910390a1833384604051602001610b6c9392919061490f565b6040516020818303038152906040528051906020012091505092915050565b600b6020528060005260406000206000915090508060000154908060010154905082565b60008360ff1610158015610bc7575060648360ff1611155b610c06576040517f08c379a0000000000000000000000000000000000000000000000000000000008152600401610bfd906149be565b60405180910390fd5b60008260ff1610158015610c1e575060648260ff1611155b610c5d576040517f08c379a0000000000000000000000000000000000000000000000000000000008152600401610c5490614a50565b60405180910390fd5b60008160ff1610158015610c75575060648160ff1611155b610cb4576040517f08c379a0000000000000000000000000000000000000000000000000000000008152600401610cab90614ae2565b60405180910390fd5b600460003373ffffffffffffffffffffffffffffffffffffffff1673ffffffffffffffffffffffffffffffffffffffff16815260200190815260200160002060405180606001604052808560ff1660ff1681526020018460ff1660ff1681526020018360ff1660ff1681525090806001815401808255809150506001900390600052602060002001600090919091909150906003610d5392919061322a565b503373ffffffffffffffffffffffffffffffffffffffff167f1345f2810cf7ceff103ed7dad9fae0d668dd8fe713a56c7d0e015609bb5cd115848484604051610d9e93929190614b02565b60405180910390a2505050565b816001600085815260200190815260200160002060009054906101000a900473ffffffffffffffffffffffffffffffffffffffff1673ffffffffffffffffffffffffffffffffffffffff1663dd62ed3e33306040518363ffffffff1660e01b8152600401610e1a929190614b39565b602060405180830381865afa158015610e37573d6000803e3d6000fd5b505050506040513d601f19601f82011682018060405250810190610e5b9190614b77565b1015610e9c576040517f08c379a0000000000000000000000000000000000000000000000000000000008152600401610e9390614c16565b60405180910390fd5b8060ff16600460003373ffffffffffffffffffffffffffffffffffffffff1673ffffffffffffffffffffffffffffffffffffffff1681526020019081526020016000208054905011610f23576040517f08c379a0000000000000000000000000000000000000000000000000000000008152600401610f1a90614ca8565b60405180910390fd5b81600360003373ffffffffffffffffffffffffffffffffffffffff1673ffffffffffffffffffffffffffffffffffffffff16815260200190815260200160002060008581526020019081526020016000206000828254610f839190614cf7565b925050819055506001600084815260200190815260200160002060009054906101000a900473ffffffffffffffffffffffffffffffffffffffff1673ffffffffffffffffffffffffffffffffffffffff166323b872dd3330856040518463ffffffff1660e01b8152600401610ffa9392919061486f565b6020604051808303816000875af1158015611019573d6000803e3d6000fd5b505050506040513d601f19601f8201168201806040525081019061103d9190614d57565b50600560003373ffffffffffffffffffffffffffffffffffffffff1673ffffffffffffffffffffffffffffffffffffffff1681526020019081526020016000208190806001815401808255809150506001900390600052602060002090602091828204019190069091909190916101000a81548160ff021916908360ff1602179055503373ffffffffffffffffffffffffffffffffffffffff167ffe49ff9074b43d72959bdaa84c28024687dc010a90ff7329c5c033aa02227e5e83604051611106919061398d565b60405180910390a2505050565b6060600c60003373ffffffffffffffffffffffffffffffffffffffff1673ffffffffffffffffffffffffffffffffffffffff16815260200190815260200160002080548060200260200160405190810160405280929190818152602001828054801561119e57602002820191906000526020600020905b81548152602001906001019080831161118a575b5050505050905090565b60066020528060005260406000206000915090505481565b60006001600083815260200190815260200160002060009054906101000a900473ffffffffffffffffffffffffffffffffffffffff169050919050565b6005602052816000526040600020818154811061121957600080fd5b9060005260206000209060209182820401919006915091509054906101000a900460ff1681565b600061124c600e613206565b90506000604051806040016040528083815260200184815250905080600b6000848152602001908152602001600020600082015181600001556020820151816001015590505061129c600e613214565b505050565b600460205282600052604060002082815481106112bd57600080fd5b9060005260206000200181600381106112d557600080fd5b6020918282040191900692509250509054906101000a900460ff1681565b60008054906101000a900473ffffffffffffffffffffffffffffffffffffffff1673ffffffffffffffffffffffffffffffffffffffff163373ffffffffffffffffffffffffffffffffffffffff1614611381576040517f08c379a000000000000000000000000000000000000000000000000000000000815260040161137890614dd0565b60405180910390fd5b806002600085815260200190815260200160002060006101000a81548160ff021916908360ff160217905550816001600085815260200190815260200160002060006101000a81548173ffffffffffffffffffffffffffffffffffffffff021916908373ffffffffffffffffffffffffffffffffffffffff160217905550505050565b60026020528060005260406000206000915054906101000a900460ff1681565b61142c6132c4565b600a60008373ffffffffffffffffffffffffffffffffffffffff1673ffffffffffffffffffffffffffffffffffffffff1681526020019081526020016000206040518060600160405290816000820160009054906101000a900473ffffffffffffffffffffffffffffffffffffffff1673ffffffffffffffffffffffffffffffffffffffff1673ffffffffffffffffffffffffffffffffffffffff1681526020016001820180546114dc906145c0565b80601f0160208091040260200160405190810160405280929190818152602001828054611508906145c0565b80156115555780601f1061152a57610100808354040283529160200191611555565b820191906000526020600020905b81548152906001019060200180831161153857829003601f168201915b505050505081526020016002820154815250509050919050565b6115776132fb565b6000600a60003373ffffffffffffffffffffffffffffffffffffffff1673ffffffffffffffffffffffffffffffffffffffff1681526020019081526020016000206040518060600160405290816000820160009054906101000a900473ffffffffffffffffffffffffffffffffffffffff1673ffffffffffffffffffffffffffffffffffffffff1673ffffffffffffffffffffffffffffffffffffffff168152602001600182018054611629906145c0565b80601f0160208091040260200160405190810160405280929190818152602001828054611655906145c0565b80156116a25780601f10611677576101008083540402835291602001916116a2565b820191906000526020600020905b81548152906001019060200180831161168557829003601f168201915b5050505050815260200160028201548152505090506000600b600086815260200190815260200160002060405180604001604052908160008201548152602001600182015481525050905083836020018190525083604051602001611707919061457a565b6040516020818303038152906040528051906020012083604001818152505060006040518060a0016040528061173d600f613206565b8152602001600015158152602001848152602001858152602001838152509050600c60003373ffffffffffffffffffffffffffffffffffffffff1673ffffffffffffffffffffffffffffffffffffffff1681526020019081526020016000206117a6600f613206565b908060018154018082558091505060019003906000526020600020016000909190919091505580600d60006117db600f613206565b81526020019081526020016000206000820151816000015560208201518160010160006101000a81548160ff02191690831515021790555060408201518160020160008201518160000160006101000a81548173ffffffffffffffffffffffffffffffffffffffff021916908373ffffffffffffffffffffffffffffffffffffffff1602179055506020820151816001019081611878919061479d565b5060408201518160020155505060608201518160050160008201518160000160006101000a81548173ffffffffffffffffffffffffffffffffffffffff021916908373ffffffffffffffffffffffffffffffffffffffff16021790555060208201518160010190816118ea919061479d565b50604082015181600201556060820151816003015550506080820151816009016000820151816000015560208201518160010155505090505061192d600f613214565b505050505050565b6060601260008373ffffffffffffffffffffffffffffffffffffffff1673ffffffffffffffffffffffffffffffffffffffff168152602001908152602001600020805480602002602001604051908101604052809291908181526020016000905b82821015611a285783829060005260206000209060020201604051806040016040529081600082015481526020016001820160009054906101000a900473ffffffffffffffffffffffffffffffffffffffff1673ffffffffffffffffffffffffffffffffffffffff1673ffffffffffffffffffffffffffffffffffffffff168152505081526020019060010190611996565b505050509050919050565b60006002600083815260200190815260200160002060009054906101000a900460ff169050919050565b6060600560003373ffffffffffffffffffffffffffffffffffffffff1673ffffffffffffffffffffffffffffffffffffffff168152602001908152602001600020805480602002602001604051908101604052809291908181526020018280548015611b0e57602002820191906000526020600020906000905b82829054906101000a900460ff1660ff1681526020019060010190602082600001049283019260010382029150808411611ad75790505b5050505050905090565b6000601360003373ffffffffffffffffffffffffffffffffffffffff1673ffffffffffffffffffffffffffffffffffffffff16815260200190815260200160002060008373ffffffffffffffffffffffffffffffffffffffff1673ffffffffffffffffffffffffffffffffffffffff16815260200190815260200160002060009054906101000a900460ff1615611be4576040517f08c379a0000000000000000000000000000000000000000000000000000000008152600401611bdb90614e62565b60405180910390fd5b6000601260008473ffffffffffffffffffffffffffffffffffffffff1673ffffffffffffffffffffffffffffffffffffffff1681526020019081526020016000209050600060405180604001604052808681526020013373ffffffffffffffffffffffffffffffffffffffff168152509050818190806001815401808255809150506001900390600052602060002090600202016000909190919091506000820151816000015560208201518160010160006101000a81548173ffffffffffffffffffffffffffffffffffffffff021916908373ffffffffffffffffffffffffffffffffffffffff16021790555050506001601360003373ffffffffffffffffffffffffffffffffffffffff1673ffffffffffffffffffffffffffffffffffffffff16815260200190815260200160002060008673ffffffffffffffffffffffffffffffffffffffff1673ffffffffffffffffffffffffffffffffffffffff16815260200190815260200160002060006101000a81548160ff0219169083151502179055507fc999a2e7bbd626b01f09fe9f4e9f7e4a8fbbb630a4cd8ab240123f6f3275207c338587604051611d9c9392919061486f565b60405180910390a1843385604051602001611db99392919061490f565b604051602081830303815290604052805190602001209250505092915050565b600a6020528060005260406000206000915090508060000160009054906101000a900473ffffffffffffffffffffffffffffffffffffffff1690806001018054611e22906145c0565b80601f0160208091040260200160405190810160405280929190818152602001828054611e4e906145c0565b8015611e9b5780601f10611e7057610100808354040283529160200191611e9b565b820191906000526020600020905b815481529060010190602001808311611e7e57829003601f168201915b5050505050908060020154905083565b6060600460003373ffffffffffffffffffffffffffffffffffffffff1673ffffffffffffffffffffffffffffffffffffffff168152602001908152602001600020805480602002602001604051908101604052809291908181526020016000905b82821015611f9157838290600052602060002001600380602002604051908101604052809291908260038015611f7d576020028201916000905b82829054906101000a900460ff1660ff1681526020019060010190602082600001049283019260010382029150808411611f465790505b505050505081526020019060010190611f0c565b50505050905090565b600060405180606001604052803373ffffffffffffffffffffffffffffffffffffffff1681526020018381526020016000815250905080600a60003373ffffffffffffffffffffffffffffffffffffffff1673ffffffffffffffffffffffffffffffffffffffff16815260200190815260200160002060008201518160000160006101000a81548173ffffffffffffffffffffffffffffffffffffffff021916908373ffffffffffffffffffffffffffffffffffffffff160217905550602082015181600101908161206c919061479d565b50604082015181600201559050505050565b600081604051602001612091919061457a565b6040516020818303038152906040528051906020012090506000600d60008581526020019081526020016000206040518060a0016040529081600082015481526020016001820160009054906101000a900460ff16151515158152602001600282016040518060600160405290816000820160009054906101000a900473ffffffffffffffffffffffffffffffffffffffff1673ffffffffffffffffffffffffffffffffffffffff1673ffffffffffffffffffffffffffffffffffffffff168152602001600182018054612164906145c0565b80601f0160208091040260200160405190810160405280929190818152602001828054612190906145c0565b80156121dd5780601f106121b2576101008083540402835291602001916121dd565b820191906000526020600020905b8154815290600101906020018083116121c057829003601f168201915b505050505081526020016002820154815250508152602001600582016040518060800160405290816000820160009054906101000a900473ffffffffffffffffffffffffffffffffffffffff1673ffffffffffffffffffffffffffffffffffffffff1673ffffffffffffffffffffffffffffffffffffffff16815260200160018201805461226a906145c0565b80601f0160208091040260200160405190810160405280929190818152602001828054612296906145c0565b80156122e35780601f106122b8576101008083540402835291602001916122e3565b820191906000526020600020905b8154815290600101906020018083116122c657829003601f168201915b505050505081526020016002820154815260200160038201548152505081526020016009820160405180604001604052908160008201548152602001600182015481525050815250509050818160600151604001511461236f576040517feb7eb8e000000000000000000000000000000000000000000000000000000000815260040160405180910390fd5b600181602001901515908115158152505080600d60008681526020019081526020016000206000820151816000015560208201518160010160006101000a81548160ff02191690831515021790555060408201518160020160008201518160000160006101000a81548173ffffffffffffffffffffffffffffffffffffffff021916908373ffffffffffffffffffffffffffffffffffffffff1602179055506020820151816001019081612423919061479d565b5060408201518160020155505060608201518160050160008201518160000160006101000a81548173ffffffffffffffffffffffffffffffffffffffff021916908373ffffffffffffffffffffffffffffffffffffffff1602179055506020820151816001019081612495919061479d565b50604082015181600201556060820151816003015550506080820151816009016000820151816000015560208201518160010155505090505050505050565b6124dc61333c565b600d60008381526020019081526020016000206040518060a0016040529081600082015481526020016001820160009054906101000a900460ff16151515158152602001600282016040518060600160405290816000820160009054906101000a900473ffffffffffffffffffffffffffffffffffffffff1673ffffffffffffffffffffffffffffffffffffffff1673ffffffffffffffffffffffffffffffffffffffff168152602001600182018054612595906145c0565b80601f01602080910402602001604051908101604052809291908181526020018280546125c1906145c0565b801561260e5780601f106125e35761010080835404028352916020019161260e565b820191906000526020600020905b8154815290600101906020018083116125f157829003601f168201915b505050505081526020016002820154815250508152602001600582016040518060800160405290816000820160009054906101000a900473ffffffffffffffffffffffffffffffffffffffff1673ffffffffffffffffffffffffffffffffffffffff1673ffffffffffffffffffffffffffffffffffffffff16815260200160018201805461269b906145c0565b80601f01602080910402602001604051908101604052809291908181526020018280546126c7906145c0565b80156127145780601f106126e957610100808354040283529160200191612714565b820191906000526020600020905b8154815290600101906020018083116126f757829003601f168201915b505050505081526020016002820154815260200160038201548152505081526020016009820160405180604001604052908160008201548152602001600182015481525050815250509050919050565b61276c6132fb565b600960008373ffffffffffffffffffffffffffffffffffffffff1673ffffffffffffffffffffffffffffffffffffffff1681526020019081526020016000206040518060800160405290816000820160009054906101000a900473ffffffffffffffffffffffffffffffffffffffff1673ffffffffffffffffffffffffffffffffffffffff1673ffffffffffffffffffffffffffffffffffffffff16815260200160018201805461281c906145c0565b80601f0160208091040260200160405190810160405280929190818152602001828054612848906145c0565b80156128955780601f1061286a57610100808354040283529160200191612895565b820191906000526020600020905b81548152906001019060200180831161287857829003601f168201915b50505050508152602001600282015481526020016003820154815250509050919050565b600060405180606001604052803373ffffffffffffffffffffffffffffffffffffffff1681526020018381526020016000815250905080600860003373ffffffffffffffffffffffffffffffffffffffff1673ffffffffffffffffffffffffffffffffffffffff16815260200190815260200160002060008201518160000160006101000a81548173ffffffffffffffffffffffffffffffffffffffff021916908373ffffffffffffffffffffffffffffffffffffffff160217905550602082015181600101908161298b919061479d565b50604082015181600201559050505050565b600d6020528060005260406000206000915090508060000154908060010160009054906101000a900460ff1690806002016040518060600160405290816000820160009054906101000a900473ffffffffffffffffffffffffffffffffffffffff1673ffffffffffffffffffffffffffffffffffffffff1673ffffffffffffffffffffffffffffffffffffffff168152602001600182018054612a3f906145c0565b80601f0160208091040260200160405190810160405280929190818152602001828054612a6b906145c0565b8015612ab85780601f10612a8d57610100808354040283529160200191612ab8565b820191906000526020600020905b815481529060010190602001808311612a9b57829003601f168201915b5050505050815260200160028201548152505090806005016040518060800160405290816000820160009054906101000a900473ffffffffffffffffffffffffffffffffffffffff1673ffffffffffffffffffffffffffffffffffffffff1673ffffffffffffffffffffffffffffffffffffffff168152602001600182018054612b41906145c0565b80601f0160208091040260200160405190810160405280929190818152602001828054612b6d906145c0565b8015612bba5780601f10612b8f57610100808354040283529160200191612bba565b820191906000526020600020905b815481529060010190602001808311612b9d57829003601f168201915b5050505050815260200160028201548152602001600382015481525050908060090160405180604001604052908160008201548152602001600182015481525050905085565b60116020528160005260406000208181548110612c1c57600080fd5b9060005260206000209060020201600091509150508060000154908060010160009054906101000a900473ffffffffffffffffffffffffffffffffffffffff16905082565b60096020528060005260406000206000915090508060000160009054906101000a900473ffffffffffffffffffffffffffffffffffffffff1690806001018054612caa906145c0565b80601f0160208091040260200160405190810160405280929190818152602001828054612cd6906145c0565b8015612d235780601f10612cf857610100808354040283529160200191612d23565b820191906000526020600020905b815481529060010190602001808311612d0657829003601f168201915b5050505050908060020154908060030154905084565b60016020528060005260406000206000915054906101000a900473ffffffffffffffffffffffffffffffffffffffff1681565b612d7461337f565b600860008373ffffffffffffffffffffffffffffffffffffffff1673ffffffffffffffffffffffffffffffffffffffff1681526020019081526020016000206040518060600160405290816000820160009054906101000a900473ffffffffffffffffffffffffffffffffffffffff1673ffffffffffffffffffffffffffffffffffffffff1673ffffffffffffffffffffffffffffffffffffffff168152602001600182018054612e24906145c0565b80601f0160208091040260200160405190810160405280929190818152602001828054612e50906145c0565b8015612e9d5780601f10612e7257610100808354040283529160200191612e9d565b820191906000526020600020905b815481529060010190602001808311612e8057829003601f168201915b505050505081526020016002820154815250509050919050565b612ebf6133b6565b600b6000838152602001908152602001600020604051806040016040529081600082015481526020016001820154815250509050919050565b60076020528160005260406000208181548110612f1457600080fd5b90600052602060002001600091509150508054612f30906145c0565b80601f0160208091040260200160405190810160405280929190818152602001828054612f5c906145c0565b8015612fa95780601f10612f7e57610100808354040283529160200191612fa9565b820191906000526020600020905b815481529060010190602001808311612f8c57829003601f168201915b505050505081565b60086020528060005260406000206000915090508060000160009054906101000a900473ffffffffffffffffffffffffffffffffffffffff1690806001018054612ffa906145c0565b80601f0160208091040260200160405190810160405280929190818152602001828054613026906145c0565b80156130735780601f1061304857610100808354040283529160200191613073565b820191906000526020600020905b81548152906001019060200180831161305657829003601f168201915b5050505050908060020154905083565b6060601160008373ffffffffffffffffffffffffffffffffffffffff1673ffffffffffffffffffffffffffffffffffffffff168152602001908152602001600020805480602002602001604051908101604052809291908181526020016000905b828210156131765783829060005260206000209060020201604051806040016040529081600082015481526020016001820160009054906101000a900473ffffffffffffffffffffffffffffffffffffffff1673ffffffffffffffffffffffffffffffffffffffff1673ffffffffffffffffffffffffffffffffffffffff1681525050815260200190600101906130e4565b505050509050919050565b60136020528160005260406000206020528060005260406000206000915091509054906101000a900460ff1681565b6003602052816000526040600020602052806000526040600020600091509150505481565b600c60205281600052604060002081815481106131f157600080fd5b90600052602060002001600091509150505481565b600081600001549050919050565b6001816000016000828254019250508190555050565b826003601f016020900481019282156132b35791602002820160005b8382111561328457835183826101000a81548160ff021916908360ff1602179055509260200192600101602081600001049283019260010302613246565b80156132b15782816101000a81549060ff0219169055600101602081600001049283019260010302613284565b505b5090506132c091906133d0565b5090565b6040518060600160405280600073ffffffffffffffffffffffffffffffffffffffff16815260200160608152602001600081525090565b6040518060800160405280600073ffffffffffffffffffffffffffffffffffffffff1681526020016060815260200160008019168152602001600081525090565b6040518060a001604052806000815260200160001515815260200161335f6132c4565b815260200161336c6132fb565b81526020016133796133b6565b81525090565b6040518060600160405280600073ffffffffffffffffffffffffffffffffffffffff16815260200160608152602001600081525090565b604051806040016040528060008152602001600081525090565b5b808211156133e95760008160009055506001016133d1565b5090565b6000604051905090565b600080fd5b600080fd5b600080fd5b600080fd5b6000601f19601f8301169050919050565b7f4e487b7100000000000000000000000000000000000000000000000000000000600052604160045260246000fd5b6134548261340b565b810181811067ffffffffffffffff821117156134735761347261341c565b5b80604052505050565b60006134866133ed565b9050613492828261344b565b919050565b600067ffffffffffffffff8211156134b2576134b161341c565b5b6134bb8261340b565b9050602081019050919050565b82818337600083830152505050565b60006134ea6134e584613497565b61347c565b90508281526020810184848401111561350657613505613406565b5b6135118482856134c8565b509392505050565b600082601f83011261352e5761352d613401565b5b813561353e8482602086016134d7565b91505092915050565b60006020828403121561355d5761355c6133f7565b5b600082013567ffffffffffffffff81111561357b5761357a6133fc565b5b61358784828501613519565b91505092915050565b600073ffffffffffffffffffffffffffffffffffffffff82169050919050565b60006135bb82613590565b9050919050565b6135cb816135b0565b81146135d657600080fd5b50565b6000813590506135e8816135c2565b92915050565b6000819050919050565b613601816135ee565b811461360c57600080fd5b50565b60008135905061361e816135f8565b92915050565b6000806040838503121561363b5761363a6133f7565b5b6000613649858286016135d9565b925050602061365a8582860161360f565b9150509250929050565b61366d816135ee565b82525050565b61367c816135b0565b82525050565b60006040820190506136976000830185613664565b6136a46020830184613673565b9392505050565b600080604083850312156136c2576136c16133f7565b5b60006136d08582860161360f565b92505060206136e1858286016135d9565b9150509250929050565b6000819050919050565b6136fe816136eb565b82525050565b600060208201905061371960008301846136f5565b92915050565b600060208284031215613735576137346133f7565b5b60006137438482850161360f565b91505092915050565b60006040820190506137616000830185613664565b61376e6020830184613664565b9392505050565b600060ff82169050919050565b61378b81613775565b811461379657600080fd5b50565b6000813590506137a881613782565b92915050565b6000806000606084860312156137c7576137c66133f7565b5b60006137d586828701613799565b93505060206137e686828701613799565b92505060406137f786828701613799565b9150509250925092565b61380a816136eb565b811461381557600080fd5b50565b60008135905061382781613801565b92915050565b600080600060608486031215613846576138456133f7565b5b600061385486828701613818565b93505060206138658682870161360f565b925050604061387686828701613799565b9150509250925092565b600081519050919050565b600082825260208201905092915050565b6000819050602082019050919050565b6138b5816135ee565b82525050565b60006138c783836138ac565b60208301905092915050565b6000602082019050919050565b60006138eb82613880565b6138f5818561388b565b93506139008361389c565b8060005b8381101561393157815161391888826138bb565b9750613923836138d3565b925050600181019050613904565b5085935050505092915050565b6000602082019050818103600083015261395881846138e0565b905092915050565b600060208284031215613976576139756133f7565b5b6000613984848285016135d9565b91505092915050565b60006020820190506139a26000830184613664565b92915050565b6000602082840312156139be576139bd6133f7565b5b60006139cc84828501613818565b91505092915050565b60006020820190506139ea6000830184613673565b92915050565b6139f981613775565b82525050565b6000602082019050613a1460008301846139f0565b92915050565b600080600060608486031215613a3357613a326133f7565b5b6000613a41868287016135d9565b9350506020613a528682870161360f565b9250506040613a638682870161360f565b9150509250925092565b600080600060608486031215613a8657613a856133f7565b5b6000613a9486828701613818565b9350506020613aa5868287016135d9565b9250506040613ab686828701613799565b9150509250925092565b613ac9816135b0565b82525050565b600081519050919050565b600082825260208201905092915050565b60005b83811015613b09578082015181840152602081019050613aee565b60008484015250505050565b6000613b2082613acf565b613b2a8185613ada565b9350613b3a818560208601613aeb565b613b438161340b565b840191505092915050565b6000606083016000830151613b666000860182613ac0565b5060208301518482036020860152613b7e8282613b15565b9150506040830151613b9360408601826138ac565b508091505092915050565b60006020820190508181036000830152613bb88184613b4e565b905092915050565b60008060408385031215613bd757613bd66133f7565b5b6000613be58582860161360f565b925050602083013567ffffffffffffffff811115613c0657613c056133fc565b5b613c1285828601613519565b9150509250929050565b600081519050919050565b600082825260208201905092915050565b6000819050602082019050919050565b604082016000820151613c5e60008501826138ac565b506020820151613c716020850182613ac0565b50505050565b6000613c838383613c48565b60408301905092915050565b6000602082019050919050565b6000613ca782613c1c565b613cb18185613c27565b9350613cbc83613c38565b8060005b83811015613ced578151613cd48882613c77565b9750613cdf83613c8f565b925050600181019050613cc0565b5085935050505092915050565b60006020820190508181036000830152613d148184613c9c565b905092915050565b600081519050919050565b600082825260208201905092915050565b6000819050602082019050919050565b613d5181613775565b82525050565b6000613d638383613d48565b60208301905092915050565b6000602082019050919050565b6000613d8782613d1c565b613d918185613d27565b9350613d9c83613d38565b8060005b83811015613dcd578151613db48882613d57565b9750613dbf83613d6f565b925050600181019050613da0565b5085935050505092915050565b60006020820190508181036000830152613df48184613d7c565b905092915050565b600082825260208201905092915050565b6000613e1882613acf565b613e228185613dfc565b9350613e32818560208601613aeb565b613e3b8161340b565b840191505092915050565b6000606082019050613e5b6000830186613673565b8181036020830152613e6d8185613e0d565b9050613e7c6040830184613664565b949350505050565b600081519050919050565b600082825260208201905092915050565b6000819050602082019050919050565b600060039050919050565b600081905092915050565b6000819050919050565b6000602082019050919050565b613ee681613eb0565b613ef08184613ebb565b9250613efb82613ec6565b8060005b83811015613f2c578151613f138782613d57565b9650613f1e83613ed0565b925050600181019050613eff565b505050505050565b6000613f408383613edd565b60608301905092915050565b6000602082019050919050565b6000613f6482613e84565b613f6e8185613e8f565b9350613f7983613ea0565b8060005b83811015613faa578151613f918882613f34565b9750613f9c83613f4c565b925050600181019050613f7d565b5085935050505092915050565b60006020820190508181036000830152613fd18184613f59565b905092915050565b60008115159050919050565b613fee81613fd9565b82525050565b600060608301600083015161400c6000860182613ac0565b50602083015184820360208601526140248282613b15565b915050604083015161403960408601826138ac565b508091505092915050565b61404d816136eb565b82525050565b600060808301600083015161406b6000860182613ac0565b50602083015184820360208601526140838282613b15565b91505060408301516140986040860182614044565b5060608301516140ab60608601826138ac565b508091505092915050565b6040820160008201516140cc60008501826138ac565b5060208201516140df60208501826138ac565b50505050565b600060c0830160008301516140fd60008601826138ac565b5060208301516141106020860182613fe5565b50604083015184820360408601526141288282613ff4565b915050606083015184820360608601526141428282614053565b915050608083015161415760808601826140b6565b508091505092915050565b6000602082019050818103600083015261417c81846140e5565b905092915050565b600060808301600083015161419c6000860182613ac0565b50602083015184820360208601526141b48282613b15565b91505060408301516141c96040860182614044565b5060608301516141dc60608601826138ac565b508091505092915050565b600060208201905081810360008301526142018184614184565b905092915050565b61421281613fd9565b82525050565b60408201600082015161422e60008501826138ac565b50602082015161424160208501826138ac565b50505050565b600060c08201905061425c6000830188613664565b6142696020830187614209565b818103604083015261427b8186613b4e565b9050818103606083015261428f8185614184565b905061429e6080830184614218565b9695505050505050565b60006080820190506142bd6000830187613673565b81810360208301526142cf8186613e0d565b90506142de60408301856136f5565b6142eb6060830184613664565b95945050505050565b600060608301600083015161430c6000860182613ac0565b50602083015184820360208601526143248282613b15565b915050604083015161433960408601826138ac565b508091505092915050565b6000602082019050818103600083015261435e81846142f4565b905092915050565b600060408201905061437b6000830184614218565b92915050565b6000602082019050818103600083015261439b8184613e0d565b905092915050565b600081519050919050565b600082825260208201905092915050565b6000819050602082019050919050565b6040820160008201516143e560008501826138ac565b5060208201516143f86020850182613ac0565b50505050565b600061440a83836143cf565b60408301905092915050565b6000602082019050919050565b600061442e826143a3565b61443881856143ae565b9350614443836143bf565b8060005b8381101561447457815161445b88826143fe565b975061446683614416565b925050600181019050614447565b5085935050505092915050565b6000602082019050818103600083015261449b8184614423565b905092915050565b600080604083850312156144ba576144b96133f7565b5b60006144c8858286016135d9565b92505060206144d9858286016135d9565b9150509250929050565b60006020820190506144f86000830184614209565b92915050565b60008060408385031215614515576145146133f7565b5b6000614523858286016135d9565b925050602061453485828601613818565b9150509250929050565b600081905092915050565b600061455482613acf565b61455e818561453e565b935061456e818560208601613aeb565b80840191505092915050565b60006145868284614549565b915081905092915050565b7f4e487b7100000000000000000000000000000000000000000000000000000000600052602260045260246000fd5b600060028204905060018216806145d857607f821691505b6020821081036145eb576145ea614591565b5b50919050565b60008190508160005260206000209050919050565b60006020601f8301049050919050565b600082821b905092915050565b6000600883026146537fffffffffffffffffffffffffffffffffffffffffffffffffffffffffffffffff82614616565b61465d8683614616565b95508019841693508086168417925050509392505050565b6000819050919050565b600061469a614695614690846135ee565b614675565b6135ee565b9050919050565b6000819050919050565b6146b48361467f565b6146c86146c0826146a1565b848454614623565b825550505050565b600090565b6146dd6146d0565b6146e88184846146ab565b505050565b5b8181101561470c576147016000826146d5565b6001810190506146ee565b5050565b601f82111561475157614722816145f1565b61472b84614606565b8101602085101561473a578190505b61474e61474685614606565b8301826146ed565b50505b505050565b600082821c905092915050565b600061477460001984600802614756565b1980831691505092915050565b600061478d8383614763565b9150826002028217905092915050565b6147a682613acf565b67ffffffffffffffff8111156147bf576147be61341c565b5b6147c982546145c0565b6147d4828285614710565b600060209050601f83116001811461480757600084156147f5578287015190505b6147ff8582614781565b865550614867565b601f198416614815866145f1565b60005b8281101561483d57848901518255600182019150602085019450602081019050614818565b8683101561485a5784890151614856601f891682614763565b8355505b6001600288020188555050505b505050505050565b60006060820190506148846000830186613673565b6148916020830185613673565b61489e6040830184613664565b949350505050565b6000819050919050565b6148c16148bc826135ee565b6148a6565b82525050565b60008160601b9050919050565b60006148df826148c7565b9050919050565b60006148f1826148d4565b9050919050565b614909614904826135b0565b6148e6565b82525050565b600061491b82866148b0565b60208201915061492b82856148f8565b60148201915061493b82846148f8565b601482019150819050949350505050565b7f4d6f6e746820312070657263656e74616765206265747765656e203020616e6460008201527f2031303021000000000000000000000000000000000000000000000000000000602082015250565b60006149a8602583613dfc565b91506149b38261494c565b604082019050919050565b600060208201905081810360008301526149d78161499b565b9050919050565b7f4d6f6e746820322070657263656e74616765206265747765656e203020616e6460008201527f2031303021000000000000000000000000000000000000000000000000000000602082015250565b6000614a3a602583613dfc565b9150614a45826149de565b604082019050919050565b60006020820190508181036000830152614a6981614a2d565b9050919050565b7f4d6f6e746820332070657263656e74616765206265747765656e203020616e6460008201527f2031303021000000000000000000000000000000000000000000000000000000602082015250565b6000614acc602583613dfc565b9150614ad782614a70565b604082019050919050565b60006020820190508181036000830152614afb81614abf565b9050919050565b6000606082019050614b1760008301866139f0565b614b2460208301856139f0565b614b3160408301846139f0565b949350505050565b6000604082019050614b4e6000830185613673565b614b5b6020830184613673565b9392505050565b600081519050614b71816135f8565b92915050565b600060208284031215614b8d57614b8c6133f7565b5b6000614b9b84828501614b62565b91505092915050565b7f416c6c6f77616e636520646f657320726561636820616d6f756e7420746f206260008201527f6520747265616e73666572726564210000000000000000000000000000000000602082015250565b6000614c00602f83613dfc565b9150614c0b82614ba4565b604082019050919050565b60006020820190508181036000830152614c2f81614bf3565b9050919050565b7f496e697469616c206465706f73697420696e64657820646f6573206e6f74206d60008201527f6174636821000000000000000000000000000000000000000000000000000000602082015250565b6000614c92602583613dfc565b9150614c9d82614c36565b604082019050919050565b60006020820190508181036000830152614cc181614c85565b9050919050565b7f4e487b7100000000000000000000000000000000000000000000000000000000600052601160045260246000fd5b6000614d02826135ee565b9150614d0d836135ee565b9250828201905080821115614d2557614d24614cc8565b5b92915050565b614d3481613fd9565b8114614d3f57600080fd5b50565b600081519050614d5181614d2b565b92915050565b600060208284031215614d6d57614d6c6133f7565b5b6000614d7b84828501614d42565b91505092915050565b7f546869732066756e6374696f6e206973206e6f74207075626c69630000000000600082015250565b6000614dba601b83613dfc565b9150614dc582614d84565b602082019050919050565b60006020820190508181036000830152614de981614dad565b9050919050565b7f596f75206861766520616c72656164792073636f726564207468697320636f6d60008201527f70616e7900000000000000000000000000000000000000000000000000000000602082015250565b6000614e4c602483613dfc565b9150614e5782614df0565b604082019050919050565b60006020820190508181036000830152614e7b81614e3f565b905091905056fea26469706673582212204850745b7afcfc2da8d178b7cb9f239047e0df285ff745a5d860a2004d51703864736f6c63430008110033",
  "linkReferences": {},
  "deployedLinkReferences": {}
}