{
  "_format": "hh-sol-artifact-1",
  "contractName": "Recruitment",
  "sourceName": "contracts/Recruitment.sol",
  "abi": [
    {
      "inputs": [],
      "stateMutability": "nonpayable",
      "type": "constructor"
    },
    {
      "anonymous": false,
      "inputs": [
        {
          "indexed": true,
          "internalType": "address",
          "name": "sender",
          "type": "address"
        },
        {
          "indexed": false,
          "internalType": "uint256",
          "name": "amount",
          "type": "uint256"
        }
      ],
      "name": "DepositCompleted",
      "type": "event"
    },
    {
      "inputs": [
        {
          "internalType": "address",
          "name": "",
          "type": "address"
        },
        {
          "internalType": "bytes32",
          "name": "",
          "type": "bytes32"
        }
      ],
      "name": "accountBalances",
      "outputs": [
        {
          "internalType": "uint256",
          "name": "",
          "type": "uint256"
        }
      ],
      "stateMutability": "view",
      "type": "function"
    },
    {
      "inputs": [
        {
          "internalType": "address",
          "name": "",
          "type": "address"
        },
        {
          "internalType": "uint256",
          "name": "",
          "type": "uint256"
        }
      ],
      "name": "accountCompleteDeposits",
      "outputs": [
        {
          "internalType": "uint8",
          "name": "",
          "type": "uint8"
        }
      ],
      "stateMutability": "view",
      "type": "function"
    },
    {
      "inputs": [
        {
          "internalType": "address",
          "name": "",
          "type": "address"
        },
        {
          "internalType": "uint256",
          "name": "",
          "type": "uint256"
        },
        {
          "internalType": "uint256",
          "name": "",
          "type": "uint256"
        }
      ],
      "name": "accountMonthlyRefundPcts",
      "outputs": [
        {
          "internalType": "uint8",
          "name": "",
          "type": "uint8"
        }
      ],
      "stateMutability": "view",
      "type": "function"
    },
    {
      "inputs": [
        {
          "internalType": "address",
          "name": "",
          "type": "address"
        }
      ],
      "name": "balances",
      "outputs": [
        {
          "internalType": "uint256",
          "name": "",
          "type": "uint256"
        }
      ],
      "stateMutability": "view",
      "type": "function"
    },
    {
      "inputs": [],
      "name": "getAccountCompleteDeposits",
      "outputs": [
        {
          "internalType": "uint8[]",
          "name": "",
          "type": "uint8[]"
        }
      ],
      "stateMutability": "view",
      "type": "function"
    },
    {
      "inputs": [],
      "name": "getAccountMonthlyRefundPcts",
      "outputs": [
        {
          "internalType": "uint8[2][]",
          "name": "",
          "type": "uint8[2][]"
        }
      ],
      "stateMutability": "view",
      "type": "function"
    },
    {
      "inputs": [
        {
          "internalType": "bytes32",
          "name": "token",
          "type": "bytes32"
        }
      ],
      "name": "getWhitelistedTokenAddresses",
      "outputs": [
        {
          "internalType": "address",
          "name": "",
          "type": "address"
        }
      ],
      "stateMutability": "view",
      "type": "function"
    },
    {
      "inputs": [
        {
          "internalType": "bytes32",
          "name": "token",
          "type": "bytes32"
        }
      ],
      "name": "getWhitelistedTokenDecimals",
      "outputs": [
        {
          "internalType": "uint8",
          "name": "",
          "type": "uint8"
        }
      ],
      "stateMutability": "view",
      "type": "function"
    },
    {
      "inputs": [
        {
          "internalType": "bytes32",
          "name": "symbol",
          "type": "bytes32"
        },
        {
          "internalType": "uint256",
          "name": "amount",
          "type": "uint256"
        },
        {
          "internalType": "uint8",
          "name": "index",
          "type": "uint8"
        }
      ],
      "name": "setFinalDeposit",
      "outputs": [],
      "stateMutability": "nonpayable",
      "type": "function"
    },
    {
      "inputs": [
        {
          "internalType": "bytes32",
          "name": "symbol",
          "type": "bytes32"
        },
        {
          "internalType": "uint8",
          "name": "month1RefundPct",
          "type": "uint8"
        },
        {
          "internalType": "uint8",
          "name": "month2RefundPct",
          "type": "uint8"
        }
      ],
      "name": "setInitialDeposit",
      "outputs": [],
      "stateMutability": "nonpayable",
      "type": "function"
    },
    {
      "inputs": [
        {
          "internalType": "bytes32",
          "name": "symbol",
          "type": "bytes32"
        },
        {
          "internalType": "address",
          "name": "tokenAddress",
          "type": "address"
        },
        {
          "internalType": "uint8",
          "name": "decimals",
          "type": "uint8"
        }
      ],
      "name": "whitelistToken",
      "outputs": [],
      "stateMutability": "nonpayable",
      "type": "function"
    },
    {
      "inputs": [
        {
          "internalType": "bytes32",
          "name": "",
          "type": "bytes32"
        }
      ],
      "name": "whitelistedTokenDecimals",
      "outputs": [
        {
          "internalType": "uint8",
          "name": "",
          "type": "uint8"
        }
      ],
      "stateMutability": "view",
      "type": "function"
    },
    {
      "inputs": [
        {
          "internalType": "bytes32",
          "name": "",
          "type": "bytes32"
        }
      ],
      "name": "whitelistedTokens",
      "outputs": [
        {
          "internalType": "address",
          "name": "",
          "type": "address"
        }
      ],
      "stateMutability": "view",
      "type": "function"
    },
    {
      "inputs": [
        {
          "internalType": "bytes32",
          "name": "symbol",
          "type": "bytes32"
        },
        {
          "internalType": "uint256",
          "name": "amount",
          "type": "uint256"
        }
      ],
      "name": "withdrawTokens",
      "outputs": [],
      "stateMutability": "nonpayable",
      "type": "function"
    }
  ],
  "bytecode": "0x60806040526103e860075534801561001657600080fd5b50336000806101000a81548173ffffffffffffffffffffffffffffffffffffffff021916908373ffffffffffffffffffffffffffffffffffffffff160217905550611e0f806100666000396000f3fe608060405234801561001057600080fd5b50600436106100ea5760003560e01c80634a88ff481161008c5780636821f16a116100665780636821f16a14610281578063aa3d9a151461029f578063c9ad5f84146102cf578063e64fe366146102eb576100ea565b80634a88ff481461020357806359a2f89c146102335780635f3bf28614610263576100ea565b80633586932b116100c85780633586932b146101575780633f7f5e2a14610187578063466ac552146101b757806346d8426b146101e7576100ea565b80631dc9ac38146100ef57806320be3ace1461010b57806327e235e314610127575b600080fd5b610109600480360381019061010491906111f6565b61031b565b005b61012560048036038101906101209190611249565b610683565b005b610141600480360381019061013c91906112fa565b6109b5565b60405161014e9190611336565b60405180910390f35b610171600480360381019061016c9190611351565b6109cd565b60405161017e919061138d565b60405180910390f35b6101a1600480360381019061019c91906113a8565b610a0a565b6040516101ae91906113f7565b60405180910390f35b6101d160048036038101906101cc9190611412565b610a4d565b6040516101de91906113f7565b60405180910390f35b61020160048036038101906101fc9190611465565b610a9f565b005b61021d60048036038101906102189190611351565b610bb0565b60405161022a91906113f7565b60405180910390f35b61024d60048036038101906102489190611351565b610bd0565b60405161025a91906113f7565b60405180910390f35b61026b610bfa565b6040516102789190611576565b60405180910390f35b610289610cb5565b60405161029691906116cb565b60405180910390f35b6102b960048036038101906102b49190611351565b610da4565b6040516102c6919061138d565b60405180910390f35b6102e960048036038101906102e491906116ed565b610dd7565b005b6103056004803603810190610300919061172d565b611070565b6040516103129190611336565b60405180910390f35b816001600085815260200190815260200160002060009054906101000a900473ffffffffffffffffffffffffffffffffffffffff1673ffffffffffffffffffffffffffffffffffffffff1663dd62ed3e33306040518363ffffffff1660e01b815260040161038a92919061176d565b602060405180830381865afa1580156103a7573d6000803e3d6000fd5b505050506040513d601f19601f820116820180604052508101906103cb91906117ab565b101561040c576040517f08c379a00000000000000000000000000000000000000000000000000000000081526004016104039061185b565b60405180910390fd5b8060ff16600460003373ffffffffffffffffffffffffffffffffffffffff1673ffffffffffffffffffffffffffffffffffffffff1681526020019081526020016000208054905011610493576040517f08c379a000000000000000000000000000000000000000000000000000000000815260040161048a906118ed565b60405180910390fd5b81600360003373ffffffffffffffffffffffffffffffffffffffff1673ffffffffffffffffffffffffffffffffffffffff168152602001908152602001600020600085815260200190815260200160002060008282546104f3919061193c565b925050819055506001600084815260200190815260200160002060009054906101000a900473ffffffffffffffffffffffffffffffffffffffff1673ffffffffffffffffffffffffffffffffffffffff166323b872dd3330856040518463ffffffff1660e01b815260040161056a93929190611970565b6020604051808303816000875af1158015610589573d6000803e3d6000fd5b505050506040513d601f19601f820116820180604052508101906105ad91906119df565b50600560003373ffffffffffffffffffffffffffffffffffffffff1673ffffffffffffffffffffffffffffffffffffffff1681526020019081526020016000208190806001815401808255809150506001900390600052602060002090602091828204019190069091909190916101000a81548160ff021916908360ff1602179055503373ffffffffffffffffffffffffffffffffffffffff167ffe49ff9074b43d72959bdaa84c28024687dc010a90ff7329c5c033aa02227e5e836040516106769190611336565b60405180910390a2505050565b60006002600085815260200190815260200160002060009054906101000a900460ff16600a6106b29190611b3f565b6007546106bf9190611b8a565b9050806001600086815260200190815260200160002060009054906101000a900473ffffffffffffffffffffffffffffffffffffffff1673ffffffffffffffffffffffffffffffffffffffff1663dd62ed3e33306040518363ffffffff1660e01b815260040161073092919061176d565b602060405180830381865afa15801561074d573d6000803e3d6000fd5b505050506040513d601f19601f8201168201806040525081019061077191906117ab565b10156107b2576040517f08c379a00000000000000000000000000000000000000000000000000000000081526004016107a990611c18565b60405180910390fd5b80600360003373ffffffffffffffffffffffffffffffffffffffff1673ffffffffffffffffffffffffffffffffffffffff16815260200190815260200160002060008681526020019081526020016000206000828254610812919061193c565b925050819055506001600085815260200190815260200160002060009054906101000a900473ffffffffffffffffffffffffffffffffffffffff1673ffffffffffffffffffffffffffffffffffffffff166323b872dd3330846040518463ffffffff1660e01b815260040161088993929190611970565b6020604051808303816000875af11580156108a8573d6000803e3d6000fd5b505050506040513d601f19601f820116820180604052508101906108cc91906119df565b50600460003373ffffffffffffffffffffffffffffffffffffffff1673ffffffffffffffffffffffffffffffffffffffff16815260200190815260200160002060405180604001604052808560ff1660ff1681526020018460ff1660ff1681525090806001815401808255809150506001900390600052602060002001600090919091909150906002610960929190611095565b503373ffffffffffffffffffffffffffffffffffffffff167ffe49ff9074b43d72959bdaa84c28024687dc010a90ff7329c5c033aa02227e5e826040516109a79190611336565b60405180910390a250505050565b60066020528060005260406000206000915090505481565b60006001600083815260200190815260200160002060009054906101000a900473ffffffffffffffffffffffffffffffffffffffff169050919050565b60056020528160005260406000208181548110610a2657600080fd5b9060005260206000209060209182820401919006915091509054906101000a900460ff1681565b60046020528260005260406000208281548110610a6957600080fd5b906000526020600020018160028110610a8157600080fd5b6020918282040191900692509250509054906101000a900460ff1681565b60008054906101000a900473ffffffffffffffffffffffffffffffffffffffff1673ffffffffffffffffffffffffffffffffffffffff163373ffffffffffffffffffffffffffffffffffffffff1614610b2d576040517f08c379a0000000000000000000000000000000000000000000000000000000008152600401610b2490611c84565b60405180910390fd5b806002600085815260200190815260200160002060006101000a81548160ff021916908360ff160217905550816001600085815260200190815260200160002060006101000a81548173ffffffffffffffffffffffffffffffffffffffff021916908373ffffffffffffffffffffffffffffffffffffffff160217905550505050565b60026020528060005260406000206000915054906101000a900460ff1681565b60006002600083815260200190815260200160002060009054906101000a900460ff169050919050565b6060600560003373ffffffffffffffffffffffffffffffffffffffff1673ffffffffffffffffffffffffffffffffffffffff168152602001908152602001600020805480602002602001604051908101604052809291908181526020018280548015610cab57602002820191906000526020600020906000905b82829054906101000a900460ff1660ff1681526020019060010190602082600001049283019260010382029150808411610c745790505b5050505050905090565b6060600460003373ffffffffffffffffffffffffffffffffffffffff1673ffffffffffffffffffffffffffffffffffffffff168152602001908152602001600020805480602002602001604051908101604052809291908181526020016000905b82821015610d9b57838290600052602060002001600280602002604051908101604052809291908260028015610d87576020028201916000905b82829054906101000a900460ff1660ff1681526020019060010190602082600001049283019260010382029150808411610d505790505b505050505081526020019060010190610d16565b50505050905090565b60016020528060005260406000206000915054906101000a900473ffffffffffffffffffffffffffffffffffffffff1681565b60008054906101000a900473ffffffffffffffffffffffffffffffffffffffff1673ffffffffffffffffffffffffffffffffffffffff163373ffffffffffffffffffffffffffffffffffffffff1614610e65576040517f08c379a0000000000000000000000000000000000000000000000000000000008152600401610e5c90611cf0565b60405180910390fd5b806001600084815260200190815260200160002060009054906101000a900473ffffffffffffffffffffffffffffffffffffffff1673ffffffffffffffffffffffffffffffffffffffff166370a08231336040518263ffffffff1660e01b8152600401610ed2919061138d565b602060405180830381865afa158015610eef573d6000803e3d6000fd5b505050506040513d601f19601f82011682018060405250810190610f1391906117ab565b11610f53576040517f08c379a0000000000000000000000000000000000000000000000000000000008152600401610f4a90611d5c565b60405180910390fd5b80600360003373ffffffffffffffffffffffffffffffffffffffff1673ffffffffffffffffffffffffffffffffffffffff16815260200190815260200160002060008481526020019081526020016000206000828254610fb39190611d7c565b925050819055506001600083815260200190815260200160002060009054906101000a900473ffffffffffffffffffffffffffffffffffffffff1673ffffffffffffffffffffffffffffffffffffffff1663a9059cbb33836040518363ffffffff1660e01b8152600401611028929190611db0565b6020604051808303816000875af1158015611047573d6000803e3d6000fd5b505050506040513d601f19601f8201168201806040525081019061106b91906119df565b505050565b6003602052816000526040600020602052806000526040600020600091509150505481565b826002601f0160209004810192821561111e5791602002820160005b838211156110ef57835183826101000a81548160ff021916908360ff16021790555092602001926001016020816000010492830192600103026110b1565b801561111c5782816101000a81549060ff02191690556001016020816000010492830192600103026110ef565b505b50905061112b919061112f565b5090565b5b80821115611148576000816000905550600101611130565b5090565b600080fd5b6000819050919050565b61116481611151565b811461116f57600080fd5b50565b6000813590506111818161115b565b92915050565b6000819050919050565b61119a81611187565b81146111a557600080fd5b50565b6000813590506111b781611191565b92915050565b600060ff82169050919050565b6111d3816111bd565b81146111de57600080fd5b50565b6000813590506111f0816111ca565b92915050565b60008060006060848603121561120f5761120e61114c565b5b600061121d86828701611172565b935050602061122e868287016111a8565b925050604061123f868287016111e1565b9150509250925092565b6000806000606084860312156112625761126161114c565b5b600061127086828701611172565b9350506020611281868287016111e1565b9250506040611292868287016111e1565b9150509250925092565b600073ffffffffffffffffffffffffffffffffffffffff82169050919050565b60006112c78261129c565b9050919050565b6112d7816112bc565b81146112e257600080fd5b50565b6000813590506112f4816112ce565b92915050565b6000602082840312156113105761130f61114c565b5b600061131e848285016112e5565b91505092915050565b61133081611187565b82525050565b600060208201905061134b6000830184611327565b92915050565b6000602082840312156113675761136661114c565b5b600061137584828501611172565b91505092915050565b611387816112bc565b82525050565b60006020820190506113a2600083018461137e565b92915050565b600080604083850312156113bf576113be61114c565b5b60006113cd858286016112e5565b92505060206113de858286016111a8565b9150509250929050565b6113f1816111bd565b82525050565b600060208201905061140c60008301846113e8565b92915050565b60008060006060848603121561142b5761142a61114c565b5b6000611439868287016112e5565b935050602061144a868287016111a8565b925050604061145b868287016111a8565b9150509250925092565b60008060006060848603121561147e5761147d61114c565b5b600061148c86828701611172565b935050602061149d868287016112e5565b92505060406114ae868287016111e1565b9150509250925092565b600081519050919050565b600082825260208201905092915050565b6000819050602082019050919050565b6114ed816111bd565b82525050565b60006114ff83836114e4565b60208301905092915050565b6000602082019050919050565b6000611523826114b8565b61152d81856114c3565b9350611538836114d4565b8060005b8381101561156957815161155088826114f3565b975061155b8361150b565b92505060018101905061153c565b5085935050505092915050565b600060208201905081810360008301526115908184611518565b905092915050565b600081519050919050565b600082825260208201905092915050565b6000819050602082019050919050565b600060029050919050565b600081905092915050565b6000819050919050565b6000602082019050919050565b6115fa816115c4565b61160481846115cf565b925061160f826115da565b8060005b8381101561164057815161162787826114f3565b9650611632836115e4565b925050600181019050611613565b505050505050565b600061165483836115f1565b60408301905092915050565b6000602082019050919050565b600061167882611598565b61168281856115a3565b935061168d836115b4565b8060005b838110156116be5781516116a58882611648565b97506116b083611660565b925050600181019050611691565b5085935050505092915050565b600060208201905081810360008301526116e5818461166d565b905092915050565b600080604083850312156117045761170361114c565b5b600061171285828601611172565b9250506020611723858286016111a8565b9150509250929050565b600080604083850312156117445761174361114c565b5b6000611752858286016112e5565b925050602061176385828601611172565b9150509250929050565b6000604082019050611782600083018561137e565b61178f602083018461137e565b9392505050565b6000815190506117a581611191565b92915050565b6000602082840312156117c1576117c061114c565b5b60006117cf84828501611796565b91505092915050565b600082825260208201905092915050565b7f416c6c6f77616e636520646f657320726561636820616d6f756e7420746f206260008201527f6520747265616e73666572726564210000000000000000000000000000000000602082015250565b6000611845602f836117d8565b9150611850826117e9565b604082019050919050565b6000602082019050818103600083015261187481611838565b9050919050565b7f496e697469616c206465706f73697420696e64657820646f6573206e6f74206d60008201527f6174636821000000000000000000000000000000000000000000000000000000602082015250565b60006118d76025836117d8565b91506118e28261187b565b604082019050919050565b60006020820190508181036000830152611906816118ca565b9050919050565b7f4e487b7100000000000000000000000000000000000000000000000000000000600052601160045260246000fd5b600061194782611187565b915061195283611187565b925082820190508082111561196a5761196961190d565b5b92915050565b6000606082019050611985600083018661137e565b611992602083018561137e565b61199f6040830184611327565b949350505050565b60008115159050919050565b6119bc816119a7565b81146119c757600080fd5b50565b6000815190506119d9816119b3565b92915050565b6000602082840312156119f5576119f461114c565b5b6000611a03848285016119ca565b91505092915050565b60008160011c9050919050565b6000808291508390505b6001851115611a6357808604811115611a3f57611a3e61190d565b5b6001851615611a4e5780820291505b8081029050611a5c85611a0c565b9450611a23565b94509492505050565b600082611a7c5760019050611b38565b81611a8a5760009050611b38565b8160018114611aa05760028114611aaa57611ad9565b6001915050611b38565b60ff841115611abc57611abb61190d565b5b8360020a915084821115611ad357611ad261190d565b5b50611b38565b5060208310610133831016604e8410600b8410161715611b0e5782820a905083811115611b0957611b0861190d565b5b611b38565b611b1b8484846001611a19565b92509050818404811115611b3257611b3161190d565b5b81810290505b9392505050565b6000611b4a82611187565b9150611b55836111bd565b9250611b827fffffffffffffffffffffffffffffffffffffffffffffffffffffffffffffffff8484611a6c565b905092915050565b6000611b9582611187565b9150611ba083611187565b9250828202611bae81611187565b91508282048414831517611bc557611bc461190d565b5b5092915050565b7f416c6c6f77616e6365206f66203130303020555344206e656564656421000000600082015250565b6000611c02601d836117d8565b9150611c0d82611bcc565b602082019050919050565b60006020820190508181036000830152611c3181611bf5565b9050919050565b7f546869732066756e6374696f6e206973206e6f74207075626c69630000000000600082015250565b6000611c6e601b836117d8565b9150611c7982611c38565b602082019050919050565b60006020820190508181036000830152611c9d81611c61565b9050919050565b7f4f6e6c79206f776e65722063616e207769746864726177210000000000000000600082015250565b6000611cda6018836117d8565b9150611ce582611ca4565b602082019050919050565b60006020820190508181036000830152611d0981611ccd565b9050919050565b7f4e6f7420656e6f7567682062616c616e63657321000000000000000000000000600082015250565b6000611d466014836117d8565b9150611d5182611d10565b602082019050919050565b60006020820190508181036000830152611d7581611d39565b9050919050565b6000611d8782611187565b9150611d9283611187565b9250828203905081811115611daa57611da961190d565b5b92915050565b6000604082019050611dc5600083018561137e565b611dd26020830184611327565b939250505056fea2646970667358221220721bb5123f219e95427f402ce2fbf9b85d6bf9444b2b1f047e8e65e9414ecf3564736f6c63430008110033",
  "linkReferences": {},
  "deployedLinkReferences": {}
}