{
  "_format": "hh-sol-artifact-1",
  "contractName": "Recruitment",
  "sourceName": "contracts/Recruitment.sol",
  "abi": [
    {
      "inputs": [],
      "stateMutability": "nonpayable",
      "type": "constructor"
    },
    {
      "inputs": [],
      "name": "SenderIsNotReferee",
      "type": "error"
    },
    {
      "anonymous": false,
      "inputs": [
        {
          "indexed": false,
          "internalType": "address",
          "name": "senderAddress",
          "type": "address"
        },
        {
          "indexed": false,
          "internalType": "address",
          "name": "companyAddress",
          "type": "address"
        },
        {
          "indexed": false,
          "internalType": "uint256",
          "name": "score",
          "type": "uint256"
        }
      ],
      "name": "CompanyScoreSubmitted",
      "type": "event"
    },
    {
      "anonymous": false,
      "inputs": [
        {
          "indexed": true,
          "internalType": "address",
          "name": "sender",
          "type": "address"
        },
        {
          "indexed": false,
          "internalType": "uint256",
          "name": "amount",
          "type": "uint256"
        }
      ],
      "name": "DepositCompleted",
      "type": "event"
    },
    {
      "anonymous": false,
      "inputs": [
        {
          "indexed": true,
          "internalType": "address",
          "name": "sender",
          "type": "address"
        },
        {
          "indexed": false,
          "internalType": "uint8",
          "name": "month1RefundPct",
          "type": "uint8"
        },
        {
          "indexed": false,
          "internalType": "uint8",
          "name": "month2RefundPct",
          "type": "uint8"
        },
        {
          "indexed": false,
          "internalType": "uint8",
          "name": "month3RefundPct",
          "type": "uint8"
        }
      ],
      "name": "PercentagesCompleted",
      "type": "event"
    },
    {
      "anonymous": false,
      "inputs": [
        {
          "indexed": false,
          "internalType": "address",
          "name": "senderAddress",
          "type": "address"
        },
        {
          "indexed": false,
          "internalType": "address",
          "name": "referrerWallet",
          "type": "address"
        },
        {
          "indexed": false,
          "internalType": "uint256",
          "name": "score",
          "type": "uint256"
        }
      ],
      "name": "ReferralScoreSubmitted",
      "type": "event"
    },
    {
      "inputs": [
        {
          "internalType": "address",
          "name": "",
          "type": "address"
        },
        {
          "internalType": "bytes32",
          "name": "",
          "type": "bytes32"
        }
      ],
      "name": "accountBalances",
      "outputs": [
        {
          "internalType": "uint256",
          "name": "",
          "type": "uint256"
        }
      ],
      "stateMutability": "view",
      "type": "function"
    },
    {
      "inputs": [
        {
          "internalType": "address",
          "name": "",
          "type": "address"
        },
        {
          "internalType": "uint256",
          "name": "",
          "type": "uint256"
        }
      ],
      "name": "accountCompleteDeposits",
      "outputs": [
        {
          "internalType": "uint8",
          "name": "",
          "type": "uint8"
        }
      ],
      "stateMutability": "view",
      "type": "function"
    },
    {
      "inputs": [
        {
          "internalType": "address",
          "name": "",
          "type": "address"
        },
        {
          "internalType": "uint256",
          "name": "",
          "type": "uint256"
        },
        {
          "internalType": "uint256",
          "name": "",
          "type": "uint256"
        }
      ],
      "name": "accountMonthlyRefundPcts",
      "outputs": [
        {
          "internalType": "uint8",
          "name": "",
          "type": "uint8"
        }
      ],
      "stateMutability": "view",
      "type": "function"
    },
    {
      "inputs": [
        {
          "internalType": "address",
          "name": "",
          "type": "address"
        }
      ],
      "name": "balances",
      "outputs": [
        {
          "internalType": "uint256",
          "name": "",
          "type": "uint256"
        }
      ],
      "stateMutability": "view",
      "type": "function"
    },
    {
      "inputs": [
        {
          "internalType": "address",
          "name": "",
          "type": "address"
        }
      ],
      "name": "candidateList",
      "outputs": [
        {
          "internalType": "address",
          "name": "wallet",
          "type": "address"
        },
        {
          "internalType": "string",
          "name": "email",
          "type": "string"
        },
        {
          "internalType": "uint256",
          "name": "score",
          "type": "uint256"
        }
      ],
      "stateMutability": "view",
      "type": "function"
    },
    {
      "inputs": [
        {
          "internalType": "address",
          "name": "",
          "type": "address"
        },
        {
          "internalType": "uint256",
          "name": "",
          "type": "uint256"
        }
      ],
      "name": "companyScores",
      "outputs": [
        {
          "internalType": "uint256",
          "name": "score",
          "type": "uint256"
        },
        {
          "internalType": "address",
          "name": "senderAddress",
          "type": "address"
        }
      ],
      "stateMutability": "view",
      "type": "function"
    },
    {
      "inputs": [
        {
          "internalType": "uint256",
          "name": "refId",
          "type": "uint256"
        },
        {
          "internalType": "string",
          "name": "email",
          "type": "string"
        }
      ],
      "name": "confirmReferral",
      "outputs": [],
      "stateMutability": "nonpayable",
      "type": "function"
    },
    {
      "inputs": [],
      "name": "getAccountCompleteDeposits",
      "outputs": [
        {
          "internalType": "uint8[]",
          "name": "",
          "type": "uint8[]"
        }
      ],
      "stateMutability": "view",
      "type": "function"
    },
    {
      "inputs": [],
      "name": "getAccountMonthlyRefundPcts",
      "outputs": [
        {
          "internalType": "uint8[3][]",
          "name": "",
          "type": "uint8[3][]"
        }
      ],
      "stateMutability": "view",
      "type": "function"
    },
    {
      "inputs": [
        {
          "internalType": "address",
          "name": "wallet",
          "type": "address"
        }
      ],
      "name": "getCandidate",
      "outputs": [
        {
          "components": [
            {
              "internalType": "address",
              "name": "wallet",
              "type": "address"
            },
            {
              "internalType": "string",
              "name": "email",
              "type": "string"
            },
            {
              "internalType": "uint256",
              "name": "score",
              "type": "uint256"
            }
          ],
          "internalType": "struct FrontDoorStructs.Candidate",
          "name": "",
          "type": "tuple"
        }
      ],
      "stateMutability": "view",
      "type": "function"
    },
    {
      "inputs": [
        {
          "internalType": "address",
          "name": "companyAddress",
          "type": "address"
        }
      ],
      "name": "getCompanyScores",
      "outputs": [
        {
          "components": [
            {
              "internalType": "uint256",
              "name": "score",
              "type": "uint256"
            },
            {
              "internalType": "address",
              "name": "senderAddress",
              "type": "address"
            }
          ],
          "internalType": "struct Recruitment.CompanyScore[]",
          "name": "",
          "type": "tuple[]"
        }
      ],
      "stateMutability": "view",
      "type": "function"
    },
    {
      "inputs": [],
      "name": "getEmailReferrals",
      "outputs": [
        {
          "internalType": "string[]",
          "name": "",
          "type": "string[]"
        }
      ],
      "stateMutability": "view",
      "type": "function"
    },
    {
      "inputs": [
        {
          "internalType": "uint256",
          "name": "jobId",
          "type": "uint256"
        }
      ],
      "name": "getJob",
      "outputs": [
        {
          "components": [
            {
              "internalType": "uint256",
              "name": "id",
              "type": "uint256"
            },
            {
              "internalType": "uint256",
              "name": "bounty",
              "type": "uint256"
            },
            {
              "internalType": "uint256",
              "name": "maxSalary",
              "type": "uint256"
            },
            {
              "internalType": "uint256",
              "name": "minSalary",
              "type": "uint256"
            },
            {
              "internalType": "string",
              "name": "companyName",
              "type": "string"
            },
            {
              "internalType": "string",
              "name": "location",
              "type": "string"
            },
            {
              "internalType": "string",
              "name": "role",
              "type": "string"
            },
            {
              "internalType": "string",
              "name": "webURL",
              "type": "string"
            }
          ],
          "internalType": "struct FrontDoorStructs.Job",
          "name": "",
          "type": "tuple"
        }
      ],
      "stateMutability": "view",
      "type": "function"
    },
    {
      "inputs": [
        {
          "internalType": "address",
          "name": "wallet",
          "type": "address"
        }
      ],
      "name": "getReferee",
      "outputs": [
        {
          "components": [
            {
              "internalType": "address",
              "name": "wallet",
              "type": "address"
            },
            {
              "internalType": "string",
              "name": "email",
              "type": "string"
            },
            {
              "internalType": "bytes32",
              "name": "emailHash",
              "type": "bytes32"
            },
            {
              "internalType": "uint256",
              "name": "score",
              "type": "uint256"
            }
          ],
          "internalType": "struct FrontDoorStructs.Referee",
          "name": "",
          "type": "tuple"
        }
      ],
      "stateMutability": "view",
      "type": "function"
    },
    {
      "inputs": [
        {
          "internalType": "uint256",
          "name": "refId",
          "type": "uint256"
        }
      ],
      "name": "getReferral",
      "outputs": [
        {
          "components": [
            {
              "internalType": "uint256",
              "name": "id",
              "type": "uint256"
            },
            {
              "internalType": "bool",
              "name": "confirmed",
              "type": "bool"
            },
            {
              "components": [
                {
                  "internalType": "address",
                  "name": "wallet",
                  "type": "address"
                },
                {
                  "internalType": "string",
                  "name": "email",
                  "type": "string"
                },
                {
                  "internalType": "uint256",
                  "name": "score",
                  "type": "uint256"
                }
              ],
              "internalType": "struct FrontDoorStructs.Referrer",
              "name": "referrer",
              "type": "tuple"
            },
            {
              "components": [
                {
                  "internalType": "address",
                  "name": "wallet",
                  "type": "address"
                },
                {
                  "internalType": "string",
                  "name": "email",
                  "type": "string"
                },
                {
                  "internalType": "bytes32",
                  "name": "emailHash",
                  "type": "bytes32"
                },
                {
                  "internalType": "uint256",
                  "name": "score",
                  "type": "uint256"
                }
              ],
              "internalType": "struct FrontDoorStructs.Referee",
              "name": "referee",
              "type": "tuple"
            },
            {
              "components": [
                {
                  "internalType": "uint256",
                  "name": "id",
                  "type": "uint256"
                },
                {
                  "internalType": "uint256",
                  "name": "bounty",
                  "type": "uint256"
                },
                {
                  "internalType": "uint256",
                  "name": "maxSalary",
                  "type": "uint256"
                },
                {
                  "internalType": "uint256",
                  "name": "minSalary",
                  "type": "uint256"
                },
                {
                  "internalType": "string",
                  "name": "companyName",
                  "type": "string"
                },
                {
                  "internalType": "string",
                  "name": "location",
                  "type": "string"
                },
                {
                  "internalType": "string",
                  "name": "role",
                  "type": "string"
                },
                {
                  "internalType": "string",
                  "name": "webURL",
                  "type": "string"
                }
              ],
              "internalType": "struct FrontDoorStructs.Job",
              "name": "job",
              "type": "tuple"
            }
          ],
          "internalType": "struct FrontDoorStructs.Referral",
          "name": "",
          "type": "tuple"
        }
      ],
      "stateMutability": "view",
      "type": "function"
    },
    {
      "inputs": [],
      "name": "getReferralIDs",
      "outputs": [
        {
          "internalType": "uint256[]",
          "name": "",
          "type": "uint256[]"
        }
      ],
      "stateMutability": "view",
      "type": "function"
    },
    {
      "inputs": [
        {
          "internalType": "address",
          "name": "referrerWallet",
          "type": "address"
        }
      ],
      "name": "getReferralScores",
      "outputs": [
        {
          "components": [
            {
              "internalType": "uint256",
              "name": "score",
              "type": "uint256"
            },
            {
              "internalType": "address",
              "name": "senderAddress",
              "type": "address"
            }
          ],
          "internalType": "struct Recruitment.ReferralScore[]",
          "name": "",
          "type": "tuple[]"
        }
      ],
      "stateMutability": "view",
      "type": "function"
    },
    {
      "inputs": [
        {
          "internalType": "address",
          "name": "wallet",
          "type": "address"
        }
      ],
      "name": "getReferrer",
      "outputs": [
        {
          "components": [
            {
              "internalType": "address",
              "name": "wallet",
              "type": "address"
            },
            {
              "internalType": "string",
              "name": "email",
              "type": "string"
            },
            {
              "internalType": "uint256",
              "name": "score",
              "type": "uint256"
            }
          ],
          "internalType": "struct FrontDoorStructs.Referrer",
          "name": "",
          "type": "tuple"
        }
      ],
      "stateMutability": "view",
      "type": "function"
    },
    {
      "inputs": [
        {
          "internalType": "bytes32",
          "name": "token",
          "type": "bytes32"
        }
      ],
      "name": "getWhitelistedTokenAddresses",
      "outputs": [
        {
          "internalType": "address",
          "name": "",
          "type": "address"
        }
      ],
      "stateMutability": "view",
      "type": "function"
    },
    {
      "inputs": [
        {
          "internalType": "bytes32",
          "name": "token",
          "type": "bytes32"
        }
      ],
      "name": "getWhitelistedTokenDecimals",
      "outputs": [
        {
          "internalType": "uint8",
          "name": "",
          "type": "uint8"
        }
      ],
      "stateMutability": "view",
      "type": "function"
    },
    {
      "inputs": [
        {
          "internalType": "address",
          "name": "",
          "type": "address"
        },
        {
          "internalType": "address",
          "name": "",
          "type": "address"
        }
      ],
      "name": "hasScoredCompany",
      "outputs": [
        {
          "internalType": "bool",
          "name": "",
          "type": "bool"
        }
      ],
      "stateMutability": "view",
      "type": "function"
    },
    {
      "inputs": [
        {
          "internalType": "uint256",
          "name": "",
          "type": "uint256"
        }
      ],
      "name": "jobList",
      "outputs": [
        {
          "internalType": "uint256",
          "name": "id",
          "type": "uint256"
        },
        {
          "internalType": "uint256",
          "name": "bounty",
          "type": "uint256"
        },
        {
          "internalType": "uint256",
          "name": "maxSalary",
          "type": "uint256"
        },
        {
          "internalType": "uint256",
          "name": "minSalary",
          "type": "uint256"
        },
        {
          "internalType": "string",
          "name": "companyName",
          "type": "string"
        },
        {
          "internalType": "string",
          "name": "location",
          "type": "string"
        },
        {
          "internalType": "string",
          "name": "role",
          "type": "string"
        },
        {
          "internalType": "string",
          "name": "webURL",
          "type": "string"
        }
      ],
      "stateMutability": "view",
      "type": "function"
    },
    {
      "inputs": [
        {
          "internalType": "address",
          "name": "",
          "type": "address"
        }
      ],
      "name": "refereeList",
      "outputs": [
        {
          "internalType": "address",
          "name": "wallet",
          "type": "address"
        },
        {
          "internalType": "string",
          "name": "email",
          "type": "string"
        },
        {
          "internalType": "bytes32",
          "name": "emailHash",
          "type": "bytes32"
        },
        {
          "internalType": "uint256",
          "name": "score",
          "type": "uint256"
        }
      ],
      "stateMutability": "view",
      "type": "function"
    },
    {
      "inputs": [
        {
          "internalType": "address",
          "name": "",
          "type": "address"
        },
        {
          "internalType": "uint256",
          "name": "",
          "type": "uint256"
        }
      ],
      "name": "referralIndex",
      "outputs": [
        {
          "internalType": "uint256",
          "name": "",
          "type": "uint256"
        }
      ],
      "stateMutability": "view",
      "type": "function"
    },
    {
      "inputs": [
        {
          "internalType": "uint256",
          "name": "",
          "type": "uint256"
        }
      ],
      "name": "referralList",
      "outputs": [
        {
          "internalType": "uint256",
          "name": "id",
          "type": "uint256"
        },
        {
          "internalType": "bool",
          "name": "confirmed",
          "type": "bool"
        },
        {
          "components": [
            {
              "internalType": "address",
              "name": "wallet",
              "type": "address"
            },
            {
              "internalType": "string",
              "name": "email",
              "type": "string"
            },
            {
              "internalType": "uint256",
              "name": "score",
              "type": "uint256"
            }
          ],
          "internalType": "struct FrontDoorStructs.Referrer",
          "name": "referrer",
          "type": "tuple"
        },
        {
          "components": [
            {
              "internalType": "address",
              "name": "wallet",
              "type": "address"
            },
            {
              "internalType": "string",
              "name": "email",
              "type": "string"
            },
            {
              "internalType": "bytes32",
              "name": "emailHash",
              "type": "bytes32"
            },
            {
              "internalType": "uint256",
              "name": "score",
              "type": "uint256"
            }
          ],
          "internalType": "struct FrontDoorStructs.Referee",
          "name": "referee",
          "type": "tuple"
        },
        {
          "components": [
            {
              "internalType": "uint256",
              "name": "id",
              "type": "uint256"
            },
            {
              "internalType": "uint256",
              "name": "bounty",
              "type": "uint256"
            },
            {
              "internalType": "uint256",
              "name": "maxSalary",
              "type": "uint256"
            },
            {
              "internalType": "uint256",
              "name": "minSalary",
              "type": "uint256"
            },
            {
              "internalType": "string",
              "name": "companyName",
              "type": "string"
            },
            {
              "internalType": "string",
              "name": "location",
              "type": "string"
            },
            {
              "internalType": "string",
              "name": "role",
              "type": "string"
            },
            {
              "internalType": "string",
              "name": "webURL",
              "type": "string"
            }
          ],
          "internalType": "struct FrontDoorStructs.Job",
          "name": "job",
          "type": "tuple"
        }
      ],
      "stateMutability": "view",
      "type": "function"
    },
    {
      "inputs": [
        {
          "internalType": "address",
          "name": "",
          "type": "address"
        },
        {
          "internalType": "uint256",
          "name": "",
          "type": "uint256"
        }
      ],
      "name": "referralScores",
      "outputs": [
        {
          "internalType": "uint256",
          "name": "score",
          "type": "uint256"
        },
        {
          "internalType": "address",
          "name": "senderAddress",
          "type": "address"
        }
      ],
      "stateMutability": "view",
      "type": "function"
    },
    {
      "inputs": [
        {
          "internalType": "address",
          "name": "",
          "type": "address"
        },
        {
          "internalType": "uint256",
          "name": "",
          "type": "uint256"
        }
      ],
      "name": "referredEmails",
      "outputs": [
        {
          "internalType": "string",
          "name": "",
          "type": "string"
        }
      ],
      "stateMutability": "view",
      "type": "function"
    },
    {
      "inputs": [
        {
          "internalType": "address",
          "name": "",
          "type": "address"
        }
      ],
      "name": "referrerList",
      "outputs": [
        {
          "internalType": "address",
          "name": "wallet",
          "type": "address"
        },
        {
          "internalType": "string",
          "name": "email",
          "type": "string"
        },
        {
          "internalType": "uint256",
          "name": "score",
          "type": "uint256"
        }
      ],
      "stateMutability": "view",
      "type": "function"
    },
    {
      "inputs": [
        {
          "internalType": "string",
          "name": "email",
          "type": "string"
        }
      ],
      "name": "registerCandidate",
      "outputs": [],
      "stateMutability": "nonpayable",
      "type": "function"
    },
    {
      "inputs": [
        {
          "internalType": "uint256",
          "name": "bounty",
          "type": "uint256"
        },
        {
          "internalType": "uint256",
          "name": "maxSalary",
          "type": "uint256"
        },
        {
          "internalType": "uint256",
          "name": "minSalary",
          "type": "uint256"
        },
        {
          "internalType": "string",
          "name": "companyName",
          "type": "string"
        },
        {
          "internalType": "string",
          "name": "location",
          "type": "string"
        },
        {
          "internalType": "string",
          "name": "role",
          "type": "string"
        },
        {
          "internalType": "string",
          "name": "jobURL",
          "type": "string"
        }
      ],
      "name": "registerJob",
      "outputs": [],
      "stateMutability": "nonpayable",
      "type": "function"
    },
    {
      "inputs": [
        {
          "internalType": "string",
          "name": "email",
          "type": "string"
        }
      ],
      "name": "registerReferee",
      "outputs": [],
      "stateMutability": "nonpayable",
      "type": "function"
    },
    {
      "inputs": [
        {
          "internalType": "uint256",
          "name": "jobId",
          "type": "uint256"
        },
        {
          "internalType": "string",
          "name": "refereeMail",
          "type": "string"
        }
      ],
      "name": "registerReferral",
      "outputs": [],
      "stateMutability": "nonpayable",
      "type": "function"
    },
    {
      "inputs": [
        {
          "internalType": "string",
          "name": "email",
          "type": "string"
        }
      ],
      "name": "registerReferrer",
      "outputs": [],
      "stateMutability": "nonpayable",
      "type": "function"
    },
    {
      "inputs": [
        {
          "internalType": "string",
          "name": "email",
          "type": "string"
        }
      ],
      "name": "setEmailReferrals",
      "outputs": [],
      "stateMutability": "nonpayable",
      "type": "function"
    },
    {
      "inputs": [
        {
          "internalType": "bytes32",
          "name": "symbol",
          "type": "bytes32"
        },
        {
          "internalType": "uint256",
          "name": "amount",
          "type": "uint256"
        },
        {
          "internalType": "uint8",
          "name": "index",
          "type": "uint8"
        }
      ],
      "name": "setFinalDeposit",
      "outputs": [],
      "stateMutability": "nonpayable",
      "type": "function"
    },
    {
      "inputs": [
        {
          "internalType": "uint8",
          "name": "month1RefundPct",
          "type": "uint8"
        },
        {
          "internalType": "uint8",
          "name": "month2RefundPct",
          "type": "uint8"
        },
        {
          "internalType": "uint8",
          "name": "month3RefundPct",
          "type": "uint8"
        }
      ],
      "name": "setPercentages",
      "outputs": [],
      "stateMutability": "nonpayable",
      "type": "function"
    },
    {
      "inputs": [
        {
          "internalType": "uint256",
          "name": "score",
          "type": "uint256"
        },
        {
          "internalType": "address",
          "name": "companyAddress",
          "type": "address"
        }
      ],
      "name": "submitCompanyScore",
      "outputs": [
        {
          "internalType": "bytes32",
          "name": "",
          "type": "bytes32"
        }
      ],
      "stateMutability": "nonpayable",
      "type": "function"
    },
    {
      "inputs": [
        {
          "internalType": "uint256",
          "name": "score",
          "type": "uint256"
        },
        {
          "internalType": "address",
          "name": "referrerWallet",
          "type": "address"
        }
      ],
      "name": "submitReferralScore",
      "outputs": [
        {
          "internalType": "bytes32",
          "name": "",
          "type": "bytes32"
        }
      ],
      "stateMutability": "nonpayable",
      "type": "function"
    },
    {
      "inputs": [
        {
          "internalType": "bytes32",
          "name": "symbol",
          "type": "bytes32"
        },
        {
          "internalType": "address",
          "name": "tokenAddress",
          "type": "address"
        },
        {
          "internalType": "uint8",
          "name": "decimals",
          "type": "uint8"
        }
      ],
      "name": "whitelistToken",
      "outputs": [],
      "stateMutability": "nonpayable",
      "type": "function"
    },
    {
      "inputs": [
        {
          "internalType": "bytes32",
          "name": "",
          "type": "bytes32"
        }
      ],
      "name": "whitelistedTokenDecimals",
      "outputs": [
        {
          "internalType": "uint8",
          "name": "",
          "type": "uint8"
        }
      ],
      "stateMutability": "view",
      "type": "function"
    },
    {
      "inputs": [
        {
          "internalType": "bytes32",
          "name": "",
          "type": "bytes32"
        }
      ],
      "name": "whitelistedTokens",
      "outputs": [
        {
          "internalType": "address",
          "name": "",
          "type": "address"
        }
      ],
      "stateMutability": "view",
      "type": "function"
    }
  ],
  "bytecode": "0x60806040526103e860105534801561001657600080fd5b50336000806101000a81548173ffffffffffffffffffffffffffffffffffffffff021916908373ffffffffffffffffffffffffffffffffffffffff1602179055506163f080620000676000396000f3fe608060405234801561001057600080fd5b50600436106102525760003560e01c806363262a5811610146578063a7013e2d116100c3578063cbb8e56c11610087578063cbb8e56c146107e9578063d298c22814610819578063d29bde541461084b578063d7828a4e1461087b578063e64fe366146108ab578063ffab7a5f146108db57610252565b8063a7013e2d1461070a578063aa3d9a151461073d578063b7adcf1d1461076d578063bf22c4571461079d578063c83b5e4d146107cd57610252565b80638330d0d81161010a5780638330d0d81461062957806391240f44146106595780639eb88db614610689578063a437a677146106a5578063a4ba668d146106d957610252565b806363262a581461058557806366341eb4146105b75780636821f16a146105d357806369b28c50146105f1578063802ee04d1461060d57610252565b80633f7f5e2a116101d45780634d85c159116101985780634d85c159146104bb57806354cda908146104d757806359a2f89c146105075780635f3bf28614610537578063617d82451461055557610252565b80633f7f5e2a146103df578063466ac5521461040f57806346d8426b1461043f5780634a88ff481461045b5780634a9fefc71461048b57610252565b80631dc9ac381161021b5780631dc9ac381461032757806322de72d41461034357806327e235e3146103615780633586932b1461039157806339812da2146103c157610252565b80629ef9851461025757806301787b4114610273578063029c6630146102a45780630c33c522146102d45780631a2517f91461030b575b600080fd5b610271600480360381019061026c91906146d7565b61090b565b005b61028d600480360381019061028891906147b4565b610a25565b60405161029b929190614812565b60405180910390f35b6102be60048036038101906102b9919061483b565b610a86565b6040516102cb9190614894565b60405180910390f35b6102ee60048036038101906102e991906148af565b610be1565b60405161030298979695949392919061495b565b60405180910390f35b61032560048036038101906103209190614a2e565b610e49565b005b610341600480360381019061033c9190614aad565b611045565b005b61034b6113ad565b6040516103589190614bbe565b60405180910390f35b61037b60048036038101906103769190614be0565b611442565b6040516103889190614c0d565b60405180910390f35b6103ab60048036038101906103a69190614c28565b61145a565b6040516103b89190614c55565b60405180910390f35b6103c9611497565b6040516103d69190614d7c565b60405180910390f35b6103f960048036038101906103f491906147b4565b6115ad565b6040516104069190614dad565b60405180910390f35b61042960048036038101906104249190614dc8565b6115f0565b6040516104369190614dad565b60405180910390f35b61045960048036038101906104549190614e1b565b611642565b005b61047560048036038101906104709190614c28565b611753565b6040516104829190614dad565b60405180910390f35b6104a560048036038101906104a09190614be0565b611773565b6040516104b29190614ecd565b60405180910390f35b6104d560048036038101906104d09190614eef565b6118be565b005b6104f160048036038101906104ec9190614be0565b611f4d565b6040516104fe9190615029565b60405180910390f35b610521600480360381019061051c9190614c28565b61204b565b60405161052e9190614dad565b60405180910390f35b61053f612075565b60405161054c9190615109565b60405180910390f35b61056f600480360381019061056a919061483b565b612130565b60405161057c9190614894565b60405180910390f35b61059f600480360381019061059a9190614be0565b6123f1565b6040516105ae9392919061512b565b60405180910390f35b6105d160048036038101906105cc9190615169565b6124c3565b005b6105db6125bb565b6040516105e891906153ae565b60405180910390f35b61060b600480360381019061060691906146d7565b6126aa565b005b61062760048036038101906106229190614eef565b61278e565b005b610643600480360381019061063e91906148af565b612ead565b60405161065091906155f6565b60405180910390f35b610673600480360381019061066e9190614be0565b61339a565b604051610680919061567b565b60405180910390f35b6106a3600480360381019061069e91906146d7565b6134ef565b005b6106bf60048036038101906106ba91906148af565b6135d3565b6040516106d0959493929190615771565b60405180910390f35b6106f360048036038101906106ee91906147b4565b613a93565b604051610701929190614812565b60405180910390f35b610724600480360381019061071f9190614be0565b613af4565b60405161073494939291906157d9565b60405180910390f35b61075760048036038101906107529190614c28565b613bcc565b6040516107649190614c55565b60405180910390f35b61078760048036038101906107829190614be0565b613bff565b6040516107949190615875565b60405180910390f35b6107b760048036038101906107b291906148af565b613d4a565b6040516107c49190615897565b60405180910390f35b6107e760048036038101906107e291906146d7565b613fe8565b005b61080360048036038101906107fe91906147b4565b61405d565b60405161081091906158b9565b60405180910390f35b610833600480360381019061082e9190614be0565b614116565b6040516108429392919061512b565b60405180910390f35b61086560048036038101906108609190614be0565b6141e8565b60405161087291906159b9565b60405180910390f35b610895600480360381019061089091906159db565b6142e6565b6040516108a29190615a1b565b60405180910390f35b6108c560048036038101906108c09190615a36565b614315565b6040516108d29190614c0d565b60405180910390f35b6108f560048036038101906108f091906147b4565b61433a565b6040516109029190614c0d565b60405180910390f35b600060405180608001604052803373ffffffffffffffffffffffffffffffffffffffff1681526020018381526020018360405160200161094b9190615ab2565b6040516020818303038152906040528051906020012081526020016000815250905080600960003373ffffffffffffffffffffffffffffffffffffffff1673ffffffffffffffffffffffffffffffffffffffff16815260200190815260200160002060008201518160000160006101000a81548173ffffffffffffffffffffffffffffffffffffffff021916908373ffffffffffffffffffffffffffffffffffffffff1602179055506020820151816001019081610a099190615cd5565b5060408201518160020155606082015181600301559050505050565b60126020528160005260406000208181548110610a4157600080fd5b9060005260206000209060020201600091509150508060000154908060010160009054906101000a900473ffffffffffffffffffffffffffffffffffffffff16905082565b60008060405180604001604052808581526020013373ffffffffffffffffffffffffffffffffffffffff168152509050601160008473ffffffffffffffffffffffffffffffffffffffff1673ffffffffffffffffffffffffffffffffffffffff1681526020019081526020016000208190806001815401808255809150506001900390600052602060002090600202016000909190919091506000820151816000015560208201518160010160006101000a81548173ffffffffffffffffffffffffffffffffffffffff021916908373ffffffffffffffffffffffffffffffffffffffff16021790555050507f4c0bc119f406ebd414035b070d41a6499102f0d6525b74480a49edf320a508ba338486604051610ba593929190615da7565b60405180910390a1833384604051602001610bc293929190615e47565b6040516020818303038152906040528051906020012091505092915050565b600b602052806000526040600020600091509050806000015490806001015490806002015490806003015490806004018054610c1c90615af8565b80601f0160208091040260200160405190810160405280929190818152602001828054610c4890615af8565b8015610c955780601f10610c6a57610100808354040283529160200191610c95565b820191906000526020600020905b815481529060010190602001808311610c7857829003601f168201915b505050505090806005018054610caa90615af8565b80601f0160208091040260200160405190810160405280929190818152602001828054610cd690615af8565b8015610d235780601f10610cf857610100808354040283529160200191610d23565b820191906000526020600020905b815481529060010190602001808311610d0657829003601f168201915b505050505090806006018054610d3890615af8565b80601f0160208091040260200160405190810160405280929190818152602001828054610d6490615af8565b8015610db15780601f10610d8657610100808354040283529160200191610db1565b820191906000526020600020905b815481529060010190602001808311610d9457829003601f168201915b505050505090806007018054610dc690615af8565b80601f0160208091040260200160405190810160405280929190818152602001828054610df290615af8565b8015610e3f5780601f10610e1457610100808354040283529160200191610e3f565b820191906000526020600020905b815481529060010190602001808311610e2257829003601f168201915b5050505050905088565b60008360ff1610158015610e61575060648360ff1611155b610ea0576040517f08c379a0000000000000000000000000000000000000000000000000000000008152600401610e9790615ef6565b60405180910390fd5b60008260ff1610158015610eb8575060648260ff1611155b610ef7576040517f08c379a0000000000000000000000000000000000000000000000000000000008152600401610eee90615f88565b60405180910390fd5b60008160ff1610158015610f0f575060648160ff1611155b610f4e576040517f08c379a0000000000000000000000000000000000000000000000000000000008152600401610f459061601a565b60405180910390fd5b600460003373ffffffffffffffffffffffffffffffffffffffff1673ffffffffffffffffffffffffffffffffffffffff16815260200190815260200160002060405180606001604052808560ff1660ff1681526020018460ff1660ff1681526020018360ff1660ff1681525090806001815401808255809150506001900390600052602060002001600090919091909150906003610fed92919061438f565b503373ffffffffffffffffffffffffffffffffffffffff167f1345f2810cf7ceff103ed7dad9fae0d668dd8fe713a56c7d0e015609bb5cd1158484846040516110389392919061603a565b60405180910390a2505050565b816001600085815260200190815260200160002060009054906101000a900473ffffffffffffffffffffffffffffffffffffffff1673ffffffffffffffffffffffffffffffffffffffff1663dd62ed3e33306040518363ffffffff1660e01b81526004016110b4929190616071565b602060405180830381865afa1580156110d1573d6000803e3d6000fd5b505050506040513d601f19601f820116820180604052508101906110f591906160af565b1015611136576040517f08c379a000000000000000000000000000000000000000000000000000000000815260040161112d9061614e565b60405180910390fd5b8060ff16600460003373ffffffffffffffffffffffffffffffffffffffff1673ffffffffffffffffffffffffffffffffffffffff16815260200190815260200160002080549050116111bd576040517f08c379a00000000000000000000000000000000000000000000000000000000081526004016111b4906161e0565b60405180910390fd5b81600360003373ffffffffffffffffffffffffffffffffffffffff1673ffffffffffffffffffffffffffffffffffffffff1681526020019081526020016000206000858152602001908152602001600020600082825461121d919061622f565b925050819055506001600084815260200190815260200160002060009054906101000a900473ffffffffffffffffffffffffffffffffffffffff1673ffffffffffffffffffffffffffffffffffffffff166323b872dd3330856040518463ffffffff1660e01b815260040161129493929190615da7565b6020604051808303816000875af11580156112b3573d6000803e3d6000fd5b505050506040513d601f19601f820116820180604052508101906112d7919061628f565b50600560003373ffffffffffffffffffffffffffffffffffffffff1673ffffffffffffffffffffffffffffffffffffffff1681526020019081526020016000208190806001815401808255809150506001900390600052602060002090602091828204019190069091909190916101000a81548160ff021916908360ff1602179055503373ffffffffffffffffffffffffffffffffffffffff167ffe49ff9074b43d72959bdaa84c28024687dc010a90ff7329c5c033aa02227e5e836040516113a09190614c0d565b60405180910390a2505050565b6060600c60003373ffffffffffffffffffffffffffffffffffffffff1673ffffffffffffffffffffffffffffffffffffffff16815260200190815260200160002080548060200260200160405190810160405280929190818152602001828054801561143857602002820191906000526020600020905b815481526020019060010190808311611424575b5050505050905090565b60066020528060005260406000206000915090505481565b60006001600083815260200190815260200160002060009054906101000a900473ffffffffffffffffffffffffffffffffffffffff169050919050565b6060600760003373ffffffffffffffffffffffffffffffffffffffff1673ffffffffffffffffffffffffffffffffffffffff168152602001908152602001600020805480602002602001604051908101604052809291908181526020016000905b828210156115a457838290600052602060002001805461151790615af8565b80601f016020809104026020016040519081016040528092919081815260200182805461154390615af8565b80156115905780601f1061156557610100808354040283529160200191611590565b820191906000526020600020905b81548152906001019060200180831161157357829003601f168201915b5050505050815260200190600101906114f8565b50505050905090565b600560205281600052604060002081815481106115c957600080fd5b9060005260206000209060209182820401919006915091509054906101000a900460ff1681565b6004602052826000526040600020828154811061160c57600080fd5b90600052602060002001816003811061162457600080fd5b6020918282040191900692509250509054906101000a900460ff1681565b60008054906101000a900473ffffffffffffffffffffffffffffffffffffffff1673ffffffffffffffffffffffffffffffffffffffff163373ffffffffffffffffffffffffffffffffffffffff16146116d0576040517f08c379a00000000000000000000000000000000000000000000000000000000081526004016116c790616308565b60405180910390fd5b806002600085815260200190815260200160002060006101000a81548160ff021916908360ff160217905550816001600085815260200190815260200160002060006101000a81548173ffffffffffffffffffffffffffffffffffffffff021916908373ffffffffffffffffffffffffffffffffffffffff160217905550505050565b60026020528060005260406000206000915054906101000a900460ff1681565b61177b614429565b600a60008373ffffffffffffffffffffffffffffffffffffffff1673ffffffffffffffffffffffffffffffffffffffff1681526020019081526020016000206040518060600160405290816000820160009054906101000a900473ffffffffffffffffffffffffffffffffffffffff1673ffffffffffffffffffffffffffffffffffffffff1673ffffffffffffffffffffffffffffffffffffffff16815260200160018201805461182b90615af8565b80601f016020809104026020016040519081016040528092919081815260200182805461185790615af8565b80156118a45780601f10611879576101008083540402835291602001916118a4565b820191906000526020600020905b81548152906001019060200180831161188757829003601f168201915b505050505081526020016002820154815250509050919050565b6118c6614460565b6000600a60003373ffffffffffffffffffffffffffffffffffffffff1673ffffffffffffffffffffffffffffffffffffffff1681526020019081526020016000206040518060600160405290816000820160009054906101000a900473ffffffffffffffffffffffffffffffffffffffff1673ffffffffffffffffffffffffffffffffffffffff1673ffffffffffffffffffffffffffffffffffffffff16815260200160018201805461197890615af8565b80601f01602080910402602001604051908101604052809291908181526020018280546119a490615af8565b80156119f15780601f106119c6576101008083540402835291602001916119f1565b820191906000526020600020905b8154815290600101906020018083116119d457829003601f168201915b5050505050815260200160028201548152505090506000600b60008681526020019081526020016000206040518061010001604052908160008201548152602001600182015481526020016002820154815260200160038201548152602001600482018054611a5f90615af8565b80601f0160208091040260200160405190810160405280929190818152602001828054611a8b90615af8565b8015611ad85780601f10611aad57610100808354040283529160200191611ad8565b820191906000526020600020905b815481529060010190602001808311611abb57829003601f168201915b50505050508152602001600582018054611af190615af8565b80601f0160208091040260200160405190810160405280929190818152602001828054611b1d90615af8565b8015611b6a5780601f10611b3f57610100808354040283529160200191611b6a565b820191906000526020600020905b815481529060010190602001808311611b4d57829003601f168201915b50505050508152602001600682018054611b8390615af8565b80601f0160208091040260200160405190810160405280929190818152602001828054611baf90615af8565b8015611bfc5780601f10611bd157610100808354040283529160200191611bfc565b820191906000526020600020905b815481529060010190602001808311611bdf57829003601f168201915b50505050508152602001600782018054611c1590615af8565b80601f0160208091040260200160405190810160405280929190818152602001828054611c4190615af8565b8015611c8e5780601f10611c6357610100808354040283529160200191611c8e565b820191906000526020600020905b815481529060010190602001808311611c7157829003601f168201915b505050505081525050905083836020018190525083604051602001611cb39190615ab2565b6040516020818303038152906040528051906020012083604001818152505060006040518060a00160405280611ce9600f61436b565b8152602001600015158152602001848152602001858152602001838152509050600c60003373ffffffffffffffffffffffffffffffffffffffff1673ffffffffffffffffffffffffffffffffffffffff168152602001908152602001600020611d52600f61436b565b908060018154018082558091505060019003906000526020600020016000909190919091505580600d6000611d87600f61436b565b81526020019081526020016000206000820151816000015560208201518160010160006101000a81548160ff02191690831515021790555060408201518160020160008201518160000160006101000a81548173ffffffffffffffffffffffffffffffffffffffff021916908373ffffffffffffffffffffffffffffffffffffffff1602179055506020820151816001019081611e249190615cd5565b5060408201518160020155505060608201518160050160008201518160000160006101000a81548173ffffffffffffffffffffffffffffffffffffffff021916908373ffffffffffffffffffffffffffffffffffffffff1602179055506020820151816001019081611e969190615cd5565b5060408201518160020155606082015181600301555050608082015181600901600082015181600001556020820151816001015560408201518160020155606082015181600301556080820151816004019081611ef39190615cd5565b5060a0820151816005019081611f099190615cd5565b5060c0820151816006019081611f1f9190615cd5565b5060e0820151816007019081611f359190615cd5565b505050905050611f45600f614379565b505050505050565b6060601260008373ffffffffffffffffffffffffffffffffffffffff1673ffffffffffffffffffffffffffffffffffffffff168152602001908152602001600020805480602002602001604051908101604052809291908181526020016000905b828210156120405783829060005260206000209060020201604051806040016040529081600082015481526020016001820160009054906101000a900473ffffffffffffffffffffffffffffffffffffffff1673ffffffffffffffffffffffffffffffffffffffff1673ffffffffffffffffffffffffffffffffffffffff168152505081526020019060010190611fae565b505050509050919050565b60006002600083815260200190815260200160002060009054906101000a900460ff169050919050565b6060600560003373ffffffffffffffffffffffffffffffffffffffff1673ffffffffffffffffffffffffffffffffffffffff16815260200190815260200160002080548060200260200160405190810160405280929190818152602001828054801561212657602002820191906000526020600020906000905b82829054906101000a900460ff1660ff16815260200190600101906020826000010492830192600103820291508084116120ef5790505b5050505050905090565b6000601360003373ffffffffffffffffffffffffffffffffffffffff1673ffffffffffffffffffffffffffffffffffffffff16815260200190815260200160002060008373ffffffffffffffffffffffffffffffffffffffff1673ffffffffffffffffffffffffffffffffffffffff16815260200190815260200160002060009054906101000a900460ff16156121fc576040517f08c379a00000000000000000000000000000000000000000000000000000000081526004016121f39061639a565b60405180910390fd5b6000601260008473ffffffffffffffffffffffffffffffffffffffff1673ffffffffffffffffffffffffffffffffffffffff1681526020019081526020016000209050600060405180604001604052808681526020013373ffffffffffffffffffffffffffffffffffffffff168152509050818190806001815401808255809150506001900390600052602060002090600202016000909190919091506000820151816000015560208201518160010160006101000a81548173ffffffffffffffffffffffffffffffffffffffff021916908373ffffffffffffffffffffffffffffffffffffffff16021790555050506001601360003373ffffffffffffffffffffffffffffffffffffffff1673ffffffffffffffffffffffffffffffffffffffff16815260200190815260200160002060008673ffffffffffffffffffffffffffffffffffffffff1673ffffffffffffffffffffffffffffffffffffffff16815260200190815260200160002060006101000a81548160ff0219169083151502179055507fc999a2e7bbd626b01f09fe9f4e9f7e4a8fbbb630a4cd8ab240123f6f3275207c3385876040516123b493929190615da7565b60405180910390a18433856040516020016123d193929190615e47565b604051602081830303815290604052805190602001209250505092915050565b600a6020528060005260406000206000915090508060000160009054906101000a900473ffffffffffffffffffffffffffffffffffffffff169080600101805461243a90615af8565b80601f016020809104026020016040519081016040528092919081815260200182805461246690615af8565b80156124b35780601f10612488576101008083540402835291602001916124b3565b820191906000526020600020905b81548152906001019060200180831161249657829003601f168201915b5050505050908060020154905083565b60006124cf600e61436b565b905060006040518061010001604052808381526020018a815260200189815260200188815260200187815260200186815260200185815260200184815250905080600b60008481526020019081526020016000206000820151816000015560208201518160010155604082015181600201556060820151816003015560808201518160040190816125609190615cd5565b5060a08201518160050190816125769190615cd5565b5060c082015181600601908161258c9190615cd5565b5060e08201518160070190816125a29190615cd5565b509050506125b0600e614379565b505050505050505050565b6060600460003373ffffffffffffffffffffffffffffffffffffffff1673ffffffffffffffffffffffffffffffffffffffff168152602001908152602001600020805480602002602001604051908101604052809291908181526020016000905b828210156126a15783829060005260206000200160038060200260405190810160405280929190826003801561268d576020028201916000905b82829054906101000a900460ff1660ff16815260200190600101906020826000010492830192600103820291508084116126565790505b50505050508152602001906001019061261c565b50505050905090565b600060405180606001604052803373ffffffffffffffffffffffffffffffffffffffff1681526020018381526020016000815250905080600a60003373ffffffffffffffffffffffffffffffffffffffff1673ffffffffffffffffffffffffffffffffffffffff16815260200190815260200160002060008201518160000160006101000a81548173ffffffffffffffffffffffffffffffffffffffff021916908373ffffffffffffffffffffffffffffffffffffffff160217905550602082015181600101908161277c9190615cd5565b50604082015181600201559050505050565b6000816040516020016127a19190615ab2565b6040516020818303038152906040528051906020012090506000600d60008581526020019081526020016000206040518060a0016040529081600082015481526020016001820160009054906101000a900460ff16151515158152602001600282016040518060600160405290816000820160009054906101000a900473ffffffffffffffffffffffffffffffffffffffff1673ffffffffffffffffffffffffffffffffffffffff1673ffffffffffffffffffffffffffffffffffffffff16815260200160018201805461287490615af8565b80601f01602080910402602001604051908101604052809291908181526020018280546128a090615af8565b80156128ed5780601f106128c2576101008083540402835291602001916128ed565b820191906000526020600020905b8154815290600101906020018083116128d057829003601f168201915b505050505081526020016002820154815250508152602001600582016040518060800160405290816000820160009054906101000a900473ffffffffffffffffffffffffffffffffffffffff1673ffffffffffffffffffffffffffffffffffffffff1673ffffffffffffffffffffffffffffffffffffffff16815260200160018201805461297a90615af8565b80601f01602080910402602001604051908101604052809291908181526020018280546129a690615af8565b80156129f35780601f106129c8576101008083540402835291602001916129f3565b820191906000526020600020905b8154815290600101906020018083116129d657829003601f168201915b50505050508152602001600282015481526020016003820154815250508152602001600982016040518061010001604052908160008201548152602001600182015481526020016002820154815260200160038201548152602001600482018054612a5d90615af8565b80601f0160208091040260200160405190810160405280929190818152602001828054612a8990615af8565b8015612ad65780601f10612aab57610100808354040283529160200191612ad6565b820191906000526020600020905b815481529060010190602001808311612ab957829003601f168201915b50505050508152602001600582018054612aef90615af8565b80601f0160208091040260200160405190810160405280929190818152602001828054612b1b90615af8565b8015612b685780601f10612b3d57610100808354040283529160200191612b68565b820191906000526020600020905b815481529060010190602001808311612b4b57829003601f168201915b50505050508152602001600682018054612b8190615af8565b80601f0160208091040260200160405190810160405280929190818152602001828054612bad90615af8565b8015612bfa5780601f10612bcf57610100808354040283529160200191612bfa565b820191906000526020600020905b815481529060010190602001808311612bdd57829003601f168201915b50505050508152602001600782018054612c1390615af8565b80601f0160208091040260200160405190810160405280929190818152602001828054612c3f90615af8565b8015612c8c5780601f10612c6157610100808354040283529160200191612c8c565b820191906000526020600020905b815481529060010190602001808311612c6f57829003601f168201915b5050505050815250508152505090508181606001516040015114612cdc576040517feb7eb8e000000000000000000000000000000000000000000000000000000000815260040160405180910390fd5b600181602001901515908115158152505080600d60008681526020019081526020016000206000820151816000015560208201518160010160006101000a81548160ff02191690831515021790555060408201518160020160008201518160000160006101000a81548173ffffffffffffffffffffffffffffffffffffffff021916908373ffffffffffffffffffffffffffffffffffffffff1602179055506020820151816001019081612d909190615cd5565b5060408201518160020155505060608201518160050160008201518160000160006101000a81548173ffffffffffffffffffffffffffffffffffffffff021916908373ffffffffffffffffffffffffffffffffffffffff1602179055506020820151816001019081612e029190615cd5565b5060408201518160020155606082015181600301555050608082015181600901600082015181600001556020820151816001015560408201518160020155606082015181600301556080820151816004019081612e5f9190615cd5565b5060a0820151816005019081612e759190615cd5565b5060c0820151816006019081612e8b9190615cd5565b5060e0820151816007019081612ea19190615cd5565b50505090505050505050565b612eb56144a1565b600d60008381526020019081526020016000206040518060a0016040529081600082015481526020016001820160009054906101000a900460ff16151515158152602001600282016040518060600160405290816000820160009054906101000a900473ffffffffffffffffffffffffffffffffffffffff1673ffffffffffffffffffffffffffffffffffffffff1673ffffffffffffffffffffffffffffffffffffffff168152602001600182018054612f6e90615af8565b80601f0160208091040260200160405190810160405280929190818152602001828054612f9a90615af8565b8015612fe75780601f10612fbc57610100808354040283529160200191612fe7565b820191906000526020600020905b815481529060010190602001808311612fca57829003601f168201915b505050505081526020016002820154815250508152602001600582016040518060800160405290816000820160009054906101000a900473ffffffffffffffffffffffffffffffffffffffff1673ffffffffffffffffffffffffffffffffffffffff1673ffffffffffffffffffffffffffffffffffffffff16815260200160018201805461307490615af8565b80601f01602080910402602001604051908101604052809291908181526020018280546130a090615af8565b80156130ed5780601f106130c2576101008083540402835291602001916130ed565b820191906000526020600020905b8154815290600101906020018083116130d057829003601f168201915b5050505050815260200160028201548152602001600382015481525050815260200160098201604051806101000160405290816000820154815260200160018201548152602001600282015481526020016003820154815260200160048201805461315790615af8565b80601f016020809104026020016040519081016040528092919081815260200182805461318390615af8565b80156131d05780601f106131a5576101008083540402835291602001916131d0565b820191906000526020600020905b8154815290600101906020018083116131b357829003601f168201915b505050505081526020016005820180546131e990615af8565b80601f016020809104026020016040519081016040528092919081815260200182805461321590615af8565b80156132625780601f1061323757610100808354040283529160200191613262565b820191906000526020600020905b81548152906001019060200180831161324557829003601f168201915b5050505050815260200160068201805461327b90615af8565b80601f01602080910402602001604051908101604052809291908181526020018280546132a790615af8565b80156132f45780601f106132c9576101008083540402835291602001916132f4565b820191906000526020600020905b8154815290600101906020018083116132d757829003601f168201915b5050505050815260200160078201805461330d90615af8565b80601f016020809104026020016040519081016040528092919081815260200182805461333990615af8565b80156133865780601f1061335b57610100808354040283529160200191613386565b820191906000526020600020905b81548152906001019060200180831161336957829003601f168201915b505050505081525050815250509050919050565b6133a2614460565b600960008373ffffffffffffffffffffffffffffffffffffffff1673ffffffffffffffffffffffffffffffffffffffff1681526020019081526020016000206040518060800160405290816000820160009054906101000a900473ffffffffffffffffffffffffffffffffffffffff1673ffffffffffffffffffffffffffffffffffffffff1673ffffffffffffffffffffffffffffffffffffffff16815260200160018201805461345290615af8565b80601f016020809104026020016040519081016040528092919081815260200182805461347e90615af8565b80156134cb5780601f106134a0576101008083540402835291602001916134cb565b820191906000526020600020905b8154815290600101906020018083116134ae57829003601f168201915b50505050508152602001600282015481526020016003820154815250509050919050565b600060405180606001604052803373ffffffffffffffffffffffffffffffffffffffff1681526020018381526020016000815250905080600860003373ffffffffffffffffffffffffffffffffffffffff1673ffffffffffffffffffffffffffffffffffffffff16815260200190815260200160002060008201518160000160006101000a81548173ffffffffffffffffffffffffffffffffffffffff021916908373ffffffffffffffffffffffffffffffffffffffff16021790555060208201518160010190816135c19190615cd5565b50604082015181600201559050505050565b600d6020528060005260406000206000915090508060000154908060010160009054906101000a900460ff1690806002016040518060600160405290816000820160009054906101000a900473ffffffffffffffffffffffffffffffffffffffff1673ffffffffffffffffffffffffffffffffffffffff1673ffffffffffffffffffffffffffffffffffffffff16815260200160018201805461367590615af8565b80601f01602080910402602001604051908101604052809291908181526020018280546136a190615af8565b80156136ee5780601f106136c3576101008083540402835291602001916136ee565b820191906000526020600020905b8154815290600101906020018083116136d157829003601f168201915b5050505050815260200160028201548152505090806005016040518060800160405290816000820160009054906101000a900473ffffffffffffffffffffffffffffffffffffffff1673ffffffffffffffffffffffffffffffffffffffff1673ffffffffffffffffffffffffffffffffffffffff16815260200160018201805461377790615af8565b80601f01602080910402602001604051908101604052809291908181526020018280546137a390615af8565b80156137f05780601f106137c5576101008083540402835291602001916137f0565b820191906000526020600020905b8154815290600101906020018083116137d357829003601f168201915b50505050508152602001600282015481526020016003820154815250509080600901604051806101000160405290816000820154815260200160018201548152602001600282015481526020016003820154815260200160048201805461385690615af8565b80601f016020809104026020016040519081016040528092919081815260200182805461388290615af8565b80156138cf5780601f106138a4576101008083540402835291602001916138cf565b820191906000526020600020905b8154815290600101906020018083116138b257829003601f168201915b505050505081526020016005820180546138e890615af8565b80601f016020809104026020016040519081016040528092919081815260200182805461391490615af8565b80156139615780601f1061393657610100808354040283529160200191613961565b820191906000526020600020905b81548152906001019060200180831161394457829003601f168201915b5050505050815260200160068201805461397a90615af8565b80601f01602080910402602001604051908101604052809291908181526020018280546139a690615af8565b80156139f35780601f106139c8576101008083540402835291602001916139f3565b820191906000526020600020905b8154815290600101906020018083116139d657829003601f168201915b50505050508152602001600782018054613a0c90615af8565b80601f0160208091040260200160405190810160405280929190818152602001828054613a3890615af8565b8015613a855780601f10613a5a57610100808354040283529160200191613a85565b820191906000526020600020905b815481529060010190602001808311613a6857829003601f168201915b505050505081525050905085565b60116020528160005260406000208181548110613aaf57600080fd5b9060005260206000209060020201600091509150508060000154908060010160009054906101000a900473ffffffffffffffffffffffffffffffffffffffff16905082565b60096020528060005260406000206000915090508060000160009054906101000a900473ffffffffffffffffffffffffffffffffffffffff1690806001018054613b3d90615af8565b80601f0160208091040260200160405190810160405280929190818152602001828054613b6990615af8565b8015613bb65780601f10613b8b57610100808354040283529160200191613bb6565b820191906000526020600020905b815481529060010190602001808311613b9957829003601f168201915b5050505050908060020154908060030154905084565b60016020528060005260406000206000915054906101000a900473ffffffffffffffffffffffffffffffffffffffff1681565b613c076144e4565b600860008373ffffffffffffffffffffffffffffffffffffffff1673ffffffffffffffffffffffffffffffffffffffff1681526020019081526020016000206040518060600160405290816000820160009054906101000a900473ffffffffffffffffffffffffffffffffffffffff1673ffffffffffffffffffffffffffffffffffffffff1673ffffffffffffffffffffffffffffffffffffffff168152602001600182018054613cb790615af8565b80601f0160208091040260200160405190810160405280929190818152602001828054613ce390615af8565b8015613d305780601f10613d0557610100808354040283529160200191613d30565b820191906000526020600020905b815481529060010190602001808311613d1357829003601f168201915b505050505081526020016002820154815250509050919050565b613d5261451b565b600b60008381526020019081526020016000206040518061010001604052908160008201548152602001600182015481526020016002820154815260200160038201548152602001600482018054613da990615af8565b80601f0160208091040260200160405190810160405280929190818152602001828054613dd590615af8565b8015613e225780601f10613df757610100808354040283529160200191613e22565b820191906000526020600020905b815481529060010190602001808311613e0557829003601f168201915b50505050508152602001600582018054613e3b90615af8565b80601f0160208091040260200160405190810160405280929190818152602001828054613e6790615af8565b8015613eb45780601f10613e8957610100808354040283529160200191613eb4565b820191906000526020600020905b815481529060010190602001808311613e9757829003601f168201915b50505050508152602001600682018054613ecd90615af8565b80601f0160208091040260200160405190810160405280929190818152602001828054613ef990615af8565b8015613f465780601f10613f1b57610100808354040283529160200191613f46565b820191906000526020600020905b815481529060010190602001808311613f2957829003601f168201915b50505050508152602001600782018054613f5f90615af8565b80601f0160208091040260200160405190810160405280929190818152602001828054613f8b90615af8565b8015613fd85780601f10613fad57610100808354040283529160200191613fd8565b820191906000526020600020905b815481529060010190602001808311613fbb57829003601f168201915b5050505050815250509050919050565b600760003373ffffffffffffffffffffffffffffffffffffffff1673ffffffffffffffffffffffffffffffffffffffff168152602001908152602001600020819080600181540180825580915050600190039060005260206000200160009091909190915090816140599190615cd5565b5050565b6007602052816000526040600020818154811061407957600080fd5b9060005260206000200160009150915050805461409590615af8565b80601f01602080910402602001604051908101604052809291908181526020018280546140c190615af8565b801561410e5780601f106140e35761010080835404028352916020019161410e565b820191906000526020600020905b8154815290600101906020018083116140f157829003601f168201915b505050505081565b60086020528060005260406000206000915090508060000160009054906101000a900473ffffffffffffffffffffffffffffffffffffffff169080600101805461415f90615af8565b80601f016020809104026020016040519081016040528092919081815260200182805461418b90615af8565b80156141d85780601f106141ad576101008083540402835291602001916141d8565b820191906000526020600020905b8154815290600101906020018083116141bb57829003601f168201915b5050505050908060020154905083565b6060601160008373ffffffffffffffffffffffffffffffffffffffff1673ffffffffffffffffffffffffffffffffffffffff168152602001908152602001600020805480602002602001604051908101604052809291908181526020016000905b828210156142db5783829060005260206000209060020201604051806040016040529081600082015481526020016001820160009054906101000a900473ffffffffffffffffffffffffffffffffffffffff1673ffffffffffffffffffffffffffffffffffffffff1673ffffffffffffffffffffffffffffffffffffffff168152505081526020019060010190614249565b505050509050919050565b60136020528160005260406000206020528060005260406000206000915091509054906101000a900460ff1681565b6003602052816000526040600020602052806000526040600020600091509150505481565b600c602052816000526040600020818154811061435657600080fd5b90600052602060002001600091509150505481565b600081600001549050919050565b6001816000016000828254019250508190555050565b826003601f016020900481019282156144185791602002820160005b838211156143e957835183826101000a81548160ff021916908360ff16021790555092602001926001016020816000010492830192600103026143ab565b80156144165782816101000a81549060ff02191690556001016020816000010492830192600103026143e9565b505b5090506144259190614560565b5090565b6040518060600160405280600073ffffffffffffffffffffffffffffffffffffffff16815260200160608152602001600081525090565b6040518060800160405280600073ffffffffffffffffffffffffffffffffffffffff1681526020016060815260200160008019168152602001600081525090565b6040518060a00160405280600081526020016000151581526020016144c4614429565b81526020016144d1614460565b81526020016144de61451b565b81525090565b6040518060600160405280600073ffffffffffffffffffffffffffffffffffffffff16815260200160608152602001600081525090565b60405180610100016040528060008152602001600081526020016000815260200160008152602001606081526020016060815260200160608152602001606081525090565b5b80821115614579576000816000905550600101614561565b5090565b6000604051905090565b600080fd5b600080fd5b600080fd5b600080fd5b6000601f19601f8301169050919050565b7f4e487b7100000000000000000000000000000000000000000000000000000000600052604160045260246000fd5b6145e48261459b565b810181811067ffffffffffffffff82111715614603576146026145ac565b5b80604052505050565b600061461661457d565b905061462282826145db565b919050565b600067ffffffffffffffff821115614642576146416145ac565b5b61464b8261459b565b9050602081019050919050565b82818337600083830152505050565b600061467a61467584614627565b61460c565b90508281526020810184848401111561469657614695614596565b5b6146a1848285614658565b509392505050565b600082601f8301126146be576146bd614591565b5b81356146ce848260208601614667565b91505092915050565b6000602082840312156146ed576146ec614587565b5b600082013567ffffffffffffffff81111561470b5761470a61458c565b5b614717848285016146a9565b91505092915050565b600073ffffffffffffffffffffffffffffffffffffffff82169050919050565b600061474b82614720565b9050919050565b61475b81614740565b811461476657600080fd5b50565b60008135905061477881614752565b92915050565b6000819050919050565b6147918161477e565b811461479c57600080fd5b50565b6000813590506147ae81614788565b92915050565b600080604083850312156147cb576147ca614587565b5b60006147d985828601614769565b92505060206147ea8582860161479f565b9150509250929050565b6147fd8161477e565b82525050565b61480c81614740565b82525050565b600060408201905061482760008301856147f4565b6148346020830184614803565b9392505050565b6000806040838503121561485257614851614587565b5b60006148608582860161479f565b925050602061487185828601614769565b9150509250929050565b6000819050919050565b61488e8161487b565b82525050565b60006020820190506148a96000830184614885565b92915050565b6000602082840312156148c5576148c4614587565b5b60006148d38482850161479f565b91505092915050565b600081519050919050565b600082825260208201905092915050565b60005b838110156149165780820151818401526020810190506148fb565b60008484015250505050565b600061492d826148dc565b61493781856148e7565b93506149478185602086016148f8565b6149508161459b565b840191505092915050565b600061010082019050614971600083018b6147f4565b61497e602083018a6147f4565b61498b60408301896147f4565b61499860608301886147f4565b81810360808301526149aa8187614922565b905081810360a08301526149be8186614922565b905081810360c08301526149d28185614922565b905081810360e08301526149e68184614922565b90509998505050505050505050565b600060ff82169050919050565b614a0b816149f5565b8114614a1657600080fd5b50565b600081359050614a2881614a02565b92915050565b600080600060608486031215614a4757614a46614587565b5b6000614a5586828701614a19565b9350506020614a6686828701614a19565b9250506040614a7786828701614a19565b9150509250925092565b614a8a8161487b565b8114614a9557600080fd5b50565b600081359050614aa781614a81565b92915050565b600080600060608486031215614ac657614ac5614587565b5b6000614ad486828701614a98565b9350506020614ae58682870161479f565b9250506040614af686828701614a19565b9150509250925092565b600081519050919050565b600082825260208201905092915050565b6000819050602082019050919050565b614b358161477e565b82525050565b6000614b478383614b2c565b60208301905092915050565b6000602082019050919050565b6000614b6b82614b00565b614b758185614b0b565b9350614b8083614b1c565b8060005b83811015614bb1578151614b988882614b3b565b9750614ba383614b53565b925050600181019050614b84565b5085935050505092915050565b60006020820190508181036000830152614bd88184614b60565b905092915050565b600060208284031215614bf657614bf5614587565b5b6000614c0484828501614769565b91505092915050565b6000602082019050614c2260008301846147f4565b92915050565b600060208284031215614c3e57614c3d614587565b5b6000614c4c84828501614a98565b91505092915050565b6000602082019050614c6a6000830184614803565b92915050565b600081519050919050565b600082825260208201905092915050565b6000819050602082019050919050565b600082825260208201905092915050565b6000614cb8826148dc565b614cc28185614c9c565b9350614cd28185602086016148f8565b614cdb8161459b565b840191505092915050565b6000614cf28383614cad565b905092915050565b6000602082019050919050565b6000614d1282614c70565b614d1c8185614c7b565b935083602082028501614d2e85614c8c565b8060005b85811015614d6a5784840389528151614d4b8582614ce6565b9450614d5683614cfa565b925060208a01995050600181019050614d32565b50829750879550505050505092915050565b60006020820190508181036000830152614d968184614d07565b905092915050565b614da7816149f5565b82525050565b6000602082019050614dc26000830184614d9e565b92915050565b600080600060608486031215614de157614de0614587565b5b6000614def86828701614769565b9350506020614e008682870161479f565b9250506040614e118682870161479f565b9150509250925092565b600080600060608486031215614e3457614e33614587565b5b6000614e4286828701614a98565b9350506020614e5386828701614769565b9250506040614e6486828701614a19565b9150509250925092565b614e7781614740565b82525050565b6000606083016000830151614e956000860182614e6e565b5060208301518482036020860152614ead8282614cad565b9150506040830151614ec26040860182614b2c565b508091505092915050565b60006020820190508181036000830152614ee78184614e7d565b905092915050565b60008060408385031215614f0657614f05614587565b5b6000614f148582860161479f565b925050602083013567ffffffffffffffff811115614f3557614f3461458c565b5b614f41858286016146a9565b9150509250929050565b600081519050919050565b600082825260208201905092915050565b6000819050602082019050919050565b604082016000820151614f8d6000850182614b2c565b506020820151614fa06020850182614e6e565b50505050565b6000614fb28383614f77565b60408301905092915050565b6000602082019050919050565b6000614fd682614f4b565b614fe08185614f56565b9350614feb83614f67565b8060005b8381101561501c5781516150038882614fa6565b975061500e83614fbe565b925050600181019050614fef565b5085935050505092915050565b600060208201905081810360008301526150438184614fcb565b905092915050565b600081519050919050565b600082825260208201905092915050565b6000819050602082019050919050565b615080816149f5565b82525050565b60006150928383615077565b60208301905092915050565b6000602082019050919050565b60006150b68261504b565b6150c08185615056565b93506150cb83615067565b8060005b838110156150fc5781516150e38882615086565b97506150ee8361509e565b9250506001810190506150cf565b5085935050505092915050565b6000602082019050818103600083015261512381846150ab565b905092915050565b60006060820190506151406000830186614803565b81810360208301526151528185614922565b905061516160408301846147f4565b949350505050565b600080600080600080600060e0888a03121561518857615187614587565b5b60006151968a828b0161479f565b97505060206151a78a828b0161479f565b96505060406151b88a828b0161479f565b955050606088013567ffffffffffffffff8111156151d9576151d861458c565b5b6151e58a828b016146a9565b945050608088013567ffffffffffffffff8111156152065761520561458c565b5b6152128a828b016146a9565b93505060a088013567ffffffffffffffff8111156152335761523261458c565b5b61523f8a828b016146a9565b92505060c088013567ffffffffffffffff8111156152605761525f61458c565b5b61526c8a828b016146a9565b91505092959891949750929550565b600081519050919050565b600082825260208201905092915050565b6000819050602082019050919050565b600060039050919050565b600081905092915050565b6000819050919050565b6000602082019050919050565b6152dd816152a7565b6152e781846152b2565b92506152f2826152bd565b8060005b8381101561532357815161530a8782615086565b9650615315836152c7565b9250506001810190506152f6565b505050505050565b600061533783836152d4565b60608301905092915050565b6000602082019050919050565b600061535b8261527b565b6153658185615286565b935061537083615297565b8060005b838110156153a1578151615388888261532b565b975061539383615343565b925050600181019050615374565b5085935050505092915050565b600060208201905081810360008301526153c88184615350565b905092915050565b60008115159050919050565b6153e5816153d0565b82525050565b60006060830160008301516154036000860182614e6e565b506020830151848203602086015261541b8282614cad565b91505060408301516154306040860182614b2c565b508091505092915050565b6154448161487b565b82525050565b60006080830160008301516154626000860182614e6e565b506020830151848203602086015261547a8282614cad565b915050604083015161548f604086018261543b565b5060608301516154a26060860182614b2c565b508091505092915050565b6000610100830160008301516154c66000860182614b2c565b5060208301516154d96020860182614b2c565b5060408301516154ec6040860182614b2c565b5060608301516154ff6060860182614b2c565b50608083015184820360808601526155178282614cad565b91505060a083015184820360a08601526155318282614cad565b91505060c083015184820360c086015261554b8282614cad565b91505060e083015184820360e08601526155658282614cad565b9150508091505092915050565b600060a08301600083015161558a6000860182614b2c565b50602083015161559d60208601826153dc565b50604083015184820360408601526155b582826153eb565b915050606083015184820360608601526155cf828261544a565b915050608083015184820360808601526155e982826154ad565b9150508091505092915050565b600060208201905081810360008301526156108184615572565b905092915050565b60006080830160008301516156306000860182614e6e565b50602083015184820360208601526156488282614cad565b915050604083015161565d604086018261543b565b5060608301516156706060860182614b2c565b508091505092915050565b600060208201905081810360008301526156958184615618565b905092915050565b6156a6816153d0565b82525050565b6000610100830160008301516156c56000860182614b2c565b5060208301516156d86020860182614b2c565b5060408301516156eb6040860182614b2c565b5060608301516156fe6060860182614b2c565b50608083015184820360808601526157168282614cad565b91505060a083015184820360a08601526157308282614cad565b91505060c083015184820360c086015261574a8282614cad565b91505060e083015184820360e08601526157648282614cad565b9150508091505092915050565b600060a08201905061578660008301886147f4565b615793602083018761569d565b81810360408301526157a58186614e7d565b905081810360608301526157b98185615618565b905081810360808301526157cd81846156ac565b90509695505050505050565b60006080820190506157ee6000830187614803565b81810360208301526158008186614922565b905061580f6040830185614885565b61581c60608301846147f4565b95945050505050565b600060608301600083015161583d6000860182614e6e565b50602083015184820360208601526158558282614cad565b915050604083015161586a6040860182614b2c565b508091505092915050565b6000602082019050818103600083015261588f8184615825565b905092915050565b600060208201905081810360008301526158b181846156ac565b905092915050565b600060208201905081810360008301526158d38184614922565b905092915050565b600081519050919050565b600082825260208201905092915050565b6000819050602082019050919050565b60408201600082015161591d6000850182614b2c565b5060208201516159306020850182614e6e565b50505050565b60006159428383615907565b60408301905092915050565b6000602082019050919050565b6000615966826158db565b61597081856158e6565b935061597b836158f7565b8060005b838110156159ac5781516159938882615936565b975061599e8361594e565b92505060018101905061597f565b5085935050505092915050565b600060208201905081810360008301526159d3818461595b565b905092915050565b600080604083850312156159f2576159f1614587565b5b6000615a0085828601614769565b9250506020615a1185828601614769565b9150509250929050565b6000602082019050615a30600083018461569d565b92915050565b60008060408385031215615a4d57615a4c614587565b5b6000615a5b85828601614769565b9250506020615a6c85828601614a98565b9150509250929050565b600081905092915050565b6000615a8c826148dc565b615a968185615a76565b9350615aa68185602086016148f8565b80840191505092915050565b6000615abe8284615a81565b915081905092915050565b7f4e487b7100000000000000000000000000000000000000000000000000000000600052602260045260246000fd5b60006002820490506001821680615b1057607f821691505b602082108103615b2357615b22615ac9565b5b50919050565b60008190508160005260206000209050919050565b60006020601f8301049050919050565b600082821b905092915050565b600060088302615b8b7fffffffffffffffffffffffffffffffffffffffffffffffffffffffffffffffff82615b4e565b615b958683615b4e565b95508019841693508086168417925050509392505050565b6000819050919050565b6000615bd2615bcd615bc88461477e565b615bad565b61477e565b9050919050565b6000819050919050565b615bec83615bb7565b615c00615bf882615bd9565b848454615b5b565b825550505050565b600090565b615c15615c08565b615c20818484615be3565b505050565b5b81811015615c4457615c39600082615c0d565b600181019050615c26565b5050565b601f821115615c8957615c5a81615b29565b615c6384615b3e565b81016020851015615c72578190505b615c86615c7e85615b3e565b830182615c25565b50505b505050565b600082821c905092915050565b6000615cac60001984600802615c8e565b1980831691505092915050565b6000615cc58383615c9b565b9150826002028217905092915050565b615cde826148dc565b67ffffffffffffffff811115615cf757615cf66145ac565b5b615d018254615af8565b615d0c828285615c48565b600060209050601f831160018114615d3f5760008415615d2d578287015190505b615d378582615cb9565b865550615d9f565b601f198416615d4d86615b29565b60005b82811015615d7557848901518255600182019150602085019450602081019050615d50565b86831015615d925784890151615d8e601f891682615c9b565b8355505b6001600288020188555050505b505050505050565b6000606082019050615dbc6000830186614803565b615dc96020830185614803565b615dd660408301846147f4565b949350505050565b6000819050919050565b615df9615df48261477e565b615dde565b82525050565b60008160601b9050919050565b6000615e1782615dff565b9050919050565b6000615e2982615e0c565b9050919050565b615e41615e3c82614740565b615e1e565b82525050565b6000615e538286615de8565b602082019150615e638285615e30565b601482019150615e738284615e30565b601482019150819050949350505050565b7f4d6f6e746820312070657263656e74616765206265747765656e203020616e6460008201527f2031303021000000000000000000000000000000000000000000000000000000602082015250565b6000615ee06025836148e7565b9150615eeb82615e84565b604082019050919050565b60006020820190508181036000830152615f0f81615ed3565b9050919050565b7f4d6f6e746820322070657263656e74616765206265747765656e203020616e6460008201527f2031303021000000000000000000000000000000000000000000000000000000602082015250565b6000615f726025836148e7565b9150615f7d82615f16565b604082019050919050565b60006020820190508181036000830152615fa181615f65565b9050919050565b7f4d6f6e746820332070657263656e74616765206265747765656e203020616e6460008201527f2031303021000000000000000000000000000000000000000000000000000000602082015250565b60006160046025836148e7565b915061600f82615fa8565b604082019050919050565b6000602082019050818103600083015261603381615ff7565b9050919050565b600060608201905061604f6000830186614d9e565b61605c6020830185614d9e565b6160696040830184614d9e565b949350505050565b60006040820190506160866000830185614803565b6160936020830184614803565b9392505050565b6000815190506160a981614788565b92915050565b6000602082840312156160c5576160c4614587565b5b60006160d38482850161609a565b91505092915050565b7f416c6c6f77616e636520646f657320726561636820616d6f756e7420746f206260008201527f6520747265616e73666572726564210000000000000000000000000000000000602082015250565b6000616138602f836148e7565b9150616143826160dc565b604082019050919050565b600060208201905081810360008301526161678161612b565b9050919050565b7f496e697469616c206465706f73697420696e64657820646f6573206e6f74206d60008201527f6174636821000000000000000000000000000000000000000000000000000000602082015250565b60006161ca6025836148e7565b91506161d58261616e565b604082019050919050565b600060208201905081810360008301526161f9816161bd565b9050919050565b7f4e487b7100000000000000000000000000000000000000000000000000000000600052601160045260246000fd5b600061623a8261477e565b91506162458361477e565b925082820190508082111561625d5761625c616200565b5b92915050565b61626c816153d0565b811461627757600080fd5b50565b60008151905061628981616263565b92915050565b6000602082840312156162a5576162a4614587565b5b60006162b38482850161627a565b91505092915050565b7f546869732066756e6374696f6e206973206e6f74207075626c69630000000000600082015250565b60006162f2601b836148e7565b91506162fd826162bc565b602082019050919050565b60006020820190508181036000830152616321816162e5565b9050919050565b7f596f75206861766520616c72656164792073636f726564207468697320636f6d60008201527f70616e7900000000000000000000000000000000000000000000000000000000602082015250565b60006163846024836148e7565b915061638f82616328565b604082019050919050565b600060208201905081810360008301526163b381616377565b905091905056fea2646970667358221220dc4bed1d04e2d46e88c8c9060fae98302043adc508ef1da754228c6254574c4b64736f6c63430008110033",
  "linkReferences": {},
  "deployedLinkReferences": {}
}