{
  "_format": "hh-sol-artifact-1",
  "contractName": "Recruitment",
  "sourceName": "contracts/Recruitment.sol",
  "abi": [
    {
      "inputs": [],
      "stateMutability": "nonpayable",
      "type": "constructor"
    },
    {
      "anonymous": false,
      "inputs": [
        {
          "indexed": true,
          "internalType": "address",
          "name": "sender",
          "type": "address"
        },
        {
          "indexed": false,
          "internalType": "uint256",
          "name": "amount",
          "type": "uint256"
        }
      ],
      "name": "InitialDepositCompleted",
      "type": "event"
    },
    {
      "inputs": [],
      "name": "SenderAddress",
      "outputs": [
        {
          "internalType": "address",
          "name": "",
          "type": "address"
        }
      ],
      "stateMutability": "view",
      "type": "function"
    },
    {
      "inputs": [],
      "name": "ThisAddress",
      "outputs": [
        {
          "internalType": "address",
          "name": "",
          "type": "address"
        }
      ],
      "stateMutability": "view",
      "type": "function"
    },
    {
      "inputs": [],
      "name": "TokenAddress",
      "outputs": [
        {
          "internalType": "address",
          "name": "",
          "type": "address"
        }
      ],
      "stateMutability": "view",
      "type": "function"
    },
    {
      "inputs": [
        {
          "internalType": "address",
          "name": "",
          "type": "address"
        },
        {
          "internalType": "bytes32",
          "name": "",
          "type": "bytes32"
        }
      ],
      "name": "accountBalances",
      "outputs": [
        {
          "internalType": "uint256",
          "name": "",
          "type": "uint256"
        }
      ],
      "stateMutability": "view",
      "type": "function"
    },
    {
      "inputs": [
        {
          "internalType": "address",
          "name": "",
          "type": "address"
        }
      ],
      "name": "balances",
      "outputs": [
        {
          "internalType": "uint256",
          "name": "",
          "type": "uint256"
        }
      ],
      "stateMutability": "view",
      "type": "function"
    },
    {
      "inputs": [
        {
          "internalType": "bytes32",
          "name": "token",
          "type": "bytes32"
        }
      ],
      "name": "getWhitelistedTokenAddresses",
      "outputs": [
        {
          "internalType": "address",
          "name": "",
          "type": "address"
        }
      ],
      "stateMutability": "view",
      "type": "function"
    },
    {
      "inputs": [
        {
          "internalType": "uint256",
          "name": "amount",
          "type": "uint256"
        },
        {
          "internalType": "bytes32",
          "name": "symbol",
          "type": "bytes32"
        }
      ],
      "name": "initialDeposit",
      "outputs": [],
      "stateMutability": "nonpayable",
      "type": "function"
    },
    {
      "inputs": [
        {
          "internalType": "uint256",
          "name": "amount",
          "type": "uint256"
        }
      ],
      "name": "initialDepositDAI",
      "outputs": [],
      "stateMutability": "nonpayable",
      "type": "function"
    },
    {
      "inputs": [
        {
          "internalType": "bytes32",
          "name": "symbol",
          "type": "bytes32"
        },
        {
          "internalType": "address",
          "name": "tokenAddress",
          "type": "address"
        }
      ],
      "name": "whitelistToken",
      "outputs": [],
      "stateMutability": "nonpayable",
      "type": "function"
    },
    {
      "inputs": [
        {
          "internalType": "bytes32",
          "name": "",
          "type": "bytes32"
        }
      ],
      "name": "whitelistedTokens",
      "outputs": [
        {
          "internalType": "address",
          "name": "",
          "type": "address"
        }
      ],
      "stateMutability": "view",
      "type": "function"
    },
    {
      "inputs": [
        {
          "internalType": "uint256",
          "name": "amount",
          "type": "uint256"
        },
        {
          "internalType": "bytes32",
          "name": "symbol",
          "type": "bytes32"
        }
      ],
      "name": "withdrawTokens",
      "outputs": [],
      "stateMutability": "nonpayable",
      "type": "function"
    }
  ],
  "bytecode": "0x608060405234801561001057600080fd5b50336000806101000a81548173ffffffffffffffffffffffffffffffffffffffff021916908373ffffffffffffffffffffffffffffffffffffffff16021790555061106d806100606000396000f3fe608060405234801561001057600080fd5b50600436106100a95760003560e01c8063a0f71ff711610071578063a0f71ff714610162578063a213664014610180578063aa3d9a151461019e578063c2cba306146101ce578063cb8815c9146101ec578063e64fe36614610208576100a9565b8063069fdaae146100ae57806327e235e3146100ca5780633586932b146100fa57806360751d951461012a5780638f97994b14610146575b600080fd5b6100c860048036038101906100c39190610b4a565b610238565b005b6100e460048036038101906100df9190610b8a565b61031c565b6040516100f19190610bd0565b60405180910390f35b610114600480360381019061010f9190610beb565b610334565b6040516101219190610c27565b60405180910390f35b610144600480360381019061013f9190610c6e565b610371565b005b610160600480360381019061015b9190610c9b565b6105e0565b005b61016a610790565b6040516101779190610c27565b60405180910390f35b610188610798565b6040516101959190610c27565b60405180910390f35b6101b860048036038101906101b39190610beb565b6107a0565b6040516101c59190610c27565b60405180910390f35b6101d66107d3565b6040516101e39190610c27565b60405180910390f35b61020660048036038101906102019190610c9b565b61082e565b005b610222600480360381019061021d9190610cdb565b610a8c565b60405161022f9190610bd0565b60405180910390f35b60008054906101000a900473ffffffffffffffffffffffffffffffffffffffff1673ffffffffffffffffffffffffffffffffffffffff163373ffffffffffffffffffffffffffffffffffffffff16146102c6576040517f08c379a00000000000000000000000000000000000000000000000000000000081526004016102bd90610d78565b60405180910390fd5b806001600084815260200190815260200160002060006101000a81548173ffffffffffffffffffffffffffffffffffffffff021916908373ffffffffffffffffffffffffffffffffffffffff1602179055505050565b60036020528060005260406000206000915090505481565b60006001600083815260200190815260200160002060009054906101000a900473ffffffffffffffffffffffffffffffffffffffff169050919050565b80600160007f3078343434313439000000000000000000000000000000000000000000000000815260200190815260200160002060009054906101000a900473ffffffffffffffffffffffffffffffffffffffff1673ffffffffffffffffffffffffffffffffffffffff1663dd62ed3e33306040518363ffffffff1660e01b8152600401610400929190610d98565b602060405180830381865afa15801561041d573d6000803e3d6000fd5b505050506040513d601f19601f820116820180604052508101906104419190610dd6565b1015610482576040517f08c379a000000000000000000000000000000000000000000000000000000000815260040161047990610e4f565b60405180910390fd5b80600260003373ffffffffffffffffffffffffffffffffffffffff1673ffffffffffffffffffffffffffffffffffffffff16815260200190815260200160002060007f3078343434313439000000000000000000000000000000000000000000000000815260200190815260200160002060008282546105029190610e9e565b92505081905550600160007f3078343434313439000000000000000000000000000000000000000000000000815260200190815260200160002060009054906101000a900473ffffffffffffffffffffffffffffffffffffffff1673ffffffffffffffffffffffffffffffffffffffff166323b872dd3330846040518463ffffffff1660e01b815260040161059993929190610ed2565b6020604051808303816000875af11580156105b8573d6000803e3d6000fd5b505050506040513d601f19601f820116820180604052508101906105dc9190610f41565b5050565b81600260003373ffffffffffffffffffffffffffffffffffffffff1673ffffffffffffffffffffffffffffffffffffffff1681526020019081526020016000206000838152602001908152602001600020541015610673576040517f08c379a000000000000000000000000000000000000000000000000000000000815260040161066a90610fba565b60405180910390fd5b81600260003373ffffffffffffffffffffffffffffffffffffffff1673ffffffffffffffffffffffffffffffffffffffff168152602001908152602001600020600083815260200190815260200160002060008282546106d39190610fda565b925050819055506001600082815260200190815260200160002060009054906101000a900473ffffffffffffffffffffffffffffffffffffffff1673ffffffffffffffffffffffffffffffffffffffff1663a9059cbb33846040518363ffffffff1660e01b815260040161074892919061100e565b6020604051808303816000875af1158015610767573d6000803e3d6000fd5b505050506040513d601f19601f8201168201806040525081019061078b9190610f41565b505050565b600033905090565b600030905090565b60016020528060005260406000206000915054906101000a900473ffffffffffffffffffffffffffffffffffffffff1681565b6000600160007f3078343434313439000000000000000000000000000000000000000000000000815260200190815260200160002060009054906101000a900473ffffffffffffffffffffffffffffffffffffffff16905090565b816001600083815260200190815260200160002060009054906101000a900473ffffffffffffffffffffffffffffffffffffffff1673ffffffffffffffffffffffffffffffffffffffff1663dd62ed3e33306040518363ffffffff1660e01b815260040161089d929190610d98565b602060405180830381865afa1580156108ba573d6000803e3d6000fd5b505050506040513d601f19601f820116820180604052508101906108de9190610dd6565b101561091f576040517f08c379a000000000000000000000000000000000000000000000000000000000815260040161091690610e4f565b60405180910390fd5b81600260003373ffffffffffffffffffffffffffffffffffffffff1673ffffffffffffffffffffffffffffffffffffffff1681526020019081526020016000206000838152602001908152602001600020600082825461097f9190610e9e565b925050819055506001600082815260200190815260200160002060009054906101000a900473ffffffffffffffffffffffffffffffffffffffff1673ffffffffffffffffffffffffffffffffffffffff166323b872dd3330856040518463ffffffff1660e01b81526004016109f693929190610ed2565b6020604051808303816000875af1158015610a15573d6000803e3d6000fd5b505050506040513d601f19601f82011682018060405250810190610a399190610f41565b503373ffffffffffffffffffffffffffffffffffffffff167f57b0545e3662188b55012de236de11cef395c3757d43a2fb17b84dfe4aeab53a83604051610a809190610bd0565b60405180910390a25050565b6002602052816000526040600020602052806000526040600020600091509150505481565b600080fd5b6000819050919050565b610ac981610ab6565b8114610ad457600080fd5b50565b600081359050610ae681610ac0565b92915050565b600073ffffffffffffffffffffffffffffffffffffffff82169050919050565b6000610b1782610aec565b9050919050565b610b2781610b0c565b8114610b3257600080fd5b50565b600081359050610b4481610b1e565b92915050565b60008060408385031215610b6157610b60610ab1565b5b6000610b6f85828601610ad7565b9250506020610b8085828601610b35565b9150509250929050565b600060208284031215610ba057610b9f610ab1565b5b6000610bae84828501610b35565b91505092915050565b6000819050919050565b610bca81610bb7565b82525050565b6000602082019050610be56000830184610bc1565b92915050565b600060208284031215610c0157610c00610ab1565b5b6000610c0f84828501610ad7565b91505092915050565b610c2181610b0c565b82525050565b6000602082019050610c3c6000830184610c18565b92915050565b610c4b81610bb7565b8114610c5657600080fd5b50565b600081359050610c6881610c42565b92915050565b600060208284031215610c8457610c83610ab1565b5b6000610c9284828501610c59565b91505092915050565b60008060408385031215610cb257610cb1610ab1565b5b6000610cc085828601610c59565b9250506020610cd185828601610ad7565b9150509250929050565b60008060408385031215610cf257610cf1610ab1565b5b6000610d0085828601610b35565b9250506020610d1185828601610ad7565b9150509250929050565b600082825260208201905092915050565b7f546869732066756e6374696f6e206973206e6f74207075626c69630000000000600082015250565b6000610d62601b83610d1b565b9150610d6d82610d2c565b602082019050919050565b60006020820190508181036000830152610d9181610d55565b9050919050565b6000604082019050610dad6000830185610c18565b610dba6020830184610c18565b9392505050565b600081519050610dd081610c42565b92915050565b600060208284031215610dec57610deb610ab1565b5b6000610dfa84828501610dc1565b91505092915050565b7f4572726f72206e6f20616c6c6f77616e63650000000000000000000000000000600082015250565b6000610e39601283610d1b565b9150610e4482610e03565b602082019050919050565b60006020820190508181036000830152610e6881610e2c565b9050919050565b7f4e487b7100000000000000000000000000000000000000000000000000000000600052601160045260246000fd5b6000610ea982610bb7565b9150610eb483610bb7565b9250828201905080821115610ecc57610ecb610e6f565b5b92915050565b6000606082019050610ee76000830186610c18565b610ef46020830185610c18565b610f016040830184610bc1565b949350505050565b60008115159050919050565b610f1e81610f09565b8114610f2957600080fd5b50565b600081519050610f3b81610f15565b92915050565b600060208284031215610f5757610f56610ab1565b5b6000610f6584828501610f2c565b91505092915050565b7f496e737566666963656e742066756e6473000000000000000000000000000000600082015250565b6000610fa4601183610d1b565b9150610faf82610f6e565b602082019050919050565b60006020820190508181036000830152610fd381610f97565b9050919050565b6000610fe582610bb7565b9150610ff083610bb7565b925082820390508181111561100857611007610e6f565b5b92915050565b60006040820190506110236000830185610c18565b6110306020830184610bc1565b939250505056fea2646970667358221220a3a50b9520bf7a3daa108ecca7054d356423afe1d0833ef3affbddd0a622534b64736f6c63430008110033",
  "linkReferences": {},
  "deployedLinkReferences": {}
}