{
  "_format": "hh-sol-artifact-1",
  "contractName": "Recruitment",
  "sourceName": "contracts/Recruitment.sol",
  "abi": [
    {
      "inputs": [],
      "stateMutability": "nonpayable",
      "type": "constructor"
    },
    {
      "anonymous": false,
      "inputs": [
        {
          "indexed": true,
          "internalType": "address",
          "name": "sender",
          "type": "address"
        },
        {
          "indexed": false,
          "internalType": "uint256",
          "name": "amount",
          "type": "uint256"
        }
      ],
      "name": "InitialDepositCompleted",
      "type": "event"
    },
    {
      "inputs": [
        {
          "internalType": "address",
          "name": "",
          "type": "address"
        },
        {
          "internalType": "bytes32",
          "name": "",
          "type": "bytes32"
        }
      ],
      "name": "accountBalances",
      "outputs": [
        {
          "internalType": "uint256",
          "name": "",
          "type": "uint256"
        }
      ],
      "stateMutability": "view",
      "type": "function"
    },
    {
      "inputs": [
        {
          "internalType": "address",
          "name": "",
          "type": "address"
        }
      ],
      "name": "balances",
      "outputs": [
        {
          "internalType": "uint256",
          "name": "",
          "type": "uint256"
        }
      ],
      "stateMutability": "view",
      "type": "function"
    },
    {
      "inputs": [
        {
          "internalType": "bytes32",
          "name": "token",
          "type": "bytes32"
        }
      ],
      "name": "getWhitelistedTokenAddresses",
      "outputs": [
        {
          "internalType": "address",
          "name": "",
          "type": "address"
        }
      ],
      "stateMutability": "view",
      "type": "function"
    },
    {
      "inputs": [
        {
          "internalType": "bytes32",
          "name": "token",
          "type": "bytes32"
        }
      ],
      "name": "getWhitelistedTokenDecimals",
      "outputs": [
        {
          "internalType": "uint8",
          "name": "",
          "type": "uint8"
        }
      ],
      "stateMutability": "view",
      "type": "function"
    },
    {
      "inputs": [
        {
          "internalType": "uint256",
          "name": "amount",
          "type": "uint256"
        },
        {
          "internalType": "bytes32",
          "name": "symbol",
          "type": "bytes32"
        }
      ],
      "name": "initialDeposit",
      "outputs": [],
      "stateMutability": "nonpayable",
      "type": "function"
    },
    {
      "inputs": [
        {
          "internalType": "bytes32",
          "name": "symbol",
          "type": "bytes32"
        },
        {
          "internalType": "address",
          "name": "tokenAddress",
          "type": "address"
        },
        {
          "internalType": "uint8",
          "name": "decimals",
          "type": "uint8"
        }
      ],
      "name": "whitelistToken",
      "outputs": [],
      "stateMutability": "nonpayable",
      "type": "function"
    },
    {
      "inputs": [
        {
          "internalType": "bytes32",
          "name": "",
          "type": "bytes32"
        }
      ],
      "name": "whitelistedTokenDecimals",
      "outputs": [
        {
          "internalType": "uint8",
          "name": "",
          "type": "uint8"
        }
      ],
      "stateMutability": "view",
      "type": "function"
    },
    {
      "inputs": [
        {
          "internalType": "bytes32",
          "name": "",
          "type": "bytes32"
        }
      ],
      "name": "whitelistedTokens",
      "outputs": [
        {
          "internalType": "address",
          "name": "",
          "type": "address"
        }
      ],
      "stateMutability": "view",
      "type": "function"
    },
    {
      "inputs": [
        {
          "internalType": "uint256",
          "name": "amount",
          "type": "uint256"
        },
        {
          "internalType": "bytes32",
          "name": "symbol",
          "type": "bytes32"
        }
      ],
      "name": "withdrawTokens",
      "outputs": [],
      "stateMutability": "nonpayable",
      "type": "function"
    }
  ],
  "bytecode": "0x608060405234801561001057600080fd5b50336000806101000a81548173ffffffffffffffffffffffffffffffffffffffff021916908373ffffffffffffffffffffffffffffffffffffffff1602179055506110f4806100606000396000f3fe608060405234801561001057600080fd5b50600436106100935760003560e01c806359a2f89c1161006657806359a2f89c146101445780638f97994b14610174578063aa3d9a1514610190578063cb8815c9146101c0578063e64fe366146101dc57610093565b806327e235e3146100985780633586932b146100c857806346d8426b146100f85780634a88ff4814610114575b600080fd5b6100b260048036038101906100ad9190610900565b61020c565b6040516100bf9190610946565b60405180910390f35b6100e260048036038101906100dd9190610997565b610224565b6040516100ef91906109d3565b60405180910390f35b610112600480360381019061010d9190610a27565b610261565b005b61012e60048036038101906101299190610997565b610372565b60405161013b9190610a89565b60405180910390f35b61015e60048036038101906101599190610997565b610392565b60405161016b9190610a89565b60405180910390f35b61018e60048036038101906101899190610ad0565b6103bc565b005b6101aa60048036038101906101a59190610997565b61056c565b6040516101b791906109d3565b60405180910390f35b6101da60048036038101906101d59190610ad0565b61059f565b005b6101f660048036038101906101f19190610b10565b610878565b6040516102039190610946565b60405180910390f35b60046020528060005260406000206000915090505481565b60006001600083815260200190815260200160002060009054906101000a900473ffffffffffffffffffffffffffffffffffffffff169050919050565b60008054906101000a900473ffffffffffffffffffffffffffffffffffffffff1673ffffffffffffffffffffffffffffffffffffffff163373ffffffffffffffffffffffffffffffffffffffff16146102ef576040517f08c379a00000000000000000000000000000000000000000000000000000000081526004016102e690610bad565b60405180910390fd5b806002600085815260200190815260200160002060006101000a81548160ff021916908360ff160217905550816001600085815260200190815260200160002060006101000a81548173ffffffffffffffffffffffffffffffffffffffff021916908373ffffffffffffffffffffffffffffffffffffffff160217905550505050565b60026020528060005260406000206000915054906101000a900460ff1681565b60006002600083815260200190815260200160002060009054906101000a900460ff169050919050565b81600360003373ffffffffffffffffffffffffffffffffffffffff1673ffffffffffffffffffffffffffffffffffffffff168152602001908152602001600020600083815260200190815260200160002054101561044f576040517f08c379a000000000000000000000000000000000000000000000000000000000815260040161044690610c19565b60405180910390fd5b81600360003373ffffffffffffffffffffffffffffffffffffffff1673ffffffffffffffffffffffffffffffffffffffff168152602001908152602001600020600083815260200190815260200160002060008282546104af9190610c68565b925050819055506001600082815260200190815260200160002060009054906101000a900473ffffffffffffffffffffffffffffffffffffffff1673ffffffffffffffffffffffffffffffffffffffff1663a9059cbb33846040518363ffffffff1660e01b8152600401610524929190610c9c565b6020604051808303816000875af1158015610543573d6000803e3d6000fd5b505050506040513d601f19601f820116820180604052508101906105679190610cfd565b505050565b60016020528060005260406000206000915054906101000a900473ffffffffffffffffffffffffffffffffffffffff1681565b6002600082815260200190815260200160002060009054906101000a900460ff16600a6105cc9190610e5d565b6103e86105d99190610ea8565b821461061a576040517f08c379a000000000000000000000000000000000000000000000000000000000815260040161061190610f5c565b60405180910390fd5b816001600083815260200190815260200160002060009054906101000a900473ffffffffffffffffffffffffffffffffffffffff1673ffffffffffffffffffffffffffffffffffffffff1663dd62ed3e33306040518363ffffffff1660e01b8152600401610689929190610f7c565b602060405180830381865afa1580156106a6573d6000803e3d6000fd5b505050506040513d601f19601f820116820180604052508101906106ca9190610fba565b101561070b576040517f08c379a000000000000000000000000000000000000000000000000000000000815260040161070290611033565b60405180910390fd5b81600360003373ffffffffffffffffffffffffffffffffffffffff1673ffffffffffffffffffffffffffffffffffffffff1681526020019081526020016000206000838152602001908152602001600020600082825461076b9190611053565b925050819055506001600082815260200190815260200160002060009054906101000a900473ffffffffffffffffffffffffffffffffffffffff1673ffffffffffffffffffffffffffffffffffffffff166323b872dd3330856040518463ffffffff1660e01b81526004016107e293929190611087565b6020604051808303816000875af1158015610801573d6000803e3d6000fd5b505050506040513d601f19601f820116820180604052508101906108259190610cfd565b503373ffffffffffffffffffffffffffffffffffffffff167f57b0545e3662188b55012de236de11cef395c3757d43a2fb17b84dfe4aeab53a8360405161086c9190610946565b60405180910390a25050565b6003602052816000526040600020602052806000526040600020600091509150505481565b600080fd5b600073ffffffffffffffffffffffffffffffffffffffff82169050919050565b60006108cd826108a2565b9050919050565b6108dd816108c2565b81146108e857600080fd5b50565b6000813590506108fa816108d4565b92915050565b6000602082840312156109165761091561089d565b5b6000610924848285016108eb565b91505092915050565b6000819050919050565b6109408161092d565b82525050565b600060208201905061095b6000830184610937565b92915050565b6000819050919050565b61097481610961565b811461097f57600080fd5b50565b6000813590506109918161096b565b92915050565b6000602082840312156109ad576109ac61089d565b5b60006109bb84828501610982565b91505092915050565b6109cd816108c2565b82525050565b60006020820190506109e860008301846109c4565b92915050565b600060ff82169050919050565b610a04816109ee565b8114610a0f57600080fd5b50565b600081359050610a21816109fb565b92915050565b600080600060608486031215610a4057610a3f61089d565b5b6000610a4e86828701610982565b9350506020610a5f868287016108eb565b9250506040610a7086828701610a12565b9150509250925092565b610a83816109ee565b82525050565b6000602082019050610a9e6000830184610a7a565b92915050565b610aad8161092d565b8114610ab857600080fd5b50565b600081359050610aca81610aa4565b92915050565b60008060408385031215610ae757610ae661089d565b5b6000610af585828601610abb565b9250506020610b0685828601610982565b9150509250929050565b60008060408385031215610b2757610b2661089d565b5b6000610b35858286016108eb565b9250506020610b4685828601610982565b9150509250929050565b600082825260208201905092915050565b7f546869732066756e6374696f6e206973206e6f74207075626c69630000000000600082015250565b6000610b97601b83610b50565b9150610ba282610b61565b602082019050919050565b60006020820190508181036000830152610bc681610b8a565b9050919050565b7f496e737566666963656e742066756e6473000000000000000000000000000000600082015250565b6000610c03601183610b50565b9150610c0e82610bcd565b602082019050919050565b60006020820190508181036000830152610c3281610bf6565b9050919050565b7f4e487b7100000000000000000000000000000000000000000000000000000000600052601160045260246000fd5b6000610c738261092d565b9150610c7e8361092d565b9250828203905081811115610c9657610c95610c39565b5b92915050565b6000604082019050610cb160008301856109c4565b610cbe6020830184610937565b9392505050565b60008115159050919050565b610cda81610cc5565b8114610ce557600080fd5b50565b600081519050610cf781610cd1565b92915050565b600060208284031215610d1357610d1261089d565b5b6000610d2184828501610ce8565b91505092915050565b60008160011c9050919050565b6000808291508390505b6001851115610d8157808604811115610d5d57610d5c610c39565b5b6001851615610d6c5780820291505b8081029050610d7a85610d2a565b9450610d41565b94509492505050565b600082610d9a5760019050610e56565b81610da85760009050610e56565b8160018114610dbe5760028114610dc857610df7565b6001915050610e56565b60ff841115610dda57610dd9610c39565b5b8360020a915084821115610df157610df0610c39565b5b50610e56565b5060208310610133831016604e8410600b8410161715610e2c5782820a905083811115610e2757610e26610c39565b5b610e56565b610e398484846001610d37565b92509050818404811115610e5057610e4f610c39565b5b81810290505b9392505050565b6000610e688261092d565b9150610e73836109ee565b9250610ea07fffffffffffffffffffffffffffffffffffffffffffffffffffffffffffffffff8484610d8a565b905092915050565b6000610eb38261092d565b9150610ebe8361092d565b9250828202610ecc8161092d565b91508282048414831517610ee357610ee2610c39565b5b5092915050565b7f416d6f756e742073686f756c6420626520657175616c20746f2031303030205560008201527f5344000000000000000000000000000000000000000000000000000000000000602082015250565b6000610f46602283610b50565b9150610f5182610eea565b604082019050919050565b60006020820190508181036000830152610f7581610f39565b9050919050565b6000604082019050610f9160008301856109c4565b610f9e60208301846109c4565b9392505050565b600081519050610fb481610aa4565b92915050565b600060208284031215610fd057610fcf61089d565b5b6000610fde84828501610fa5565b91505092915050565b7f4572726f72206e6f20616c6c6f77616e63650000000000000000000000000000600082015250565b600061101d601283610b50565b915061102882610fe7565b602082019050919050565b6000602082019050818103600083015261104c81611010565b9050919050565b600061105e8261092d565b91506110698361092d565b925082820190508082111561108157611080610c39565b5b92915050565b600060608201905061109c60008301866109c4565b6110a960208301856109c4565b6110b66040830184610937565b94935050505056fea26469706673582212205063c3988d9d6cd1646cb97bf02e7cfe5a7c63c3e91a918e9e999fb8384d3f8164736f6c63430008110033",
  "linkReferences": {},
  "deployedLinkReferences": {}
}