{
  "_format": "hh-sol-artifact-1",
  "contractName": "Recruitment",
  "sourceName": "contracts/Recruitment.sol",
  "abi": [
    {
      "inputs": [],
      "stateMutability": "nonpayable",
      "type": "constructor"
    },
    {
      "anonymous": false,
      "inputs": [
        {
          "indexed": true,
          "internalType": "address",
          "name": "sender",
          "type": "address"
        },
        {
          "indexed": false,
          "internalType": "uint256",
          "name": "amount",
          "type": "uint256"
        }
      ],
      "name": "DepositCompleted",
      "type": "event"
    },
    {
      "anonymous": false,
      "inputs": [
        {
          "indexed": true,
          "internalType": "address",
          "name": "sender",
          "type": "address"
        },
        {
          "indexed": false,
          "internalType": "uint8",
          "name": "month1RefundPct",
          "type": "uint8"
        },
        {
          "indexed": false,
          "internalType": "uint8",
          "name": "month2RefundPct",
          "type": "uint8"
        },
        {
          "indexed": false,
          "internalType": "uint8",
          "name": "month3RefundPct",
          "type": "uint8"
        }
      ],
      "name": "PercentagesCompleted",
      "type": "event"
    },
    {
      "inputs": [
        {
          "internalType": "address",
          "name": "",
          "type": "address"
        },
        {
          "internalType": "bytes32",
          "name": "",
          "type": "bytes32"
        }
      ],
      "name": "accountBalances",
      "outputs": [
        {
          "internalType": "uint256",
          "name": "",
          "type": "uint256"
        }
      ],
      "stateMutability": "view",
      "type": "function"
    },
    {
      "inputs": [
        {
          "internalType": "address",
          "name": "",
          "type": "address"
        },
        {
          "internalType": "uint256",
          "name": "",
          "type": "uint256"
        }
      ],
      "name": "accountCompleteDeposits",
      "outputs": [
        {
          "internalType": "uint8",
          "name": "",
          "type": "uint8"
        }
      ],
      "stateMutability": "view",
      "type": "function"
    },
    {
      "inputs": [
        {
          "internalType": "address",
          "name": "",
          "type": "address"
        },
        {
          "internalType": "uint256",
          "name": "",
          "type": "uint256"
        },
        {
          "internalType": "uint256",
          "name": "",
          "type": "uint256"
        }
      ],
      "name": "accountMonthlyRefundPcts",
      "outputs": [
        {
          "internalType": "uint8",
          "name": "",
          "type": "uint8"
        }
      ],
      "stateMutability": "view",
      "type": "function"
    },
    {
      "inputs": [
        {
          "internalType": "address",
          "name": "",
          "type": "address"
        }
      ],
      "name": "balances",
      "outputs": [
        {
          "internalType": "uint256",
          "name": "",
          "type": "uint256"
        }
      ],
      "stateMutability": "view",
      "type": "function"
    },
    {
      "inputs": [],
      "name": "getAccountCompleteDeposits",
      "outputs": [
        {
          "internalType": "uint8[]",
          "name": "",
          "type": "uint8[]"
        }
      ],
      "stateMutability": "view",
      "type": "function"
    },
    {
      "inputs": [],
      "name": "getAccountMonthlyRefundPcts",
      "outputs": [
        {
          "internalType": "uint8[3][]",
          "name": "",
          "type": "uint8[3][]"
        }
      ],
      "stateMutability": "view",
      "type": "function"
    },
    {
      "inputs": [],
      "name": "getEmailReferrals",
      "outputs": [
        {
          "internalType": "string[]",
          "name": "",
          "type": "string[]"
        }
      ],
      "stateMutability": "view",
      "type": "function"
    },
    {
      "inputs": [
        {
          "internalType": "bytes32",
          "name": "token",
          "type": "bytes32"
        }
      ],
      "name": "getWhitelistedTokenAddresses",
      "outputs": [
        {
          "internalType": "address",
          "name": "",
          "type": "address"
        }
      ],
      "stateMutability": "view",
      "type": "function"
    },
    {
      "inputs": [
        {
          "internalType": "bytes32",
          "name": "token",
          "type": "bytes32"
        }
      ],
      "name": "getWhitelistedTokenDecimals",
      "outputs": [
        {
          "internalType": "uint8",
          "name": "",
          "type": "uint8"
        }
      ],
      "stateMutability": "view",
      "type": "function"
    },
    {
      "inputs": [
        {
          "internalType": "address",
          "name": "",
          "type": "address"
        },
        {
          "internalType": "uint256",
          "name": "",
          "type": "uint256"
        }
      ],
      "name": "referredEmails",
      "outputs": [
        {
          "internalType": "string",
          "name": "",
          "type": "string"
        }
      ],
      "stateMutability": "view",
      "type": "function"
    },
    {
      "inputs": [
        {
          "internalType": "string",
          "name": "email",
          "type": "string"
        }
      ],
      "name": "setEmailReferrals",
      "outputs": [],
      "stateMutability": "nonpayable",
      "type": "function"
    },
    {
      "inputs": [
        {
          "internalType": "bytes32",
          "name": "symbol",
          "type": "bytes32"
        },
        {
          "internalType": "uint256",
          "name": "amount",
          "type": "uint256"
        },
        {
          "internalType": "uint8",
          "name": "index",
          "type": "uint8"
        }
      ],
      "name": "setFinalDeposit",
      "outputs": [],
      "stateMutability": "nonpayable",
      "type": "function"
    },
    {
      "inputs": [
        {
          "internalType": "uint8",
          "name": "month1RefundPct",
          "type": "uint8"
        },
        {
          "internalType": "uint8",
          "name": "month2RefundPct",
          "type": "uint8"
        },
        {
          "internalType": "uint8",
          "name": "month3RefundPct",
          "type": "uint8"
        }
      ],
      "name": "setPercentages",
      "outputs": [],
      "stateMutability": "nonpayable",
      "type": "function"
    },
    {
      "inputs": [
        {
          "internalType": "bytes32",
          "name": "symbol",
          "type": "bytes32"
        },
        {
          "internalType": "address",
          "name": "tokenAddress",
          "type": "address"
        },
        {
          "internalType": "uint8",
          "name": "decimals",
          "type": "uint8"
        }
      ],
      "name": "whitelistToken",
      "outputs": [],
      "stateMutability": "nonpayable",
      "type": "function"
    },
    {
      "inputs": [
        {
          "internalType": "bytes32",
          "name": "",
          "type": "bytes32"
        }
      ],
      "name": "whitelistedTokenDecimals",
      "outputs": [
        {
          "internalType": "uint8",
          "name": "",
          "type": "uint8"
        }
      ],
      "stateMutability": "view",
      "type": "function"
    },
    {
      "inputs": [
        {
          "internalType": "bytes32",
          "name": "",
          "type": "bytes32"
        }
      ],
      "name": "whitelistedTokens",
      "outputs": [
        {
          "internalType": "address",
          "name": "",
          "type": "address"
        }
      ],
      "stateMutability": "view",
      "type": "function"
    }
  ],
  "bytecode": "0x60806040526103e860085534801561001657600080fd5b50336000806101000a81548173ffffffffffffffffffffffffffffffffffffffff021916908373ffffffffffffffffffffffffffffffffffffffff16021790555061216e806100666000396000f3fe608060405234801561001057600080fd5b50600436106101005760003560e01c80634a88ff4811610097578063aa3d9a1511610066578063aa3d9a15146102d3578063c83b5e4d14610303578063cbb8e56c1461031f578063e64fe3661461034f57610100565b80634a88ff481461023757806359a2f89c146102675780635f3bf286146102975780636821f16a146102b557610100565b806339812da2116100d357806339812da21461019d5780633f7f5e2a146101bb578063466ac552146101eb57806346d8426b1461021b57610100565b80631a2517f9146101055780631dc9ac381461012157806327e235e31461013d5780633586932b1461016d575b600080fd5b61011f600480360381019061011a9190611072565b61037f565b005b61013b60048036038101906101369190611131565b61057b565b005b610157600480360381019061015291906111e2565b6108e3565b604051610164919061121e565b60405180910390f35b61018760048036038101906101829190611239565b6108fb565b6040516101949190611275565b60405180910390f35b6101a5610938565b6040516101b291906113e2565b60405180910390f35b6101d560048036038101906101d09190611404565b610a4e565b6040516101e29190611453565b60405180910390f35b6102056004803603810190610200919061146e565b610a91565b6040516102129190611453565b60405180910390f35b610235600480360381019061023091906114c1565b610ae3565b005b610251600480360381019061024c9190611239565b610bf4565b60405161025e9190611453565b60405180910390f35b610281600480360381019061027c9190611239565b610c14565b60405161028e9190611453565b60405180910390f35b61029f610c3e565b6040516102ac91906115d2565b60405180910390f35b6102bd610cf9565b6040516102ca9190611727565b60405180910390f35b6102ed60048036038101906102e89190611239565b610de8565b6040516102fa9190611275565b60405180910390f35b61031d6004803603810190610318919061187e565b610e1b565b005b61033960048036038101906103349190611404565b610e90565b6040516103469190611911565b60405180910390f35b61036960048036038101906103649190611933565b610f49565b604051610376919061121e565b60405180910390f35b60008360ff1610158015610397575060648360ff1611155b6103d6576040517f08c379a00000000000000000000000000000000000000000000000000000000081526004016103cd906119e5565b60405180910390fd5b60008260ff16101580156103ee575060648260ff1611155b61042d576040517f08c379a000000000000000000000000000000000000000000000000000000000815260040161042490611a77565b60405180910390fd5b60008160ff1610158015610445575060648160ff1611155b610484576040517f08c379a000000000000000000000000000000000000000000000000000000000815260040161047b90611b09565b60405180910390fd5b600460003373ffffffffffffffffffffffffffffffffffffffff1673ffffffffffffffffffffffffffffffffffffffff16815260200190815260200160002060405180606001604052808560ff1660ff1681526020018460ff1660ff1681526020018360ff1660ff1681525090806001815401808255809150506001900390600052602060002001600090919091909150906003610523929190610f6e565b503373ffffffffffffffffffffffffffffffffffffffff167f1345f2810cf7ceff103ed7dad9fae0d668dd8fe713a56c7d0e015609bb5cd11584848460405161056e93929190611b29565b60405180910390a2505050565b816001600085815260200190815260200160002060009054906101000a900473ffffffffffffffffffffffffffffffffffffffff1673ffffffffffffffffffffffffffffffffffffffff1663dd62ed3e33306040518363ffffffff1660e01b81526004016105ea929190611b60565b602060405180830381865afa158015610607573d6000803e3d6000fd5b505050506040513d601f19601f8201168201806040525081019061062b9190611b9e565b101561066c576040517f08c379a000000000000000000000000000000000000000000000000000000000815260040161066390611c3d565b60405180910390fd5b8060ff16600460003373ffffffffffffffffffffffffffffffffffffffff1673ffffffffffffffffffffffffffffffffffffffff16815260200190815260200160002080549050116106f3576040517f08c379a00000000000000000000000000000000000000000000000000000000081526004016106ea90611ccf565b60405180910390fd5b81600360003373ffffffffffffffffffffffffffffffffffffffff1673ffffffffffffffffffffffffffffffffffffffff168152602001908152602001600020600085815260200190815260200160002060008282546107539190611d1e565b925050819055506001600084815260200190815260200160002060009054906101000a900473ffffffffffffffffffffffffffffffffffffffff1673ffffffffffffffffffffffffffffffffffffffff166323b872dd3330856040518463ffffffff1660e01b81526004016107ca93929190611d52565b6020604051808303816000875af11580156107e9573d6000803e3d6000fd5b505050506040513d601f19601f8201168201806040525081019061080d9190611dc1565b50600560003373ffffffffffffffffffffffffffffffffffffffff1673ffffffffffffffffffffffffffffffffffffffff1681526020019081526020016000208190806001815401808255809150506001900390600052602060002090602091828204019190069091909190916101000a81548160ff021916908360ff1602179055503373ffffffffffffffffffffffffffffffffffffffff167ffe49ff9074b43d72959bdaa84c28024687dc010a90ff7329c5c033aa02227e5e836040516108d6919061121e565b60405180910390a2505050565b60066020528060005260406000206000915090505481565b60006001600083815260200190815260200160002060009054906101000a900473ffffffffffffffffffffffffffffffffffffffff169050919050565b6060600760003373ffffffffffffffffffffffffffffffffffffffff1673ffffffffffffffffffffffffffffffffffffffff168152602001908152602001600020805480602002602001604051908101604052809291908181526020016000905b82821015610a455783829060005260206000200180546109b890611e1d565b80601f01602080910402602001604051908101604052809291908181526020018280546109e490611e1d565b8015610a315780601f10610a0657610100808354040283529160200191610a31565b820191906000526020600020905b815481529060010190602001808311610a1457829003601f168201915b505050505081526020019060010190610999565b50505050905090565b60056020528160005260406000208181548110610a6a57600080fd5b9060005260206000209060209182820401919006915091509054906101000a900460ff1681565b60046020528260005260406000208281548110610aad57600080fd5b906000526020600020018160038110610ac557600080fd5b6020918282040191900692509250509054906101000a900460ff1681565b60008054906101000a900473ffffffffffffffffffffffffffffffffffffffff1673ffffffffffffffffffffffffffffffffffffffff163373ffffffffffffffffffffffffffffffffffffffff1614610b71576040517f08c379a0000000000000000000000000000000000000000000000000000000008152600401610b6890611e9a565b60405180910390fd5b806002600085815260200190815260200160002060006101000a81548160ff021916908360ff160217905550816001600085815260200190815260200160002060006101000a81548173ffffffffffffffffffffffffffffffffffffffff021916908373ffffffffffffffffffffffffffffffffffffffff160217905550505050565b60026020528060005260406000206000915054906101000a900460ff1681565b60006002600083815260200190815260200160002060009054906101000a900460ff169050919050565b6060600560003373ffffffffffffffffffffffffffffffffffffffff1673ffffffffffffffffffffffffffffffffffffffff168152602001908152602001600020805480602002602001604051908101604052809291908181526020018280548015610cef57602002820191906000526020600020906000905b82829054906101000a900460ff1660ff1681526020019060010190602082600001049283019260010382029150808411610cb85790505b5050505050905090565b6060600460003373ffffffffffffffffffffffffffffffffffffffff1673ffffffffffffffffffffffffffffffffffffffff168152602001908152602001600020805480602002602001604051908101604052809291908181526020016000905b82821015610ddf57838290600052602060002001600380602002604051908101604052809291908260038015610dcb576020028201916000905b82829054906101000a900460ff1660ff1681526020019060010190602082600001049283019260010382029150808411610d945790505b505050505081526020019060010190610d5a565b50505050905090565b60016020528060005260406000206000915054906101000a900473ffffffffffffffffffffffffffffffffffffffff1681565b600760003373ffffffffffffffffffffffffffffffffffffffff1673ffffffffffffffffffffffffffffffffffffffff16815260200190815260200160002081908060018154018082558091505060019003906000526020600020016000909190919091509081610e8c9190612066565b5050565b60076020528160005260406000208181548110610eac57600080fd5b90600052602060002001600091509150508054610ec890611e1d565b80601f0160208091040260200160405190810160405280929190818152602001828054610ef490611e1d565b8015610f415780601f10610f1657610100808354040283529160200191610f41565b820191906000526020600020905b815481529060010190602001808311610f2457829003601f168201915b505050505081565b6003602052816000526040600020602052806000526040600020600091509150505481565b826003601f01602090048101928215610ff75791602002820160005b83821115610fc857835183826101000a81548160ff021916908360ff1602179055509260200192600101602081600001049283019260010302610f8a565b8015610ff55782816101000a81549060ff0219169055600101602081600001049283019260010302610fc8565b505b5090506110049190611008565b5090565b5b80821115611021576000816000905550600101611009565b5090565b6000604051905090565b600080fd5b600080fd5b600060ff82169050919050565b61104f81611039565b811461105a57600080fd5b50565b60008135905061106c81611046565b92915050565b60008060006060848603121561108b5761108a61102f565b5b60006110998682870161105d565b93505060206110aa8682870161105d565b92505060406110bb8682870161105d565b9150509250925092565b6000819050919050565b6110d8816110c5565b81146110e357600080fd5b50565b6000813590506110f5816110cf565b92915050565b6000819050919050565b61110e816110fb565b811461111957600080fd5b50565b60008135905061112b81611105565b92915050565b60008060006060848603121561114a5761114961102f565b5b6000611158868287016110e6565b93505060206111698682870161111c565b925050604061117a8682870161105d565b9150509250925092565b600073ffffffffffffffffffffffffffffffffffffffff82169050919050565b60006111af82611184565b9050919050565b6111bf816111a4565b81146111ca57600080fd5b50565b6000813590506111dc816111b6565b92915050565b6000602082840312156111f8576111f761102f565b5b6000611206848285016111cd565b91505092915050565b611218816110fb565b82525050565b6000602082019050611233600083018461120f565b92915050565b60006020828403121561124f5761124e61102f565b5b600061125d848285016110e6565b91505092915050565b61126f816111a4565b82525050565b600060208201905061128a6000830184611266565b92915050565b600081519050919050565b600082825260208201905092915050565b6000819050602082019050919050565b600081519050919050565b600082825260208201905092915050565b60005b838110156112f65780820151818401526020810190506112db565b60008484015250505050565b6000601f19601f8301169050919050565b600061131e826112bc565b61132881856112c7565b93506113388185602086016112d8565b61134181611302565b840191505092915050565b60006113588383611313565b905092915050565b6000602082019050919050565b600061137882611290565b611382818561129b565b935083602082028501611394856112ac565b8060005b858110156113d057848403895281516113b1858261134c565b94506113bc83611360565b925060208a01995050600181019050611398565b50829750879550505050505092915050565b600060208201905081810360008301526113fc818461136d565b905092915050565b6000806040838503121561141b5761141a61102f565b5b6000611429858286016111cd565b925050602061143a8582860161111c565b9150509250929050565b61144d81611039565b82525050565b60006020820190506114686000830184611444565b92915050565b6000806000606084860312156114875761148661102f565b5b6000611495868287016111cd565b93505060206114a68682870161111c565b92505060406114b78682870161111c565b9150509250925092565b6000806000606084860312156114da576114d961102f565b5b60006114e8868287016110e6565b93505060206114f9868287016111cd565b925050604061150a8682870161105d565b9150509250925092565b600081519050919050565b600082825260208201905092915050565b6000819050602082019050919050565b61154981611039565b82525050565b600061155b8383611540565b60208301905092915050565b6000602082019050919050565b600061157f82611514565b611589818561151f565b935061159483611530565b8060005b838110156115c55781516115ac888261154f565b97506115b783611567565b925050600181019050611598565b5085935050505092915050565b600060208201905081810360008301526115ec8184611574565b905092915050565b600081519050919050565b600082825260208201905092915050565b6000819050602082019050919050565b600060039050919050565b600081905092915050565b6000819050919050565b6000602082019050919050565b61165681611620565b611660818461162b565b925061166b82611636565b8060005b8381101561169c578151611683878261154f565b965061168e83611640565b92505060018101905061166f565b505050505050565b60006116b0838361164d565b60608301905092915050565b6000602082019050919050565b60006116d4826115f4565b6116de81856115ff565b93506116e983611610565b8060005b8381101561171a57815161170188826116a4565b975061170c836116bc565b9250506001810190506116ed565b5085935050505092915050565b6000602082019050818103600083015261174181846116c9565b905092915050565b600080fd5b600080fd5b7f4e487b7100000000000000000000000000000000000000000000000000000000600052604160045260246000fd5b61178b82611302565b810181811067ffffffffffffffff821117156117aa576117a9611753565b5b80604052505050565b60006117bd611025565b90506117c98282611782565b919050565b600067ffffffffffffffff8211156117e9576117e8611753565b5b6117f282611302565b9050602081019050919050565b82818337600083830152505050565b600061182161181c846117ce565b6117b3565b90508281526020810184848401111561183d5761183c61174e565b5b6118488482856117ff565b509392505050565b600082601f83011261186557611864611749565b5b813561187584826020860161180e565b91505092915050565b6000602082840312156118945761189361102f565b5b600082013567ffffffffffffffff8111156118b2576118b1611034565b5b6118be84828501611850565b91505092915050565b600082825260208201905092915050565b60006118e3826112bc565b6118ed81856118c7565b93506118fd8185602086016112d8565b61190681611302565b840191505092915050565b6000602082019050818103600083015261192b81846118d8565b905092915050565b6000806040838503121561194a5761194961102f565b5b6000611958858286016111cd565b9250506020611969858286016110e6565b9150509250929050565b7f4d6f6e746820312070657263656e74616765206265747765656e203020616e6460008201527f2031303021000000000000000000000000000000000000000000000000000000602082015250565b60006119cf6025836118c7565b91506119da82611973565b604082019050919050565b600060208201905081810360008301526119fe816119c2565b9050919050565b7f4d6f6e746820322070657263656e74616765206265747765656e203020616e6460008201527f2031303021000000000000000000000000000000000000000000000000000000602082015250565b6000611a616025836118c7565b9150611a6c82611a05565b604082019050919050565b60006020820190508181036000830152611a9081611a54565b9050919050565b7f4d6f6e746820332070657263656e74616765206265747765656e203020616e6460008201527f2031303021000000000000000000000000000000000000000000000000000000602082015250565b6000611af36025836118c7565b9150611afe82611a97565b604082019050919050565b60006020820190508181036000830152611b2281611ae6565b9050919050565b6000606082019050611b3e6000830186611444565b611b4b6020830185611444565b611b586040830184611444565b949350505050565b6000604082019050611b756000830185611266565b611b826020830184611266565b9392505050565b600081519050611b9881611105565b92915050565b600060208284031215611bb457611bb361102f565b5b6000611bc284828501611b89565b91505092915050565b7f416c6c6f77616e636520646f657320726561636820616d6f756e7420746f206260008201527f6520747265616e73666572726564210000000000000000000000000000000000602082015250565b6000611c27602f836118c7565b9150611c3282611bcb565b604082019050919050565b60006020820190508181036000830152611c5681611c1a565b9050919050565b7f496e697469616c206465706f73697420696e64657820646f6573206e6f74206d60008201527f6174636821000000000000000000000000000000000000000000000000000000602082015250565b6000611cb96025836118c7565b9150611cc482611c5d565b604082019050919050565b60006020820190508181036000830152611ce881611cac565b9050919050565b7f4e487b7100000000000000000000000000000000000000000000000000000000600052601160045260246000fd5b6000611d29826110fb565b9150611d34836110fb565b9250828201905080821115611d4c57611d4b611cef565b5b92915050565b6000606082019050611d676000830186611266565b611d746020830185611266565b611d81604083018461120f565b949350505050565b60008115159050919050565b611d9e81611d89565b8114611da957600080fd5b50565b600081519050611dbb81611d95565b92915050565b600060208284031215611dd757611dd661102f565b5b6000611de584828501611dac565b91505092915050565b7f4e487b7100000000000000000000000000000000000000000000000000000000600052602260045260246000fd5b60006002820490506001821680611e3557607f821691505b602082108103611e4857611e47611dee565b5b50919050565b7f546869732066756e6374696f6e206973206e6f74207075626c69630000000000600082015250565b6000611e84601b836118c7565b9150611e8f82611e4e565b602082019050919050565b60006020820190508181036000830152611eb381611e77565b9050919050565b60008190508160005260206000209050919050565b60006020601f8301049050919050565b600082821b905092915050565b600060088302611f1c7fffffffffffffffffffffffffffffffffffffffffffffffffffffffffffffffff82611edf565b611f268683611edf565b95508019841693508086168417925050509392505050565b6000819050919050565b6000611f63611f5e611f59846110fb565b611f3e565b6110fb565b9050919050565b6000819050919050565b611f7d83611f48565b611f91611f8982611f6a565b848454611eec565b825550505050565b600090565b611fa6611f99565b611fb1818484611f74565b505050565b5b81811015611fd557611fca600082611f9e565b600181019050611fb7565b5050565b601f82111561201a57611feb81611eba565b611ff484611ecf565b81016020851015612003578190505b61201761200f85611ecf565b830182611fb6565b50505b505050565b600082821c905092915050565b600061203d6000198460080261201f565b1980831691505092915050565b6000612056838361202c565b9150826002028217905092915050565b61206f826112bc565b67ffffffffffffffff81111561208857612087611753565b5b6120928254611e1d565b61209d828285611fd9565b600060209050601f8311600181146120d057600084156120be578287015190505b6120c8858261204a565b865550612130565b601f1984166120de86611eba565b60005b82811015612106578489015182556001820191506020850194506020810190506120e1565b86831015612123578489015161211f601f89168261202c565b8355505b6001600288020188555050505b50505050505056fea26469706673582212204bb48d2c93d6deb64b1c2411eb2811fc08582dd4c7b984432e884970b6d0d62564736f6c63430008110033",
  "linkReferences": {},
  "deployedLinkReferences": {}
}