{
  "_format": "hh-sol-artifact-1",
  "contractName": "EnsSubdomainFactory",
  "sourceName": "contracts/EnsSubdomainFactory.sol",
  "abi": [
    {
      "inputs": [
        {
          "internalType": "contract EnsRegistry",
          "name": "_registry",
          "type": "address"
        },
        {
          "internalType": "contract EnsResolver",
          "name": "_resolver",
          "type": "address"
        }
      ],
      "stateMutability": "nonpayable",
      "type": "constructor"
    },
    {
      "anonymous": false,
      "inputs": [],
      "name": "DomainTransfersLocked",
      "type": "event"
    },
    {
      "anonymous": false,
      "inputs": [
        {
          "indexed": true,
          "internalType": "address",
          "name": "previousOwner",
          "type": "address"
        },
        {
          "indexed": true,
          "internalType": "address",
          "name": "newOwner",
          "type": "address"
        }
      ],
      "name": "OwnershipTransferred",
      "type": "event"
    },
    {
      "anonymous": false,
      "inputs": [
        {
          "indexed": true,
          "internalType": "address",
          "name": "previousRegistry",
          "type": "address"
        },
        {
          "indexed": true,
          "internalType": "address",
          "name": "newRegistry",
          "type": "address"
        }
      ],
      "name": "RegistryUpdated",
      "type": "event"
    },
    {
      "anonymous": false,
      "inputs": [
        {
          "indexed": true,
          "internalType": "address",
          "name": "previousResolver",
          "type": "address"
        },
        {
          "indexed": true,
          "internalType": "address",
          "name": "newResolver",
          "type": "address"
        }
      ],
      "name": "ResolverUpdated",
      "type": "event"
    },
    {
      "anonymous": false,
      "inputs": [
        {
          "indexed": true,
          "internalType": "address",
          "name": "creator",
          "type": "address"
        },
        {
          "indexed": true,
          "internalType": "address",
          "name": "owner",
          "type": "address"
        },
        {
          "indexed": false,
          "internalType": "bytes32",
          "name": "subdomain",
          "type": "bytes32"
        }
      ],
      "name": "SubdomainCreated",
      "type": "event"
    },
    {
      "anonymous": false,
      "inputs": [
        {
          "indexed": true,
          "internalType": "bytes32",
          "name": "node",
          "type": "bytes32"
        },
        {
          "indexed": true,
          "internalType": "string",
          "name": "indexedKey",
          "type": "string"
        },
        {
          "indexed": false,
          "internalType": "string",
          "name": "key",
          "type": "string"
        }
      ],
      "name": "TextChanged",
      "type": "event"
    },
    {
      "anonymous": false,
      "inputs": [
        {
          "indexed": false,
          "internalType": "bytes32",
          "name": "subdomain",
          "type": "bytes32"
        }
      ],
      "name": "TextUpdated",
      "type": "event"
    },
    {
      "inputs": [],
      "name": "domainOwner",
      "outputs": [
        {
          "internalType": "address",
          "name": "",
          "type": "address"
        }
      ],
      "stateMutability": "view",
      "type": "function"
    },
    {
      "inputs": [],
      "name": "lockDomainOwnershipTransfers",
      "outputs": [],
      "stateMutability": "nonpayable",
      "type": "function"
    },
    {
      "inputs": [],
      "name": "locked",
      "outputs": [
        {
          "internalType": "bool",
          "name": "",
          "type": "bool"
        }
      ],
      "stateMutability": "view",
      "type": "function"
    },
    {
      "inputs": [],
      "name": "newSubdomain",
      "outputs": [],
      "stateMutability": "nonpayable",
      "type": "function"
    },
    {
      "inputs": [
        {
          "internalType": "address",
          "name": "_guest",
          "type": "address"
        }
      ],
      "name": "newSubdomainByAddress",
      "outputs": [],
      "stateMutability": "nonpayable",
      "type": "function"
    },
    {
      "inputs": [],
      "name": "registry",
      "outputs": [
        {
          "internalType": "contract EnsRegistry",
          "name": "",
          "type": "address"
        }
      ],
      "stateMutability": "view",
      "type": "function"
    },
    {
      "inputs": [],
      "name": "resolver",
      "outputs": [
        {
          "internalType": "contract EnsResolver",
          "name": "",
          "type": "address"
        }
      ],
      "stateMutability": "view",
      "type": "function"
    },
    {
      "inputs": [
        {
          "internalType": "address",
          "name": "_resolver",
          "type": "address"
        }
      ],
      "name": "setResolver",
      "outputs": [],
      "stateMutability": "nonpayable",
      "type": "function"
    },
    {
      "inputs": [
        {
          "internalType": "bytes32",
          "name": "node",
          "type": "bytes32"
        },
        {
          "internalType": "string",
          "name": "key",
          "type": "string"
        },
        {
          "internalType": "string",
          "name": "value",
          "type": "string"
        }
      ],
      "name": "setText",
      "outputs": [],
      "stateMutability": "nonpayable",
      "type": "function"
    },
    {
      "inputs": [
        {
          "internalType": "string",
          "name": "_key",
          "type": "string"
        },
        {
          "internalType": "string",
          "name": "_value",
          "type": "string"
        }
      ],
      "name": "setText",
      "outputs": [],
      "stateMutability": "nonpayable",
      "type": "function"
    },
    {
      "inputs": [],
      "name": "subdomainOwner",
      "outputs": [
        {
          "internalType": "address",
          "name": "",
          "type": "address"
        }
      ],
      "stateMutability": "view",
      "type": "function"
    },
    {
      "inputs": [],
      "name": "subdomainResolver",
      "outputs": [
        {
          "internalType": "address",
          "name": "",
          "type": "address"
        }
      ],
      "stateMutability": "view",
      "type": "function"
    },
    {
      "inputs": [],
      "name": "subdomainTarget",
      "outputs": [
        {
          "internalType": "address",
          "name": "",
          "type": "address"
        }
      ],
      "stateMutability": "view",
      "type": "function"
    },
    {
      "inputs": [
        {
          "internalType": "string",
          "name": "_key",
          "type": "string"
        }
      ],
      "name": "text",
      "outputs": [
        {
          "internalType": "string",
          "name": "",
          "type": "string"
        }
      ],
      "stateMutability": "view",
      "type": "function"
    },
    {
      "inputs": [
        {
          "internalType": "bytes32",
          "name": "node",
          "type": "bytes32"
        },
        {
          "internalType": "string",
          "name": "key",
          "type": "string"
        }
      ],
      "name": "text",
      "outputs": [
        {
          "internalType": "string",
          "name": "",
          "type": "string"
        }
      ],
      "stateMutability": "view",
      "type": "function"
    },
    {
      "inputs": [
        {
          "internalType": "address payable",
          "name": "_owner",
          "type": "address"
        }
      ],
      "name": "transferContractOwnership",
      "outputs": [],
      "stateMutability": "nonpayable",
      "type": "function"
    },
    {
      "inputs": [
        {
          "internalType": "bytes32",
          "name": "_node",
          "type": "bytes32"
        },
        {
          "internalType": "address",
          "name": "_owner",
          "type": "address"
        }
      ],
      "name": "transferDomainOwnership",
      "outputs": [],
      "stateMutability": "nonpayable",
      "type": "function"
    },
    {
      "inputs": [
        {
          "internalType": "contract EnsRegistry",
          "name": "_registry",
          "type": "address"
        }
      ],
      "name": "updateRegistry",
      "outputs": [],
      "stateMutability": "nonpayable",
      "type": "function"
    },
    {
      "inputs": [
        {
          "internalType": "contract EnsResolver",
          "name": "_resolver",
          "type": "address"
        }
      ],
      "name": "updateResolver",
      "outputs": [],
      "stateMutability": "nonpayable",
      "type": "function"
    }
  ],
  "bytecode": "0x60806040526000801b6003556040516020016200001c9062000212565b60405160208183030381529060405280519060200120600455604051602001620000469062000279565b604051602081830303815290604052805190602001206005553480156200006c57600080fd5b5060405162003ce838038062003ce8833981810160405281019062000092919062000353565b336000806101000a81548173ffffffffffffffffffffffffffffffffffffffff021916908373ffffffffffffffffffffffffffffffffffffffff160217905550336000806101000a81548173ffffffffffffffffffffffffffffffffffffffff021916908373ffffffffffffffffffffffffffffffffffffffff16021790555081600160006101000a81548173ffffffffffffffffffffffffffffffffffffffff021916908373ffffffffffffffffffffffffffffffffffffffff16021790555080600260006101000a81548173ffffffffffffffffffffffffffffffffffffffff021916908373ffffffffffffffffffffffffffffffffffffffff1602179055506000600260146101000a81548160ff02191690831515021790555050506200039a565b600081905092915050565b7f6574680000000000000000000000000000000000000000000000000000000000600082015250565b6000620001fa600383620001b7565b91506200020782620001c2565b600382019050919050565b60006200021f82620001eb565b9150819050919050565b7f726570726f000000000000000000000000000000000000000000000000000000600082015250565b600062000261600583620001b7565b91506200026e8262000229565b600582019050919050565b6000620002868262000252565b9150819050919050565b600080fd5b600073ffffffffffffffffffffffffffffffffffffffff82169050919050565b6000620002c28262000295565b9050919050565b6000620002d682620002b5565b9050919050565b620002e881620002c9565b8114620002f457600080fd5b50565b6000815190506200030881620002dd565b92915050565b60006200031b82620002b5565b9050919050565b6200032d816200030e565b81146200033957600080fd5b50565b6000815190506200034d8162000322565b92915050565b600080604083850312156200036d576200036c62000290565b5b60006200037d85828601620002f7565b925050602062000390858286016200033c565b9150509250929050565b61393e80620003aa6000396000f3fe608060405234801561001057600080fd5b50600436106101215760003560e01c80637b103999116100ad578063a9c73e8011610071578063a9c73e80146102bc578063cd0f77a8146102d8578063cf309012146102f6578063dbf3074114610314578063e6fe39ed1461033057610121565b80637b1039991461023c5780637dd459991461025a5780638ce1efdb14610264578063a00fd01014610282578063a843c51f146102a057610121565b80631a5da6c8116100f45780631a5da6c8146101ae5780631dc9a3b9146101ca57806332917c11146101e65780634e543b26146101f057806359d1d43c1461020c57610121565b806304f3bcec1461012657806310f13a8c146101445780631427190d14610160578063174e6c981461017e575b600080fd5b61012e61034c565b60405161013b91906129e1565b60405180910390f35b61015e60048036038101906101599190612b8c565b610372565b005b610168610402565b6040516101759190612c38565b60405180910390f35b61019860048036038101906101939190612c53565b610586565b6040516101a59190612d1b565b60405180910390f35b6101c860048036038101906101c39190612d7b565b61095f565b005b6101e460048036038101906101df9190612dd4565b610b07565b005b6101ee610c0c565b005b61020a60048036038101906102059190612e14565b61120a565b005b61022660048036038101906102219190612e41565b6116bc565b6040516102339190612d1b565b60405180910390f35b61024461177e565b6040516102519190612ebe565b60405180910390f35b6102626117a4565b005b61026c61185f565b6040516102799190612c38565b60405180910390f35b61028a611a62565b6040516102979190612c38565b60405180910390f35b6102ba60048036038101906102b59190612f17565b611be6565b005b6102d660048036038101906102d19190612f44565b611d6a565b005b6102e06120a4565b6040516102ed9190612c38565b60405180910390f35b6102fe6121a8565b60405161030b9190612fd7565b60405180910390f35b61032e60048036038101906103299190612e14565b6121bb565b005b61034a60048036038101906103459190613030565b6127ba565b005b600260009054906101000a900473ffffffffffffffffffffffffffffffffffffffff1681565b8060066000858152602001908152602001600020836040516103949190613099565b908152602001604051809103902090816103ae91906132bc565b50816040516103bd9190613099565b6040518091039020837fd8c9334b1a9c2f9da342a0a2b32629c1a229b6445dad78947f674b44444a7550846040516103f59190612d1b565b60405180910390a3505050565b60008060035460045460405160200161041c9291906133af565b60405160208183030381529060405280519060200120905060008160055460405160200161044b9291906133af565b604051602081830303815290604052805190602001209050600060405160200161047490613427565b604051602081830303815290604052805190602001203360405160200161049c929190613484565b604051602081830303815290604052805190602001209050600082826040516020016104c99291906133af565b604051602081830303815290604052805190602001209050600160009054906101000a900473ffffffffffffffffffffffffffffffffffffffff1673ffffffffffffffffffffffffffffffffffffffff16630178b8bf826040518263ffffffff1660e01b815260040161053c91906134bf565b602060405180830381865afa158015610559573d6000803e3d6000fd5b505050506040513d601f19601f8201168201806040525081019061057d91906134ef565b94505050505090565b606060006003546004546040516020016105a19291906133af565b6040516020818303038152906040528051906020012090506000816005546040516020016105d09291906133af565b6040516020818303038152906040528051906020012090503073ffffffffffffffffffffffffffffffffffffffff16600160009054906101000a900473ffffffffffffffffffffffffffffffffffffffff1673ffffffffffffffffffffffffffffffffffffffff166302571be3836040518263ffffffff1660e01b815260040161065a91906134bf565b602060405180830381865afa158015610677573d6000803e3d6000fd5b505050506040513d601f19601f8201168201806040525081019061069b91906134ef565b73ffffffffffffffffffffffffffffffffffffffff16146106f1576040517f08c379a00000000000000000000000000000000000000000000000000000000081526004016106e89061358e565b60405180910390fd5b600060405160200161070290613427565b604051602081830303815290604052805190602001203360405160200161072a929190613484565b604051602081830303815290604052805190602001209050600082826040516020016107579291906133af565b604051602081830303815290604052805190602001209050600073ffffffffffffffffffffffffffffffffffffffff16600160009054906101000a900473ffffffffffffffffffffffffffffffffffffffff1673ffffffffffffffffffffffffffffffffffffffff166302571be3836040518263ffffffff1660e01b81526004016107e291906134bf565b602060405180830381865afa1580156107ff573d6000803e3d6000fd5b505050506040513d601f19601f8201168201806040525081019061082391906134ef565b73ffffffffffffffffffffffffffffffffffffffff16148061090b57503373ffffffffffffffffffffffffffffffffffffffff16600160009054906101000a900473ffffffffffffffffffffffffffffffffffffffff1673ffffffffffffffffffffffffffffffffffffffff166302571be3836040518263ffffffff1660e01b81526004016108b291906134bf565b602060405180830381865afa1580156108cf573d6000803e3d6000fd5b505050506040513d601f19601f820116820180604052508101906108f391906134ef565b73ffffffffffffffffffffffffffffffffffffffff16145b61094a576040517f08c379a000000000000000000000000000000000000000000000000000000000815260040161094190613620565b60405180910390fd5b61095481876116bc565b945050505050919050565b60008054906101000a900473ffffffffffffffffffffffffffffffffffffffff1673ffffffffffffffffffffffffffffffffffffffff163373ffffffffffffffffffffffffffffffffffffffff16146109b757600080fd5b8073ffffffffffffffffffffffffffffffffffffffff16600160009054906101000a900473ffffffffffffffffffffffffffffffffffffffff1673ffffffffffffffffffffffffffffffffffffffff1603610a47576040517f08c379a0000000000000000000000000000000000000000000000000000000008152600401610a3e906136b2565b60405180910390fd5b8073ffffffffffffffffffffffffffffffffffffffff16600160009054906101000a900473ffffffffffffffffffffffffffffffffffffffff1673ffffffffffffffffffffffffffffffffffffffff167f482b97c53e48ffa324a976e2738053e9aff6eee04d8aac63b10e19411d869b8260405160405180910390a380600160006101000a81548173ffffffffffffffffffffffffffffffffffffffff021916908373ffffffffffffffffffffffffffffffffffffffff16021790555050565b60008054906101000a900473ffffffffffffffffffffffffffffffffffffffff1673ffffffffffffffffffffffffffffffffffffffff163373ffffffffffffffffffffffffffffffffffffffff1614610b5f57600080fd5b600260149054906101000a900460ff1615610b7957600080fd5b600160009054906101000a900473ffffffffffffffffffffffffffffffffffffffff1673ffffffffffffffffffffffffffffffffffffffff16635b0fc9c383836040518363ffffffff1660e01b8152600401610bd69291906136d2565b600060405180830381600087803b158015610bf057600080fd5b505af1158015610c04573d6000803e3d6000fd5b505050505050565b6000600354600454604051602001610c259291906133af565b604051602081830303815290604052805190602001209050600081600554604051602001610c549291906133af565b6040516020818303038152906040528051906020012090503073ffffffffffffffffffffffffffffffffffffffff16600160009054906101000a900473ffffffffffffffffffffffffffffffffffffffff1673ffffffffffffffffffffffffffffffffffffffff166302571be3836040518263ffffffff1660e01b8152600401610cde91906134bf565b602060405180830381865afa158015610cfb573d6000803e3d6000fd5b505050506040513d601f19601f82011682018060405250810190610d1f91906134ef565b73ffffffffffffffffffffffffffffffffffffffff1614610d75576040517f08c379a0000000000000000000000000000000000000000000000000000000008152600401610d6c9061358e565b60405180910390fd5b6000604051602001610d8690613427565b6040516020818303038152906040528051906020012033604051602001610dae929190613484565b60405160208183030381529060405280519060200120905060008282604051602001610ddb9291906133af565b604051602081830303815290604052805190602001209050600073ffffffffffffffffffffffffffffffffffffffff16600160009054906101000a900473ffffffffffffffffffffffffffffffffffffffff1673ffffffffffffffffffffffffffffffffffffffff166302571be3836040518263ffffffff1660e01b8152600401610e6691906134bf565b602060405180830381865afa158015610e83573d6000803e3d6000fd5b505050506040513d601f19601f82011682018060405250810190610ea791906134ef565b73ffffffffffffffffffffffffffffffffffffffff161480610f8f57503373ffffffffffffffffffffffffffffffffffffffff16600160009054906101000a900473ffffffffffffffffffffffffffffffffffffffff1673ffffffffffffffffffffffffffffffffffffffff166302571be3836040518263ffffffff1660e01b8152600401610f3691906134bf565b602060405180830381865afa158015610f53573d6000803e3d6000fd5b505050506040513d601f19601f82011682018060405250810190610f7791906134ef565b73ffffffffffffffffffffffffffffffffffffffff16145b610fce576040517f08c379a0000000000000000000000000000000000000000000000000000000008152600401610fc590613747565b60405180910390fd5b600160009054906101000a900473ffffffffffffffffffffffffffffffffffffffff1673ffffffffffffffffffffffffffffffffffffffff166306ab59238484306040518463ffffffff1660e01b815260040161102d93929190613767565b600060405180830381600087803b15801561104757600080fd5b505af115801561105b573d6000803e3d6000fd5b50505050600160009054906101000a900473ffffffffffffffffffffffffffffffffffffffff1673ffffffffffffffffffffffffffffffffffffffff16631896f70a82600260009054906101000a900473ffffffffffffffffffffffffffffffffffffffff166040518363ffffffff1660e01b81526004016110de9291906136d2565b600060405180830381600087803b1580156110f857600080fd5b505af115801561110c573d6000803e3d6000fd5b50505050600160009054906101000a900473ffffffffffffffffffffffffffffffffffffffff1673ffffffffffffffffffffffffffffffffffffffff16635b0fc9c382336040518363ffffffff1660e01b815260040161116d9291906136d2565b600060405180830381600087803b15801561118757600080fd5b505af115801561119b573d6000803e3d6000fd5b505050503373ffffffffffffffffffffffffffffffffffffffff163373ffffffffffffffffffffffffffffffffffffffff167feb0c437e734e7e42204a015edd050c5472103e78b48b123499ebecaf8e1ed830846040516111fc91906134bf565b60405180910390a350505050565b60006003546004546040516020016112239291906133af565b6040516020818303038152906040528051906020012090506000816005546040516020016112529291906133af565b6040516020818303038152906040528051906020012090503073ffffffffffffffffffffffffffffffffffffffff16600160009054906101000a900473ffffffffffffffffffffffffffffffffffffffff1673ffffffffffffffffffffffffffffffffffffffff166302571be3836040518263ffffffff1660e01b81526004016112dc91906134bf565b602060405180830381865afa1580156112f9573d6000803e3d6000fd5b505050506040513d601f19601f8201168201806040525081019061131d91906134ef565b73ffffffffffffffffffffffffffffffffffffffff1614611373576040517f08c379a000000000000000000000000000000000000000000000000000000000815260040161136a9061358e565b60405180910390fd5b600060405160200161138490613427565b60405160208183030381529060405280519060200120336040516020016113ac929190613484565b604051602081830303815290604052805190602001209050600082826040516020016113d99291906133af565b604051602081830303815290604052805190602001209050600073ffffffffffffffffffffffffffffffffffffffff16600160009054906101000a900473ffffffffffffffffffffffffffffffffffffffff1673ffffffffffffffffffffffffffffffffffffffff166302571be3836040518263ffffffff1660e01b815260040161146491906134bf565b602060405180830381865afa158015611481573d6000803e3d6000fd5b505050506040513d601f19601f820116820180604052508101906114a591906134ef565b73ffffffffffffffffffffffffffffffffffffffff16148061158d57503373ffffffffffffffffffffffffffffffffffffffff16600160009054906101000a900473ffffffffffffffffffffffffffffffffffffffff1673ffffffffffffffffffffffffffffffffffffffff166302571be3836040518263ffffffff1660e01b815260040161153491906134bf565b602060405180830381865afa158015611551573d6000803e3d6000fd5b505050506040513d601f19601f8201168201806040525081019061157591906134ef565b73ffffffffffffffffffffffffffffffffffffffff16145b6115cc576040517f08c379a00000000000000000000000000000000000000000000000000000000081526004016115c390613747565b60405180910390fd5b600160009054906101000a900473ffffffffffffffffffffffffffffffffffffffff1673ffffffffffffffffffffffffffffffffffffffff16631896f70a82876040518363ffffffff1660e01b81526004016116299291906136d2565b600060405180830381600087803b15801561164357600080fd5b505af1158015611657573d6000803e3d6000fd5b505050508473ffffffffffffffffffffffffffffffffffffffff163373ffffffffffffffffffffffffffffffffffffffff167f84b83d2b66cac119ccaaca68b476b0dc5371d5f2fd27f697770a910175fd38b660405160405180910390a35050505050565b606060066000848152602001908152602001600020826040516116df9190613099565b908152602001604051809103902080546116f8906130df565b80601f0160208091040260200160405190810160405280929190818152602001828054611724906130df565b80156117715780601f1061174657610100808354040283529160200191611771565b820191906000526020600020905b81548152906001019060200180831161175457829003601f168201915b5050505050905092915050565b600160009054906101000a900473ffffffffffffffffffffffffffffffffffffffff1681565b60008054906101000a900473ffffffffffffffffffffffffffffffffffffffff1673ffffffffffffffffffffffffffffffffffffffff163373ffffffffffffffffffffffffffffffffffffffff16146117fc57600080fd5b600260149054906101000a900460ff161561181657600080fd5b6001600260146101000a81548160ff0219169083151502179055507fd68bbea4b8d77ea0826a260170e3b50080b57c9ed7420ef5920b1a58e613e17960405160405180910390a1565b6000806003546004546040516020016118799291906133af565b6040516020818303038152906040528051906020012090506000816005546040516020016118a89291906133af565b60405160208183030381529060405280519060200120905060006040516020016118d190613427565b60405160208183030381529060405280519060200120336040516020016118f9929190613484565b604051602081830303815290604052805190602001209050600082826040516020016119269291906133af565b6040516020818303038152906040528051906020012090506000600160009054906101000a900473ffffffffffffffffffffffffffffffffffffffff1673ffffffffffffffffffffffffffffffffffffffff16630178b8bf836040518263ffffffff1660e01b815260040161199b91906134bf565b602060405180830381865afa1580156119b8573d6000803e3d6000fd5b505050506040513d601f19601f820116820180604052508101906119dc91906134ef565b90508073ffffffffffffffffffffffffffffffffffffffff16633b3b57de836040518263ffffffff1660e01b8152600401611a1791906134bf565b602060405180830381865afa158015611a34573d6000803e3d6000fd5b505050506040513d601f19601f82011682018060405250810190611a5891906134ef565b9550505050505090565b600080600354600454604051602001611a7c9291906133af565b604051602081830303815290604052805190602001209050600081600554604051602001611aab9291906133af565b6040516020818303038152906040528051906020012090506000604051602001611ad490613427565b6040516020818303038152906040528051906020012033604051602001611afc929190613484565b60405160208183030381529060405280519060200120905060008282604051602001611b299291906133af565b604051602081830303815290604052805190602001209050600160009054906101000a900473ffffffffffffffffffffffffffffffffffffffff1673ffffffffffffffffffffffffffffffffffffffff166302571be3826040518263ffffffff1660e01b8152600401611b9c91906134bf565b602060405180830381865afa158015611bb9573d6000803e3d6000fd5b505050506040513d601f19601f82011682018060405250810190611bdd91906134ef565b94505050505090565b60008054906101000a900473ffffffffffffffffffffffffffffffffffffffff1673ffffffffffffffffffffffffffffffffffffffff163373ffffffffffffffffffffffffffffffffffffffff1614611c3e57600080fd5b600073ffffffffffffffffffffffffffffffffffffffff168173ffffffffffffffffffffffffffffffffffffffff1603611cad576040517f08c379a0000000000000000000000000000000000000000000000000000000008152600401611ca4906137ea565b60405180910390fd5b8073ffffffffffffffffffffffffffffffffffffffff1660008054906101000a900473ffffffffffffffffffffffffffffffffffffffff1673ffffffffffffffffffffffffffffffffffffffff167f8be0079c531659141344cd1fd0a4f28419497f9722a3daafe3b4186f6b6457e060405160405180910390a3806000806101000a81548173ffffffffffffffffffffffffffffffffffffffff021916908373ffffffffffffffffffffffffffffffffffffffff16021790555050565b6000600354600454604051602001611d839291906133af565b604051602081830303815290604052805190602001209050600081600554604051602001611db29291906133af565b6040516020818303038152906040528051906020012090503073ffffffffffffffffffffffffffffffffffffffff16600160009054906101000a900473ffffffffffffffffffffffffffffffffffffffff1673ffffffffffffffffffffffffffffffffffffffff166302571be3836040518263ffffffff1660e01b8152600401611e3c91906134bf565b602060405180830381865afa158015611e59573d6000803e3d6000fd5b505050506040513d601f19601f82011682018060405250810190611e7d91906134ef565b73ffffffffffffffffffffffffffffffffffffffff1614611ed3576040517f08c379a0000000000000000000000000000000000000000000000000000000008152600401611eca9061358e565b60405180910390fd5b6000604051602001611ee490613427565b6040516020818303038152906040528051906020012033604051602001611f0c929190613484565b60405160208183030381529060405280519060200120905060008282604051602001611f399291906133af565b6040516020818303038152906040528051906020012090503373ffffffffffffffffffffffffffffffffffffffff16600160009054906101000a900473ffffffffffffffffffffffffffffffffffffffff1673ffffffffffffffffffffffffffffffffffffffff166302571be3836040518263ffffffff1660e01b8152600401611fc391906134bf565b602060405180830381865afa158015611fe0573d6000803e3d6000fd5b505050506040513d601f19601f8201168201806040525081019061200491906134ef565b73ffffffffffffffffffffffffffffffffffffffff161461205a576040517f08c379a000000000000000000000000000000000000000000000000000000000815260040161205190613856565b60405180910390fd5b612065818787610372565b7f6ef0bf62b43ac68d583afb687d463b629a35066355c21ff456aa258ae2b3c9e18260405161209491906134bf565b60405180910390a1505050505050565b6000806003546004546040516020016120be9291906133af565b6040516020818303038152906040528051906020012090506000816005546040516020016120ed9291906133af565b604051602081830303815290604052805190602001209050600160009054906101000a900473ffffffffffffffffffffffffffffffffffffffff1673ffffffffffffffffffffffffffffffffffffffff166302571be3826040518263ffffffff1660e01b815260040161216091906134bf565b602060405180830381865afa15801561217d573d6000803e3d6000fd5b505050506040513d601f19601f820116820180604052508101906121a191906134ef565b9250505090565b600260149054906101000a900460ff1681565b60006003546004546040516020016121d49291906133af565b6040516020818303038152906040528051906020012090506000816005546040516020016122039291906133af565b6040516020818303038152906040528051906020012090503073ffffffffffffffffffffffffffffffffffffffff16600160009054906101000a900473ffffffffffffffffffffffffffffffffffffffff1673ffffffffffffffffffffffffffffffffffffffff166302571be3836040518263ffffffff1660e01b815260040161228d91906134bf565b602060405180830381865afa1580156122aa573d6000803e3d6000fd5b505050506040513d601f19601f820116820180604052508101906122ce91906134ef565b73ffffffffffffffffffffffffffffffffffffffff1614612324576040517f08c379a000000000000000000000000000000000000000000000000000000000815260040161231b9061358e565b60405180910390fd5b600060405160200161233590613427565b604051602081830303815290604052805190602001208460405160200161235d929190613484565b6040516020818303038152906040528051906020012090506000828260405160200161238a9291906133af565b604051602081830303815290604052805190602001209050600073ffffffffffffffffffffffffffffffffffffffff16600160009054906101000a900473ffffffffffffffffffffffffffffffffffffffff1673ffffffffffffffffffffffffffffffffffffffff166302571be3836040518263ffffffff1660e01b815260040161241591906134bf565b602060405180830381865afa158015612432573d6000803e3d6000fd5b505050506040513d601f19601f8201168201806040525081019061245691906134ef565b73ffffffffffffffffffffffffffffffffffffffff16148061253e57508473ffffffffffffffffffffffffffffffffffffffff16600160009054906101000a900473ffffffffffffffffffffffffffffffffffffffff1673ffffffffffffffffffffffffffffffffffffffff166302571be3836040518263ffffffff1660e01b81526004016124e591906134bf565b602060405180830381865afa158015612502573d6000803e3d6000fd5b505050506040513d601f19601f8201168201806040525081019061252691906134ef565b73ffffffffffffffffffffffffffffffffffffffff16145b61257d576040517f08c379a000000000000000000000000000000000000000000000000000000000815260040161257490613747565b60405180910390fd5b600160009054906101000a900473ffffffffffffffffffffffffffffffffffffffff1673ffffffffffffffffffffffffffffffffffffffff166306ab59238484306040518463ffffffff1660e01b81526004016125dc93929190613767565b600060405180830381600087803b1580156125f657600080fd5b505af115801561260a573d6000803e3d6000fd5b50505050600160009054906101000a900473ffffffffffffffffffffffffffffffffffffffff1673ffffffffffffffffffffffffffffffffffffffff16631896f70a82600260009054906101000a900473ffffffffffffffffffffffffffffffffffffffff166040518363ffffffff1660e01b815260040161268d9291906136d2565b600060405180830381600087803b1580156126a757600080fd5b505af11580156126bb573d6000803e3d6000fd5b50505050600160009054906101000a900473ffffffffffffffffffffffffffffffffffffffff1673ffffffffffffffffffffffffffffffffffffffff16635b0fc9c382876040518363ffffffff1660e01b815260040161271c9291906136d2565b600060405180830381600087803b15801561273657600080fd5b505af115801561274a573d6000803e3d6000fd5b505050508473ffffffffffffffffffffffffffffffffffffffff168573ffffffffffffffffffffffffffffffffffffffff167feb0c437e734e7e42204a015edd050c5472103e78b48b123499ebecaf8e1ed830846040516127ab91906134bf565b60405180910390a35050505050565b60008054906101000a900473ffffffffffffffffffffffffffffffffffffffff1673ffffffffffffffffffffffffffffffffffffffff163373ffffffffffffffffffffffffffffffffffffffff161461281257600080fd5b8073ffffffffffffffffffffffffffffffffffffffff16600260009054906101000a900473ffffffffffffffffffffffffffffffffffffffff1673ffffffffffffffffffffffffffffffffffffffff16036128a2576040517f08c379a0000000000000000000000000000000000000000000000000000000008152600401612899906138e8565b60405180910390fd5b8073ffffffffffffffffffffffffffffffffffffffff16600260009054906101000a900473ffffffffffffffffffffffffffffffffffffffff1673ffffffffffffffffffffffffffffffffffffffff167f84b83d2b66cac119ccaaca68b476b0dc5371d5f2fd27f697770a910175fd38b660405160405180910390a380600260006101000a81548173ffffffffffffffffffffffffffffffffffffffff021916908373ffffffffffffffffffffffffffffffffffffffff16021790555050565b600073ffffffffffffffffffffffffffffffffffffffff82169050919050565b6000819050919050565b60006129a76129a261299d84612962565b612982565b612962565b9050919050565b60006129b98261298c565b9050919050565b60006129cb826129ae565b9050919050565b6129db816129c0565b82525050565b60006020820190506129f660008301846129d2565b92915050565b6000604051905090565b600080fd5b600080fd5b6000819050919050565b612a2381612a10565b8114612a2e57600080fd5b50565b600081359050612a4081612a1a565b92915050565b600080fd5b600080fd5b6000601f19601f8301169050919050565b7f4e487b7100000000000000000000000000000000000000000000000000000000600052604160045260246000fd5b612a9982612a50565b810181811067ffffffffffffffff82111715612ab857612ab7612a61565b5b80604052505050565b6000612acb6129fc565b9050612ad78282612a90565b919050565b600067ffffffffffffffff821115612af757612af6612a61565b5b612b0082612a50565b9050602081019050919050565b82818337600083830152505050565b6000612b2f612b2a84612adc565b612ac1565b905082815260208101848484011115612b4b57612b4a612a4b565b5b612b56848285612b0d565b509392505050565b600082601f830112612b7357612b72612a46565b5b8135612b83848260208601612b1c565b91505092915050565b600080600060608486031215612ba557612ba4612a06565b5b6000612bb386828701612a31565b935050602084013567ffffffffffffffff811115612bd457612bd3612a0b565b5b612be086828701612b5e565b925050604084013567ffffffffffffffff811115612c0157612c00612a0b565b5b612c0d86828701612b5e565b9150509250925092565b6000612c2282612962565b9050919050565b612c3281612c17565b82525050565b6000602082019050612c4d6000830184612c29565b92915050565b600060208284031215612c6957612c68612a06565b5b600082013567ffffffffffffffff811115612c8757612c86612a0b565b5b612c9384828501612b5e565b91505092915050565b600081519050919050565b600082825260208201905092915050565b60005b83811015612cd6578082015181840152602081019050612cbb565b60008484015250505050565b6000612ced82612c9c565b612cf78185612ca7565b9350612d07818560208601612cb8565b612d1081612a50565b840191505092915050565b60006020820190508181036000830152612d358184612ce2565b905092915050565b6000612d4882612c17565b9050919050565b612d5881612d3d565b8114612d6357600080fd5b50565b600081359050612d7581612d4f565b92915050565b600060208284031215612d9157612d90612a06565b5b6000612d9f84828501612d66565b91505092915050565b612db181612c17565b8114612dbc57600080fd5b50565b600081359050612dce81612da8565b92915050565b60008060408385031215612deb57612dea612a06565b5b6000612df985828601612a31565b9250506020612e0a85828601612dbf565b9150509250929050565b600060208284031215612e2a57612e29612a06565b5b6000612e3884828501612dbf565b91505092915050565b60008060408385031215612e5857612e57612a06565b5b6000612e6685828601612a31565b925050602083013567ffffffffffffffff811115612e8757612e86612a0b565b5b612e9385828601612b5e565b9150509250929050565b6000612ea8826129ae565b9050919050565b612eb881612e9d565b82525050565b6000602082019050612ed36000830184612eaf565b92915050565b6000612ee482612962565b9050919050565b612ef481612ed9565b8114612eff57600080fd5b50565b600081359050612f1181612eeb565b92915050565b600060208284031215612f2d57612f2c612a06565b5b6000612f3b84828501612f02565b91505092915050565b60008060408385031215612f5b57612f5a612a06565b5b600083013567ffffffffffffffff811115612f7957612f78612a0b565b5b612f8585828601612b5e565b925050602083013567ffffffffffffffff811115612fa657612fa5612a0b565b5b612fb285828601612b5e565b9150509250929050565b60008115159050919050565b612fd181612fbc565b82525050565b6000602082019050612fec6000830184612fc8565b92915050565b6000612ffd82612c17565b9050919050565b61300d81612ff2565b811461301857600080fd5b50565b60008135905061302a81613004565b92915050565b60006020828403121561304657613045612a06565b5b60006130548482850161301b565b91505092915050565b600081905092915050565b600061307382612c9c565b61307d818561305d565b935061308d818560208601612cb8565b80840191505092915050565b60006130a58284613068565b915081905092915050565b7f4e487b7100000000000000000000000000000000000000000000000000000000600052602260045260246000fd5b600060028204905060018216806130f757607f821691505b60208210810361310a576131096130b0565b5b50919050565b60008190508160005260206000209050919050565b60006020601f8301049050919050565b600082821b905092915050565b6000600883026131727fffffffffffffffffffffffffffffffffffffffffffffffffffffffffffffffff82613135565b61317c8683613135565b95508019841693508086168417925050509392505050565b6000819050919050565b60006131b96131b46131af84613194565b612982565b613194565b9050919050565b6000819050919050565b6131d38361319e565b6131e76131df826131c0565b848454613142565b825550505050565b600090565b6131fc6131ef565b6132078184846131ca565b505050565b5b8181101561322b576132206000826131f4565b60018101905061320d565b5050565b601f8211156132705761324181613110565b61324a84613125565b81016020851015613259578190505b61326d61326585613125565b83018261320c565b50505b505050565b600082821c905092915050565b600061329360001984600802613275565b1980831691505092915050565b60006132ac8383613282565b9150826002028217905092915050565b6132c582612c9c565b67ffffffffffffffff8111156132de576132dd612a61565b5b6132e882546130df565b6132f382828561322f565b600060209050601f8311600181146133265760008415613314578287015190505b61331e85826132a0565b865550613386565b601f19841661333486613110565b60005b8281101561335c57848901518255600182019150602085019450602081019050613337565b868310156133795784890151613375601f891682613282565b8355505b6001600288020188555050505b505050505050565b6000819050919050565b6133a96133a482612a10565b61338e565b82525050565b60006133bb8285613398565b6020820191506133cb8284613398565b6020820191508190509392505050565b7f6574682d00000000000000000000000000000000000000000000000000000000600082015250565b600061341160048361305d565b915061341c826133db565b600482019050919050565b600061343282613404565b9150819050919050565b60008160601b9050919050565b60006134548261343c565b9050919050565b600061346682613449565b9050919050565b61347e61347982612c17565b61345b565b82525050565b60006134908285613398565b6020820191506134a0828461346d565b6014820191508190509392505050565b6134b981612a10565b82525050565b60006020820190506134d460008301846134b0565b92915050565b6000815190506134e981612da8565b92915050565b60006020828403121561350557613504612a06565b5b6000613513848285016134da565b91505092915050565b7f7468697320636f6e74726163742073686f756c64206f776e2074686520646f6d60008201527f61696e0000000000000000000000000000000000000000000000000000000000602082015250565b6000613578602383612ca7565b91506135838261351c565b604082019050919050565b600060208201905081810360008301526135a78161356b565b9050919050565b7f7265676973746572656420737562646f6d61696e7320746578742063616e206f60008201527f6e6c792062652072656164206279206f776e6572000000000000000000000000602082015250565b600061360a603483612ca7565b9150613615826135ae565b604082019050919050565b60006020820190508181036000830152613639816135fd565b9050919050565b7f6e65772072656769737472792073686f756c6420626520646966666572656e7460008201527f2066726f6d206f6c640000000000000000000000000000000000000000000000602082015250565b600061369c602983612ca7565b91506136a782613640565b604082019050919050565b600060208201905081810360008301526136cb8161368f565b9050919050565b60006040820190506136e760008301856134b0565b6136f46020830184612c29565b9392505050565b7f73756220646f6d61696e20616c7265616479206f776e65640000000000000000600082015250565b6000613731601883612ca7565b915061373c826136fb565b602082019050919050565b6000602082019050818103600083015261376081613724565b9050919050565b600060608201905061377c60008301866134b0565b61378960208301856134b0565b6137966040830184612c29565b949350505050565b7f63616e6e6f74207472616e7366657220746f2061646472657373283029000000600082015250565b60006137d4601d83612ca7565b91506137df8261379e565b602082019050919050565b60006020820190508181036000830152613803816137c7565b9050919050565b7f746578742063616e206f6e6c7920626520736574206279206f776e6572000000600082015250565b6000613840601d83612ca7565b915061384b8261380a565b602082019050919050565b6000602082019050818103600083015261386f81613833565b9050919050565b7f6e6577207265736f6c7665722073686f756c6420626520646966666572656e7460008201527f2066726f6d206f6c640000000000000000000000000000000000000000000000602082015250565b60006138d2602983612ca7565b91506138dd82613876565b604082019050919050565b60006020820190508181036000830152613901816138c5565b905091905056fea2646970667358221220ad50a1eee279261be4307f6e8f8c579b98c158e46afb2e05e9de51590f0c559664736f6c63430008110033",
  "linkReferences": {},
  "deployedLinkReferences": {}
}