{
  "_format": "hh-sol-artifact-1",
  "contractName": "EnsResolverMock",
  "sourceName": "contracts/EnsResolverMock.sol",
  "abi": [
    {
      "inputs": [
        {
          "internalType": "bytes32",
          "name": "_node",
          "type": "bytes32"
        }
      ],
      "name": "addr",
      "outputs": [
        {
          "internalType": "address",
          "name": "",
          "type": "address"
        }
      ],
      "stateMutability": "view",
      "type": "function"
    },
    {
      "inputs": [
        {
          "internalType": "bytes32",
          "name": "_node",
          "type": "bytes32"
        },
        {
          "internalType": "address",
          "name": "_addr",
          "type": "address"
        }
      ],
      "name": "setAddr",
      "outputs": [],
      "stateMutability": "nonpayable",
      "type": "function"
    },
    {
      "inputs": [
        {
          "internalType": "bytes32",
          "name": "",
          "type": "bytes32"
        }
      ],
      "name": "targets",
      "outputs": [
        {
          "internalType": "address",
          "name": "",
          "type": "address"
        }
      ],
      "stateMutability": "view",
      "type": "function"
    }
  ],
  "bytecode": "0x608060405234801561001057600080fd5b506102ec806100206000396000f3fe608060405234801561001057600080fd5b50600436106100415760003560e01c80633b3b57de14610046578063b73673f714610076578063d5fa2b00146100a6575b600080fd5b610060600480360381019061005b91906101c1565b6100c2565b60405161006d919061022f565b60405180910390f35b610090600480360381019061008b91906101c1565b6100fe565b60405161009d919061022f565b60405180910390f35b6100c060048036038101906100bb9190610276565b610131565b005b600080600083815260200190815260200160002060009054906101000a900473ffffffffffffffffffffffffffffffffffffffff169050919050565b60006020528060005260406000206000915054906101000a900473ffffffffffffffffffffffffffffffffffffffff1681565b8060008084815260200190815260200160002060006101000a81548173ffffffffffffffffffffffffffffffffffffffff021916908373ffffffffffffffffffffffffffffffffffffffff1602179055505050565b600080fd5b6000819050919050565b61019e8161018b565b81146101a957600080fd5b50565b6000813590506101bb81610195565b92915050565b6000602082840312156101d7576101d6610186565b5b60006101e5848285016101ac565b91505092915050565b600073ffffffffffffffffffffffffffffffffffffffff82169050919050565b6000610219826101ee565b9050919050565b6102298161020e565b82525050565b60006020820190506102446000830184610220565b92915050565b6102538161020e565b811461025e57600080fd5b50565b6000813590506102708161024a565b92915050565b6000806040838503121561028d5761028c610186565b5b600061029b858286016101ac565b92505060206102ac85828601610261565b915050925092905056fea26469706673582212205e4685b6f2504c4da433b9e422f9062b0da3eb030950d82e4cee1836379ae7e864736f6c63430008110033",
  "linkReferences": {},
  "deployedLinkReferences": {}
}