{
  "contractName": "EnsRegistryMock",
  "abi": [
    {
      "constant": true,
      "inputs": [
        {
          "internalType": "bytes32",
          "name": "",
          "type": "bytes32"
        }
      ],
      "name": "resolvers",
      "outputs": [
        {
          "internalType": "address",
          "name": "",
          "type": "address"
        }
      ],
      "payable": false,
      "stateMutability": "view",
      "type": "function"
    },
    {
      "constant": false,
      "inputs": [
        {
          "internalType": "bytes32",
          "name": "_node",
          "type": "bytes32"
        },
        {
          "internalType": "address",
          "name": "_owner",
          "type": "address"
        }
      ],
      "name": "setOwner",
      "outputs": [],
      "payable": false,
      "stateMutability": "nonpayable",
      "type": "function"
    },
    {
      "constant": false,
      "inputs": [
        {
          "internalType": "bytes32",
          "name": "_node",
          "type": "bytes32"
        },
        {
          "internalType": "bytes32",
          "name": "_label",
          "type": "bytes32"
        },
        {
          "internalType": "address",
          "name": "_owner",
          "type": "address"
        }
      ],
      "name": "setSubnodeOwner",
      "outputs": [],
      "payable": false,
      "stateMutability": "nonpayable",
      "type": "function"
    },
    {
      "constant": false,
      "inputs": [
        {
          "internalType": "bytes32",
          "name": "_node",
          "type": "bytes32"
        },
        {
          "internalType": "address",
          "name": "_resolver",
          "type": "address"
        }
      ],
      "name": "setResolver",
      "outputs": [],
      "payable": false,
      "stateMutability": "nonpayable",
      "type": "function"
    },
    {
      "constant": true,
      "inputs": [
        {
          "internalType": "bytes32",
          "name": "_node",
          "type": "bytes32"
        }
      ],
      "name": "owner",
      "outputs": [
        {
          "internalType": "address",
          "name": "",
          "type": "address"
        }
      ],
      "payable": false,
      "stateMutability": "view",
      "type": "function"
    },
    {
      "constant": true,
      "inputs": [
        {
          "internalType": "bytes32",
          "name": "_node",
          "type": "bytes32"
        }
      ],
      "name": "resolver",
      "outputs": [
        {
          "internalType": "address",
          "name": "",
          "type": "address"
        }
      ],
      "payable": false,
      "stateMutability": "view",
      "type": "function"
    }
  ],
  "bytecode": "0x608060405234801561001057600080fd5b506104b5806100206000396000f3fe608060405234801561001057600080fd5b50600436106100625760003560e01c80630178b8bf1461006757806302571be3146100d557806306ab5923146101435780631896f70a1461019b5780635b0fc9c3146101e9578063c3a7bb9014610237575b600080fd5b6100936004803603602081101561007d57600080fd5b81019080803590602001909291905050506102a5565b604051808273ffffffffffffffffffffffffffffffffffffffff1673ffffffffffffffffffffffffffffffffffffffff16815260200191505060405180910390f35b610101600480360360208110156100eb57600080fd5b81019080803590602001909291905050506102e2565b604051808273ffffffffffffffffffffffffffffffffffffffff1673ffffffffffffffffffffffffffffffffffffffff16815260200191505060405180910390f35b6101996004803603606081101561015957600080fd5b810190808035906020019092919080359060200190929190803573ffffffffffffffffffffffffffffffffffffffff16906020019092919050505061031e565b005b6101e7600480360360408110156101b157600080fd5b8101908080359060200190929190803573ffffffffffffffffffffffffffffffffffffffff1690602001909291905050506103a2565b005b610235600480360360408110156101ff57600080fd5b8101908080359060200190929190803573ffffffffffffffffffffffffffffffffffffffff1690602001909291905050506103f8565b005b6102636004803603602081101561024d57600080fd5b810190808035906020019092919050505061044d565b604051808273ffffffffffffffffffffffffffffffffffffffff1673ffffffffffffffffffffffffffffffffffffffff16815260200191505060405180910390f35b60006001600083815260200190815260200160002060009054906101000a900473ffffffffffffffffffffffffffffffffffffffff169050919050565b600080600083815260200190815260200160002060009054906101000a900473ffffffffffffffffffffffffffffffffffffffff169050919050565b806000808585604051602001808381526020018281526020019250505060405160208183030381529060405280519060200120815260200190815260200160002060006101000a81548173ffffffffffffffffffffffffffffffffffffffff021916908373ffffffffffffffffffffffffffffffffffffffff160217905550505050565b806001600084815260200190815260200160002060006101000a81548173ffffffffffffffffffffffffffffffffffffffff021916908373ffffffffffffffffffffffffffffffffffffffff1602179055505050565b8060008084815260200190815260200160002060006101000a81548173ffffffffffffffffffffffffffffffffffffffff021916908373ffffffffffffffffffffffffffffffffffffffff1602179055505050565b60016020528060005260406000206000915054906101000a900473ffffffffffffffffffffffffffffffffffffffff168156fea265627a7a723158208f3d756fff28796c61060d0f80cb7e6b1154ab27bf55f835c87c2a6eeed54f6164736f6c63430005100032",
  "source": "pragma solidity >0.4.24;\n\nimport './EnsRegistry.sol';\n\n/**\n * @title EnsRegistryMock\n */\ncontract EnsRegistryMock is EnsRegistry {\n\tmapping(bytes32 => address) owners;\n\tmapping(bytes32 => address) public resolvers;\n\n\tfunction setOwner(bytes32 _node, address _owner) public {\n\t\towners[_node] = _owner;\n\t}\n\n\tfunction setSubnodeOwner(bytes32 _node, bytes32 _label, address _owner) public {\n\t\towners[keccak256(abi.encodePacked(_node, _label))] = _owner;\n\t}\n\n\tfunction setResolver(bytes32 _node, address _resolver) public {\n\t\tresolvers[_node] = _resolver;\n\t}\n\n\tfunction owner(bytes32 _node) public view returns (address){\n\t\treturn owners[_node];\n\t}\n\n\tfunction resolver(bytes32 _node) public view returns (address){\n\t\treturn resolvers[_node];\n\t}\n}\n",
  "sourcePath": "/Users/pedropelicano/repos/secrypt/secrypt-smart-contracts/contracts/EnsRegistryMock.sol",
  "compiler": {
    "name": "solc",
    "version": "0.5.16+commit.9c3226ce.Emscripten.clang"
  },
  "schemaVersion": "3.4.7",
  "updatedAt": "2022-07-11T14:05:26.227Z",
  "networkType": "ethereum",
  "devdoc": {
    "methods": {},
    "title": "EnsRegistryMock"
  },
  "userdoc": {
    "methods": {}
  }
}