{
  "contractName": "EnsResolverMock",
  "abi": [
    {
      "inputs": [
        {
          "internalType": "bytes32",
          "name": "",
          "type": "bytes32"
        }
      ],
      "name": "targets",
      "outputs": [
        {
          "internalType": "address",
          "name": "",
          "type": "address"
        }
      ],
      "stateMutability": "view",
      "type": "function",
      "constant": true
    },
    {
      "inputs": [
        {
          "internalType": "bytes32",
          "name": "_node",
          "type": "bytes32"
        },
        {
          "internalType": "address",
          "name": "_addr",
          "type": "address"
        }
      ],
      "name": "setAddr",
      "outputs": [],
      "stateMutability": "nonpayable",
      "type": "function"
    },
    {
      "inputs": [
        {
          "internalType": "bytes32",
          "name": "_node",
          "type": "bytes32"
        }
      ],
      "name": "addr",
      "outputs": [
        {
          "internalType": "address",
          "name": "",
          "type": "address"
        }
      ],
      "stateMutability": "view",
      "type": "function",
      "constant": true
    }
  ],
  "bytecode": "0x608060405234801561001057600080fd5b506102ec806100206000396000f3fe608060405234801561001057600080fd5b50600436106100415760003560e01c80633b3b57de14610046578063b73673f714610076578063d5fa2b00146100a6575b600080fd5b610060600480360381019061005b91906101c1565b6100c2565b60405161006d919061022f565b60405180910390f35b610090600480360381019061008b91906101c1565b6100fe565b60405161009d919061022f565b60405180910390f35b6100c060048036038101906100bb9190610276565b610131565b005b600080600083815260200190815260200160002060009054906101000a900473ffffffffffffffffffffffffffffffffffffffff169050919050565b60006020528060005260406000206000915054906101000a900473ffffffffffffffffffffffffffffffffffffffff1681565b8060008084815260200190815260200160002060006101000a81548173ffffffffffffffffffffffffffffffffffffffff021916908373ffffffffffffffffffffffffffffffffffffffff1602179055505050565b600080fd5b6000819050919050565b61019e8161018b565b81146101a957600080fd5b50565b6000813590506101bb81610195565b92915050565b6000602082840312156101d7576101d6610186565b5b60006101e5848285016101ac565b91505092915050565b600073ffffffffffffffffffffffffffffffffffffffff82169050919050565b6000610219826101ee565b9050919050565b6102298161020e565b82525050565b60006020820190506102446000830184610220565b92915050565b6102538161020e565b811461025e57600080fd5b50565b6000813590506102708161024a565b92915050565b6000806040838503121561028d5761028c610186565b5b600061029b858286016101ac565b92505060206102ac85828601610261565b915050925092905056fea2646970667358221220d6f2794415441ac9c0849147289c49ee0f3a7921cac822dfd08b3c1ef57b062f64736f6c63430008110033",
  "immutableReferences": {},
  "source": "pragma solidity ^0.8.0;\n\nimport './EnsResolver.sol';\n\n/**\n * @title EnsResolverMock\n */\ncontract EnsResolverMock is EnsResolver {\n\tmapping(bytes32 => address) public targets;\n\n\tfunction setAddr(bytes32 _node, address _addr) virtual public override {\n\t\ttargets[_node] = _addr;\n\t}\n\n\tfunction addr(bytes32 _node) virtual public view override returns (address) {\n\t\treturn targets[_node];\n\t}\n}\n",
  "sourcePath": "/Users/pedropelicano/repos/recruitment-protocol/smart-contract/contracts/EnsResolverMock.sol",
  "compiler": {
    "name": "solc",
    "version": "0.8.17+commit.8df45f5f.Emscripten.clang"
  },
  "schemaVersion": "3.4.10",
  "updatedAt": "2022-11-10T08:53:03.768Z",
  "networkType": "ethereum",
  "devdoc": {
    "kind": "dev",
    "methods": {},
    "title": "EnsResolverMock",
    "version": 1
  },
  "userdoc": {
    "kind": "user",
    "methods": {},
    "version": 1
  }
}