{
  "contractName": "EnsRegistryMock",
  "abi": [
    {
      "inputs": [
        {
          "internalType": "bytes32",
          "name": "",
          "type": "bytes32"
        }
      ],
      "name": "resolvers",
      "outputs": [
        {
          "internalType": "address",
          "name": "",
          "type": "address"
        }
      ],
      "stateMutability": "view",
      "type": "function",
      "constant": true
    },
    {
      "inputs": [
        {
          "internalType": "bytes32",
          "name": "_node",
          "type": "bytes32"
        },
        {
          "internalType": "address",
          "name": "_owner",
          "type": "address"
        }
      ],
      "name": "setOwner",
      "outputs": [],
      "stateMutability": "nonpayable",
      "type": "function"
    },
    {
      "inputs": [
        {
          "internalType": "bytes32",
          "name": "_node",
          "type": "bytes32"
        },
        {
          "internalType": "bytes32",
          "name": "_label",
          "type": "bytes32"
        },
        {
          "internalType": "address",
          "name": "_owner",
          "type": "address"
        }
      ],
      "name": "setSubnodeOwner",
      "outputs": [],
      "stateMutability": "nonpayable",
      "type": "function"
    },
    {
      "inputs": [
        {
          "internalType": "bytes32",
          "name": "_node",
          "type": "bytes32"
        },
        {
          "internalType": "address",
          "name": "_resolver",
          "type": "address"
        }
      ],
      "name": "setResolver",
      "outputs": [],
      "stateMutability": "nonpayable",
      "type": "function"
    },
    {
      "inputs": [
        {
          "internalType": "bytes32",
          "name": "_node",
          "type": "bytes32"
        }
      ],
      "name": "owner",
      "outputs": [
        {
          "internalType": "address",
          "name": "",
          "type": "address"
        }
      ],
      "stateMutability": "view",
      "type": "function",
      "constant": true
    },
    {
      "inputs": [
        {
          "internalType": "bytes32",
          "name": "_node",
          "type": "bytes32"
        }
      ],
      "name": "resolver",
      "outputs": [
        {
          "internalType": "address",
          "name": "",
          "type": "address"
        }
      ],
      "stateMutability": "view",
      "type": "function",
      "constant": true
    }
  ],
  "bytecode": "0x608060405234801561001057600080fd5b50610526806100206000396000f3fe608060405234801561001057600080fd5b50600436106100625760003560e01c80630178b8bf1461006757806302571be31461009757806306ab5923146100c75780631896f70a146100e35780635b0fc9c3146100ff578063c3a7bb901461011b575b600080fd5b610081600480360381019061007c919061035b565b61014b565b60405161008e91906103c9565b60405180910390f35b6100b160048036038101906100ac919061035b565b610188565b6040516100be91906103c9565b60405180910390f35b6100e160048036038101906100dc9190610410565b6101c4565b005b6100fd60048036038101906100f89190610463565b610242565b005b61011960048036038101906101149190610463565b610298565b005b6101356004803603810190610130919061035b565b6102ed565b60405161014291906103c9565b60405180910390f35b60006001600083815260200190815260200160002060009054906101000a900473ffffffffffffffffffffffffffffffffffffffff169050919050565b600080600083815260200190815260200160002060009054906101000a900473ffffffffffffffffffffffffffffffffffffffff169050919050565b8060008085856040516020016101db9291906104c4565b60405160208183030381529060405280519060200120815260200190815260200160002060006101000a81548173ffffffffffffffffffffffffffffffffffffffff021916908373ffffffffffffffffffffffffffffffffffffffff160217905550505050565b806001600084815260200190815260200160002060006101000a81548173ffffffffffffffffffffffffffffffffffffffff021916908373ffffffffffffffffffffffffffffffffffffffff1602179055505050565b8060008084815260200190815260200160002060006101000a81548173ffffffffffffffffffffffffffffffffffffffff021916908373ffffffffffffffffffffffffffffffffffffffff1602179055505050565b60016020528060005260406000206000915054906101000a900473ffffffffffffffffffffffffffffffffffffffff1681565b600080fd5b6000819050919050565b61033881610325565b811461034357600080fd5b50565b6000813590506103558161032f565b92915050565b60006020828403121561037157610370610320565b5b600061037f84828501610346565b91505092915050565b600073ffffffffffffffffffffffffffffffffffffffff82169050919050565b60006103b382610388565b9050919050565b6103c3816103a8565b82525050565b60006020820190506103de60008301846103ba565b92915050565b6103ed816103a8565b81146103f857600080fd5b50565b60008135905061040a816103e4565b92915050565b60008060006060848603121561042957610428610320565b5b600061043786828701610346565b935050602061044886828701610346565b9250506040610459868287016103fb565b9150509250925092565b6000806040838503121561047a57610479610320565b5b600061048885828601610346565b9250506020610499858286016103fb565b9150509250929050565b6000819050919050565b6104be6104b982610325565b6104a3565b82525050565b60006104d082856104ad565b6020820191506104e082846104ad565b602082019150819050939250505056fea264697066735822122036bbe863d8d9bc378ba58b5086ffee09edf8b7b345fc2882e6cd5abc80afc72664736f6c63430008110033",
  "immutableReferences": {},
  "source": "pragma solidity ^0.8.0;\n\nimport './EnsRegistry.sol';\n\n/**\n * @title EnsRegistryMock\n */\ncontract EnsRegistryMock is EnsRegistry {\n\tmapping(bytes32 => address) owners;\n\tmapping(bytes32 => address) public resolvers;\n\n\tfunction setOwner(bytes32 _node, address _owner) public override {\n\t\towners[_node] = _owner;\n\t}\n\n\tfunction setSubnodeOwner(bytes32 _node, bytes32 _label, address _owner) public override {\n\t\towners[keccak256(abi.encodePacked(_node, _label))] = _owner;\n\t}\n\n\tfunction setResolver(bytes32 _node, address _resolver) public override {\n\t\tresolvers[_node] = _resolver;\n\t}\n\n\tfunction owner(bytes32 _node) public override view returns (address){\n\t\treturn owners[_node];\n\t}\n\n\tfunction resolver(bytes32 _node) public override view returns (address){\n\t\treturn resolvers[_node];\n\t}\n}\n",
  "sourcePath": "/Users/pedropelicano/repos/recruitment-protocol/smart-contract/contracts/EnsRegistryMock.sol",
  "compiler": {
    "name": "solc",
    "version": "0.8.17+commit.8df45f5f.Emscripten.clang"
  },
  "schemaVersion": "3.4.10",
  "updatedAt": "2022-11-16T22:10:25.650Z",
  "networkType": "ethereum",
  "devdoc": {
    "kind": "dev",
    "methods": {},
    "title": "EnsRegistryMock",
    "version": 1
  },
  "userdoc": {
    "kind": "user",
    "methods": {},
    "version": 1
  }
}