{
  "contractName": "EnsResolverMock",
  "abi": [
    {
      "constant": true,
      "inputs": [
        {
          "internalType": "bytes32",
          "name": "",
          "type": "bytes32"
        }
      ],
      "name": "targets",
      "outputs": [
        {
          "internalType": "address",
          "name": "",
          "type": "address"
        }
      ],
      "payable": false,
      "stateMutability": "view",
      "type": "function"
    },
    {
      "constant": false,
      "inputs": [
        {
          "internalType": "bytes32",
          "name": "_node",
          "type": "bytes32"
        },
        {
          "internalType": "address",
          "name": "_addr",
          "type": "address"
        }
      ],
      "name": "setAddr",
      "outputs": [],
      "payable": false,
      "stateMutability": "nonpayable",
      "type": "function"
    },
    {
      "constant": true,
      "inputs": [
        {
          "internalType": "bytes32",
          "name": "_node",
          "type": "bytes32"
        }
      ],
      "name": "addr",
      "outputs": [
        {
          "internalType": "address",
          "name": "",
          "type": "address"
        }
      ],
      "payable": false,
      "stateMutability": "view",
      "type": "function"
    }
  ],
  "bytecode": "0x608060405234801561001057600080fd5b50610269806100206000396000f3fe608060405234801561001057600080fd5b50600436106100415760003560e01c80633b3b57de14610046578063b73673f7146100b4578063d5fa2b0014610122575b600080fd5b6100726004803603602081101561005c57600080fd5b8101908080359060200190929190505050610170565b604051808273ffffffffffffffffffffffffffffffffffffffff1673ffffffffffffffffffffffffffffffffffffffff16815260200191505060405180910390f35b6100e0600480360360208110156100ca57600080fd5b81019080803590602001909291905050506101ac565b604051808273ffffffffffffffffffffffffffffffffffffffff1673ffffffffffffffffffffffffffffffffffffffff16815260200191505060405180910390f35b61016e6004803603604081101561013857600080fd5b8101908080359060200190929190803573ffffffffffffffffffffffffffffffffffffffff1690602001909291905050506101df565b005b600080600083815260200190815260200160002060009054906101000a900473ffffffffffffffffffffffffffffffffffffffff169050919050565b60006020528060005260406000206000915054906101000a900473ffffffffffffffffffffffffffffffffffffffff1681565b8060008084815260200190815260200160002060006101000a81548173ffffffffffffffffffffffffffffffffffffffff021916908373ffffffffffffffffffffffffffffffffffffffff160217905550505056fea265627a7a72315820d0da836d497f5f913c4e3aa7a4fa4eb502db8ba43888ba40331d645f7086923964736f6c63430005100032",
  "source": "pragma solidity >0.4.24;\n\nimport './EnsResolver.sol';\n\n/**\n * @title EnsResolverMock\n */\ncontract EnsResolverMock is EnsResolver {\n\tmapping(bytes32 => address) public targets;\n\n\tfunction setAddr(bytes32 _node, address _addr) public {\n\t\ttargets[_node] = _addr;\n\t}\n\n\tfunction addr(bytes32 _node) public view returns (address) {\n\t\treturn targets[_node];\n\t}\n}\n",
  "sourcePath": "/Users/pedropelicano/repos/secrypt/secrypt-smart-contracts/contracts/EnsResolverMock.sol",
  "compiler": {
    "name": "solc",
    "version": "0.5.16+commit.9c3226ce.Emscripten.clang"
  },
  "schemaVersion": "3.4.7",
  "updatedAt": "2022-07-11T14:05:26.229Z",
  "networkType": "ethereum",
  "devdoc": {
    "methods": {},
    "title": "EnsResolverMock"
  },
  "userdoc": {
    "methods": {}
  }
}