{
  "contractName": "EnsSubdomainFactory",
  "abi": [
    {
      "inputs": [
        {
          "internalType": "contract EnsRegistry",
          "name": "_registry",
          "type": "address"
        },
        {
          "internalType": "contract EnsResolver",
          "name": "_resolver",
          "type": "address"
        }
      ],
      "payable": false,
      "stateMutability": "nonpayable",
      "type": "constructor"
    },
    {
      "anonymous": false,
      "inputs": [],
      "name": "DomainTransfersLocked",
      "type": "event"
    },
    {
      "anonymous": false,
      "inputs": [
        {
          "indexed": true,
          "internalType": "address",
          "name": "previousOwner",
          "type": "address"
        },
        {
          "indexed": true,
          "internalType": "address",
          "name": "newOwner",
          "type": "address"
        }
      ],
      "name": "OwnershipTransferred",
      "type": "event"
    },
    {
      "anonymous": false,
      "inputs": [
        {
          "indexed": true,
          "internalType": "address",
          "name": "previousRegistry",
          "type": "address"
        },
        {
          "indexed": true,
          "internalType": "address",
          "name": "newRegistry",
          "type": "address"
        }
      ],
      "name": "RegistryUpdated",
      "type": "event"
    },
    {
      "anonymous": false,
      "inputs": [
        {
          "indexed": true,
          "internalType": "address",
          "name": "previousResolver",
          "type": "address"
        },
        {
          "indexed": true,
          "internalType": "address",
          "name": "newResolver",
          "type": "address"
        }
      ],
      "name": "ResolverUpdated",
      "type": "event"
    },
    {
      "anonymous": false,
      "inputs": [
        {
          "indexed": true,
          "internalType": "address",
          "name": "creator",
          "type": "address"
        },
        {
          "indexed": true,
          "internalType": "address",
          "name": "owner",
          "type": "address"
        },
        {
          "indexed": false,
          "internalType": "bytes32",
          "name": "subdomain",
          "type": "bytes32"
        }
      ],
      "name": "SubdomainCreated",
      "type": "event"
    },
    {
      "anonymous": false,
      "inputs": [
        {
          "indexed": true,
          "internalType": "bytes32",
          "name": "node",
          "type": "bytes32"
        },
        {
          "indexed": true,
          "internalType": "string",
          "name": "indexedKey",
          "type": "string"
        },
        {
          "indexed": false,
          "internalType": "string",
          "name": "key",
          "type": "string"
        }
      ],
      "name": "TextChanged",
      "type": "event"
    },
    {
      "anonymous": false,
      "inputs": [
        {
          "indexed": false,
          "internalType": "bytes32",
          "name": "subdomain",
          "type": "bytes32"
        }
      ],
      "name": "TextUpdated",
      "type": "event"
    },
    {
      "constant": true,
      "inputs": [],
      "name": "locked",
      "outputs": [
        {
          "internalType": "bool",
          "name": "",
          "type": "bool"
        }
      ],
      "payable": false,
      "stateMutability": "view",
      "type": "function"
    },
    {
      "constant": true,
      "inputs": [],
      "name": "owner",
      "outputs": [
        {
          "internalType": "address",
          "name": "",
          "type": "address"
        }
      ],
      "payable": false,
      "stateMutability": "view",
      "type": "function"
    },
    {
      "constant": true,
      "inputs": [],
      "name": "registry",
      "outputs": [
        {
          "internalType": "contract EnsRegistry",
          "name": "",
          "type": "address"
        }
      ],
      "payable": false,
      "stateMutability": "view",
      "type": "function"
    },
    {
      "constant": true,
      "inputs": [],
      "name": "resolver",
      "outputs": [
        {
          "internalType": "contract EnsResolver",
          "name": "",
          "type": "address"
        }
      ],
      "payable": false,
      "stateMutability": "view",
      "type": "function"
    },
    {
      "constant": false,
      "inputs": [],
      "name": "newSubdomain",
      "outputs": [],
      "payable": false,
      "stateMutability": "nonpayable",
      "type": "function"
    },
    {
      "constant": false,
      "inputs": [
        {
          "internalType": "address",
          "name": "_guest",
          "type": "address"
        }
      ],
      "name": "newSubdomainByAddress",
      "outputs": [],
      "payable": false,
      "stateMutability": "nonpayable",
      "type": "function"
    },
    {
      "constant": false,
      "inputs": [
        {
          "internalType": "address",
          "name": "_resolver",
          "type": "address"
        }
      ],
      "name": "setResolver",
      "outputs": [],
      "payable": false,
      "stateMutability": "nonpayable",
      "type": "function"
    },
    {
      "constant": true,
      "inputs": [],
      "name": "domainOwner",
      "outputs": [
        {
          "internalType": "address",
          "name": "",
          "type": "address"
        }
      ],
      "payable": false,
      "stateMutability": "view",
      "type": "function"
    },
    {
      "constant": true,
      "inputs": [],
      "name": "subdomainOwner",
      "outputs": [
        {
          "internalType": "address",
          "name": "",
          "type": "address"
        }
      ],
      "payable": false,
      "stateMutability": "view",
      "type": "function"
    },
    {
      "constant": true,
      "inputs": [],
      "name": "subdomainResolver",
      "outputs": [
        {
          "internalType": "address",
          "name": "",
          "type": "address"
        }
      ],
      "payable": false,
      "stateMutability": "view",
      "type": "function"
    },
    {
      "constant": true,
      "inputs": [],
      "name": "subdomainTarget",
      "outputs": [
        {
          "internalType": "address",
          "name": "",
          "type": "address"
        }
      ],
      "payable": false,
      "stateMutability": "view",
      "type": "function"
    },
    {
      "constant": false,
      "inputs": [
        {
          "internalType": "bytes32",
          "name": "node",
          "type": "bytes32"
        },
        {
          "internalType": "string",
          "name": "key",
          "type": "string"
        },
        {
          "internalType": "string",
          "name": "value",
          "type": "string"
        }
      ],
      "name": "setText",
      "outputs": [],
      "payable": false,
      "stateMutability": "nonpayable",
      "type": "function"
    },
    {
      "constant": false,
      "inputs": [
        {
          "internalType": "string",
          "name": "_key",
          "type": "string"
        },
        {
          "internalType": "string",
          "name": "_value",
          "type": "string"
        }
      ],
      "name": "setText",
      "outputs": [],
      "payable": false,
      "stateMutability": "nonpayable",
      "type": "function"
    },
    {
      "constant": true,
      "inputs": [
        {
          "internalType": "string",
          "name": "_key",
          "type": "string"
        }
      ],
      "name": "text",
      "outputs": [
        {
          "internalType": "string",
          "name": "",
          "type": "string"
        }
      ],
      "payable": false,
      "stateMutability": "view",
      "type": "function"
    },
    {
      "constant": true,
      "inputs": [
        {
          "internalType": "bytes32",
          "name": "node",
          "type": "bytes32"
        },
        {
          "internalType": "string",
          "name": "key",
          "type": "string"
        }
      ],
      "name": "text",
      "outputs": [
        {
          "internalType": "string",
          "name": "",
          "type": "string"
        }
      ],
      "payable": false,
      "stateMutability": "view",
      "type": "function"
    },
    {
      "constant": false,
      "inputs": [
        {
          "internalType": "bytes32",
          "name": "_node",
          "type": "bytes32"
        },
        {
          "internalType": "address",
          "name": "_owner",
          "type": "address"
        }
      ],
      "name": "transferDomainOwnership",
      "outputs": [],
      "payable": false,
      "stateMutability": "nonpayable",
      "type": "function"
    },
    {
      "constant": false,
      "inputs": [],
      "name": "lockDomainOwnershipTransfers",
      "outputs": [],
      "payable": false,
      "stateMutability": "nonpayable",
      "type": "function"
    },
    {
      "constant": false,
      "inputs": [
        {
          "internalType": "contract EnsRegistry",
          "name": "_registry",
          "type": "address"
        }
      ],
      "name": "updateRegistry",
      "outputs": [],
      "payable": false,
      "stateMutability": "nonpayable",
      "type": "function"
    },
    {
      "constant": false,
      "inputs": [
        {
          "internalType": "contract EnsResolver",
          "name": "_resolver",
          "type": "address"
        }
      ],
      "name": "updateResolver",
      "outputs": [],
      "payable": false,
      "stateMutability": "nonpayable",
      "type": "function"
    },
    {
      "constant": false,
      "inputs": [
        {
          "internalType": "address",
          "name": "_owner",
          "type": "address"
        }
      ],
      "name": "transferContractOwnership",
      "outputs": [],
      "payable": false,
      "stateMutability": "nonpayable",
      "type": "function"
    }
  ],
  "bytecode": "0x60806040526000801b60045560405160200180807f657468000000000000000000000000000000000000000000000000000000000081525060030190506040516020818303038152906040528051906020012060055560405160200180807f726570726f0000000000000000000000000000000000000000000000000000008152506005019050604051602081830303815290604052805190602001206006553480156100ab57600080fd5b50604051613d68380380613d68833981810160405260408110156100ce57600080fd5b810190808051906020019092919080519060200190929190505050336000806101000a81548173ffffffffffffffffffffffffffffffffffffffff021916908373ffffffffffffffffffffffffffffffffffffffff16021790555033600160006101000a81548173ffffffffffffffffffffffffffffffffffffffff021916908373ffffffffffffffffffffffffffffffffffffffff16021790555081600260006101000a81548173ffffffffffffffffffffffffffffffffffffffff021916908373ffffffffffffffffffffffffffffffffffffffff16021790555080600360006101000a81548173ffffffffffffffffffffffffffffffffffffffff021916908373ffffffffffffffffffffffffffffffffffffffff1602179055506000600360146101000a81548160ff0219169083151502179055505050613b50806102186000396000f3fe608060405234801561001057600080fd5b506004361061012c5760003560e01c80637dd45999116100ad578063a9c73e8011610071578063a9c73e80146107e9578063cd0f77a81461093b578063cf30901214610985578063dbf30741146109a7578063e6fe39ed146109eb5761012c565b80637dd45999146106bd5780638ce1efdb146106c75780638da5cb5b14610711578063a00fd0101461075b578063a843c51f146107a55761012c565b80631dc9a3b9116100f45780631dc9a3b91461049957806332917c11146104e75780634e543b26146104f157806359d1d43c146105355780637b103999146106735761012c565b806304f3bcec1461013157806310f13a8c1461017b5780631427190d146102d7578063174e6c98146103215780631a5da6c814610455575b600080fd5b610139610a2f565b604051808273ffffffffffffffffffffffffffffffffffffffff1673ffffffffffffffffffffffffffffffffffffffff16815260200191505060405180910390f35b6102d56004803603606081101561019157600080fd5b8101908080359060200190929190803590602001906401000000008111156101b857600080fd5b8201836020820111156101ca57600080fd5b803590602001918460018302840111640100000000831117156101ec57600080fd5b91908080601f016020809104026020016040519081016040528093929190818152602001838380828437600081840152601f19601f8201169050808301925050505050505091929192908035906020019064010000000081111561024f57600080fd5b82018360208201111561026157600080fd5b8035906020019184600183028401116401000000008311171561028357600080fd5b91908080601f016020809104026020016040519081016040528093929190818152602001838380828437600081840152601f19601f820116905080830192505050505050509192919290505050610a55565b005b6102df610be7565b604051808273ffffffffffffffffffffffffffffffffffffffff1673ffffffffffffffffffffffffffffffffffffffff16815260200191505060405180910390f35b6103da6004803603602081101561033757600080fd5b810190808035906020019064010000000081111561035457600080fd5b82018360208201111561036657600080fd5b8035906020019184600183028401116401000000008311171561038857600080fd5b91908080601f016020809104026020016040519081016040528093929190818152602001838380828437600081840152601f19601f820116905080830192505050505050509192919290505050610de6565b6040518080602001828103825283818151815260200191508051906020019080838360005b8381101561041a5780820151818401526020810190506103ff565b50505050905090810190601f1680156104475780820380516001836020036101000a031916815260200191505b509250505060405180910390f35b6104976004803603602081101561046b57600080fd5b81019080803573ffffffffffffffffffffffffffffffffffffffff16906020019092919050505061128a565b005b6104e5600480360360408110156104af57600080fd5b8101908080359060200190929190803573ffffffffffffffffffffffffffffffffffffffff16906020019092919050505061144b565b005b6104ef611584565b005b6105336004803603602081101561050757600080fd5b81019080803573ffffffffffffffffffffffffffffffffffffffff169060200190929190505050611d06565b005b6105f86004803603604081101561054b57600080fd5b81019080803590602001909291908035906020019064010000000081111561057257600080fd5b82018360208201111561058457600080fd5b803590602001918460018302840111640100000000831117156105a657600080fd5b91908080601f016020809104026020016040519081016040528093929190818152602001838380828437600081840152601f19601f8201169050808301925050505050505091929192905050506122d2565b6040518080602001828103825283818151815260200191508051906020019080838360005b8381101561063857808201518184015260208101905061061d565b50505050905090810190601f1680156106655780820380516001836020036101000a031916815260200191505b509250505060405180910390f35b61067b6123ef565b604051808273ffffffffffffffffffffffffffffffffffffffff1673ffffffffffffffffffffffffffffffffffffffff16815260200191505060405180910390f35b6106c5612415565b005b6106cf6124d2565b604051808273ffffffffffffffffffffffffffffffffffffffff1673ffffffffffffffffffffffffffffffffffffffff16815260200191505060405180910390f35b610719612762565b604051808273ffffffffffffffffffffffffffffffffffffffff1673ffffffffffffffffffffffffffffffffffffffff16815260200191505060405180910390f35b610763612788565b604051808273ffffffffffffffffffffffffffffffffffffffff1673ffffffffffffffffffffffffffffffffffffffff16815260200191505060405180910390f35b6107e7600480360360208110156107bb57600080fd5b81019080803573ffffffffffffffffffffffffffffffffffffffff169060200190929190505050612987565b005b610939600480360360408110156107ff57600080fd5b810190808035906020019064010000000081111561081c57600080fd5b82018360208201111561082e57600080fd5b8035906020019184600183028401116401000000008311171561085057600080fd5b91908080601f016020809104026020016040519081016040528093929190818152602001838380828437600081840152601f19601f820116905080830192505050505050509192919290803590602001906401000000008111156108b357600080fd5b8201836020820111156108c557600080fd5b803590602001918460018302840111640100000000831117156108e757600080fd5b91908080601f016020809104026020016040519081016040528093929190818152602001838380828437600081840152601f19601f820116905080830192505050505050509192919290505050612b44565b005b610943612f54565b604051808273ffffffffffffffffffffffffffffffffffffffff1673ffffffffffffffffffffffffffffffffffffffff16815260200191505060405180910390f35b61098d613076565b604051808215151515815260200191505060405180910390f35b6109e9600480360360208110156109bd57600080fd5b81019080803573ffffffffffffffffffffffffffffffffffffffff169060200190929190505050613089565b005b610a2d60048036036020811015610a0157600080fd5b81019080803573ffffffffffffffffffffffffffffffffffffffff16906020019092919050505061380c565b005b600360009054906101000a900473ffffffffffffffffffffffffffffffffffffffff1681565b8060076000858152602001908152602001600020836040518082805190602001908083835b60208310610a9d5780518252602082019150602081019050602083039250610a7a565b6001836020036101000a03801982511681845116808217855250505050505090500191505090815260200160405180910390209080519060200190610ae39291906139cd565b50816040518082805190602001908083835b60208310610b185780518252602082019150602081019050602083039250610af5565b6001836020036101000a0380198251168184511680821785525050505050509050019150506040518091039020837fd8c9334b1a9c2f9da342a0a2b32629c1a229b6445dad78947f674b44444a7550846040518080602001828103825283818151815260200191508051906020019080838360005b83811015610ba8578082015181840152602081019050610b8d565b50505050905090810190601f168015610bd55780820380516001836020036101000a031916815260200191505b509250505060405180910390a3505050565b60008060045460055460405160200180838152602001828152602001925050506040516020818303038152906040528051906020012090506000816006546040516020018083815260200182815260200192505050604051602081830303815290604052805190602001209050600060405160200180807f6574682d0000000000000000000000000000000000000000000000000000000081525060040190506040516020818303038152906040528051906020012033604051602001808381526020018273ffffffffffffffffffffffffffffffffffffffff1673ffffffffffffffffffffffffffffffffffffffff1660601b815260140192505050604051602081830303815290604052805190602001209050600082826040516020018083815260200182815260200192505050604051602081830303815290604052805190602001209050600260009054906101000a900473ffffffffffffffffffffffffffffffffffffffff1673ffffffffffffffffffffffffffffffffffffffff16630178b8bf826040518263ffffffff1660e01b81526004018082815260200191505060206040518083038186803b158015610da257600080fd5b505afa158015610db6573d6000803e3d6000fd5b505050506040513d6020811015610dcc57600080fd5b810190808051906020019092919050505094505050505090565b60606000600454600554604051602001808381526020018281526020019250505060405160208183030381529060405280519060200120905060008160065460405160200180838152602001828152602001925050506040516020818303038152906040528051906020012090503073ffffffffffffffffffffffffffffffffffffffff16600260009054906101000a900473ffffffffffffffffffffffffffffffffffffffff1673ffffffffffffffffffffffffffffffffffffffff166302571be3836040518263ffffffff1660e01b81526004018082815260200191505060206040518083038186803b158015610ede57600080fd5b505afa158015610ef2573d6000803e3d6000fd5b505050506040513d6020811015610f0857600080fd5b810190808051906020019092919050505073ffffffffffffffffffffffffffffffffffffffff1614610f85576040517f08c379a0000000000000000000000000000000000000000000000000000000008152600401808060200182810382526023815260200180613a9c6023913960400191505060405180910390fd5b600060405160200180807f6574682d0000000000000000000000000000000000000000000000000000000081525060040190506040516020818303038152906040528051906020012033604051602001808381526020018273ffffffffffffffffffffffffffffffffffffffff1673ffffffffffffffffffffffffffffffffffffffff1660601b815260140192505050604051602081830303815290604052805190602001209050600082826040516020018083815260200182815260200192505050604051602081830303815290604052805190602001209050600073ffffffffffffffffffffffffffffffffffffffff16600260009054906101000a900473ffffffffffffffffffffffffffffffffffffffff1673ffffffffffffffffffffffffffffffffffffffff166302571be3836040518263ffffffff1660e01b81526004018082815260200191505060206040518083038186803b1580156110eb57600080fd5b505afa1580156110ff573d6000803e3d6000fd5b505050506040513d602081101561111557600080fd5b810190808051906020019092919050505073ffffffffffffffffffffffffffffffffffffffff16148061122057503373ffffffffffffffffffffffffffffffffffffffff16600260009054906101000a900473ffffffffffffffffffffffffffffffffffffffff1673ffffffffffffffffffffffffffffffffffffffff166302571be3836040518263ffffffff1660e01b81526004018082815260200191505060206040518083038186803b1580156111cd57600080fd5b505afa1580156111e1573d6000803e3d6000fd5b505050506040513d60208110156111f757600080fd5b810190808051906020019092919050505073ffffffffffffffffffffffffffffffffffffffff16145b611275576040517f08c379a0000000000000000000000000000000000000000000000000000000008152600401808060200182810382526034815260200180613ae86034913960400191505060405180910390fd5b61127f81876122d2565b945050505050919050565b600160009054906101000a900473ffffffffffffffffffffffffffffffffffffffff1673ffffffffffffffffffffffffffffffffffffffff163373ffffffffffffffffffffffffffffffffffffffff16146112e457600080fd5b8073ffffffffffffffffffffffffffffffffffffffff16600260009054906101000a900473ffffffffffffffffffffffffffffffffffffffff1673ffffffffffffffffffffffffffffffffffffffff16141561138b576040517f08c379a0000000000000000000000000000000000000000000000000000000008152600401808060200182810382526029815260200180613abf6029913960400191505060405180910390fd5b8073ffffffffffffffffffffffffffffffffffffffff16600260009054906101000a900473ffffffffffffffffffffffffffffffffffffffff1673ffffffffffffffffffffffffffffffffffffffff167f482b97c53e48ffa324a976e2738053e9aff6eee04d8aac63b10e19411d869b8260405160405180910390a380600260006101000a81548173ffffffffffffffffffffffffffffffffffffffff021916908373ffffffffffffffffffffffffffffffffffffffff16021790555050565b600160009054906101000a900473ffffffffffffffffffffffffffffffffffffffff1673ffffffffffffffffffffffffffffffffffffffff163373ffffffffffffffffffffffffffffffffffffffff16146114a557600080fd5b600360149054906101000a900460ff16156114bf57600080fd5b600260009054906101000a900473ffffffffffffffffffffffffffffffffffffffff1673ffffffffffffffffffffffffffffffffffffffff16635b0fc9c383836040518363ffffffff1660e01b8152600401808381526020018273ffffffffffffffffffffffffffffffffffffffff1673ffffffffffffffffffffffffffffffffffffffff16815260200192505050600060405180830381600087803b15801561156857600080fd5b505af115801561157c573d6000803e3d6000fd5b505050505050565b6000600454600554604051602001808381526020018281526020019250505060405160208183030381529060405280519060200120905060008160065460405160200180838152602001828152602001925050506040516020818303038152906040528051906020012090503073ffffffffffffffffffffffffffffffffffffffff16600260009054906101000a900473ffffffffffffffffffffffffffffffffffffffff1673ffffffffffffffffffffffffffffffffffffffff166302571be3836040518263ffffffff1660e01b81526004018082815260200191505060206040518083038186803b15801561167a57600080fd5b505afa15801561168e573d6000803e3d6000fd5b505050506040513d60208110156116a457600080fd5b810190808051906020019092919050505073ffffffffffffffffffffffffffffffffffffffff1614611721576040517f08c379a0000000000000000000000000000000000000000000000000000000008152600401808060200182810382526023815260200180613a9c6023913960400191505060405180910390fd5b600060405160200180807f6574682d0000000000000000000000000000000000000000000000000000000081525060040190506040516020818303038152906040528051906020012033604051602001808381526020018273ffffffffffffffffffffffffffffffffffffffff1673ffffffffffffffffffffffffffffffffffffffff1660601b815260140192505050604051602081830303815290604052805190602001209050600082826040516020018083815260200182815260200192505050604051602081830303815290604052805190602001209050600073ffffffffffffffffffffffffffffffffffffffff16600260009054906101000a900473ffffffffffffffffffffffffffffffffffffffff1673ffffffffffffffffffffffffffffffffffffffff166302571be3836040518263ffffffff1660e01b81526004018082815260200191505060206040518083038186803b15801561188757600080fd5b505afa15801561189b573d6000803e3d6000fd5b505050506040513d60208110156118b157600080fd5b810190808051906020019092919050505073ffffffffffffffffffffffffffffffffffffffff1614806119bc57503373ffffffffffffffffffffffffffffffffffffffff16600260009054906101000a900473ffffffffffffffffffffffffffffffffffffffff1673ffffffffffffffffffffffffffffffffffffffff166302571be3836040518263ffffffff1660e01b81526004018082815260200191505060206040518083038186803b15801561196957600080fd5b505afa15801561197d573d6000803e3d6000fd5b505050506040513d602081101561199357600080fd5b810190808051906020019092919050505073ffffffffffffffffffffffffffffffffffffffff16145b611a2e576040517f08c379a00000000000000000000000000000000000000000000000000000000081526004018080602001828103825260188152602001807f73756220646f6d61696e20616c7265616479206f776e6564000000000000000081525060200191505060405180910390fd5b600260009054906101000a900473ffffffffffffffffffffffffffffffffffffffff1673ffffffffffffffffffffffffffffffffffffffff166306ab59238484306040518463ffffffff1660e01b8152600401808481526020018381526020018273ffffffffffffffffffffffffffffffffffffffff1673ffffffffffffffffffffffffffffffffffffffff1681526020019350505050600060405180830381600087803b158015611adf57600080fd5b505af1158015611af3573d6000803e3d6000fd5b50505050600260009054906101000a900473ffffffffffffffffffffffffffffffffffffffff1673ffffffffffffffffffffffffffffffffffffffff16631896f70a82600360009054906101000a900473ffffffffffffffffffffffffffffffffffffffff166040518363ffffffff1660e01b8152600401808381526020018273ffffffffffffffffffffffffffffffffffffffff1673ffffffffffffffffffffffffffffffffffffffff16815260200192505050600060405180830381600087803b158015611bc257600080fd5b505af1158015611bd6573d6000803e3d6000fd5b50505050600260009054906101000a900473ffffffffffffffffffffffffffffffffffffffff1673ffffffffffffffffffffffffffffffffffffffff16635b0fc9c382336040518363ffffffff1660e01b8152600401808381526020018273ffffffffffffffffffffffffffffffffffffffff1673ffffffffffffffffffffffffffffffffffffffff16815260200192505050600060405180830381600087803b158015611c8357600080fd5b505af1158015611c97573d6000803e3d6000fd5b505050503373ffffffffffffffffffffffffffffffffffffffff163373ffffffffffffffffffffffffffffffffffffffff167feb0c437e734e7e42204a015edd050c5472103e78b48b123499ebecaf8e1ed830846040518082815260200191505060405180910390a350505050565b6000600454600554604051602001808381526020018281526020019250505060405160208183030381529060405280519060200120905060008160065460405160200180838152602001828152602001925050506040516020818303038152906040528051906020012090503073ffffffffffffffffffffffffffffffffffffffff16600260009054906101000a900473ffffffffffffffffffffffffffffffffffffffff1673ffffffffffffffffffffffffffffffffffffffff166302571be3836040518263ffffffff1660e01b81526004018082815260200191505060206040518083038186803b158015611dfc57600080fd5b505afa158015611e10573d6000803e3d6000fd5b505050506040513d6020811015611e2657600080fd5b810190808051906020019092919050505073ffffffffffffffffffffffffffffffffffffffff1614611ea3576040517f08c379a0000000000000000000000000000000000000000000000000000000008152600401808060200182810382526023815260200180613a9c6023913960400191505060405180910390fd5b600060405160200180807f6574682d0000000000000000000000000000000000000000000000000000000081525060040190506040516020818303038152906040528051906020012033604051602001808381526020018273ffffffffffffffffffffffffffffffffffffffff1673ffffffffffffffffffffffffffffffffffffffff1660601b815260140192505050604051602081830303815290604052805190602001209050600082826040516020018083815260200182815260200192505050604051602081830303815290604052805190602001209050600073ffffffffffffffffffffffffffffffffffffffff16600260009054906101000a900473ffffffffffffffffffffffffffffffffffffffff1673ffffffffffffffffffffffffffffffffffffffff166302571be3836040518263ffffffff1660e01b81526004018082815260200191505060206040518083038186803b15801561200957600080fd5b505afa15801561201d573d6000803e3d6000fd5b505050506040513d602081101561203357600080fd5b810190808051906020019092919050505073ffffffffffffffffffffffffffffffffffffffff16148061213e57503373ffffffffffffffffffffffffffffffffffffffff16600260009054906101000a900473ffffffffffffffffffffffffffffffffffffffff1673ffffffffffffffffffffffffffffffffffffffff166302571be3836040518263ffffffff1660e01b81526004018082815260200191505060206040518083038186803b1580156120eb57600080fd5b505afa1580156120ff573d6000803e3d6000fd5b505050506040513d602081101561211557600080fd5b810190808051906020019092919050505073ffffffffffffffffffffffffffffffffffffffff16145b6121b0576040517f08c379a00000000000000000000000000000000000000000000000000000000081526004018080602001828103825260188152602001807f73756220646f6d61696e20616c7265616479206f776e6564000000000000000081525060200191505060405180910390fd5b600260009054906101000a900473ffffffffffffffffffffffffffffffffffffffff1673ffffffffffffffffffffffffffffffffffffffff16631896f70a82876040518363ffffffff1660e01b8152600401808381526020018273ffffffffffffffffffffffffffffffffffffffff1673ffffffffffffffffffffffffffffffffffffffff16815260200192505050600060405180830381600087803b15801561225957600080fd5b505af115801561226d573d6000803e3d6000fd5b505050508473ffffffffffffffffffffffffffffffffffffffff163373ffffffffffffffffffffffffffffffffffffffff167f84b83d2b66cac119ccaaca68b476b0dc5371d5f2fd27f697770a910175fd38b660405160405180910390a35050505050565b606060076000848152602001908152602001600020826040518082805190602001908083835b6020831061231b57805182526020820191506020810190506020830392506122f8565b6001836020036101000a03801982511681845116808217855250505050505090500191505090815260200160405180910390208054600181600116156101000203166002900480601f0160208091040260200160405190810160405280929190818152602001828054600181600116156101000203166002900480156123e25780601f106123b7576101008083540402835291602001916123e2565b820191906000526020600020905b8154815290600101906020018083116123c557829003601f168201915b5050505050905092915050565b600260009054906101000a900473ffffffffffffffffffffffffffffffffffffffff1681565b600160009054906101000a900473ffffffffffffffffffffffffffffffffffffffff1673ffffffffffffffffffffffffffffffffffffffff163373ffffffffffffffffffffffffffffffffffffffff161461246f57600080fd5b600360149054906101000a900460ff161561248957600080fd5b6001600360146101000a81548160ff0219169083151502179055507fd68bbea4b8d77ea0826a260170e3b50080b57c9ed7420ef5920b1a58e613e17960405160405180910390a1565b60008060045460055460405160200180838152602001828152602001925050506040516020818303038152906040528051906020012090506000816006546040516020018083815260200182815260200192505050604051602081830303815290604052805190602001209050600060405160200180807f6574682d0000000000000000000000000000000000000000000000000000000081525060040190506040516020818303038152906040528051906020012033604051602001808381526020018273ffffffffffffffffffffffffffffffffffffffff1673ffffffffffffffffffffffffffffffffffffffff1660601b8152601401925050506040516020818303038152906040528051906020012090506000828260405160200180838152602001828152602001925050506040516020818303038152906040528051906020012090506000600260009054906101000a900473ffffffffffffffffffffffffffffffffffffffff1673ffffffffffffffffffffffffffffffffffffffff16630178b8bf836040518263ffffffff1660e01b81526004018082815260200191505060206040518083038186803b15801561268f57600080fd5b505afa1580156126a3573d6000803e3d6000fd5b505050506040513d60208110156126b957600080fd5b810190808051906020019092919050505090508073ffffffffffffffffffffffffffffffffffffffff16633b3b57de836040518263ffffffff1660e01b81526004018082815260200191505060206040518083038186803b15801561271d57600080fd5b505afa158015612731573d6000803e3d6000fd5b505050506040513d602081101561274757600080fd5b81019080805190602001909291905050509550505050505090565b600160009054906101000a900473ffffffffffffffffffffffffffffffffffffffff1681565b60008060045460055460405160200180838152602001828152602001925050506040516020818303038152906040528051906020012090506000816006546040516020018083815260200182815260200192505050604051602081830303815290604052805190602001209050600060405160200180807f6574682d0000000000000000000000000000000000000000000000000000000081525060040190506040516020818303038152906040528051906020012033604051602001808381526020018273ffffffffffffffffffffffffffffffffffffffff1673ffffffffffffffffffffffffffffffffffffffff1660601b815260140192505050604051602081830303815290604052805190602001209050600082826040516020018083815260200182815260200192505050604051602081830303815290604052805190602001209050600260009054906101000a900473ffffffffffffffffffffffffffffffffffffffff1673ffffffffffffffffffffffffffffffffffffffff166302571be3826040518263ffffffff1660e01b81526004018082815260200191505060206040518083038186803b15801561294357600080fd5b505afa158015612957573d6000803e3d6000fd5b505050506040513d602081101561296d57600080fd5b810190808051906020019092919050505094505050505090565b600160009054906101000a900473ffffffffffffffffffffffffffffffffffffffff1673ffffffffffffffffffffffffffffffffffffffff163373ffffffffffffffffffffffffffffffffffffffff16146129e157600080fd5b600073ffffffffffffffffffffffffffffffffffffffff168173ffffffffffffffffffffffffffffffffffffffff161415612a84576040517f08c379a000000000000000000000000000000000000000000000000000000000815260040180806020018281038252601d8152602001807f63616e6e6f74207472616e7366657220746f206164647265737328302900000081525060200191505060405180910390fd5b8073ffffffffffffffffffffffffffffffffffffffff16600160009054906101000a900473ffffffffffffffffffffffffffffffffffffffff1673ffffffffffffffffffffffffffffffffffffffff167f8be0079c531659141344cd1fd0a4f28419497f9722a3daafe3b4186f6b6457e060405160405180910390a380600160006101000a81548173ffffffffffffffffffffffffffffffffffffffff021916908373ffffffffffffffffffffffffffffffffffffffff16021790555050565b6000600454600554604051602001808381526020018281526020019250505060405160208183030381529060405280519060200120905060008160065460405160200180838152602001828152602001925050506040516020818303038152906040528051906020012090503073ffffffffffffffffffffffffffffffffffffffff16600260009054906101000a900473ffffffffffffffffffffffffffffffffffffffff1673ffffffffffffffffffffffffffffffffffffffff166302571be3836040518263ffffffff1660e01b81526004018082815260200191505060206040518083038186803b158015612c3a57600080fd5b505afa158015612c4e573d6000803e3d6000fd5b505050506040513d6020811015612c6457600080fd5b810190808051906020019092919050505073ffffffffffffffffffffffffffffffffffffffff1614612ce1576040517f08c379a0000000000000000000000000000000000000000000000000000000008152600401808060200182810382526023815260200180613a9c6023913960400191505060405180910390fd5b600060405160200180807f6574682d0000000000000000000000000000000000000000000000000000000081525060040190506040516020818303038152906040528051906020012033604051602001808381526020018273ffffffffffffffffffffffffffffffffffffffff1673ffffffffffffffffffffffffffffffffffffffff1660601b8152601401925050506040516020818303038152906040528051906020012090506000828260405160200180838152602001828152602001925050506040516020818303038152906040528051906020012090503373ffffffffffffffffffffffffffffffffffffffff16600260009054906101000a900473ffffffffffffffffffffffffffffffffffffffff1673ffffffffffffffffffffffffffffffffffffffff166302571be3836040518263ffffffff1660e01b81526004018082815260200191505060206040518083038186803b158015612e4657600080fd5b505afa158015612e5a573d6000803e3d6000fd5b505050506040513d6020811015612e7057600080fd5b810190808051906020019092919050505073ffffffffffffffffffffffffffffffffffffffff1614612f0a576040517f08c379a000000000000000000000000000000000000000000000000000000000815260040180806020018281038252601d8152602001807f746578742063616e206f6e6c7920626520736574206279206f776e657200000081525060200191505060405180910390fd5b612f15818787610a55565b7f6ef0bf62b43ac68d583afb687d463b629a35066355c21ff456aa258ae2b3c9e1826040518082815260200191505060405180910390a1505050505050565b60008060045460055460405160200180838152602001828152602001925050506040516020818303038152906040528051906020012090506000816006546040516020018083815260200182815260200192505050604051602081830303815290604052805190602001209050600260009054906101000a900473ffffffffffffffffffffffffffffffffffffffff1673ffffffffffffffffffffffffffffffffffffffff166302571be3826040518263ffffffff1660e01b81526004018082815260200191505060206040518083038186803b15801561303457600080fd5b505afa158015613048573d6000803e3d6000fd5b505050506040513d602081101561305e57600080fd5b81019080805190602001909291905050509250505090565b600360149054906101000a900460ff1681565b6000600454600554604051602001808381526020018281526020019250505060405160208183030381529060405280519060200120905060008160065460405160200180838152602001828152602001925050506040516020818303038152906040528051906020012090503073ffffffffffffffffffffffffffffffffffffffff16600260009054906101000a900473ffffffffffffffffffffffffffffffffffffffff1673ffffffffffffffffffffffffffffffffffffffff166302571be3836040518263ffffffff1660e01b81526004018082815260200191505060206040518083038186803b15801561317f57600080fd5b505afa158015613193573d6000803e3d6000fd5b505050506040513d60208110156131a957600080fd5b810190808051906020019092919050505073ffffffffffffffffffffffffffffffffffffffff1614613226576040517f08c379a0000000000000000000000000000000000000000000000000000000008152600401808060200182810382526023815260200180613a9c6023913960400191505060405180910390fd5b600060405160200180807f6574682d0000000000000000000000000000000000000000000000000000000081525060040190506040516020818303038152906040528051906020012084604051602001808381526020018273ffffffffffffffffffffffffffffffffffffffff1673ffffffffffffffffffffffffffffffffffffffff1660601b815260140192505050604051602081830303815290604052805190602001209050600082826040516020018083815260200182815260200192505050604051602081830303815290604052805190602001209050600073ffffffffffffffffffffffffffffffffffffffff16600260009054906101000a900473ffffffffffffffffffffffffffffffffffffffff1673ffffffffffffffffffffffffffffffffffffffff166302571be3836040518263ffffffff1660e01b81526004018082815260200191505060206040518083038186803b15801561338c57600080fd5b505afa1580156133a0573d6000803e3d6000fd5b505050506040513d60208110156133b657600080fd5b810190808051906020019092919050505073ffffffffffffffffffffffffffffffffffffffff1614806134c157508473ffffffffffffffffffffffffffffffffffffffff16600260009054906101000a900473ffffffffffffffffffffffffffffffffffffffff1673ffffffffffffffffffffffffffffffffffffffff166302571be3836040518263ffffffff1660e01b81526004018082815260200191505060206040518083038186803b15801561346e57600080fd5b505afa158015613482573d6000803e3d6000fd5b505050506040513d602081101561349857600080fd5b810190808051906020019092919050505073ffffffffffffffffffffffffffffffffffffffff16145b613533576040517f08c379a00000000000000000000000000000000000000000000000000000000081526004018080602001828103825260188152602001807f73756220646f6d61696e20616c7265616479206f776e6564000000000000000081525060200191505060405180910390fd5b600260009054906101000a900473ffffffffffffffffffffffffffffffffffffffff1673ffffffffffffffffffffffffffffffffffffffff166306ab59238484306040518463ffffffff1660e01b8152600401808481526020018381526020018273ffffffffffffffffffffffffffffffffffffffff1673ffffffffffffffffffffffffffffffffffffffff1681526020019350505050600060405180830381600087803b1580156135e457600080fd5b505af11580156135f8573d6000803e3d6000fd5b50505050600260009054906101000a900473ffffffffffffffffffffffffffffffffffffffff1673ffffffffffffffffffffffffffffffffffffffff16631896f70a82600360009054906101000a900473ffffffffffffffffffffffffffffffffffffffff166040518363ffffffff1660e01b8152600401808381526020018273ffffffffffffffffffffffffffffffffffffffff1673ffffffffffffffffffffffffffffffffffffffff16815260200192505050600060405180830381600087803b1580156136c757600080fd5b505af11580156136db573d6000803e3d6000fd5b50505050600260009054906101000a900473ffffffffffffffffffffffffffffffffffffffff1673ffffffffffffffffffffffffffffffffffffffff16635b0fc9c382876040518363ffffffff1660e01b8152600401808381526020018273ffffffffffffffffffffffffffffffffffffffff1673ffffffffffffffffffffffffffffffffffffffff16815260200192505050600060405180830381600087803b15801561378857600080fd5b505af115801561379c573d6000803e3d6000fd5b505050508473ffffffffffffffffffffffffffffffffffffffff168573ffffffffffffffffffffffffffffffffffffffff167feb0c437e734e7e42204a015edd050c5472103e78b48b123499ebecaf8e1ed830846040518082815260200191505060405180910390a35050505050565b600160009054906101000a900473ffffffffffffffffffffffffffffffffffffffff1673ffffffffffffffffffffffffffffffffffffffff163373ffffffffffffffffffffffffffffffffffffffff161461386657600080fd5b8073ffffffffffffffffffffffffffffffffffffffff16600360009054906101000a900473ffffffffffffffffffffffffffffffffffffffff1673ffffffffffffffffffffffffffffffffffffffff16141561390d576040517f08c379a0000000000000000000000000000000000000000000000000000000008152600401808060200182810382526029815260200180613a736029913960400191505060405180910390fd5b8073ffffffffffffffffffffffffffffffffffffffff16600360009054906101000a900473ffffffffffffffffffffffffffffffffffffffff1673ffffffffffffffffffffffffffffffffffffffff167f84b83d2b66cac119ccaaca68b476b0dc5371d5f2fd27f697770a910175fd38b660405160405180910390a380600360006101000a81548173ffffffffffffffffffffffffffffffffffffffff021916908373ffffffffffffffffffffffffffffffffffffffff16021790555050565b828054600181600116156101000203166002900490600052602060002090601f016020900481019282601f10613a0e57805160ff1916838001178555613a3c565b82800160010185558215613a3c579182015b82811115613a3b578251825591602001919060010190613a20565b5b509050613a499190613a4d565b5090565b613a6f91905b80821115613a6b576000816000905550600101613a53565b5090565b9056fe6e6577207265736f6c7665722073686f756c6420626520646966666572656e742066726f6d206f6c647468697320636f6e74726163742073686f756c64206f776e2074686520646f6d61696e6e65772072656769737472792073686f756c6420626520646966666572656e742066726f6d206f6c647265676973746572656420737562646f6d61696e7320746578742063616e206f6e6c792062652072656164206279206f776e6572a265627a7a723158208dfb30887a75e37c381fb01cc6a30937ea4cb8ad8565a0142025633427bfb74964736f6c63430005100032",
  "source": "pragma solidity >0.4.24;\n\nimport './EnsRegistry.sol';\nimport './EnsResolver.sol';\n\n// ---------------------------------------------------------------------------------------------------\n// EnsSubdomainFactory - allows creating and configuring custom ENS subdomains with one contract call.\n//\n// @author Radek Ostrowski / https://startonchain.com - MIT Licence.\n// Source: https://github.com/radek1st/ens-subdomain-factory\n// ---------------------------------------------------------------------------------------------------\n\n/**\n * @title EnsSubdomainFactory\n * @dev Allows to create and configure a subdomain for Ethereum ENS in one call.\n * After deploying this contract, change the owner of the domain you want to use\n * to this deployed contract address. For example, transfer the ownership of \"startonchain.eth\"\n * so anyone can create subdomains like \"radek.startonchain.eth\".\n */\n\n contract Ownable {\n\n  address public owner;\n\n  modifier onlyOwner {\n    require(msg.sender == owner, \"Ownable: You are not the owner, Bye.\");\n    _;\n  }\n\n  constructor () public {\n    owner = msg.sender;\n  }\n}\n\ncontract EnsSubdomainFactory is Ownable{\n\taddress public owner;\n\tEnsRegistry public registry;\n\tEnsResolver public resolver;\n\tbool public locked;\n    bytes32 emptyNamehash = 0x00;\n\tbytes32 topDomainHash = keccak256(abi.encodePacked(\"eth\"));\n\tbytes32 domainHash = keccak256(abi.encodePacked(\"repro\"));\n\n\tevent SubdomainCreated(address indexed creator, address indexed owner, bytes32 subdomain);\n\tevent OwnershipTransferred(address indexed previousOwner, address indexed newOwner);\n\tevent RegistryUpdated(address indexed previousRegistry, address indexed newRegistry);\n\tevent ResolverUpdated(address indexed previousResolver, address indexed newResolver);\n\tevent TextUpdated(bytes32 subdomain);\n\tevent DomainTransfersLocked();\n\n\tconstructor(EnsRegistry _registry, EnsResolver _resolver) public {\n\t\towner = msg.sender;\n\t\tregistry = _registry;\n\t\tresolver = _resolver;\n\t\tlocked = false;\n\t}\n\n\t/**\n\t * @dev Throws if called by any account other than the owner.\n\t *\n\t */\n\tmodifier onlyOwner() {\n\t\trequire(msg.sender == owner);\n\t\t_;\n\t}\n\n\t/**\n\t * @dev Allows to create a subdomain (e.g. \"radek.startonchain.eth\"),\n\t * set its resolver and set its target address\n\t */\n\tfunction newSubdomain() public {\n\t\t//create namehash for the topdomain\n\t\tbytes32 topdomainNamehash = keccak256(abi.encodePacked(emptyNamehash, topDomainHash));\n\t\t//create namehash for the domain\n\t\tbytes32 domainNamehash = keccak256(abi.encodePacked(topdomainNamehash, domainHash));\n\t\t//make sure this contract owns the domain\n\t\trequire(registry.owner(domainNamehash) == address(this), \"this contract should own the domain\");\n\t\t//create labelhash for the sub domain\n\t\tbytes32 subdomainLabelhash = keccak256(abi.encodePacked(keccak256(abi.encodePacked(\"eth-\")), msg.sender));\n\t\t//create namehash for the sub domain\n\t\tbytes32 subdomainNamehash = keccak256(abi.encodePacked(domainNamehash, subdomainLabelhash));\n\t\t//make sure it is free or owned by the sender\n\t\trequire(registry.owner(subdomainNamehash) == address(0) ||\n\t\t\tregistry.owner(subdomainNamehash) == msg.sender, \"sub domain already owned\");\n\t\t//create new subdomain, temporarily this smartcontract is the owner\n\t\tregistry.setSubnodeOwner(domainNamehash, subdomainLabelhash, address(this));\n\t\t//set public resolver for this domain\n\t\tregistry.setResolver(subdomainNamehash, address(resolver));\n\t\t//change the ownership back to requested owner\n\t\tregistry.setOwner(subdomainNamehash, msg.sender);\n\n\t\temit SubdomainCreated(msg.sender, msg.sender, subdomainLabelhash);\n\t}\n\n\tfunction newSubdomainByAddress(address _guest) public {\n\t\t//create namehash for the topdomain\n\t\tbytes32 topdomainNamehash = keccak256(abi.encodePacked(emptyNamehash, topDomainHash));\n\t\t//create namehash for the domain\n\t\tbytes32 domainNamehash = keccak256(abi.encodePacked(topdomainNamehash, domainHash));\n\t\t//make sure this contract owns the domain\n\t\trequire(registry.owner(domainNamehash) == address(this), \"this contract should own the domain\");\n\t\t//create labelhash for the sub domain\n\t\tbytes32 subdomainLabelhash = keccak256(abi.encodePacked(keccak256(abi.encodePacked(\"eth-\")), _guest));\n\t\t//create namehash for the sub domain\n\t\tbytes32 subdomainNamehash = keccak256(abi.encodePacked(domainNamehash, subdomainLabelhash));\n\t\t//make sure it is free or owned by the sender\n\t\trequire(registry.owner(subdomainNamehash) == address(0) ||\n\t\t\tregistry.owner(subdomainNamehash) == _guest, \"sub domain already owned\");\n\t\t//create new subdomain, temporarily this smartcontract is the owner\n\t\tregistry.setSubnodeOwner(domainNamehash, subdomainLabelhash, address(this));\n\t\t//set public resolver for this domain\n\t\tregistry.setResolver(subdomainNamehash, address(resolver));\n\t\t//change the ownership back to requested owner\n\t\tregistry.setOwner(subdomainNamehash, _guest);\n\t\temit SubdomainCreated(_guest, _guest, subdomainLabelhash);\n\t}\n\n\tfunction setResolver(address _resolver) public {\n\t\t//create namehash for the topdomain\n\t\tbytes32 topdomainNamehash = keccak256(abi.encodePacked(emptyNamehash, topDomainHash));\n\t\t//create namehash for the domain\n\t\tbytes32 domainNamehash = keccak256(abi.encodePacked(topdomainNamehash, domainHash));\n\t\t//make sure this contract owns the domain\n\t\trequire(registry.owner(domainNamehash) == address(this), \"this contract should own the domain\");\n\t\t//create labelhash for the sub domain\n\n\t\t//bytes32 subdomainLabelhash = keccak256(abi.encodePacked(_subdomain));\n\t\tbytes32 subdomainLabelhash = keccak256(abi.encodePacked(keccak256(abi.encodePacked(\"eth-\")), msg.sender));\n\t\t\n\t\t//create namehash for the sub domain\n\t\tbytes32 subdomainNamehash = keccak256(abi.encodePacked(domainNamehash, subdomainLabelhash));\n\t\t//make sure it is free or owned by the sender\n\t\trequire(registry.owner(subdomainNamehash) == address(0) ||\n\t\t\tregistry.owner(subdomainNamehash) == msg.sender, \"sub domain already owned\");\n\t\t//set public resolver for this domain\n\t\tregistry.setResolver(subdomainNamehash, _resolver);\n\t\t\n\t\temit ResolverUpdated(msg.sender, _resolver);\n\t}\n\n\tfunction setText(string memory _key, string memory _value) public {\n\t\t//create namehash for the topdomain\n\t\tbytes32 topdomainNamehash = keccak256(abi.encodePacked(emptyNamehash, topDomainHash));\n\t\t//create namehash for the domain\n\t\tbytes32 domainNamehash = keccak256(abi.encodePacked(topdomainNamehash, domainHash));\n\t\t//make sure this contract owns the domain\n\t\trequire(registry.owner(domainNamehash) == address(this), \"this contract should own the domain\");\n\t\t\n\t\t//create labelhash for the sub domain\n\t\t//bytes32 subdomainLabelhash = keccak256(abi.encodePacked(_subdomain));\n\t\tbytes32 subdomainLabelhash = keccak256(abi.encodePacked(keccak256(abi.encodePacked(\"eth-\")), msg.sender));\n\t\t\n\t\t//create namehash for the sub domain\n\t\tbytes32 subdomainNamehash = keccak256(abi.encodePacked(domainNamehash, subdomainLabelhash));\n\t\t//make sure it is owned by the sender\n\t\trequire(registry.owner(subdomainNamehash) == msg.sender, \"text can only be set by owner\");\n\t\t//set text\n\t\tsetText(subdomainNamehash, _key, _value);\n\t\t\n\t\temit TextUpdated(subdomainLabelhash);\n\t}\n\n\tfunction text(string memory _key) public view returns(string memory) {\n\t\t//create namehash for the topdomain\n\t\tbytes32 topdomainNamehash = keccak256(abi.encodePacked(emptyNamehash, topDomainHash));\n\t\t//create namehash for the domain\n\t\tbytes32 domainNamehash = keccak256(abi.encodePacked(topdomainNamehash, domainHash));\n\t\t//make sure this contract owns the domain\n\t\trequire(registry.owner(domainNamehash) == address(this), \"this contract should own the domain\");\n\t\t\n\t\t//create labelhash for the sub domain\n\t\t//bytes32 subdomainLabelhash = keccak256(abi.encodePacked(_subdomain));\n\t\tbytes32 subdomainLabelhash = keccak256(abi.encodePacked(keccak256(abi.encodePacked(\"eth-\")), msg.sender));\n\t\t\n\t\t//create namehash for the sub domain\n\t\tbytes32 subdomainNamehash = keccak256(abi.encodePacked(domainNamehash, subdomainLabelhash));\n\t\t//make sure it is owned by the sender\n\t\trequire(registry.owner(subdomainNamehash) == address(0) || \n\t\t\tregistry.owner(subdomainNamehash) == msg.sender, \"registered subdomains text can only be read by owner\");\n\t\t//set public resolver for this domain\n\t\treturn text(subdomainNamehash, _key);\n\t}\n\n\t/**\n\t * @dev Returns the owner of a domain (e.g. \"startonchain.eth\"),\n\t */\n\tfunction domainOwner() public view returns (address) {\n\t\tbytes32 topdomainNamehash = keccak256(abi.encodePacked(emptyNamehash, topDomainHash));\n\t\tbytes32 namehash = keccak256(abi.encodePacked(topdomainNamehash, domainHash));\n\t\treturn registry.owner(namehash);\n\t}\n\n\t/**\n\t * @dev Return the owner of a subdomain (e.g. \"radek.startonchain.eth\"),\n\t */\n\tfunction subdomainOwner() public view returns (address) {\n\t\tbytes32 topdomainNamehash = keccak256(abi.encodePacked(emptyNamehash, topDomainHash));\n\t\tbytes32 domainNamehash = keccak256(abi.encodePacked(topdomainNamehash, domainHash));\n\t\tbytes32 subdomainLabelhash = keccak256(abi.encodePacked(keccak256(abi.encodePacked(\"eth-\")), msg.sender));\n\t\tbytes32 subdomainNamehash = keccak256(abi.encodePacked(domainNamehash, subdomainLabelhash));\n\t\treturn registry.owner(subdomainNamehash);\n\t}\n\n\tfunction subdomainResolver() public view returns (address) {\n\t\tbytes32 topdomainNamehash = keccak256(abi.encodePacked(emptyNamehash, topDomainHash));\n\t\tbytes32 domainNamehash = keccak256(abi.encodePacked(topdomainNamehash, domainHash));\n\t\tbytes32 subdomainLabelhash = keccak256(abi.encodePacked(keccak256(abi.encodePacked(\"eth-\")), msg.sender));\n\t\tbytes32 subdomainNamehash = keccak256(abi.encodePacked(domainNamehash, subdomainLabelhash));\n\t\treturn registry.resolver(subdomainNamehash);\n\t}\n\n    /**\n    * @dev Return the target address where the subdomain is pointing to (e.g. \"0x12345...\"),\n    */\n    function subdomainTarget() public view returns (address) {\n        bytes32 topdomainNamehash = keccak256(abi.encodePacked(emptyNamehash, topDomainHash));\n        bytes32 domainNamehash = keccak256(abi.encodePacked(topdomainNamehash, domainHash));\n\t\tbytes32 subdomainLabelhash = keccak256(abi.encodePacked(keccak256(abi.encodePacked(\"eth-\")), msg.sender));\n\t\tbytes32 subdomainNamehash = keccak256(abi.encodePacked(domainNamehash, subdomainLabelhash));\n        address currentResolver = registry.resolver(subdomainNamehash);\n        return EnsResolver(currentResolver).addr(subdomainNamehash);\n    }\n\n\n\tmapping(bytes32=>mapping(string=>string)) texts;\n\n    event TextChanged(bytes32 indexed node, string indexed indexedKey, string key);\n\n\tfunction setText(bytes32 node, string memory key, string memory value) public {\n        texts[node][key] = value;\n        emit TextChanged(node, key, key);\n    }\n\n    function text(bytes32 node, string memory key) public view returns (string memory) {\n        return texts[node][key];\n    }\n\n\t/**\n\t * @dev The contract owner can take away the ownership of any domain owned by this contract.\n\t * @param _node - namehash of the domain\n\t * @param _owner - new owner for the domain\n\t */\n\tfunction transferDomainOwnership(bytes32 _node, address _owner) public onlyOwner {\n\t\trequire(!locked);\n\t\tregistry.setOwner(_node, _owner);\n\t}\n\n\t/**\n\t * @dev The contract owner can lock and prevent any future domain ownership transfers.\n\t */\n\tfunction lockDomainOwnershipTransfers() public onlyOwner {\n\t\trequire(!locked);\n\t\tlocked = true;\n\t\temit DomainTransfersLocked();\n\t}\n\n\t/**\n\t * @dev Allows to update to new ENS registry.\n\t * @param _registry The address of new ENS registry to use.\n\t */\n\tfunction updateRegistry(EnsRegistry _registry) public onlyOwner {\n\t\trequire(registry != _registry, \"new registry should be different from old\");\n\t\temit RegistryUpdated(address(registry), address(_registry));\n\t\tregistry = _registry;\n\t}\n\n\t/**\n\t * @dev Allows to update to new ENS resolver.\n\t * @param _resolver The address of new ENS resolver to use.\n\t */\n\tfunction updateResolver(EnsResolver _resolver) public onlyOwner {\n\t\trequire(resolver != _resolver, \"new resolver should be different from old\");\n\t\temit ResolverUpdated(address(resolver), address(_resolver));\n\t\tresolver = _resolver;\n\t}\n\n\t/**\n\t * @dev Allows the current owner to transfer control of the contract to a new owner.\n\t * @param _owner The address to transfer ownership to.\n\t */\n\tfunction transferContractOwnership(address _owner) public onlyOwner {\n\t\trequire(_owner != address(0), \"cannot transfer to address(0)\");\n\t\temit OwnershipTransferred(owner, _owner);\n\t\towner = _owner;\n\t}\n}",
  "sourcePath": "/Users/pedropelicano/repos/recruitment-protocol/smart-contract/contracts/EnsSubdomainFactory.sol",
  "compiler": {
    "name": "solc",
    "version": "0.5.16+commit.9c3226ce.Emscripten.clang"
  },
  "schemaVersion": "3.4.10",
  "updatedAt": "2022-11-01T23:49:38.810Z",
  "networkType": "ethereum",
  "devdoc": {
    "methods": {
      "domainOwner()": {
        "details": "Returns the owner of a domain (e.g. \"startonchain.eth\"),"
      },
      "lockDomainOwnershipTransfers()": {
        "details": "The contract owner can lock and prevent any future domain ownership transfers."
      },
      "newSubdomain()": {
        "details": "Allows to create a subdomain (e.g. \"radek.startonchain.eth\"), set its resolver and set its target address"
      },
      "subdomainOwner()": {
        "details": "Return the owner of a subdomain (e.g. \"radek.startonchain.eth\"),"
      },
      "subdomainTarget()": {
        "details": "Return the target address where the subdomain is pointing to (e.g. \"0x12345...\"),"
      },
      "transferContractOwnership(address)": {
        "details": "Allows the current owner to transfer control of the contract to a new owner.",
        "params": {
          "_owner": "The address to transfer ownership to."
        }
      },
      "transferDomainOwnership(bytes32,address)": {
        "details": "The contract owner can take away the ownership of any domain owned by this contract.",
        "params": {
          "_node": "- namehash of the domain",
          "_owner": "- new owner for the domain"
        }
      },
      "updateRegistry(address)": {
        "details": "Allows to update to new ENS registry.",
        "params": {
          "_registry": "The address of new ENS registry to use."
        }
      },
      "updateResolver(address)": {
        "details": "Allows to update to new ENS resolver.",
        "params": {
          "_resolver": "The address of new ENS resolver to use."
        }
      }
    }
  },
  "userdoc": {
    "methods": {}
  }
}