{
  "contractName": "EnsSubdomainFactory",
  "abi": [
    {
      "inputs": [
        {
          "internalType": "contract EnsRegistry",
          "name": "_registry",
          "type": "address"
        },
        {
          "internalType": "contract EnsResolver",
          "name": "_resolver",
          "type": "address"
        }
      ],
      "payable": false,
      "stateMutability": "nonpayable",
      "type": "constructor"
    },
    {
      "anonymous": false,
      "inputs": [],
      "name": "DomainTransfersLocked",
      "type": "event"
    },
    {
      "anonymous": false,
      "inputs": [
        {
          "indexed": true,
          "internalType": "address",
          "name": "previousOwner",
          "type": "address"
        },
        {
          "indexed": true,
          "internalType": "address",
          "name": "newOwner",
          "type": "address"
        }
      ],
      "name": "OwnershipTransferred",
      "type": "event"
    },
    {
      "anonymous": false,
      "inputs": [
        {
          "indexed": true,
          "internalType": "address",
          "name": "previousRegistry",
          "type": "address"
        },
        {
          "indexed": true,
          "internalType": "address",
          "name": "newRegistry",
          "type": "address"
        }
      ],
      "name": "RegistryUpdated",
      "type": "event"
    },
    {
      "anonymous": false,
      "inputs": [
        {
          "indexed": true,
          "internalType": "address",
          "name": "previousResolver",
          "type": "address"
        },
        {
          "indexed": true,
          "internalType": "address",
          "name": "newResolver",
          "type": "address"
        }
      ],
      "name": "ResolverUpdated",
      "type": "event"
    },
    {
      "anonymous": false,
      "inputs": [
        {
          "indexed": true,
          "internalType": "address",
          "name": "creator",
          "type": "address"
        },
        {
          "indexed": true,
          "internalType": "address",
          "name": "owner",
          "type": "address"
        },
        {
          "indexed": false,
          "internalType": "bytes32",
          "name": "subdomain",
          "type": "bytes32"
        }
      ],
      "name": "SubdomainCreated",
      "type": "event"
    },
    {
      "anonymous": false,
      "inputs": [
        {
          "indexed": true,
          "internalType": "bytes32",
          "name": "node",
          "type": "bytes32"
        },
        {
          "indexed": true,
          "internalType": "string",
          "name": "indexedKey",
          "type": "string"
        },
        {
          "indexed": false,
          "internalType": "string",
          "name": "key",
          "type": "string"
        }
      ],
      "name": "TextChanged",
      "type": "event"
    },
    {
      "anonymous": false,
      "inputs": [
        {
          "indexed": false,
          "internalType": "bytes32",
          "name": "subdomain",
          "type": "bytes32"
        }
      ],
      "name": "TextUpdated",
      "type": "event"
    },
    {
      "constant": true,
      "inputs": [],
      "name": "locked",
      "outputs": [
        {
          "internalType": "bool",
          "name": "",
          "type": "bool"
        }
      ],
      "payable": false,
      "stateMutability": "view",
      "type": "function"
    },
    {
      "constant": true,
      "inputs": [],
      "name": "owner",
      "outputs": [
        {
          "internalType": "address",
          "name": "",
          "type": "address"
        }
      ],
      "payable": false,
      "stateMutability": "view",
      "type": "function"
    },
    {
      "constant": true,
      "inputs": [],
      "name": "registry",
      "outputs": [
        {
          "internalType": "contract EnsRegistry",
          "name": "",
          "type": "address"
        }
      ],
      "payable": false,
      "stateMutability": "view",
      "type": "function"
    },
    {
      "constant": true,
      "inputs": [],
      "name": "resolver",
      "outputs": [
        {
          "internalType": "contract EnsResolver",
          "name": "",
          "type": "address"
        }
      ],
      "payable": false,
      "stateMutability": "view",
      "type": "function"
    },
    {
      "constant": false,
      "inputs": [
        {
          "internalType": "address",
          "name": "_owner",
          "type": "address"
        },
        {
          "internalType": "address",
          "name": "_target",
          "type": "address"
        }
      ],
      "name": "newSubdomain",
      "outputs": [],
      "payable": false,
      "stateMutability": "nonpayable",
      "type": "function"
    },
    {
      "constant": false,
      "inputs": [
        {
          "internalType": "address",
          "name": "_resolver",
          "type": "address"
        }
      ],
      "name": "setResolver",
      "outputs": [],
      "payable": false,
      "stateMutability": "nonpayable",
      "type": "function"
    },
    {
      "constant": true,
      "inputs": [],
      "name": "domainOwner",
      "outputs": [
        {
          "internalType": "address",
          "name": "",
          "type": "address"
        }
      ],
      "payable": false,
      "stateMutability": "view",
      "type": "function"
    },
    {
      "constant": true,
      "inputs": [],
      "name": "subdomainOwner",
      "outputs": [
        {
          "internalType": "address",
          "name": "",
          "type": "address"
        }
      ],
      "payable": false,
      "stateMutability": "view",
      "type": "function"
    },
    {
      "constant": true,
      "inputs": [],
      "name": "subdomainResolver",
      "outputs": [
        {
          "internalType": "address",
          "name": "",
          "type": "address"
        }
      ],
      "payable": false,
      "stateMutability": "view",
      "type": "function"
    },
    {
      "constant": true,
      "inputs": [],
      "name": "subdomainTarget",
      "outputs": [
        {
          "internalType": "address",
          "name": "",
          "type": "address"
        }
      ],
      "payable": false,
      "stateMutability": "view",
      "type": "function"
    },
    {
      "constant": false,
      "inputs": [
        {
          "internalType": "bytes32",
          "name": "node",
          "type": "bytes32"
        },
        {
          "internalType": "string",
          "name": "key",
          "type": "string"
        },
        {
          "internalType": "string",
          "name": "value",
          "type": "string"
        }
      ],
      "name": "setText",
      "outputs": [],
      "payable": false,
      "stateMutability": "nonpayable",
      "type": "function"
    },
    {
      "constant": false,
      "inputs": [
        {
          "internalType": "string",
          "name": "_key",
          "type": "string"
        },
        {
          "internalType": "string",
          "name": "_value",
          "type": "string"
        }
      ],
      "name": "setText",
      "outputs": [],
      "payable": false,
      "stateMutability": "nonpayable",
      "type": "function"
    },
    {
      "constant": true,
      "inputs": [
        {
          "internalType": "string",
          "name": "_key",
          "type": "string"
        }
      ],
      "name": "text",
      "outputs": [
        {
          "internalType": "string",
          "name": "",
          "type": "string"
        }
      ],
      "payable": false,
      "stateMutability": "view",
      "type": "function"
    },
    {
      "constant": true,
      "inputs": [
        {
          "internalType": "bytes32",
          "name": "node",
          "type": "bytes32"
        },
        {
          "internalType": "string",
          "name": "key",
          "type": "string"
        }
      ],
      "name": "text",
      "outputs": [
        {
          "internalType": "string",
          "name": "",
          "type": "string"
        }
      ],
      "payable": false,
      "stateMutability": "view",
      "type": "function"
    },
    {
      "constant": false,
      "inputs": [
        {
          "internalType": "bytes32",
          "name": "_node",
          "type": "bytes32"
        },
        {
          "internalType": "address",
          "name": "_owner",
          "type": "address"
        }
      ],
      "name": "transferDomainOwnership",
      "outputs": [],
      "payable": false,
      "stateMutability": "nonpayable",
      "type": "function"
    },
    {
      "constant": false,
      "inputs": [],
      "name": "lockDomainOwnershipTransfers",
      "outputs": [],
      "payable": false,
      "stateMutability": "nonpayable",
      "type": "function"
    },
    {
      "constant": false,
      "inputs": [
        {
          "internalType": "contract EnsRegistry",
          "name": "_registry",
          "type": "address"
        }
      ],
      "name": "updateRegistry",
      "outputs": [],
      "payable": false,
      "stateMutability": "nonpayable",
      "type": "function"
    },
    {
      "constant": false,
      "inputs": [
        {
          "internalType": "contract EnsResolver",
          "name": "_resolver",
          "type": "address"
        }
      ],
      "name": "updateResolver",
      "outputs": [],
      "payable": false,
      "stateMutability": "nonpayable",
      "type": "function"
    },
    {
      "constant": false,
      "inputs": [
        {
          "internalType": "address",
          "name": "_owner",
          "type": "address"
        }
      ],
      "name": "transferContractOwnership",
      "outputs": [],
      "payable": false,
      "stateMutability": "nonpayable",
      "type": "function"
    }
  ],
  "bytecode": "0x60806040526000801b60045560405160200180807f657468000000000000000000000000000000000000000000000000000000000081525060030190506040516020818303038152906040528051906020012060055560405160200180807f73656372797074000000000000000000000000000000000000000000000000008152506007019050604051602081830303815290604052805190602001206006553480156100ab57600080fd5b506040516136b33803806136b3833981810160405260408110156100ce57600080fd5b810190808051906020019092919080519060200190929190505050336000806101000a81548173ffffffffffffffffffffffffffffffffffffffff021916908373ffffffffffffffffffffffffffffffffffffffff16021790555033600160006101000a81548173ffffffffffffffffffffffffffffffffffffffff021916908373ffffffffffffffffffffffffffffffffffffffff16021790555081600260006101000a81548173ffffffffffffffffffffffffffffffffffffffff021916908373ffffffffffffffffffffffffffffffffffffffff16021790555080600360006101000a81548173ffffffffffffffffffffffffffffffffffffffff021916908373ffffffffffffffffffffffffffffffffffffffff1602179055506000600360146101000a81548160ff021916908315150217905550505061349b806102186000396000f3fe608060405234801561001057600080fd5b50600436106101215760003560e01c80637dd45999116100ad578063a9c73e8011610071578063a9c73e80146107d4578063cd0f77a814610926578063cf30901214610970578063e6fe39ed14610992578063fc5a44aa146109d657610121565b80637dd45999146106a85780638ce1efdb146106b25780638da5cb5b146106fc578063a00fd01014610746578063a843c51f1461079057610121565b80631a5da6c8116100f45780631a5da6c81461044a5780631dc9a3b91461048e5780634e543b26146104dc57806359d1d43c146105205780637b1039991461065e57610121565b806304f3bcec1461012657806310f13a8c146101705780631427190d146102cc578063174e6c9814610316575b600080fd5b61012e610a3a565b604051808273ffffffffffffffffffffffffffffffffffffffff1673ffffffffffffffffffffffffffffffffffffffff16815260200191505060405180910390f35b6102ca6004803603606081101561018657600080fd5b8101908080359060200190929190803590602001906401000000008111156101ad57600080fd5b8201836020820111156101bf57600080fd5b803590602001918460018302840111640100000000831117156101e157600080fd5b91908080601f016020809104026020016040519081016040528093929190818152602001838380828437600081840152601f19601f8201169050808301925050505050505091929192908035906020019064010000000081111561024457600080fd5b82018360208201111561025657600080fd5b8035906020019184600183028401116401000000008311171561027857600080fd5b91908080601f016020809104026020016040519081016040528093929190818152602001838380828437600081840152601f19601f820116905080830192505050505050509192919290505050610a60565b005b6102d4610bf2565b604051808273ffffffffffffffffffffffffffffffffffffffff1673ffffffffffffffffffffffffffffffffffffffff16815260200191505060405180910390f35b6103cf6004803603602081101561032c57600080fd5b810190808035906020019064010000000081111561034957600080fd5b82018360208201111561035b57600080fd5b8035906020019184600183028401116401000000008311171561037d57600080fd5b91908080601f016020809104026020016040519081016040528093929190818152602001838380828437600081840152601f19601f820116905080830192505050505050509192919290505050610df1565b6040518080602001828103825283818151815260200191508051906020019080838360005b8381101561040f5780820151818401526020810190506103f4565b50505050905090810190601f16801561043c5780820380516001836020036101000a031916815260200191505b509250505060405180910390f35b61048c6004803603602081101561046057600080fd5b81019080803573ffffffffffffffffffffffffffffffffffffffff169060200190929190505050611295565b005b6104da600480360360408110156104a457600080fd5b8101908080359060200190929190803573ffffffffffffffffffffffffffffffffffffffff169060200190929190505050611456565b005b61051e600480360360208110156104f257600080fd5b81019080803573ffffffffffffffffffffffffffffffffffffffff16906020019092919050505061158f565b005b6105e36004803603604081101561053657600080fd5b81019080803590602001909291908035906020019064010000000081111561055d57600080fd5b82018360208201111561056f57600080fd5b8035906020019184600183028401116401000000008311171561059157600080fd5b91908080601f016020809104026020016040519081016040528093929190818152602001838380828437600081840152601f19601f820116905080830192505050505050509192919290505050611b5b565b6040518080602001828103825283818151815260200191508051906020019080838360005b83811015610623578082015181840152602081019050610608565b50505050905090810190601f1680156106505780820380516001836020036101000a031916815260200191505b509250505060405180910390f35b610666611c78565b604051808273ffffffffffffffffffffffffffffffffffffffff1673ffffffffffffffffffffffffffffffffffffffff16815260200191505060405180910390f35b6106b0611c9e565b005b6106ba611d5b565b604051808273ffffffffffffffffffffffffffffffffffffffff1673ffffffffffffffffffffffffffffffffffffffff16815260200191505060405180910390f35b610704611feb565b604051808273ffffffffffffffffffffffffffffffffffffffff1673ffffffffffffffffffffffffffffffffffffffff16815260200191505060405180910390f35b61074e612011565b604051808273ffffffffffffffffffffffffffffffffffffffff1673ffffffffffffffffffffffffffffffffffffffff16815260200191505060405180910390f35b6107d2600480360360208110156107a657600080fd5b81019080803573ffffffffffffffffffffffffffffffffffffffff169060200190929190505050612210565b005b610924600480360360408110156107ea57600080fd5b810190808035906020019064010000000081111561080757600080fd5b82018360208201111561081957600080fd5b8035906020019184600183028401116401000000008311171561083b57600080fd5b91908080601f016020809104026020016040519081016040528093929190818152602001838380828437600081840152601f19601f8201169050808301925050505050505091929192908035906020019064010000000081111561089e57600080fd5b8201836020820111156108b057600080fd5b803590602001918460018302840111640100000000831117156108d257600080fd5b91908080601f016020809104026020016040519081016040528093929190818152602001838380828437600081840152601f19601f8201169050808301925050505050505091929192905050506123cd565b005b61092e6127dd565b604051808273ffffffffffffffffffffffffffffffffffffffff1673ffffffffffffffffffffffffffffffffffffffff16815260200191505060405180910390f35b6109786128ff565b604051808215151515815260200191505060405180910390f35b6109d4600480360360208110156109a857600080fd5b81019080803573ffffffffffffffffffffffffffffffffffffffff169060200190929190505050612912565b005b610a38600480360360408110156109ec57600080fd5b81019080803573ffffffffffffffffffffffffffffffffffffffff169060200190929190803573ffffffffffffffffffffffffffffffffffffffff169060200190929190505050612ad3565b005b600360009054906101000a900473ffffffffffffffffffffffffffffffffffffffff1681565b8060076000858152602001908152602001600020836040518082805190602001908083835b60208310610aa85780518252602082019150602081019050602083039250610a85565b6001836020036101000a03801982511681845116808217855250505050505090500191505090815260200160405180910390209080519060200190610aee929190613318565b50816040518082805190602001908083835b60208310610b235780518252602082019150602081019050602083039250610b00565b6001836020036101000a0380198251168184511680821785525050505050509050019150506040518091039020837fd8c9334b1a9c2f9da342a0a2b32629c1a229b6445dad78947f674b44444a7550846040518080602001828103825283818151815260200191508051906020019080838360005b83811015610bb3578082015181840152602081019050610b98565b50505050905090810190601f168015610be05780820380516001836020036101000a031916815260200191505b509250505060405180910390a3505050565b60008060045460055460405160200180838152602001828152602001925050506040516020818303038152906040528051906020012090506000816006546040516020018083815260200182815260200192505050604051602081830303815290604052805190602001209050600060405160200180807f6574682d0000000000000000000000000000000000000000000000000000000081525060040190506040516020818303038152906040528051906020012033604051602001808381526020018273ffffffffffffffffffffffffffffffffffffffff1673ffffffffffffffffffffffffffffffffffffffff1660601b815260140192505050604051602081830303815290604052805190602001209050600082826040516020018083815260200182815260200192505050604051602081830303815290604052805190602001209050600260009054906101000a900473ffffffffffffffffffffffffffffffffffffffff1673ffffffffffffffffffffffffffffffffffffffff16630178b8bf826040518263ffffffff1660e01b81526004018082815260200191505060206040518083038186803b158015610dad57600080fd5b505afa158015610dc1573d6000803e3d6000fd5b505050506040513d6020811015610dd757600080fd5b810190808051906020019092919050505094505050505090565b60606000600454600554604051602001808381526020018281526020019250505060405160208183030381529060405280519060200120905060008160065460405160200180838152602001828152602001925050506040516020818303038152906040528051906020012090503073ffffffffffffffffffffffffffffffffffffffff16600260009054906101000a900473ffffffffffffffffffffffffffffffffffffffff1673ffffffffffffffffffffffffffffffffffffffff166302571be3836040518263ffffffff1660e01b81526004018082815260200191505060206040518083038186803b158015610ee957600080fd5b505afa158015610efd573d6000803e3d6000fd5b505050506040513d6020811015610f1357600080fd5b810190808051906020019092919050505073ffffffffffffffffffffffffffffffffffffffff1614610f90576040517f08c379a00000000000000000000000000000000000000000000000000000000081526004018080602001828103825260238152602001806133e76023913960400191505060405180910390fd5b600060405160200180807f6574682d0000000000000000000000000000000000000000000000000000000081525060040190506040516020818303038152906040528051906020012033604051602001808381526020018273ffffffffffffffffffffffffffffffffffffffff1673ffffffffffffffffffffffffffffffffffffffff1660601b815260140192505050604051602081830303815290604052805190602001209050600082826040516020018083815260200182815260200192505050604051602081830303815290604052805190602001209050600073ffffffffffffffffffffffffffffffffffffffff16600260009054906101000a900473ffffffffffffffffffffffffffffffffffffffff1673ffffffffffffffffffffffffffffffffffffffff166302571be3836040518263ffffffff1660e01b81526004018082815260200191505060206040518083038186803b1580156110f657600080fd5b505afa15801561110a573d6000803e3d6000fd5b505050506040513d602081101561112057600080fd5b810190808051906020019092919050505073ffffffffffffffffffffffffffffffffffffffff16148061122b57503373ffffffffffffffffffffffffffffffffffffffff16600260009054906101000a900473ffffffffffffffffffffffffffffffffffffffff1673ffffffffffffffffffffffffffffffffffffffff166302571be3836040518263ffffffff1660e01b81526004018082815260200191505060206040518083038186803b1580156111d857600080fd5b505afa1580156111ec573d6000803e3d6000fd5b505050506040513d602081101561120257600080fd5b810190808051906020019092919050505073ffffffffffffffffffffffffffffffffffffffff16145b611280576040517f08c379a00000000000000000000000000000000000000000000000000000000081526004018080602001828103825260348152602001806134336034913960400191505060405180910390fd5b61128a8187611b5b565b945050505050919050565b600160009054906101000a900473ffffffffffffffffffffffffffffffffffffffff1673ffffffffffffffffffffffffffffffffffffffff163373ffffffffffffffffffffffffffffffffffffffff16146112ef57600080fd5b8073ffffffffffffffffffffffffffffffffffffffff16600260009054906101000a900473ffffffffffffffffffffffffffffffffffffffff1673ffffffffffffffffffffffffffffffffffffffff161415611396576040517f08c379a000000000000000000000000000000000000000000000000000000000815260040180806020018281038252602981526020018061340a6029913960400191505060405180910390fd5b8073ffffffffffffffffffffffffffffffffffffffff16600260009054906101000a900473ffffffffffffffffffffffffffffffffffffffff1673ffffffffffffffffffffffffffffffffffffffff167f482b97c53e48ffa324a976e2738053e9aff6eee04d8aac63b10e19411d869b8260405160405180910390a380600260006101000a81548173ffffffffffffffffffffffffffffffffffffffff021916908373ffffffffffffffffffffffffffffffffffffffff16021790555050565b600160009054906101000a900473ffffffffffffffffffffffffffffffffffffffff1673ffffffffffffffffffffffffffffffffffffffff163373ffffffffffffffffffffffffffffffffffffffff16146114b057600080fd5b600360149054906101000a900460ff16156114ca57600080fd5b600260009054906101000a900473ffffffffffffffffffffffffffffffffffffffff1673ffffffffffffffffffffffffffffffffffffffff16635b0fc9c383836040518363ffffffff1660e01b8152600401808381526020018273ffffffffffffffffffffffffffffffffffffffff1673ffffffffffffffffffffffffffffffffffffffff16815260200192505050600060405180830381600087803b15801561157357600080fd5b505af1158015611587573d6000803e3d6000fd5b505050505050565b6000600454600554604051602001808381526020018281526020019250505060405160208183030381529060405280519060200120905060008160065460405160200180838152602001828152602001925050506040516020818303038152906040528051906020012090503073ffffffffffffffffffffffffffffffffffffffff16600260009054906101000a900473ffffffffffffffffffffffffffffffffffffffff1673ffffffffffffffffffffffffffffffffffffffff166302571be3836040518263ffffffff1660e01b81526004018082815260200191505060206040518083038186803b15801561168557600080fd5b505afa158015611699573d6000803e3d6000fd5b505050506040513d60208110156116af57600080fd5b810190808051906020019092919050505073ffffffffffffffffffffffffffffffffffffffff161461172c576040517f08c379a00000000000000000000000000000000000000000000000000000000081526004018080602001828103825260238152602001806133e76023913960400191505060405180910390fd5b600060405160200180807f6574682d0000000000000000000000000000000000000000000000000000000081525060040190506040516020818303038152906040528051906020012033604051602001808381526020018273ffffffffffffffffffffffffffffffffffffffff1673ffffffffffffffffffffffffffffffffffffffff1660601b815260140192505050604051602081830303815290604052805190602001209050600082826040516020018083815260200182815260200192505050604051602081830303815290604052805190602001209050600073ffffffffffffffffffffffffffffffffffffffff16600260009054906101000a900473ffffffffffffffffffffffffffffffffffffffff1673ffffffffffffffffffffffffffffffffffffffff166302571be3836040518263ffffffff1660e01b81526004018082815260200191505060206040518083038186803b15801561189257600080fd5b505afa1580156118a6573d6000803e3d6000fd5b505050506040513d60208110156118bc57600080fd5b810190808051906020019092919050505073ffffffffffffffffffffffffffffffffffffffff1614806119c757503373ffffffffffffffffffffffffffffffffffffffff16600260009054906101000a900473ffffffffffffffffffffffffffffffffffffffff1673ffffffffffffffffffffffffffffffffffffffff166302571be3836040518263ffffffff1660e01b81526004018082815260200191505060206040518083038186803b15801561197457600080fd5b505afa158015611988573d6000803e3d6000fd5b505050506040513d602081101561199e57600080fd5b810190808051906020019092919050505073ffffffffffffffffffffffffffffffffffffffff16145b611a39576040517f08c379a00000000000000000000000000000000000000000000000000000000081526004018080602001828103825260188152602001807f73756220646f6d61696e20616c7265616479206f776e6564000000000000000081525060200191505060405180910390fd5b600260009054906101000a900473ffffffffffffffffffffffffffffffffffffffff1673ffffffffffffffffffffffffffffffffffffffff16631896f70a82876040518363ffffffff1660e01b8152600401808381526020018273ffffffffffffffffffffffffffffffffffffffff1673ffffffffffffffffffffffffffffffffffffffff16815260200192505050600060405180830381600087803b158015611ae257600080fd5b505af1158015611af6573d6000803e3d6000fd5b505050508473ffffffffffffffffffffffffffffffffffffffff163373ffffffffffffffffffffffffffffffffffffffff167f84b83d2b66cac119ccaaca68b476b0dc5371d5f2fd27f697770a910175fd38b660405160405180910390a35050505050565b606060076000848152602001908152602001600020826040518082805190602001908083835b60208310611ba45780518252602082019150602081019050602083039250611b81565b6001836020036101000a03801982511681845116808217855250505050505090500191505090815260200160405180910390208054600181600116156101000203166002900480601f016020809104026020016040519081016040528092919081815260200182805460018160011615610100020316600290048015611c6b5780601f10611c4057610100808354040283529160200191611c6b565b820191906000526020600020905b815481529060010190602001808311611c4e57829003601f168201915b5050505050905092915050565b600260009054906101000a900473ffffffffffffffffffffffffffffffffffffffff1681565b600160009054906101000a900473ffffffffffffffffffffffffffffffffffffffff1673ffffffffffffffffffffffffffffffffffffffff163373ffffffffffffffffffffffffffffffffffffffff1614611cf857600080fd5b600360149054906101000a900460ff1615611d1257600080fd5b6001600360146101000a81548160ff0219169083151502179055507fd68bbea4b8d77ea0826a260170e3b50080b57c9ed7420ef5920b1a58e613e17960405160405180910390a1565b60008060045460055460405160200180838152602001828152602001925050506040516020818303038152906040528051906020012090506000816006546040516020018083815260200182815260200192505050604051602081830303815290604052805190602001209050600060405160200180807f6574682d0000000000000000000000000000000000000000000000000000000081525060040190506040516020818303038152906040528051906020012033604051602001808381526020018273ffffffffffffffffffffffffffffffffffffffff1673ffffffffffffffffffffffffffffffffffffffff1660601b8152601401925050506040516020818303038152906040528051906020012090506000828260405160200180838152602001828152602001925050506040516020818303038152906040528051906020012090506000600260009054906101000a900473ffffffffffffffffffffffffffffffffffffffff1673ffffffffffffffffffffffffffffffffffffffff16630178b8bf836040518263ffffffff1660e01b81526004018082815260200191505060206040518083038186803b158015611f1857600080fd5b505afa158015611f2c573d6000803e3d6000fd5b505050506040513d6020811015611f4257600080fd5b810190808051906020019092919050505090508073ffffffffffffffffffffffffffffffffffffffff16633b3b57de836040518263ffffffff1660e01b81526004018082815260200191505060206040518083038186803b158015611fa657600080fd5b505afa158015611fba573d6000803e3d6000fd5b505050506040513d6020811015611fd057600080fd5b81019080805190602001909291905050509550505050505090565b600160009054906101000a900473ffffffffffffffffffffffffffffffffffffffff1681565b60008060045460055460405160200180838152602001828152602001925050506040516020818303038152906040528051906020012090506000816006546040516020018083815260200182815260200192505050604051602081830303815290604052805190602001209050600060405160200180807f6574682d0000000000000000000000000000000000000000000000000000000081525060040190506040516020818303038152906040528051906020012033604051602001808381526020018273ffffffffffffffffffffffffffffffffffffffff1673ffffffffffffffffffffffffffffffffffffffff1660601b815260140192505050604051602081830303815290604052805190602001209050600082826040516020018083815260200182815260200192505050604051602081830303815290604052805190602001209050600260009054906101000a900473ffffffffffffffffffffffffffffffffffffffff1673ffffffffffffffffffffffffffffffffffffffff166302571be3826040518263ffffffff1660e01b81526004018082815260200191505060206040518083038186803b1580156121cc57600080fd5b505afa1580156121e0573d6000803e3d6000fd5b505050506040513d60208110156121f657600080fd5b810190808051906020019092919050505094505050505090565b600160009054906101000a900473ffffffffffffffffffffffffffffffffffffffff1673ffffffffffffffffffffffffffffffffffffffff163373ffffffffffffffffffffffffffffffffffffffff161461226a57600080fd5b600073ffffffffffffffffffffffffffffffffffffffff168173ffffffffffffffffffffffffffffffffffffffff16141561230d576040517f08c379a000000000000000000000000000000000000000000000000000000000815260040180806020018281038252601d8152602001807f63616e6e6f74207472616e7366657220746f206164647265737328302900000081525060200191505060405180910390fd5b8073ffffffffffffffffffffffffffffffffffffffff16600160009054906101000a900473ffffffffffffffffffffffffffffffffffffffff1673ffffffffffffffffffffffffffffffffffffffff167f8be0079c531659141344cd1fd0a4f28419497f9722a3daafe3b4186f6b6457e060405160405180910390a380600160006101000a81548173ffffffffffffffffffffffffffffffffffffffff021916908373ffffffffffffffffffffffffffffffffffffffff16021790555050565b6000600454600554604051602001808381526020018281526020019250505060405160208183030381529060405280519060200120905060008160065460405160200180838152602001828152602001925050506040516020818303038152906040528051906020012090503073ffffffffffffffffffffffffffffffffffffffff16600260009054906101000a900473ffffffffffffffffffffffffffffffffffffffff1673ffffffffffffffffffffffffffffffffffffffff166302571be3836040518263ffffffff1660e01b81526004018082815260200191505060206040518083038186803b1580156124c357600080fd5b505afa1580156124d7573d6000803e3d6000fd5b505050506040513d60208110156124ed57600080fd5b810190808051906020019092919050505073ffffffffffffffffffffffffffffffffffffffff161461256a576040517f08c379a00000000000000000000000000000000000000000000000000000000081526004018080602001828103825260238152602001806133e76023913960400191505060405180910390fd5b600060405160200180807f6574682d0000000000000000000000000000000000000000000000000000000081525060040190506040516020818303038152906040528051906020012033604051602001808381526020018273ffffffffffffffffffffffffffffffffffffffff1673ffffffffffffffffffffffffffffffffffffffff1660601b8152601401925050506040516020818303038152906040528051906020012090506000828260405160200180838152602001828152602001925050506040516020818303038152906040528051906020012090503373ffffffffffffffffffffffffffffffffffffffff16600260009054906101000a900473ffffffffffffffffffffffffffffffffffffffff1673ffffffffffffffffffffffffffffffffffffffff166302571be3836040518263ffffffff1660e01b81526004018082815260200191505060206040518083038186803b1580156126cf57600080fd5b505afa1580156126e3573d6000803e3d6000fd5b505050506040513d60208110156126f957600080fd5b810190808051906020019092919050505073ffffffffffffffffffffffffffffffffffffffff1614612793576040517f08c379a000000000000000000000000000000000000000000000000000000000815260040180806020018281038252601d8152602001807f746578742063616e206f6e6c7920626520736574206279206f776e657200000081525060200191505060405180910390fd5b61279e818787610a60565b7f6ef0bf62b43ac68d583afb687d463b629a35066355c21ff456aa258ae2b3c9e1826040518082815260200191505060405180910390a1505050505050565b60008060045460055460405160200180838152602001828152602001925050506040516020818303038152906040528051906020012090506000816006546040516020018083815260200182815260200192505050604051602081830303815290604052805190602001209050600260009054906101000a900473ffffffffffffffffffffffffffffffffffffffff1673ffffffffffffffffffffffffffffffffffffffff166302571be3826040518263ffffffff1660e01b81526004018082815260200191505060206040518083038186803b1580156128bd57600080fd5b505afa1580156128d1573d6000803e3d6000fd5b505050506040513d60208110156128e757600080fd5b81019080805190602001909291905050509250505090565b600360149054906101000a900460ff1681565b600160009054906101000a900473ffffffffffffffffffffffffffffffffffffffff1673ffffffffffffffffffffffffffffffffffffffff163373ffffffffffffffffffffffffffffffffffffffff161461296c57600080fd5b8073ffffffffffffffffffffffffffffffffffffffff16600360009054906101000a900473ffffffffffffffffffffffffffffffffffffffff1673ffffffffffffffffffffffffffffffffffffffff161415612a13576040517f08c379a00000000000000000000000000000000000000000000000000000000081526004018080602001828103825260298152602001806133be6029913960400191505060405180910390fd5b8073ffffffffffffffffffffffffffffffffffffffff16600360009054906101000a900473ffffffffffffffffffffffffffffffffffffffff1673ffffffffffffffffffffffffffffffffffffffff167f84b83d2b66cac119ccaaca68b476b0dc5371d5f2fd27f697770a910175fd38b660405160405180910390a380600360006101000a81548173ffffffffffffffffffffffffffffffffffffffff021916908373ffffffffffffffffffffffffffffffffffffffff16021790555050565b6000600454600554604051602001808381526020018281526020019250505060405160208183030381529060405280519060200120905060008160065460405160200180838152602001828152602001925050506040516020818303038152906040528051906020012090503073ffffffffffffffffffffffffffffffffffffffff16600260009054906101000a900473ffffffffffffffffffffffffffffffffffffffff1673ffffffffffffffffffffffffffffffffffffffff166302571be3836040518263ffffffff1660e01b81526004018082815260200191505060206040518083038186803b158015612bc957600080fd5b505afa158015612bdd573d6000803e3d6000fd5b505050506040513d6020811015612bf357600080fd5b810190808051906020019092919050505073ffffffffffffffffffffffffffffffffffffffff1614612c70576040517f08c379a00000000000000000000000000000000000000000000000000000000081526004018080602001828103825260238152602001806133e76023913960400191505060405180910390fd5b600060405160200180807f6574682d0000000000000000000000000000000000000000000000000000000081525060040190506040516020818303038152906040528051906020012033604051602001808381526020018273ffffffffffffffffffffffffffffffffffffffff1673ffffffffffffffffffffffffffffffffffffffff1660601b815260140192505050604051602081830303815290604052805190602001209050600082826040516020018083815260200182815260200192505050604051602081830303815290604052805190602001209050600073ffffffffffffffffffffffffffffffffffffffff16600260009054906101000a900473ffffffffffffffffffffffffffffffffffffffff1673ffffffffffffffffffffffffffffffffffffffff166302571be3836040518263ffffffff1660e01b81526004018082815260200191505060206040518083038186803b158015612dd657600080fd5b505afa158015612dea573d6000803e3d6000fd5b505050506040513d6020811015612e0057600080fd5b810190808051906020019092919050505073ffffffffffffffffffffffffffffffffffffffff161480612f0b57503373ffffffffffffffffffffffffffffffffffffffff16600260009054906101000a900473ffffffffffffffffffffffffffffffffffffffff1673ffffffffffffffffffffffffffffffffffffffff166302571be3836040518263ffffffff1660e01b81526004018082815260200191505060206040518083038186803b158015612eb857600080fd5b505afa158015612ecc573d6000803e3d6000fd5b505050506040513d6020811015612ee257600080fd5b810190808051906020019092919050505073ffffffffffffffffffffffffffffffffffffffff16145b612f7d576040517f08c379a00000000000000000000000000000000000000000000000000000000081526004018080602001828103825260188152602001807f73756220646f6d61696e20616c7265616479206f776e6564000000000000000081525060200191505060405180910390fd5b600260009054906101000a900473ffffffffffffffffffffffffffffffffffffffff1673ffffffffffffffffffffffffffffffffffffffff166306ab59238484306040518463ffffffff1660e01b8152600401808481526020018381526020018273ffffffffffffffffffffffffffffffffffffffff1673ffffffffffffffffffffffffffffffffffffffff1681526020019350505050600060405180830381600087803b15801561302e57600080fd5b505af1158015613042573d6000803e3d6000fd5b50505050600260009054906101000a900473ffffffffffffffffffffffffffffffffffffffff1673ffffffffffffffffffffffffffffffffffffffff16631896f70a82600360009054906101000a900473ffffffffffffffffffffffffffffffffffffffff166040518363ffffffff1660e01b8152600401808381526020018273ffffffffffffffffffffffffffffffffffffffff1673ffffffffffffffffffffffffffffffffffffffff16815260200192505050600060405180830381600087803b15801561311157600080fd5b505af1158015613125573d6000803e3d6000fd5b50505050600360009054906101000a900473ffffffffffffffffffffffffffffffffffffffff1673ffffffffffffffffffffffffffffffffffffffff1663d5fa2b0082876040518363ffffffff1660e01b8152600401808381526020018273ffffffffffffffffffffffffffffffffffffffff1673ffffffffffffffffffffffffffffffffffffffff16815260200192505050600060405180830381600087803b1580156131d257600080fd5b505af11580156131e6573d6000803e3d6000fd5b50505050600260009054906101000a900473ffffffffffffffffffffffffffffffffffffffff1673ffffffffffffffffffffffffffffffffffffffff16635b0fc9c382886040518363ffffffff1660e01b8152600401808381526020018273ffffffffffffffffffffffffffffffffffffffff1673ffffffffffffffffffffffffffffffffffffffff16815260200192505050600060405180830381600087803b15801561329357600080fd5b505af11580156132a7573d6000803e3d6000fd5b505050508573ffffffffffffffffffffffffffffffffffffffff163373ffffffffffffffffffffffffffffffffffffffff167feb0c437e734e7e42204a015edd050c5472103e78b48b123499ebecaf8e1ed830846040518082815260200191505060405180910390a3505050505050565b828054600181600116156101000203166002900490600052602060002090601f016020900481019282601f1061335957805160ff1916838001178555613387565b82800160010185558215613387579182015b8281111561338657825182559160200191906001019061336b565b5b5090506133949190613398565b5090565b6133ba91905b808211156133b657600081600090555060010161339e565b5090565b9056fe6e6577207265736f6c7665722073686f756c6420626520646966666572656e742066726f6d206f6c647468697320636f6e74726163742073686f756c64206f776e2074686520646f6d61696e6e65772072656769737472792073686f756c6420626520646966666572656e742066726f6d206f6c647265676973746572656420737562646f6d61696e7320746578742063616e206f6e6c792062652072656164206279206f776e6572a265627a7a72315820a8e6972867da1c5adf700f4f1a431782a6a5e1490892af956960c7819d0dbcbc64736f6c63430005100032",
  "source": "pragma solidity >0.4.24;\n\nimport './EnsRegistry.sol';\nimport './EnsResolver.sol';\n\n// ---------------------------------------------------------------------------------------------------\n// EnsSubdomainFactory - allows creating and configuring custom ENS subdomains with one contract call.\n//\n// @author Radek Ostrowski / https://startonchain.com - MIT Licence.\n// Source: https://github.com/radek1st/ens-subdomain-factory\n// ---------------------------------------------------------------------------------------------------\n\n/**\n * @title EnsSubdomainFactory\n * @dev Allows to create and configure a subdomain for Ethereum ENS in one call.\n * After deploying this contract, change the owner of the domain you want to use\n * to this deployed contract address. For example, transfer the ownership of \"startonchain.eth\"\n * so anyone can create subdomains like \"radek.startonchain.eth\".\n */\n\n contract Ownable {\n\n  address public owner;\n\n  modifier onlyOwner {\n    require(msg.sender == owner, \"Ownable: You are not the owner, Bye.\");\n    _;\n  }\n\n  constructor () public {\n    owner = msg.sender;\n  }\n}\n\ncontract EnsSubdomainFactory is Ownable{\n\taddress public owner;\n\tEnsRegistry public registry;\n\tEnsResolver public resolver;\n\tbool public locked;\n    bytes32 emptyNamehash = 0x00;\n\tbytes32 topDomainHash = keccak256(abi.encodePacked(\"eth\"));\n\tbytes32 domainHash = keccak256(abi.encodePacked(\"secrypt\"));\n\n\tevent SubdomainCreated(address indexed creator, address indexed owner, bytes32 subdomain);\n\tevent OwnershipTransferred(address indexed previousOwner, address indexed newOwner);\n\tevent RegistryUpdated(address indexed previousRegistry, address indexed newRegistry);\n\tevent ResolverUpdated(address indexed previousResolver, address indexed newResolver);\n\tevent TextUpdated(bytes32 subdomain);\n\tevent DomainTransfersLocked();\n\n\tconstructor(EnsRegistry _registry, EnsResolver _resolver) public {\n\t\towner = msg.sender;\n\t\tregistry = _registry;\n\t\tresolver = _resolver;\n\t\tlocked = false;\n\t}\n\n\t/**\n\t * @dev Throws if called by any account other than the owner.\n\t *\n\t */\n\tmodifier onlyOwner() {\n\t\trequire(msg.sender == owner);\n\t\t_;\n\t}\n\n\t/**\n\t * @dev Allows to create a subdomain (e.g. \"radek.startonchain.eth\"),\n\t * set its resolver and set its target address\n\t * @param _owner - address that will become owner of this new subdomain\n\t * @param _target - address that this new domain will resolve to\n\t */\n\tfunction newSubdomain(address _owner, address _target) public {\n\t\t//create namehash for the topdomain\n\t\tbytes32 topdomainNamehash = keccak256(abi.encodePacked(emptyNamehash, topDomainHash));\n\t\t//create namehash for the domain\n\t\tbytes32 domainNamehash = keccak256(abi.encodePacked(topdomainNamehash, domainHash));\n\t\t//make sure this contract owns the domain\n\t\trequire(registry.owner(domainNamehash) == address(this), \"this contract should own the domain\");\n\t\t//create labelhash for the sub domain\n\t\tbytes32 subdomainLabelhash = keccak256(abi.encodePacked(keccak256(abi.encodePacked(\"eth-\")), msg.sender));\n\t\t//create namehash for the sub domain\n\t\tbytes32 subdomainNamehash = keccak256(abi.encodePacked(domainNamehash, subdomainLabelhash));\n\t\t//make sure it is free or owned by the sender\n\t\trequire(registry.owner(subdomainNamehash) == address(0) ||\n\t\t\tregistry.owner(subdomainNamehash) == msg.sender, \"sub domain already owned\");\n\t\t//create new subdomain, temporarily this smartcontract is the owner\n\t\tregistry.setSubnodeOwner(domainNamehash, subdomainLabelhash, address(this));\n\t\t//set public resolver for this domain\n\t\tregistry.setResolver(subdomainNamehash, address(resolver));\n\t\t//set the destination address\n\t\tresolver.setAddr(subdomainNamehash, _target);\n\t\t//change the ownership back to requested owner\n\t\tregistry.setOwner(subdomainNamehash, _owner);\n\n\t\temit SubdomainCreated(msg.sender, _owner, subdomainLabelhash);\n\t}\n\n\tfunction setResolver(address _resolver) public {\n\t\t//create namehash for the topdomain\n\t\tbytes32 topdomainNamehash = keccak256(abi.encodePacked(emptyNamehash, topDomainHash));\n\t\t//create namehash for the domain\n\t\tbytes32 domainNamehash = keccak256(abi.encodePacked(topdomainNamehash, domainHash));\n\t\t//make sure this contract owns the domain\n\t\trequire(registry.owner(domainNamehash) == address(this), \"this contract should own the domain\");\n\t\t//create labelhash for the sub domain\n\n\t\t//bytes32 subdomainLabelhash = keccak256(abi.encodePacked(_subdomain));\n\t\tbytes32 subdomainLabelhash = keccak256(abi.encodePacked(keccak256(abi.encodePacked(\"eth-\")), msg.sender));\n\t\t\n\t\t//create namehash for the sub domain\n\t\tbytes32 subdomainNamehash = keccak256(abi.encodePacked(domainNamehash, subdomainLabelhash));\n\t\t//make sure it is free or owned by the sender\n\t\trequire(registry.owner(subdomainNamehash) == address(0) ||\n\t\t\tregistry.owner(subdomainNamehash) == msg.sender, \"sub domain already owned\");\n\t\t//set public resolver for this domain\n\t\tregistry.setResolver(subdomainNamehash, _resolver);\n\t\t\n\t\temit ResolverUpdated(msg.sender, _resolver);\n\t}\n\n\tfunction setText(string memory _key, string memory _value) public {\n\t\t//create namehash for the topdomain\n\t\tbytes32 topdomainNamehash = keccak256(abi.encodePacked(emptyNamehash, topDomainHash));\n\t\t//create namehash for the domain\n\t\tbytes32 domainNamehash = keccak256(abi.encodePacked(topdomainNamehash, domainHash));\n\t\t//make sure this contract owns the domain\n\t\trequire(registry.owner(domainNamehash) == address(this), \"this contract should own the domain\");\n\t\t\n\t\t//create labelhash for the sub domain\n\t\t//bytes32 subdomainLabelhash = keccak256(abi.encodePacked(_subdomain));\n\t\tbytes32 subdomainLabelhash = keccak256(abi.encodePacked(keccak256(abi.encodePacked(\"eth-\")), msg.sender));\n\t\t\n\t\t//create namehash for the sub domain\n\t\tbytes32 subdomainNamehash = keccak256(abi.encodePacked(domainNamehash, subdomainLabelhash));\n\t\t//make sure it is owned by the sender\n\t\trequire(registry.owner(subdomainNamehash) == msg.sender, \"text can only be set by owner\");\n\t\t//set public resolver for this domain\n\t\tsetText(subdomainNamehash, _key, _value);\n\t\t\n\t\temit TextUpdated(subdomainLabelhash);\n\t}\n\n\tfunction text(string memory _key) public view returns(string memory) {\n\t\t//create namehash for the topdomain\n\t\tbytes32 topdomainNamehash = keccak256(abi.encodePacked(emptyNamehash, topDomainHash));\n\t\t//create namehash for the domain\n\t\tbytes32 domainNamehash = keccak256(abi.encodePacked(topdomainNamehash, domainHash));\n\t\t//make sure this contract owns the domain\n\t\trequire(registry.owner(domainNamehash) == address(this), \"this contract should own the domain\");\n\t\t\n\t\t//create labelhash for the sub domain\n\t\t//bytes32 subdomainLabelhash = keccak256(abi.encodePacked(_subdomain));\n\t\tbytes32 subdomainLabelhash = keccak256(abi.encodePacked(keccak256(abi.encodePacked(\"eth-\")), msg.sender));\n\t\t\n\t\t//create namehash for the sub domain\n\t\tbytes32 subdomainNamehash = keccak256(abi.encodePacked(domainNamehash, subdomainLabelhash));\n\t\t//make sure it is owned by the sender\n\t\trequire(registry.owner(subdomainNamehash) == address(0) || \n\t\t\tregistry.owner(subdomainNamehash) == msg.sender, \"registered subdomains text can only be read by owner\");\n\t\t//set public resolver for this domain\n\t\treturn text(subdomainNamehash, _key);\n\t}\n\n\t/**\n\t * @dev Returns the owner of a domain (e.g. \"startonchain.eth\"),\n\t */\n\tfunction domainOwner() public view returns (address) {\n\t\tbytes32 topdomainNamehash = keccak256(abi.encodePacked(emptyNamehash, topDomainHash));\n\t\tbytes32 namehash = keccak256(abi.encodePacked(topdomainNamehash, domainHash));\n\t\treturn registry.owner(namehash);\n\t}\n\n\t/**\n\t * @dev Return the owner of a subdomain (e.g. \"radek.startonchain.eth\"),\n\t */\n\tfunction subdomainOwner() public view returns (address) {\n\t\tbytes32 topdomainNamehash = keccak256(abi.encodePacked(emptyNamehash, topDomainHash));\n\t\tbytes32 domainNamehash = keccak256(abi.encodePacked(topdomainNamehash, domainHash));\n\t\tbytes32 subdomainLabelhash = keccak256(abi.encodePacked(keccak256(abi.encodePacked(\"eth-\")), msg.sender));\n\t\tbytes32 subdomainNamehash = keccak256(abi.encodePacked(domainNamehash, subdomainLabelhash));\n\t\treturn registry.owner(subdomainNamehash);\n\t}\n\n\tfunction subdomainResolver() public view returns (address) {\n\t\tbytes32 topdomainNamehash = keccak256(abi.encodePacked(emptyNamehash, topDomainHash));\n\t\tbytes32 domainNamehash = keccak256(abi.encodePacked(topdomainNamehash, domainHash));\n\t\tbytes32 subdomainLabelhash = keccak256(abi.encodePacked(keccak256(abi.encodePacked(\"eth-\")), msg.sender));\n\t\tbytes32 subdomainNamehash = keccak256(abi.encodePacked(domainNamehash, subdomainLabelhash));\n\t\treturn registry.resolver(subdomainNamehash);\n\t}\n\n    /**\n    * @dev Return the target address where the subdomain is pointing to (e.g. \"0x12345...\"),\n    */\n    function subdomainTarget() public view returns (address) {\n        bytes32 topdomainNamehash = keccak256(abi.encodePacked(emptyNamehash, topDomainHash));\n        bytes32 domainNamehash = keccak256(abi.encodePacked(topdomainNamehash, domainHash));\n\t\tbytes32 subdomainLabelhash = keccak256(abi.encodePacked(keccak256(abi.encodePacked(\"eth-\")), msg.sender));\n\t\tbytes32 subdomainNamehash = keccak256(abi.encodePacked(domainNamehash, subdomainLabelhash));\n        address currentResolver = registry.resolver(subdomainNamehash);\n        return EnsResolver(currentResolver).addr(subdomainNamehash);\n    }\n\n\n\tmapping(bytes32=>mapping(string=>string)) texts;\n\n    event TextChanged(bytes32 indexed node, string indexed indexedKey, string key);\n\n\tfunction setText(bytes32 node, string memory key, string memory value) public {\n        texts[node][key] = value;\n        emit TextChanged(node, key, key);\n    }\n\n    function text(bytes32 node, string memory key) public view returns (string memory) {\n        return texts[node][key];\n    }\n\n\t/**\n\t * @dev The contract owner can take away the ownership of any domain owned by this contract.\n\t * @param _node - namehash of the domain\n\t * @param _owner - new owner for the domain\n\t */\n\tfunction transferDomainOwnership(bytes32 _node, address _owner) public onlyOwner {\n\t\trequire(!locked);\n\t\tregistry.setOwner(_node, _owner);\n\t}\n\n\t/**\n\t * @dev The contract owner can lock and prevent any future domain ownership transfers.\n\t */\n\tfunction lockDomainOwnershipTransfers() public onlyOwner {\n\t\trequire(!locked);\n\t\tlocked = true;\n\t\temit DomainTransfersLocked();\n\t}\n\n\t/**\n\t * @dev Allows to update to new ENS registry.\n\t * @param _registry The address of new ENS registry to use.\n\t */\n\tfunction updateRegistry(EnsRegistry _registry) public onlyOwner {\n\t\trequire(registry != _registry, \"new registry should be different from old\");\n\t\temit RegistryUpdated(address(registry), address(_registry));\n\t\tregistry = _registry;\n\t}\n\n\t/**\n\t * @dev Allows to update to new ENS resolver.\n\t * @param _resolver The address of new ENS resolver to use.\n\t */\n\tfunction updateResolver(EnsResolver _resolver) public onlyOwner {\n\t\trequire(resolver != _resolver, \"new resolver should be different from old\");\n\t\temit ResolverUpdated(address(resolver), address(_resolver));\n\t\tresolver = _resolver;\n\t}\n\n\t/**\n\t * @dev Allows the current owner to transfer control of the contract to a new owner.\n\t * @param _owner The address to transfer ownership to.\n\t */\n\tfunction transferContractOwnership(address _owner) public onlyOwner {\n\t\trequire(_owner != address(0), \"cannot transfer to address(0)\");\n\t\temit OwnershipTransferred(owner, _owner);\n\t\towner = _owner;\n\t}\n}",
  "sourcePath": "/Users/pedropelicano/repos/secrypt/secrypt-smart-contracts/contracts/EnsSubdomainFactory.sol",
  "compiler": {
    "name": "solc",
    "version": "0.5.16+commit.9c3226ce.Emscripten.clang"
  },
  "schemaVersion": "3.4.7",
  "updatedAt": "2022-07-11T14:05:26.237Z",
  "networkType": "ethereum",
  "devdoc": {
    "methods": {
      "domainOwner()": {
        "details": "Returns the owner of a domain (e.g. \"startonchain.eth\"),"
      },
      "lockDomainOwnershipTransfers()": {
        "details": "The contract owner can lock and prevent any future domain ownership transfers."
      },
      "newSubdomain(address,address)": {
        "details": "Allows to create a subdomain (e.g. \"radek.startonchain.eth\"), set its resolver and set its target address",
        "params": {
          "_owner": "- address that will become owner of this new subdomain",
          "_target": "- address that this new domain will resolve to"
        }
      },
      "subdomainOwner()": {
        "details": "Return the owner of a subdomain (e.g. \"radek.startonchain.eth\"),"
      },
      "subdomainTarget()": {
        "details": "Return the target address where the subdomain is pointing to (e.g. \"0x12345...\"),"
      },
      "transferContractOwnership(address)": {
        "details": "Allows the current owner to transfer control of the contract to a new owner.",
        "params": {
          "_owner": "The address to transfer ownership to."
        }
      },
      "transferDomainOwnership(bytes32,address)": {
        "details": "The contract owner can take away the ownership of any domain owned by this contract.",
        "params": {
          "_node": "- namehash of the domain",
          "_owner": "- new owner for the domain"
        }
      },
      "updateRegistry(address)": {
        "details": "Allows to update to new ENS registry.",
        "params": {
          "_registry": "The address of new ENS registry to use."
        }
      },
      "updateResolver(address)": {
        "details": "Allows to update to new ENS resolver.",
        "params": {
          "_resolver": "The address of new ENS resolver to use."
        }
      }
    }
  },
  "userdoc": {
    "methods": {}
  }
}