{
  "contractName": "RecruitmentProtocol",
  "abi": [
    {
      "inputs": [
        {
          "internalType": "contract EnsRegistry",
          "name": "_registry",
          "type": "address"
        },
        {
          "internalType": "contract EnsResolver",
          "name": "_resolver",
          "type": "address"
        }
      ],
      "payable": true,
      "stateMutability": "payable",
      "type": "constructor"
    },
    {
      "anonymous": false,
      "inputs": [],
      "name": "DomainTransfersLocked",
      "type": "event"
    },
    {
      "anonymous": false,
      "inputs": [
        {
          "indexed": true,
          "internalType": "address",
          "name": "previousOwner",
          "type": "address"
        },
        {
          "indexed": true,
          "internalType": "address",
          "name": "newOwner",
          "type": "address"
        }
      ],
      "name": "OwnershipTransferred",
      "type": "event"
    },
    {
      "anonymous": false,
      "inputs": [
        {
          "indexed": true,
          "internalType": "address",
          "name": "previousRegistry",
          "type": "address"
        },
        {
          "indexed": true,
          "internalType": "address",
          "name": "newRegistry",
          "type": "address"
        }
      ],
      "name": "RegistryUpdated",
      "type": "event"
    },
    {
      "anonymous": false,
      "inputs": [
        {
          "indexed": true,
          "internalType": "address",
          "name": "previousResolver",
          "type": "address"
        },
        {
          "indexed": true,
          "internalType": "address",
          "name": "newResolver",
          "type": "address"
        }
      ],
      "name": "ResolverUpdated",
      "type": "event"
    },
    {
      "anonymous": false,
      "inputs": [
        {
          "indexed": true,
          "internalType": "address",
          "name": "creator",
          "type": "address"
        },
        {
          "indexed": true,
          "internalType": "address",
          "name": "owner",
          "type": "address"
        },
        {
          "indexed": false,
          "internalType": "bytes32",
          "name": "subdomain",
          "type": "bytes32"
        }
      ],
      "name": "SubdomainCreated",
      "type": "event"
    },
    {
      "anonymous": false,
      "inputs": [
        {
          "indexed": true,
          "internalType": "bytes32",
          "name": "node",
          "type": "bytes32"
        },
        {
          "indexed": true,
          "internalType": "string",
          "name": "indexedKey",
          "type": "string"
        },
        {
          "indexed": false,
          "internalType": "string",
          "name": "key",
          "type": "string"
        }
      ],
      "name": "TextChanged",
      "type": "event"
    },
    {
      "anonymous": false,
      "inputs": [
        {
          "indexed": false,
          "internalType": "bytes32",
          "name": "subdomain",
          "type": "bytes32"
        }
      ],
      "name": "TextUpdated",
      "type": "event"
    },
    {
      "constant": true,
      "inputs": [],
      "name": "locked",
      "outputs": [
        {
          "internalType": "bool",
          "name": "",
          "type": "bool"
        }
      ],
      "payable": false,
      "stateMutability": "view",
      "type": "function"
    },
    {
      "constant": true,
      "inputs": [],
      "name": "owner",
      "outputs": [
        {
          "internalType": "address payable",
          "name": "",
          "type": "address"
        }
      ],
      "payable": false,
      "stateMutability": "view",
      "type": "function"
    },
    {
      "constant": true,
      "inputs": [],
      "name": "registry",
      "outputs": [
        {
          "internalType": "contract EnsRegistry",
          "name": "",
          "type": "address"
        }
      ],
      "payable": false,
      "stateMutability": "view",
      "type": "function"
    },
    {
      "constant": true,
      "inputs": [],
      "name": "resolver",
      "outputs": [
        {
          "internalType": "contract EnsResolver",
          "name": "",
          "type": "address"
        }
      ],
      "payable": false,
      "stateMutability": "view",
      "type": "function"
    },
    {
      "constant": false,
      "inputs": [],
      "name": "initialDeposit",
      "outputs": [],
      "payable": true,
      "stateMutability": "payable",
      "type": "function"
    },
    {
      "constant": false,
      "inputs": [],
      "name": "newSubdomain",
      "outputs": [],
      "payable": false,
      "stateMutability": "nonpayable",
      "type": "function"
    },
    {
      "constant": false,
      "inputs": [
        {
          "internalType": "address",
          "name": "_guest",
          "type": "address"
        }
      ],
      "name": "newSubdomainByAddress",
      "outputs": [],
      "payable": false,
      "stateMutability": "nonpayable",
      "type": "function"
    },
    {
      "constant": false,
      "inputs": [
        {
          "internalType": "address",
          "name": "_resolver",
          "type": "address"
        }
      ],
      "name": "setResolver",
      "outputs": [],
      "payable": false,
      "stateMutability": "nonpayable",
      "type": "function"
    },
    {
      "constant": true,
      "inputs": [],
      "name": "domainOwner",
      "outputs": [
        {
          "internalType": "address",
          "name": "",
          "type": "address"
        }
      ],
      "payable": false,
      "stateMutability": "view",
      "type": "function"
    },
    {
      "constant": true,
      "inputs": [],
      "name": "subdomainOwner",
      "outputs": [
        {
          "internalType": "address",
          "name": "",
          "type": "address"
        }
      ],
      "payable": false,
      "stateMutability": "view",
      "type": "function"
    },
    {
      "constant": true,
      "inputs": [],
      "name": "subdomainResolver",
      "outputs": [
        {
          "internalType": "address",
          "name": "",
          "type": "address"
        }
      ],
      "payable": false,
      "stateMutability": "view",
      "type": "function"
    },
    {
      "constant": true,
      "inputs": [],
      "name": "subdomainTarget",
      "outputs": [
        {
          "internalType": "address",
          "name": "",
          "type": "address"
        }
      ],
      "payable": false,
      "stateMutability": "view",
      "type": "function"
    },
    {
      "constant": false,
      "inputs": [
        {
          "internalType": "bytes32",
          "name": "node",
          "type": "bytes32"
        },
        {
          "internalType": "string",
          "name": "key",
          "type": "string"
        },
        {
          "internalType": "string",
          "name": "value",
          "type": "string"
        }
      ],
      "name": "setText",
      "outputs": [],
      "payable": false,
      "stateMutability": "nonpayable",
      "type": "function"
    },
    {
      "constant": false,
      "inputs": [
        {
          "internalType": "string",
          "name": "_key",
          "type": "string"
        },
        {
          "internalType": "string",
          "name": "_value",
          "type": "string"
        }
      ],
      "name": "setText",
      "outputs": [],
      "payable": false,
      "stateMutability": "nonpayable",
      "type": "function"
    },
    {
      "constant": true,
      "inputs": [
        {
          "internalType": "string",
          "name": "_key",
          "type": "string"
        }
      ],
      "name": "text",
      "outputs": [
        {
          "internalType": "string",
          "name": "",
          "type": "string"
        }
      ],
      "payable": false,
      "stateMutability": "view",
      "type": "function"
    },
    {
      "constant": true,
      "inputs": [
        {
          "internalType": "bytes32",
          "name": "node",
          "type": "bytes32"
        },
        {
          "internalType": "string",
          "name": "key",
          "type": "string"
        }
      ],
      "name": "text",
      "outputs": [
        {
          "internalType": "string",
          "name": "",
          "type": "string"
        }
      ],
      "payable": false,
      "stateMutability": "view",
      "type": "function"
    },
    {
      "constant": false,
      "inputs": [
        {
          "internalType": "bytes32",
          "name": "_node",
          "type": "bytes32"
        },
        {
          "internalType": "address",
          "name": "_owner",
          "type": "address"
        }
      ],
      "name": "transferDomainOwnership",
      "outputs": [],
      "payable": false,
      "stateMutability": "nonpayable",
      "type": "function"
    },
    {
      "constant": false,
      "inputs": [],
      "name": "lockDomainOwnershipTransfers",
      "outputs": [],
      "payable": false,
      "stateMutability": "nonpayable",
      "type": "function"
    },
    {
      "constant": false,
      "inputs": [
        {
          "internalType": "contract EnsRegistry",
          "name": "_registry",
          "type": "address"
        }
      ],
      "name": "updateRegistry",
      "outputs": [],
      "payable": false,
      "stateMutability": "nonpayable",
      "type": "function"
    },
    {
      "constant": false,
      "inputs": [
        {
          "internalType": "contract EnsResolver",
          "name": "_resolver",
          "type": "address"
        }
      ],
      "name": "updateResolver",
      "outputs": [],
      "payable": false,
      "stateMutability": "nonpayable",
      "type": "function"
    },
    {
      "constant": false,
      "inputs": [
        {
          "internalType": "address payable",
          "name": "_owner",
          "type": "address"
        }
      ],
      "name": "transferContractOwnership",
      "outputs": [],
      "payable": false,
      "stateMutability": "nonpayable",
      "type": "function"
    }
  ],
  "bytecode": "0x60806040526000801b60045560405160200180807f657468000000000000000000000000000000000000000000000000000000000081525060030190506040516020818303038152906040528051906020012060055560405160200180807f726570726f000000000000000000000000000000000000000000000000000000815250600501905060405160208183030381529060405280519060200120600655604051613f16380380613f16833981810160405260408110156100c157600080fd5b810190808051906020019092919080519060200190929190505050336000806101000a81548173ffffffffffffffffffffffffffffffffffffffff021916908373ffffffffffffffffffffffffffffffffffffffff16021790555033600160006101000a81548173ffffffffffffffffffffffffffffffffffffffff021916908373ffffffffffffffffffffffffffffffffffffffff16021790555081600260006101000a81548173ffffffffffffffffffffffffffffffffffffffff021916908373ffffffffffffffffffffffffffffffffffffffff16021790555080600360006101000a81548173ffffffffffffffffffffffffffffffffffffffff021916908373ffffffffffffffffffffffffffffffffffffffff1602179055506000600360146101000a81548160ff0219169083151502179055505050613d0b8061020b6000396000f3fe60806040526004361061012a5760003560e01c80637dd45999116100ab578063a9c73e801161006f578063a9c73e80146108aa578063cd0f77a814610a09578063cf30901214610a60578063dbf3074114610a8f578063e037f88914610ae0578063e6fe39ed14610aea5761012a565b80637dd459991461073d5780638ce1efdb146107545780638da5cb5b146107ab578063a00fd01014610802578063a843c51f146108595761012a565b80631dc9a3b9116100f25780631dc9a3b9146104d857806332917c11146105335780634e543b261461054a57806359d1d43c1461059b5780637b103999146106e65761012a565b806304f3bcec1461012f57806310f13a8c146101865780631427190d146102ef578063174e6c98146103465780631a5da6c814610487575b600080fd5b34801561013b57600080fd5b50610144610b3b565b604051808273ffffffffffffffffffffffffffffffffffffffff1673ffffffffffffffffffffffffffffffffffffffff16815260200191505060405180910390f35b34801561019257600080fd5b506102ed600480360360608110156101a957600080fd5b8101908080359060200190929190803590602001906401000000008111156101d057600080fd5b8201836020820111156101e257600080fd5b8035906020019184600183028401116401000000008311171561020457600080fd5b91908080601f016020809104026020016040519081016040528093929190818152602001838380828437600081840152601f19601f8201169050808301925050505050505091929192908035906020019064010000000081111561026757600080fd5b82018360208201111561027957600080fd5b8035906020019184600183028401116401000000008311171561029b57600080fd5b91908080601f016020809104026020016040519081016040528093929190818152602001838380828437600081840152601f19601f820116905080830192505050505050509192919290505050610b61565b005b3480156102fb57600080fd5b50610304610cf3565b604051808273ffffffffffffffffffffffffffffffffffffffff1673ffffffffffffffffffffffffffffffffffffffff16815260200191505060405180910390f35b34801561035257600080fd5b5061040c6004803603602081101561036957600080fd5b810190808035906020019064010000000081111561038657600080fd5b82018360208201111561039857600080fd5b803590602001918460018302840111640100000000831117156103ba57600080fd5b91908080601f016020809104026020016040519081016040528093929190818152602001838380828437600081840152601f19601f820116905080830192505050505050509192919290505050610ef2565b6040518080602001828103825283818151815260200191508051906020019080838360005b8381101561044c578082015181840152602081019050610431565b50505050905090810190601f1680156104795780820380516001836020036101000a031916815260200191505b509250505060405180910390f35b34801561049357600080fd5b506104d6600480360360208110156104aa57600080fd5b81019080803573ffffffffffffffffffffffffffffffffffffffff169060200190929190505050611396565b005b3480156104e457600080fd5b50610531600480360360408110156104fb57600080fd5b8101908080359060200190929190803573ffffffffffffffffffffffffffffffffffffffff169060200190929190505050611557565b005b34801561053f57600080fd5b50610548611690565b005b34801561055657600080fd5b506105996004803603602081101561056d57600080fd5b81019080803573ffffffffffffffffffffffffffffffffffffffff169060200190929190505050611e12565b005b3480156105a757600080fd5b5061066b600480360360408110156105be57600080fd5b8101908080359060200190929190803590602001906401000000008111156105e557600080fd5b8201836020820111156105f757600080fd5b8035906020019184600183028401116401000000008311171561061957600080fd5b91908080601f016020809104026020016040519081016040528093929190818152602001838380828437600081840152601f19601f8201169050808301925050505050505091929192905050506123de565b6040518080602001828103825283818151815260200191508051906020019080838360005b838110156106ab578082015181840152602081019050610690565b50505050905090810190601f1680156106d85780820380516001836020036101000a031916815260200191505b509250505060405180910390f35b3480156106f257600080fd5b506106fb6124fb565b604051808273ffffffffffffffffffffffffffffffffffffffff1673ffffffffffffffffffffffffffffffffffffffff16815260200191505060405180910390f35b34801561074957600080fd5b50610752612521565b005b34801561076057600080fd5b506107696125de565b604051808273ffffffffffffffffffffffffffffffffffffffff1673ffffffffffffffffffffffffffffffffffffffff16815260200191505060405180910390f35b3480156107b757600080fd5b506107c061286e565b604051808273ffffffffffffffffffffffffffffffffffffffff1673ffffffffffffffffffffffffffffffffffffffff16815260200191505060405180910390f35b34801561080e57600080fd5b50610817612894565b604051808273ffffffffffffffffffffffffffffffffffffffff1673ffffffffffffffffffffffffffffffffffffffff16815260200191505060405180910390f35b34801561086557600080fd5b506108a86004803603602081101561087c57600080fd5b81019080803573ffffffffffffffffffffffffffffffffffffffff169060200190929190505050612a93565b005b3480156108b657600080fd5b50610a07600480360360408110156108cd57600080fd5b81019080803590602001906401000000008111156108ea57600080fd5b8201836020820111156108fc57600080fd5b8035906020019184600183028401116401000000008311171561091e57600080fd5b91908080601f016020809104026020016040519081016040528093929190818152602001838380828437600081840152601f19601f8201169050808301925050505050505091929192908035906020019064010000000081111561098157600080fd5b82018360208201111561099357600080fd5b803590602001918460018302840111640100000000831117156109b557600080fd5b91908080601f016020809104026020016040519081016040528093929190818152602001838380828437600081840152601f19601f820116905080830192505050505050509192919290505050612c50565b005b348015610a1557600080fd5b50610a1e613060565b604051808273ffffffffffffffffffffffffffffffffffffffff1673ffffffffffffffffffffffffffffffffffffffff16815260200191505060405180910390f35b348015610a6c57600080fd5b50610a75613182565b604051808215151515815260200191505060405180910390f35b348015610a9b57600080fd5b50610ade60048036036020811015610ab257600080fd5b81019080803573ffffffffffffffffffffffffffffffffffffffff169060200190929190505050613195565b005b610ae8613918565b005b348015610af657600080fd5b50610b3960048036036020811015610b0d57600080fd5b81019080803573ffffffffffffffffffffffffffffffffffffffff1690602001909291905050506139c7565b005b600360009054906101000a900473ffffffffffffffffffffffffffffffffffffffff1681565b8060086000858152602001908152602001600020836040518082805190602001908083835b60208310610ba95780518252602082019150602081019050602083039250610b86565b6001836020036101000a03801982511681845116808217855250505050505090500191505090815260200160405180910390209080519060200190610bef929190613b88565b50816040518082805190602001908083835b60208310610c245780518252602082019150602081019050602083039250610c01565b6001836020036101000a0380198251168184511680821785525050505050509050019150506040518091039020837fd8c9334b1a9c2f9da342a0a2b32629c1a229b6445dad78947f674b44444a7550846040518080602001828103825283818151815260200191508051906020019080838360005b83811015610cb4578082015181840152602081019050610c99565b50505050905090810190601f168015610ce15780820380516001836020036101000a031916815260200191505b509250505060405180910390a3505050565b60008060045460055460405160200180838152602001828152602001925050506040516020818303038152906040528051906020012090506000816006546040516020018083815260200182815260200192505050604051602081830303815290604052805190602001209050600060405160200180807f6574682d0000000000000000000000000000000000000000000000000000000081525060040190506040516020818303038152906040528051906020012033604051602001808381526020018273ffffffffffffffffffffffffffffffffffffffff1673ffffffffffffffffffffffffffffffffffffffff1660601b815260140192505050604051602081830303815290604052805190602001209050600082826040516020018083815260200182815260200192505050604051602081830303815290604052805190602001209050600260009054906101000a900473ffffffffffffffffffffffffffffffffffffffff1673ffffffffffffffffffffffffffffffffffffffff16630178b8bf826040518263ffffffff1660e01b81526004018082815260200191505060206040518083038186803b158015610eae57600080fd5b505afa158015610ec2573d6000803e3d6000fd5b505050506040513d6020811015610ed857600080fd5b810190808051906020019092919050505094505050505090565b60606000600454600554604051602001808381526020018281526020019250505060405160208183030381529060405280519060200120905060008160065460405160200180838152602001828152602001925050506040516020818303038152906040528051906020012090503073ffffffffffffffffffffffffffffffffffffffff16600260009054906101000a900473ffffffffffffffffffffffffffffffffffffffff1673ffffffffffffffffffffffffffffffffffffffff166302571be3836040518263ffffffff1660e01b81526004018082815260200191505060206040518083038186803b158015610fea57600080fd5b505afa158015610ffe573d6000803e3d6000fd5b505050506040513d602081101561101457600080fd5b810190808051906020019092919050505073ffffffffffffffffffffffffffffffffffffffff1614611091576040517f08c379a0000000000000000000000000000000000000000000000000000000008152600401808060200182810382526023815260200180613c576023913960400191505060405180910390fd5b600060405160200180807f6574682d0000000000000000000000000000000000000000000000000000000081525060040190506040516020818303038152906040528051906020012033604051602001808381526020018273ffffffffffffffffffffffffffffffffffffffff1673ffffffffffffffffffffffffffffffffffffffff1660601b815260140192505050604051602081830303815290604052805190602001209050600082826040516020018083815260200182815260200192505050604051602081830303815290604052805190602001209050600073ffffffffffffffffffffffffffffffffffffffff16600260009054906101000a900473ffffffffffffffffffffffffffffffffffffffff1673ffffffffffffffffffffffffffffffffffffffff166302571be3836040518263ffffffff1660e01b81526004018082815260200191505060206040518083038186803b1580156111f757600080fd5b505afa15801561120b573d6000803e3d6000fd5b505050506040513d602081101561122157600080fd5b810190808051906020019092919050505073ffffffffffffffffffffffffffffffffffffffff16148061132c57503373ffffffffffffffffffffffffffffffffffffffff16600260009054906101000a900473ffffffffffffffffffffffffffffffffffffffff1673ffffffffffffffffffffffffffffffffffffffff166302571be3836040518263ffffffff1660e01b81526004018082815260200191505060206040518083038186803b1580156112d957600080fd5b505afa1580156112ed573d6000803e3d6000fd5b505050506040513d602081101561130357600080fd5b810190808051906020019092919050505073ffffffffffffffffffffffffffffffffffffffff16145b611381576040517f08c379a0000000000000000000000000000000000000000000000000000000008152600401808060200182810382526034815260200180613ca36034913960400191505060405180910390fd5b61138b81876123de565b945050505050919050565b600160009054906101000a900473ffffffffffffffffffffffffffffffffffffffff1673ffffffffffffffffffffffffffffffffffffffff163373ffffffffffffffffffffffffffffffffffffffff16146113f057600080fd5b8073ffffffffffffffffffffffffffffffffffffffff16600260009054906101000a900473ffffffffffffffffffffffffffffffffffffffff1673ffffffffffffffffffffffffffffffffffffffff161415611497576040517f08c379a0000000000000000000000000000000000000000000000000000000008152600401808060200182810382526029815260200180613c7a6029913960400191505060405180910390fd5b8073ffffffffffffffffffffffffffffffffffffffff16600260009054906101000a900473ffffffffffffffffffffffffffffffffffffffff1673ffffffffffffffffffffffffffffffffffffffff167f482b97c53e48ffa324a976e2738053e9aff6eee04d8aac63b10e19411d869b8260405160405180910390a380600260006101000a81548173ffffffffffffffffffffffffffffffffffffffff021916908373ffffffffffffffffffffffffffffffffffffffff16021790555050565b600160009054906101000a900473ffffffffffffffffffffffffffffffffffffffff1673ffffffffffffffffffffffffffffffffffffffff163373ffffffffffffffffffffffffffffffffffffffff16146115b157600080fd5b600360149054906101000a900460ff16156115cb57600080fd5b600260009054906101000a900473ffffffffffffffffffffffffffffffffffffffff1673ffffffffffffffffffffffffffffffffffffffff16635b0fc9c383836040518363ffffffff1660e01b8152600401808381526020018273ffffffffffffffffffffffffffffffffffffffff1673ffffffffffffffffffffffffffffffffffffffff16815260200192505050600060405180830381600087803b15801561167457600080fd5b505af1158015611688573d6000803e3d6000fd5b505050505050565b6000600454600554604051602001808381526020018281526020019250505060405160208183030381529060405280519060200120905060008160065460405160200180838152602001828152602001925050506040516020818303038152906040528051906020012090503073ffffffffffffffffffffffffffffffffffffffff16600260009054906101000a900473ffffffffffffffffffffffffffffffffffffffff1673ffffffffffffffffffffffffffffffffffffffff166302571be3836040518263ffffffff1660e01b81526004018082815260200191505060206040518083038186803b15801561178657600080fd5b505afa15801561179a573d6000803e3d6000fd5b505050506040513d60208110156117b057600080fd5b810190808051906020019092919050505073ffffffffffffffffffffffffffffffffffffffff161461182d576040517f08c379a0000000000000000000000000000000000000000000000000000000008152600401808060200182810382526023815260200180613c576023913960400191505060405180910390fd5b600060405160200180807f6574682d0000000000000000000000000000000000000000000000000000000081525060040190506040516020818303038152906040528051906020012033604051602001808381526020018273ffffffffffffffffffffffffffffffffffffffff1673ffffffffffffffffffffffffffffffffffffffff1660601b815260140192505050604051602081830303815290604052805190602001209050600082826040516020018083815260200182815260200192505050604051602081830303815290604052805190602001209050600073ffffffffffffffffffffffffffffffffffffffff16600260009054906101000a900473ffffffffffffffffffffffffffffffffffffffff1673ffffffffffffffffffffffffffffffffffffffff166302571be3836040518263ffffffff1660e01b81526004018082815260200191505060206040518083038186803b15801561199357600080fd5b505afa1580156119a7573d6000803e3d6000fd5b505050506040513d60208110156119bd57600080fd5b810190808051906020019092919050505073ffffffffffffffffffffffffffffffffffffffff161480611ac857503373ffffffffffffffffffffffffffffffffffffffff16600260009054906101000a900473ffffffffffffffffffffffffffffffffffffffff1673ffffffffffffffffffffffffffffffffffffffff166302571be3836040518263ffffffff1660e01b81526004018082815260200191505060206040518083038186803b158015611a7557600080fd5b505afa158015611a89573d6000803e3d6000fd5b505050506040513d6020811015611a9f57600080fd5b810190808051906020019092919050505073ffffffffffffffffffffffffffffffffffffffff16145b611b3a576040517f08c379a00000000000000000000000000000000000000000000000000000000081526004018080602001828103825260188152602001807f73756220646f6d61696e20616c7265616479206f776e6564000000000000000081525060200191505060405180910390fd5b600260009054906101000a900473ffffffffffffffffffffffffffffffffffffffff1673ffffffffffffffffffffffffffffffffffffffff166306ab59238484306040518463ffffffff1660e01b8152600401808481526020018381526020018273ffffffffffffffffffffffffffffffffffffffff1673ffffffffffffffffffffffffffffffffffffffff1681526020019350505050600060405180830381600087803b158015611beb57600080fd5b505af1158015611bff573d6000803e3d6000fd5b50505050600260009054906101000a900473ffffffffffffffffffffffffffffffffffffffff1673ffffffffffffffffffffffffffffffffffffffff16631896f70a82600360009054906101000a900473ffffffffffffffffffffffffffffffffffffffff166040518363ffffffff1660e01b8152600401808381526020018273ffffffffffffffffffffffffffffffffffffffff1673ffffffffffffffffffffffffffffffffffffffff16815260200192505050600060405180830381600087803b158015611cce57600080fd5b505af1158015611ce2573d6000803e3d6000fd5b50505050600260009054906101000a900473ffffffffffffffffffffffffffffffffffffffff1673ffffffffffffffffffffffffffffffffffffffff16635b0fc9c382336040518363ffffffff1660e01b8152600401808381526020018273ffffffffffffffffffffffffffffffffffffffff1673ffffffffffffffffffffffffffffffffffffffff16815260200192505050600060405180830381600087803b158015611d8f57600080fd5b505af1158015611da3573d6000803e3d6000fd5b505050503373ffffffffffffffffffffffffffffffffffffffff163373ffffffffffffffffffffffffffffffffffffffff167feb0c437e734e7e42204a015edd050c5472103e78b48b123499ebecaf8e1ed830846040518082815260200191505060405180910390a350505050565b6000600454600554604051602001808381526020018281526020019250505060405160208183030381529060405280519060200120905060008160065460405160200180838152602001828152602001925050506040516020818303038152906040528051906020012090503073ffffffffffffffffffffffffffffffffffffffff16600260009054906101000a900473ffffffffffffffffffffffffffffffffffffffff1673ffffffffffffffffffffffffffffffffffffffff166302571be3836040518263ffffffff1660e01b81526004018082815260200191505060206040518083038186803b158015611f0857600080fd5b505afa158015611f1c573d6000803e3d6000fd5b505050506040513d6020811015611f3257600080fd5b810190808051906020019092919050505073ffffffffffffffffffffffffffffffffffffffff1614611faf576040517f08c379a0000000000000000000000000000000000000000000000000000000008152600401808060200182810382526023815260200180613c576023913960400191505060405180910390fd5b600060405160200180807f6574682d0000000000000000000000000000000000000000000000000000000081525060040190506040516020818303038152906040528051906020012033604051602001808381526020018273ffffffffffffffffffffffffffffffffffffffff1673ffffffffffffffffffffffffffffffffffffffff1660601b815260140192505050604051602081830303815290604052805190602001209050600082826040516020018083815260200182815260200192505050604051602081830303815290604052805190602001209050600073ffffffffffffffffffffffffffffffffffffffff16600260009054906101000a900473ffffffffffffffffffffffffffffffffffffffff1673ffffffffffffffffffffffffffffffffffffffff166302571be3836040518263ffffffff1660e01b81526004018082815260200191505060206040518083038186803b15801561211557600080fd5b505afa158015612129573d6000803e3d6000fd5b505050506040513d602081101561213f57600080fd5b810190808051906020019092919050505073ffffffffffffffffffffffffffffffffffffffff16148061224a57503373ffffffffffffffffffffffffffffffffffffffff16600260009054906101000a900473ffffffffffffffffffffffffffffffffffffffff1673ffffffffffffffffffffffffffffffffffffffff166302571be3836040518263ffffffff1660e01b81526004018082815260200191505060206040518083038186803b1580156121f757600080fd5b505afa15801561220b573d6000803e3d6000fd5b505050506040513d602081101561222157600080fd5b810190808051906020019092919050505073ffffffffffffffffffffffffffffffffffffffff16145b6122bc576040517f08c379a00000000000000000000000000000000000000000000000000000000081526004018080602001828103825260188152602001807f73756220646f6d61696e20616c7265616479206f776e6564000000000000000081525060200191505060405180910390fd5b600260009054906101000a900473ffffffffffffffffffffffffffffffffffffffff1673ffffffffffffffffffffffffffffffffffffffff16631896f70a82876040518363ffffffff1660e01b8152600401808381526020018273ffffffffffffffffffffffffffffffffffffffff1673ffffffffffffffffffffffffffffffffffffffff16815260200192505050600060405180830381600087803b15801561236557600080fd5b505af1158015612379573d6000803e3d6000fd5b505050508473ffffffffffffffffffffffffffffffffffffffff163373ffffffffffffffffffffffffffffffffffffffff167f84b83d2b66cac119ccaaca68b476b0dc5371d5f2fd27f697770a910175fd38b660405160405180910390a35050505050565b606060086000848152602001908152602001600020826040518082805190602001908083835b602083106124275780518252602082019150602081019050602083039250612404565b6001836020036101000a03801982511681845116808217855250505050505090500191505090815260200160405180910390208054600181600116156101000203166002900480601f0160208091040260200160405190810160405280929190818152602001828054600181600116156101000203166002900480156124ee5780601f106124c3576101008083540402835291602001916124ee565b820191906000526020600020905b8154815290600101906020018083116124d157829003601f168201915b5050505050905092915050565b600260009054906101000a900473ffffffffffffffffffffffffffffffffffffffff1681565b600160009054906101000a900473ffffffffffffffffffffffffffffffffffffffff1673ffffffffffffffffffffffffffffffffffffffff163373ffffffffffffffffffffffffffffffffffffffff161461257b57600080fd5b600360149054906101000a900460ff161561259557600080fd5b6001600360146101000a81548160ff0219169083151502179055507fd68bbea4b8d77ea0826a260170e3b50080b57c9ed7420ef5920b1a58e613e17960405160405180910390a1565b60008060045460055460405160200180838152602001828152602001925050506040516020818303038152906040528051906020012090506000816006546040516020018083815260200182815260200192505050604051602081830303815290604052805190602001209050600060405160200180807f6574682d0000000000000000000000000000000000000000000000000000000081525060040190506040516020818303038152906040528051906020012033604051602001808381526020018273ffffffffffffffffffffffffffffffffffffffff1673ffffffffffffffffffffffffffffffffffffffff1660601b8152601401925050506040516020818303038152906040528051906020012090506000828260405160200180838152602001828152602001925050506040516020818303038152906040528051906020012090506000600260009054906101000a900473ffffffffffffffffffffffffffffffffffffffff1673ffffffffffffffffffffffffffffffffffffffff16630178b8bf836040518263ffffffff1660e01b81526004018082815260200191505060206040518083038186803b15801561279b57600080fd5b505afa1580156127af573d6000803e3d6000fd5b505050506040513d60208110156127c557600080fd5b810190808051906020019092919050505090508073ffffffffffffffffffffffffffffffffffffffff16633b3b57de836040518263ffffffff1660e01b81526004018082815260200191505060206040518083038186803b15801561282957600080fd5b505afa15801561283d573d6000803e3d6000fd5b505050506040513d602081101561285357600080fd5b81019080805190602001909291905050509550505050505090565b600160009054906101000a900473ffffffffffffffffffffffffffffffffffffffff1681565b60008060045460055460405160200180838152602001828152602001925050506040516020818303038152906040528051906020012090506000816006546040516020018083815260200182815260200192505050604051602081830303815290604052805190602001209050600060405160200180807f6574682d0000000000000000000000000000000000000000000000000000000081525060040190506040516020818303038152906040528051906020012033604051602001808381526020018273ffffffffffffffffffffffffffffffffffffffff1673ffffffffffffffffffffffffffffffffffffffff1660601b815260140192505050604051602081830303815290604052805190602001209050600082826040516020018083815260200182815260200192505050604051602081830303815290604052805190602001209050600260009054906101000a900473ffffffffffffffffffffffffffffffffffffffff1673ffffffffffffffffffffffffffffffffffffffff166302571be3826040518263ffffffff1660e01b81526004018082815260200191505060206040518083038186803b158015612a4f57600080fd5b505afa158015612a63573d6000803e3d6000fd5b505050506040513d6020811015612a7957600080fd5b810190808051906020019092919050505094505050505090565b600160009054906101000a900473ffffffffffffffffffffffffffffffffffffffff1673ffffffffffffffffffffffffffffffffffffffff163373ffffffffffffffffffffffffffffffffffffffff1614612aed57600080fd5b600073ffffffffffffffffffffffffffffffffffffffff168173ffffffffffffffffffffffffffffffffffffffff161415612b90576040517f08c379a000000000000000000000000000000000000000000000000000000000815260040180806020018281038252601d8152602001807f63616e6e6f74207472616e7366657220746f206164647265737328302900000081525060200191505060405180910390fd5b8073ffffffffffffffffffffffffffffffffffffffff16600160009054906101000a900473ffffffffffffffffffffffffffffffffffffffff1673ffffffffffffffffffffffffffffffffffffffff167f8be0079c531659141344cd1fd0a4f28419497f9722a3daafe3b4186f6b6457e060405160405180910390a380600160006101000a81548173ffffffffffffffffffffffffffffffffffffffff021916908373ffffffffffffffffffffffffffffffffffffffff16021790555050565b6000600454600554604051602001808381526020018281526020019250505060405160208183030381529060405280519060200120905060008160065460405160200180838152602001828152602001925050506040516020818303038152906040528051906020012090503073ffffffffffffffffffffffffffffffffffffffff16600260009054906101000a900473ffffffffffffffffffffffffffffffffffffffff1673ffffffffffffffffffffffffffffffffffffffff166302571be3836040518263ffffffff1660e01b81526004018082815260200191505060206040518083038186803b158015612d4657600080fd5b505afa158015612d5a573d6000803e3d6000fd5b505050506040513d6020811015612d7057600080fd5b810190808051906020019092919050505073ffffffffffffffffffffffffffffffffffffffff1614612ded576040517f08c379a0000000000000000000000000000000000000000000000000000000008152600401808060200182810382526023815260200180613c576023913960400191505060405180910390fd5b600060405160200180807f6574682d0000000000000000000000000000000000000000000000000000000081525060040190506040516020818303038152906040528051906020012033604051602001808381526020018273ffffffffffffffffffffffffffffffffffffffff1673ffffffffffffffffffffffffffffffffffffffff1660601b8152601401925050506040516020818303038152906040528051906020012090506000828260405160200180838152602001828152602001925050506040516020818303038152906040528051906020012090503373ffffffffffffffffffffffffffffffffffffffff16600260009054906101000a900473ffffffffffffffffffffffffffffffffffffffff1673ffffffffffffffffffffffffffffffffffffffff166302571be3836040518263ffffffff1660e01b81526004018082815260200191505060206040518083038186803b158015612f5257600080fd5b505afa158015612f66573d6000803e3d6000fd5b505050506040513d6020811015612f7c57600080fd5b810190808051906020019092919050505073ffffffffffffffffffffffffffffffffffffffff1614613016576040517f08c379a000000000000000000000000000000000000000000000000000000000815260040180806020018281038252601d8152602001807f746578742063616e206f6e6c7920626520736574206279206f776e657200000081525060200191505060405180910390fd5b613021818787610b61565b7f6ef0bf62b43ac68d583afb687d463b629a35066355c21ff456aa258ae2b3c9e1826040518082815260200191505060405180910390a1505050505050565b60008060045460055460405160200180838152602001828152602001925050506040516020818303038152906040528051906020012090506000816006546040516020018083815260200182815260200192505050604051602081830303815290604052805190602001209050600260009054906101000a900473ffffffffffffffffffffffffffffffffffffffff1673ffffffffffffffffffffffffffffffffffffffff166302571be3826040518263ffffffff1660e01b81526004018082815260200191505060206040518083038186803b15801561314057600080fd5b505afa158015613154573d6000803e3d6000fd5b505050506040513d602081101561316a57600080fd5b81019080805190602001909291905050509250505090565b600360149054906101000a900460ff1681565b6000600454600554604051602001808381526020018281526020019250505060405160208183030381529060405280519060200120905060008160065460405160200180838152602001828152602001925050506040516020818303038152906040528051906020012090503073ffffffffffffffffffffffffffffffffffffffff16600260009054906101000a900473ffffffffffffffffffffffffffffffffffffffff1673ffffffffffffffffffffffffffffffffffffffff166302571be3836040518263ffffffff1660e01b81526004018082815260200191505060206040518083038186803b15801561328b57600080fd5b505afa15801561329f573d6000803e3d6000fd5b505050506040513d60208110156132b557600080fd5b810190808051906020019092919050505073ffffffffffffffffffffffffffffffffffffffff1614613332576040517f08c379a0000000000000000000000000000000000000000000000000000000008152600401808060200182810382526023815260200180613c576023913960400191505060405180910390fd5b600060405160200180807f6574682d0000000000000000000000000000000000000000000000000000000081525060040190506040516020818303038152906040528051906020012084604051602001808381526020018273ffffffffffffffffffffffffffffffffffffffff1673ffffffffffffffffffffffffffffffffffffffff1660601b815260140192505050604051602081830303815290604052805190602001209050600082826040516020018083815260200182815260200192505050604051602081830303815290604052805190602001209050600073ffffffffffffffffffffffffffffffffffffffff16600260009054906101000a900473ffffffffffffffffffffffffffffffffffffffff1673ffffffffffffffffffffffffffffffffffffffff166302571be3836040518263ffffffff1660e01b81526004018082815260200191505060206040518083038186803b15801561349857600080fd5b505afa1580156134ac573d6000803e3d6000fd5b505050506040513d60208110156134c257600080fd5b810190808051906020019092919050505073ffffffffffffffffffffffffffffffffffffffff1614806135cd57508473ffffffffffffffffffffffffffffffffffffffff16600260009054906101000a900473ffffffffffffffffffffffffffffffffffffffff1673ffffffffffffffffffffffffffffffffffffffff166302571be3836040518263ffffffff1660e01b81526004018082815260200191505060206040518083038186803b15801561357a57600080fd5b505afa15801561358e573d6000803e3d6000fd5b505050506040513d60208110156135a457600080fd5b810190808051906020019092919050505073ffffffffffffffffffffffffffffffffffffffff16145b61363f576040517f08c379a00000000000000000000000000000000000000000000000000000000081526004018080602001828103825260188152602001807f73756220646f6d61696e20616c7265616479206f776e6564000000000000000081525060200191505060405180910390fd5b600260009054906101000a900473ffffffffffffffffffffffffffffffffffffffff1673ffffffffffffffffffffffffffffffffffffffff166306ab59238484306040518463ffffffff1660e01b8152600401808481526020018381526020018273ffffffffffffffffffffffffffffffffffffffff1673ffffffffffffffffffffffffffffffffffffffff1681526020019350505050600060405180830381600087803b1580156136f057600080fd5b505af1158015613704573d6000803e3d6000fd5b50505050600260009054906101000a900473ffffffffffffffffffffffffffffffffffffffff1673ffffffffffffffffffffffffffffffffffffffff16631896f70a82600360009054906101000a900473ffffffffffffffffffffffffffffffffffffffff166040518363ffffffff1660e01b8152600401808381526020018273ffffffffffffffffffffffffffffffffffffffff1673ffffffffffffffffffffffffffffffffffffffff16815260200192505050600060405180830381600087803b1580156137d357600080fd5b505af11580156137e7573d6000803e3d6000fd5b50505050600260009054906101000a900473ffffffffffffffffffffffffffffffffffffffff1673ffffffffffffffffffffffffffffffffffffffff16635b0fc9c382876040518363ffffffff1660e01b8152600401808381526020018273ffffffffffffffffffffffffffffffffffffffff1673ffffffffffffffffffffffffffffffffffffffff16815260200192505050600060405180830381600087803b15801561389457600080fd5b505af11580156138a8573d6000803e3d6000fd5b505050508473ffffffffffffffffffffffffffffffffffffffff168573ffffffffffffffffffffffffffffffffffffffff167feb0c437e734e7e42204a015edd050c5472103e78b48b123499ebecaf8e1ed830846040518082815260200191505060405180910390a35050505050565b670de0b6b3a7640000341461392c57600080fd5b6000600760003373ffffffffffffffffffffffffffffffffffffffff1673ffffffffffffffffffffffffffffffffffffffff168152602001908152602001600020541461397857600080fd5b34600760003373ffffffffffffffffffffffffffffffffffffffff1673ffffffffffffffffffffffffffffffffffffffff16815260200190815260200160002060008282540192505081905550565b600160009054906101000a900473ffffffffffffffffffffffffffffffffffffffff1673ffffffffffffffffffffffffffffffffffffffff163373ffffffffffffffffffffffffffffffffffffffff1614613a2157600080fd5b8073ffffffffffffffffffffffffffffffffffffffff16600360009054906101000a900473ffffffffffffffffffffffffffffffffffffffff1673ffffffffffffffffffffffffffffffffffffffff161415613ac8576040517f08c379a0000000000000000000000000000000000000000000000000000000008152600401808060200182810382526029815260200180613c2e6029913960400191505060405180910390fd5b8073ffffffffffffffffffffffffffffffffffffffff16600360009054906101000a900473ffffffffffffffffffffffffffffffffffffffff1673ffffffffffffffffffffffffffffffffffffffff167f84b83d2b66cac119ccaaca68b476b0dc5371d5f2fd27f697770a910175fd38b660405160405180910390a380600360006101000a81548173ffffffffffffffffffffffffffffffffffffffff021916908373ffffffffffffffffffffffffffffffffffffffff16021790555050565b828054600181600116156101000203166002900490600052602060002090601f016020900481019282601f10613bc957805160ff1916838001178555613bf7565b82800160010185558215613bf7579182015b82811115613bf6578251825591602001919060010190613bdb565b5b509050613c049190613c08565b5090565b613c2a91905b80821115613c26576000816000905550600101613c0e565b5090565b9056fe6e6577207265736f6c7665722073686f756c6420626520646966666572656e742066726f6d206f6c647468697320636f6e74726163742073686f756c64206f776e2074686520646f6d61696e6e65772072656769737472792073686f756c6420626520646966666572656e742066726f6d206f6c647265676973746572656420737562646f6d61696e7320746578742063616e206f6e6c792062652072656164206279206f776e6572a265627a7a72315820754aae727ac08984aa0c2c491c256bd8e405b7d0870c9ed99eb51912d08577d264736f6c63430005100032",
  "source": "pragma solidity >0.4.24;\n\nimport './EnsRegistry.sol';\nimport './EnsResolver.sol';\n\n// ---------------------------------------------------------------------------------------------------\n// EnsSubdomainFactory - allows creating and configuring custom ENS subdomains with one contract call.\n// ---------------------------------------------------------------------------------------------------\n\n/**\n * @title EnsSubdomainFactory\n * @dev Allows to create and configure a subdomain for Ethereum ENS in one call.\n * After deploying this contract, change the owner of the domain you want to use\n * to this deployed contract address. For example, transfer the ownership of \"somedomain.eth\"\n * so anyone can create subdomains like \"eth-[address].somedomain.eth\".\n */\n\n contract Ownable {\n\n  address public owner;\n\n  modifier onlyOwner {\n    require(msg.sender == owner, \"Ownable: You are not the owner, Bye.\");\n    _;\n  }\n\n  constructor () public {\n    owner = msg.sender;\n  }\n}\n\ncontract RecruitmentProtocol is Ownable{\n\taddress payable public owner;\n\tEnsRegistry public registry;\n\tEnsResolver public resolver;\n\tbool public locked;\n    bytes32 emptyNamehash = 0x00;\n\tbytes32 topDomainHash = keccak256(abi.encodePacked(\"eth\"));\n\tbytes32 domainHash = keccak256(abi.encodePacked(\"repro\"));\n\n\tevent SubdomainCreated(address indexed creator, address indexed owner, bytes32 subdomain);\n\tevent OwnershipTransferred(address indexed previousOwner, address indexed newOwner);\n\tevent RegistryUpdated(address indexed previousRegistry, address indexed newRegistry);\n\tevent ResolverUpdated(address indexed previousResolver, address indexed newResolver);\n\tevent TextUpdated(bytes32 subdomain);\n\tevent DomainTransfersLocked();\n\n\tconstructor(EnsRegistry _registry, EnsResolver _resolver) public payable {\n\t\towner = msg.sender;\n\t\tregistry = _registry;\n\t\tresolver = _resolver;\n\t\tlocked = false;\n\t}\n\tmapping(address => uint) balances;\n\tfunction initialDeposit() payable external {\n\t\t// deposit sizes are restricted to 1 ether\n\t\trequire(msg.value == 1 ether);\n\t\t// an address cannot deposit twice\n\t\trequire(balances[msg.sender] == 0);\n\t\tbalances[msg.sender] += msg.value;\n\t}\n\n\t/**\n\t * @dev Throws if called by any account other than the owner.\n\t *\n\t */\n\tmodifier onlyOwner() {\n\t\trequire(msg.sender == owner);\n\t\t_;\n\t}\n\n\t/**\n\t * @dev Allows to create a subdomain (e.g. \"radek.startonchain.eth\"),\n\t * set its resolver and set its target address\n\t */\n\tfunction newSubdomain() public {\n\t\t//create namehash for the topdomain\n\t\tbytes32 topdomainNamehash = keccak256(abi.encodePacked(emptyNamehash, topDomainHash));\n\t\t//create namehash for the domain\n\t\tbytes32 domainNamehash = keccak256(abi.encodePacked(topdomainNamehash, domainHash));\n\t\t//make sure this contract owns the domain\n\t\trequire(registry.owner(domainNamehash) == address(this), \"this contract should own the domain\");\n\t\t//create labelhash for the sub domain\n\t\tbytes32 subdomainLabelhash = keccak256(abi.encodePacked(keccak256(abi.encodePacked(\"eth-\")), msg.sender));\n\t\t//create namehash for the sub domain\n\t\tbytes32 subdomainNamehash = keccak256(abi.encodePacked(domainNamehash, subdomainLabelhash));\n\t\t//make sure it is free or owned by the sender\n\t\trequire(registry.owner(subdomainNamehash) == address(0) ||\n\t\t\tregistry.owner(subdomainNamehash) == msg.sender, \"sub domain already owned\");\n\t\t//create new subdomain, temporarily this smartcontract is the owner\n\t\tregistry.setSubnodeOwner(domainNamehash, subdomainLabelhash, address(this));\n\t\t//set public resolver for this domain\n\t\tregistry.setResolver(subdomainNamehash, address(resolver));\n\t\t//change the ownership back to requested owner\n\t\tregistry.setOwner(subdomainNamehash, msg.sender);\n\n\t\temit SubdomainCreated(msg.sender, msg.sender, subdomainLabelhash);\n\t}\n\n\tfunction newSubdomainByAddress(address _guest) public {\n\t\t//create namehash for the topdomain\n\t\tbytes32 topdomainNamehash = keccak256(abi.encodePacked(emptyNamehash, topDomainHash));\n\t\t//create namehash for the domain\n\t\tbytes32 domainNamehash = keccak256(abi.encodePacked(topdomainNamehash, domainHash));\n\t\t//make sure this contract owns the domain\n\t\trequire(registry.owner(domainNamehash) == address(this), \"this contract should own the domain\");\n\t\t//create labelhash for the sub domain\n\t\tbytes32 subdomainLabelhash = keccak256(abi.encodePacked(keccak256(abi.encodePacked(\"eth-\")), _guest));\n\t\t//create namehash for the sub domain\n\t\tbytes32 subdomainNamehash = keccak256(abi.encodePacked(domainNamehash, subdomainLabelhash));\n\t\t//make sure it is free or owned by the sender\n\t\trequire(registry.owner(subdomainNamehash) == address(0) ||\n\t\t\tregistry.owner(subdomainNamehash) == _guest, \"sub domain already owned\");\n\t\t//create new subdomain, temporarily this smartcontract is the owner\n\t\tregistry.setSubnodeOwner(domainNamehash, subdomainLabelhash, address(this));\n\t\t//set public resolver for this domain\n\t\tregistry.setResolver(subdomainNamehash, address(resolver));\n\t\t//change the ownership back to requested owner\n\t\tregistry.setOwner(subdomainNamehash, _guest);\n\t\temit SubdomainCreated(_guest, _guest, subdomainLabelhash);\n\t}\n\n\tfunction setResolver(address _resolver) public {\n\t\t//create namehash for the topdomain\n\t\tbytes32 topdomainNamehash = keccak256(abi.encodePacked(emptyNamehash, topDomainHash));\n\t\t//create namehash for the domain\n\t\tbytes32 domainNamehash = keccak256(abi.encodePacked(topdomainNamehash, domainHash));\n\t\t//make sure this contract owns the domain\n\t\trequire(registry.owner(domainNamehash) == address(this), \"this contract should own the domain\");\n\t\t//create labelhash for the sub domain\n\n\t\t//bytes32 subdomainLabelhash = keccak256(abi.encodePacked(_subdomain));\n\t\tbytes32 subdomainLabelhash = keccak256(abi.encodePacked(keccak256(abi.encodePacked(\"eth-\")), msg.sender));\n\t\t\n\t\t//create namehash for the sub domain\n\t\tbytes32 subdomainNamehash = keccak256(abi.encodePacked(domainNamehash, subdomainLabelhash));\n\t\t//make sure it is free or owned by the sender\n\t\trequire(registry.owner(subdomainNamehash) == address(0) ||\n\t\t\tregistry.owner(subdomainNamehash) == msg.sender, \"sub domain already owned\");\n\t\t//set public resolver for this domain\n\t\tregistry.setResolver(subdomainNamehash, _resolver);\n\t\t\n\t\temit ResolverUpdated(msg.sender, _resolver);\n\t}\n\n\tfunction setText(string memory _key, string memory _value) public {\n\t\t//create namehash for the topdomain\n\t\tbytes32 topdomainNamehash = keccak256(abi.encodePacked(emptyNamehash, topDomainHash));\n\t\t//create namehash for the domain\n\t\tbytes32 domainNamehash = keccak256(abi.encodePacked(topdomainNamehash, domainHash));\n\t\t//make sure this contract owns the domain\n\t\trequire(registry.owner(domainNamehash) == address(this), \"this contract should own the domain\");\n\t\t\n\t\t//create labelhash for the sub domain\n\t\t//bytes32 subdomainLabelhash = keccak256(abi.encodePacked(_subdomain));\n\t\tbytes32 subdomainLabelhash = keccak256(abi.encodePacked(keccak256(abi.encodePacked(\"eth-\")), msg.sender));\n\t\t\n\t\t//create namehash for the sub domain\n\t\tbytes32 subdomainNamehash = keccak256(abi.encodePacked(domainNamehash, subdomainLabelhash));\n\t\t//make sure it is owned by the sender\n\t\trequire(registry.owner(subdomainNamehash) == msg.sender, \"text can only be set by owner\");\n\t\t//set text\n\t\tsetText(subdomainNamehash, _key, _value);\n\t\t\n\t\temit TextUpdated(subdomainLabelhash);\n\t}\n\n\tfunction text(string memory _key) public view returns(string memory) {\n\t\t//create namehash for the topdomain\n\t\tbytes32 topdomainNamehash = keccak256(abi.encodePacked(emptyNamehash, topDomainHash));\n\t\t//create namehash for the domain\n\t\tbytes32 domainNamehash = keccak256(abi.encodePacked(topdomainNamehash, domainHash));\n\t\t//make sure this contract owns the domain\n\t\trequire(registry.owner(domainNamehash) == address(this), \"this contract should own the domain\");\n\t\t\n\t\t//create labelhash for the sub domain\n\t\t//bytes32 subdomainLabelhash = keccak256(abi.encodePacked(_subdomain));\n\t\tbytes32 subdomainLabelhash = keccak256(abi.encodePacked(keccak256(abi.encodePacked(\"eth-\")), msg.sender));\n\t\t\n\t\t//create namehash for the sub domain\n\t\tbytes32 subdomainNamehash = keccak256(abi.encodePacked(domainNamehash, subdomainLabelhash));\n\t\t//make sure it is owned by the sender\n\t\trequire(registry.owner(subdomainNamehash) == address(0) || \n\t\t\tregistry.owner(subdomainNamehash) == msg.sender, \"registered subdomains text can only be read by owner\");\n\t\t//set public resolver for this domain\n\t\treturn text(subdomainNamehash, _key);\n\t}\n\n\t/**\n\t * @dev Returns the owner of a domain (e.g. \"startonchain.eth\"),\n\t */\n\tfunction domainOwner() public view returns (address) {\n\t\tbytes32 topdomainNamehash = keccak256(abi.encodePacked(emptyNamehash, topDomainHash));\n\t\tbytes32 namehash = keccak256(abi.encodePacked(topdomainNamehash, domainHash));\n\t\treturn registry.owner(namehash);\n\t}\n\n\t/**\n\t * @dev Return the owner of a subdomain (e.g. \"radek.startonchain.eth\"),\n\t */\n\tfunction subdomainOwner() public view returns (address) {\n\t\tbytes32 topdomainNamehash = keccak256(abi.encodePacked(emptyNamehash, topDomainHash));\n\t\tbytes32 domainNamehash = keccak256(abi.encodePacked(topdomainNamehash, domainHash));\n\t\tbytes32 subdomainLabelhash = keccak256(abi.encodePacked(keccak256(abi.encodePacked(\"eth-\")), msg.sender));\n\t\tbytes32 subdomainNamehash = keccak256(abi.encodePacked(domainNamehash, subdomainLabelhash));\n\t\treturn registry.owner(subdomainNamehash);\n\t}\n\n\tfunction subdomainResolver() public view returns (address) {\n\t\tbytes32 topdomainNamehash = keccak256(abi.encodePacked(emptyNamehash, topDomainHash));\n\t\tbytes32 domainNamehash = keccak256(abi.encodePacked(topdomainNamehash, domainHash));\n\t\tbytes32 subdomainLabelhash = keccak256(abi.encodePacked(keccak256(abi.encodePacked(\"eth-\")), msg.sender));\n\t\tbytes32 subdomainNamehash = keccak256(abi.encodePacked(domainNamehash, subdomainLabelhash));\n\t\treturn registry.resolver(subdomainNamehash);\n\t}\n\n    /**\n    * @dev Return the target address where the subdomain is pointing to (e.g. \"0x12345...\"),\n    */\n    function subdomainTarget() public view returns (address) {\n        bytes32 topdomainNamehash = keccak256(abi.encodePacked(emptyNamehash, topDomainHash));\n        bytes32 domainNamehash = keccak256(abi.encodePacked(topdomainNamehash, domainHash));\n\t\tbytes32 subdomainLabelhash = keccak256(abi.encodePacked(keccak256(abi.encodePacked(\"eth-\")), msg.sender));\n\t\tbytes32 subdomainNamehash = keccak256(abi.encodePacked(domainNamehash, subdomainLabelhash));\n        address currentResolver = registry.resolver(subdomainNamehash);\n        return EnsResolver(currentResolver).addr(subdomainNamehash);\n    }\n\n\n\tmapping(bytes32=>mapping(string=>string)) texts;\n\n    event TextChanged(bytes32 indexed node, string indexed indexedKey, string key);\n\n\tfunction setText(bytes32 node, string memory key, string memory value) public {\n        texts[node][key] = value;\n        emit TextChanged(node, key, key);\n    }\n\n    function text(bytes32 node, string memory key) public view returns (string memory) {\n        return texts[node][key];\n    }\n\n\t/**\n\t * @dev The contract owner can take away the ownership of any domain owned by this contract.\n\t * @param _node - namehash of the domain\n\t * @param _owner - new owner for the domain\n\t */\n\tfunction transferDomainOwnership(bytes32 _node, address _owner) public onlyOwner {\n\t\trequire(!locked);\n\t\tregistry.setOwner(_node, _owner);\n\t}\n\n\t/**\n\t * @dev The contract owner can lock and prevent any future domain ownership transfers.\n\t */\n\tfunction lockDomainOwnershipTransfers() public onlyOwner {\n\t\trequire(!locked);\n\t\tlocked = true;\n\t\temit DomainTransfersLocked();\n\t}\n\n\t/**\n\t * @dev Allows to update to new ENS registry.\n\t * @param _registry The address of new ENS registry to use.\n\t */\n\tfunction updateRegistry(EnsRegistry _registry) public onlyOwner {\n\t\trequire(registry != _registry, \"new registry should be different from old\");\n\t\temit RegistryUpdated(address(registry), address(_registry));\n\t\tregistry = _registry;\n\t}\n\n\t/**\n\t * @dev Allows to update to new ENS resolver.\n\t * @param _resolver The address of new ENS resolver to use.\n\t */\n\tfunction updateResolver(EnsResolver _resolver) public onlyOwner {\n\t\trequire(resolver != _resolver, \"new resolver should be different from old\");\n\t\temit ResolverUpdated(address(resolver), address(_resolver));\n\t\tresolver = _resolver;\n\t}\n\n\t/**\n\t * @dev Allows the current owner to transfer control of the contract to a new owner.\n\t * @param _owner The address to transfer ownership to.\n\t */\n\tfunction transferContractOwnership(address payable _owner) public onlyOwner {\n\t\trequire(_owner != address(0), \"cannot transfer to address(0)\");\n\t\temit OwnershipTransferred(owner, _owner);\n\t\towner = _owner;\n\t}\n}",
  "sourcePath": "/Users/pedropelicano/repos/recruitment-protocol/smart-contract/contracts/RecruitmentProtocol.sol",
  "compiler": {
    "name": "solc",
    "version": "0.5.16+commit.9c3226ce.Emscripten.clang"
  },
  "schemaVersion": "3.4.10",
  "updatedAt": "2022-11-04T18:37:20.318Z",
  "devdoc": {
    "methods": {
      "domainOwner()": {
        "details": "Returns the owner of a domain (e.g. \"startonchain.eth\"),"
      },
      "lockDomainOwnershipTransfers()": {
        "details": "The contract owner can lock and prevent any future domain ownership transfers."
      },
      "newSubdomain()": {
        "details": "Allows to create a subdomain (e.g. \"radek.startonchain.eth\"), set its resolver and set its target address"
      },
      "subdomainOwner()": {
        "details": "Return the owner of a subdomain (e.g. \"radek.startonchain.eth\"),"
      },
      "subdomainTarget()": {
        "details": "Return the target address where the subdomain is pointing to (e.g. \"0x12345...\"),"
      },
      "transferContractOwnership(address)": {
        "details": "Allows the current owner to transfer control of the contract to a new owner.",
        "params": {
          "_owner": "The address to transfer ownership to."
        }
      },
      "transferDomainOwnership(bytes32,address)": {
        "details": "The contract owner can take away the ownership of any domain owned by this contract.",
        "params": {
          "_node": "- namehash of the domain",
          "_owner": "- new owner for the domain"
        }
      },
      "updateRegistry(address)": {
        "details": "Allows to update to new ENS registry.",
        "params": {
          "_registry": "The address of new ENS registry to use."
        }
      },
      "updateResolver(address)": {
        "details": "Allows to update to new ENS resolver.",
        "params": {
          "_resolver": "The address of new ENS resolver to use."
        }
      }
    }
  },
  "userdoc": {
    "methods": {}
  }
}