{
  "contractName": "Recruitment",
  "abi": [
    {
      "inputs": [],
      "stateMutability": "nonpayable",
      "type": "constructor"
    },
    {
      "anonymous": false,
      "inputs": [
        {
          "indexed": true,
          "internalType": "address",
          "name": "sender",
          "type": "address"
        },
        {
          "indexed": false,
          "internalType": "uint256",
          "name": "amount",
          "type": "uint256"
        }
      ],
      "name": "InitialDepositCompleted",
      "type": "event"
    },
    {
      "inputs": [
        {
          "internalType": "address",
          "name": "",
          "type": "address"
        },
        {
          "internalType": "bytes32",
          "name": "",
          "type": "bytes32"
        }
      ],
      "name": "accountBalances",
      "outputs": [
        {
          "internalType": "uint256",
          "name": "",
          "type": "uint256"
        }
      ],
      "stateMutability": "view",
      "type": "function",
      "constant": true
    },
    {
      "inputs": [
        {
          "internalType": "address",
          "name": "",
          "type": "address"
        }
      ],
      "name": "balances",
      "outputs": [
        {
          "internalType": "uint256",
          "name": "",
          "type": "uint256"
        }
      ],
      "stateMutability": "view",
      "type": "function",
      "constant": true
    },
    {
      "inputs": [
        {
          "internalType": "bytes32",
          "name": "",
          "type": "bytes32"
        }
      ],
      "name": "whitelistedTokens",
      "outputs": [
        {
          "internalType": "address",
          "name": "",
          "type": "address"
        }
      ],
      "stateMutability": "view",
      "type": "function",
      "constant": true
    },
    {
      "inputs": [
        {
          "internalType": "bytes32",
          "name": "symbol",
          "type": "bytes32"
        },
        {
          "internalType": "address",
          "name": "tokenAddress",
          "type": "address"
        }
      ],
      "name": "whitelistToken",
      "outputs": [],
      "stateMutability": "nonpayable",
      "type": "function"
    },
    {
      "inputs": [
        {
          "internalType": "bytes32",
          "name": "token",
          "type": "bytes32"
        }
      ],
      "name": "getWhitelistedTokenAddresses",
      "outputs": [
        {
          "internalType": "address",
          "name": "",
          "type": "address"
        }
      ],
      "stateMutability": "view",
      "type": "function",
      "constant": true
    },
    {
      "inputs": [
        {
          "internalType": "uint256",
          "name": "amount",
          "type": "uint256"
        },
        {
          "internalType": "bytes32",
          "name": "symbol",
          "type": "bytes32"
        }
      ],
      "name": "initialDeposit",
      "outputs": [],
      "stateMutability": "nonpayable",
      "type": "function"
    },
    {
      "inputs": [
        {
          "internalType": "uint256",
          "name": "amount",
          "type": "uint256"
        }
      ],
      "name": "initialDepositDAI",
      "outputs": [],
      "stateMutability": "nonpayable",
      "type": "function"
    },
    {
      "inputs": [
        {
          "internalType": "uint256",
          "name": "amount",
          "type": "uint256"
        },
        {
          "internalType": "bytes32",
          "name": "symbol",
          "type": "bytes32"
        }
      ],
      "name": "withdrawTokens",
      "outputs": [],
      "stateMutability": "nonpayable",
      "type": "function"
    }
  ],
  "bytecode": "0x608060405234801561001057600080fd5b50336000806101000a81548173ffffffffffffffffffffffffffffffffffffffff021916908373ffffffffffffffffffffffffffffffffffffffff160217905550610d84806100606000396000f3fe608060405234801561001057600080fd5b50600436106100885760003560e01c80638f97994b1161005b5780638f97994b14610125578063aa3d9a1514610141578063cb8815c914610171578063e64fe3661461018d57610088565b8063069fdaae1461008d57806327e235e3146100a95780633586932b146100d957806360751d9514610109575b600080fd5b6100a760048036038101906100a291906108a6565b6101bd565b005b6100c360048036038101906100be91906108e6565b6102a1565b6040516100d0919061092c565b60405180910390f35b6100f360048036038101906100ee9190610947565b6102b9565b6040516101009190610983565b60405180910390f35b610123600480360381019061011e91906109ca565b6102f6565b005b61013f600480360381019061013a91906109f7565b610454565b005b61015b60048036038101906101569190610947565b610604565b6040516101689190610983565b60405180910390f35b61018b600480360381019061018691906109f7565b610637565b005b6101a760048036038101906101a29190610a37565b6107e8565b6040516101b4919061092c565b60405180910390f35b60008054906101000a900473ffffffffffffffffffffffffffffffffffffffff1673ffffffffffffffffffffffffffffffffffffffff163373ffffffffffffffffffffffffffffffffffffffff161461024b576040517f08c379a000000000000000000000000000000000000000000000000000000000815260040161024290610ad4565b60405180910390fd5b806001600084815260200190815260200160002060006101000a81548173ffffffffffffffffffffffffffffffffffffffff021916908373ffffffffffffffffffffffffffffffffffffffff1602179055505050565b60036020528060005260406000206000915090505481565b60006001600083815260200190815260200160002060009054906101000a900473ffffffffffffffffffffffffffffffffffffffff169050919050565b80600260003373ffffffffffffffffffffffffffffffffffffffff1673ffffffffffffffffffffffffffffffffffffffff16815260200190815260200160002060007f3078343434313439000000000000000000000000000000000000000000000000815260200190815260200160002060008282546103769190610b23565b92505081905550600160007f3078343434313439000000000000000000000000000000000000000000000000815260200190815260200160002060009054906101000a900473ffffffffffffffffffffffffffffffffffffffff1673ffffffffffffffffffffffffffffffffffffffff166323b872dd3330846040518463ffffffff1660e01b815260040161040d93929190610b57565b6020604051808303816000875af115801561042c573d6000803e3d6000fd5b505050506040513d601f19601f820116820180604052508101906104509190610bc6565b5050565b81600260003373ffffffffffffffffffffffffffffffffffffffff1673ffffffffffffffffffffffffffffffffffffffff16815260200190815260200160002060008381526020019081526020016000205410156104e7576040517f08c379a00000000000000000000000000000000000000000000000000000000081526004016104de90610c3f565b60405180910390fd5b81600260003373ffffffffffffffffffffffffffffffffffffffff1673ffffffffffffffffffffffffffffffffffffffff168152602001908152602001600020600083815260200190815260200160002060008282546105479190610c5f565b925050819055506001600082815260200190815260200160002060009054906101000a900473ffffffffffffffffffffffffffffffffffffffff1673ffffffffffffffffffffffffffffffffffffffff1663a9059cbb33846040518363ffffffff1660e01b81526004016105bc929190610c93565b6020604051808303816000875af11580156105db573d6000803e3d6000fd5b505050506040513d601f19601f820116820180604052508101906105ff9190610bc6565b505050565b60016020528060005260406000206000915054906101000a900473ffffffffffffffffffffffffffffffffffffffff1681565b6103e8821461067b576040517f08c379a000000000000000000000000000000000000000000000000000000000815260040161067290610d2e565b60405180910390fd5b81600260003373ffffffffffffffffffffffffffffffffffffffff1673ffffffffffffffffffffffffffffffffffffffff168152602001908152602001600020600083815260200190815260200160002060008282546106db9190610b23565b925050819055506001600082815260200190815260200160002060009054906101000a900473ffffffffffffffffffffffffffffffffffffffff1673ffffffffffffffffffffffffffffffffffffffff166323b872dd3330856040518463ffffffff1660e01b815260040161075293929190610b57565b6020604051808303816000875af1158015610771573d6000803e3d6000fd5b505050506040513d601f19601f820116820180604052508101906107959190610bc6565b503373ffffffffffffffffffffffffffffffffffffffff167f57b0545e3662188b55012de236de11cef395c3757d43a2fb17b84dfe4aeab53a836040516107dc919061092c565b60405180910390a25050565b6002602052816000526040600020602052806000526040600020600091509150505481565b600080fd5b6000819050919050565b61082581610812565b811461083057600080fd5b50565b6000813590506108428161081c565b92915050565b600073ffffffffffffffffffffffffffffffffffffffff82169050919050565b600061087382610848565b9050919050565b61088381610868565b811461088e57600080fd5b50565b6000813590506108a08161087a565b92915050565b600080604083850312156108bd576108bc61080d565b5b60006108cb85828601610833565b92505060206108dc85828601610891565b9150509250929050565b6000602082840312156108fc576108fb61080d565b5b600061090a84828501610891565b91505092915050565b6000819050919050565b61092681610913565b82525050565b6000602082019050610941600083018461091d565b92915050565b60006020828403121561095d5761095c61080d565b5b600061096b84828501610833565b91505092915050565b61097d81610868565b82525050565b60006020820190506109986000830184610974565b92915050565b6109a781610913565b81146109b257600080fd5b50565b6000813590506109c48161099e565b92915050565b6000602082840312156109e0576109df61080d565b5b60006109ee848285016109b5565b91505092915050565b60008060408385031215610a0e57610a0d61080d565b5b6000610a1c858286016109b5565b9250506020610a2d85828601610833565b9150509250929050565b60008060408385031215610a4e57610a4d61080d565b5b6000610a5c85828601610891565b9250506020610a6d85828601610833565b9150509250929050565b600082825260208201905092915050565b7f546869732066756e6374696f6e206973206e6f74207075626c69630000000000600082015250565b6000610abe601b83610a77565b9150610ac982610a88565b602082019050919050565b60006020820190508181036000830152610aed81610ab1565b9050919050565b7f4e487b7100000000000000000000000000000000000000000000000000000000600052601160045260246000fd5b6000610b2e82610913565b9150610b3983610913565b9250828201905080821115610b5157610b50610af4565b5b92915050565b6000606082019050610b6c6000830186610974565b610b796020830185610974565b610b86604083018461091d565b949350505050565b60008115159050919050565b610ba381610b8e565b8114610bae57600080fd5b50565b600081519050610bc081610b9a565b92915050565b600060208284031215610bdc57610bdb61080d565b5b6000610bea84828501610bb1565b91505092915050565b7f496e737566666963656e742066756e6473000000000000000000000000000000600082015250565b6000610c29601183610a77565b9150610c3482610bf3565b602082019050919050565b60006020820190508181036000830152610c5881610c1c565b9050919050565b6000610c6a82610913565b9150610c7583610913565b9250828203905081811115610c8d57610c8c610af4565b5b92915050565b6000604082019050610ca86000830185610974565b610cb5602083018461091d565b9392505050565b7f416d6f756e742073686f756c6420626520657175616c20746f2031303030205560008201527f5344000000000000000000000000000000000000000000000000000000000000602082015250565b6000610d18602283610a77565b9150610d2382610cbc565b604082019050919050565b60006020820190508181036000830152610d4781610d0b565b905091905056fea264697066735822122001e778527fabd86d4e74537d952f8841b327a5fcc53ca0ba50dfb41174b844f664736f6c63430008110033",
  "immutableReferences": {},
  "source": "pragma solidity ^0.8.0;\n\nimport \"@openzeppelin/contracts/token/ERC20/ERC20.sol\";\n\ncontract Recruitment {\n  event InitialDepositCompleted(address indexed sender, uint256 amount);\n  address owner;\n  mapping(bytes32 => address) public whitelistedTokens;\n  mapping(address => mapping(bytes32 => uint256)) public accountBalances;\n  mapping(address => uint)public balances;\n\n  constructor() {\n    owner = msg.sender;\n  }\n\n  function whitelistToken(bytes32 symbol, address tokenAddress) external {\n    require(msg.sender == owner, 'This function is not public');\n    whitelistedTokens[symbol] = tokenAddress;\n  }\n\n  function getWhitelistedTokenAddresses(bytes32 token) external view returns(address) {\n    return whitelistedTokens[token];\n  }\n\n  function initialDeposit(uint256 amount, bytes32 symbol) external {\n    require(amount == 1000,\"Amount should be equal to 1000 USD\");\n    accountBalances[msg.sender][symbol] += amount;\n    ERC20(whitelistedTokens[symbol]).transferFrom(msg.sender, address(this), amount);\n    emit InitialDepositCompleted(msg.sender, amount);\n  }\n\n  function initialDepositDAI(uint256 amount) external {\n    // require(amount == 1000,\"Amount should be equal to 1000 DAI\");\n    accountBalances[msg.sender][\"0x444149\"] += amount;\n    ERC20(whitelistedTokens[\"0x444149\"]).transferFrom(msg.sender, address(this), amount);\n    // emit InitialDepositCompleted(msg.sender, amount);\n  }\n\n  function withdrawTokens(uint256 amount, bytes32 symbol) external {\n    require(accountBalances[msg.sender][symbol] >= amount, 'Insufficent funds');\n    accountBalances[msg.sender][symbol] -= amount;\n    ERC20(whitelistedTokens[symbol]).transfer(msg.sender, amount);\n  }\n}",
  "sourcePath": "/Users/pedropelicano/repos/recruitment-protocol/smart-contract/contracts/Recruitment.sol",
  "compiler": {
    "name": "solc",
    "version": "0.8.17+commit.8df45f5f.Emscripten.clang"
  },
  "schemaVersion": "3.4.10",
  "updatedAt": "2022-11-16T22:10:25.681Z",
  "networkType": "ethereum",
  "devdoc": {
    "kind": "dev",
    "methods": {},
    "version": 1
  },
  "userdoc": {
    "kind": "user",
    "methods": {},
    "version": 1
  }
}