{
  "contractName": "Recruitment",
  "abi": [
    {
      "inputs": [],
      "stateMutability": "nonpayable",
      "type": "constructor"
    },
    {
      "anonymous": false,
      "inputs": [
        {
          "indexed": true,
          "internalType": "address",
          "name": "sender",
          "type": "address"
        },
        {
          "indexed": false,
          "internalType": "uint256",
          "name": "amount",
          "type": "uint256"
        }
      ],
      "name": "InitialDepositCompleted",
      "type": "event"
    },
    {
      "inputs": [
        {
          "internalType": "address",
          "name": "",
          "type": "address"
        },
        {
          "internalType": "bytes32",
          "name": "",
          "type": "bytes32"
        }
      ],
      "name": "accountBalances",
      "outputs": [
        {
          "internalType": "uint256",
          "name": "",
          "type": "uint256"
        }
      ],
      "stateMutability": "view",
      "type": "function",
      "constant": true
    },
    {
      "inputs": [
        {
          "internalType": "address",
          "name": "",
          "type": "address"
        }
      ],
      "name": "balances",
      "outputs": [
        {
          "internalType": "uint256",
          "name": "",
          "type": "uint256"
        }
      ],
      "stateMutability": "view",
      "type": "function",
      "constant": true
    },
    {
      "inputs": [
        {
          "internalType": "bytes32",
          "name": "",
          "type": "bytes32"
        }
      ],
      "name": "whitelistedTokens",
      "outputs": [
        {
          "internalType": "address",
          "name": "",
          "type": "address"
        }
      ],
      "stateMutability": "view",
      "type": "function",
      "constant": true
    },
    {
      "inputs": [
        {
          "internalType": "bytes32",
          "name": "symbol",
          "type": "bytes32"
        },
        {
          "internalType": "address",
          "name": "tokenAddress",
          "type": "address"
        }
      ],
      "name": "whitelistToken",
      "outputs": [],
      "stateMutability": "nonpayable",
      "type": "function"
    },
    {
      "inputs": [
        {
          "internalType": "bytes32",
          "name": "token",
          "type": "bytes32"
        }
      ],
      "name": "getWhitelistedTokenAddresses",
      "outputs": [
        {
          "internalType": "address",
          "name": "",
          "type": "address"
        }
      ],
      "stateMutability": "view",
      "type": "function",
      "constant": true
    },
    {
      "inputs": [
        {
          "internalType": "bytes32",
          "name": "symbol",
          "type": "bytes32"
        }
      ],
      "name": "initialDeposit",
      "outputs": [],
      "stateMutability": "payable",
      "type": "function",
      "payable": true
    },
    {
      "inputs": [
        {
          "internalType": "uint256",
          "name": "amount",
          "type": "uint256"
        },
        {
          "internalType": "bytes32",
          "name": "symbol",
          "type": "bytes32"
        }
      ],
      "name": "withdrawTokens",
      "outputs": [],
      "stateMutability": "nonpayable",
      "type": "function"
    }
  ],
  "bytecode": "0x608060405234801561001057600080fd5b50336000806101000a81548173ffffffffffffffffffffffffffffffffffffffff021916908373ffffffffffffffffffffffffffffffffffffffff160217905550610c12806100606000396000f3fe6080604052600436106100705760003560e01c80638f97994b1161004e5780638f97994b14610118578063aa3d9a1514610141578063e64fe3661461017e578063ed2118e3146101bb57610070565b8063069fdaae1461007557806327e235e31461009e5780633586932b146100db575b600080fd5b34801561008157600080fd5b5061009c60048036038101906100979190610761565b6101d7565b005b3480156100aa57600080fd5b506100c560048036038101906100c091906107a1565b6102bb565b6040516100d291906107e7565b60405180910390f35b3480156100e757600080fd5b5061010260048036038101906100fd9190610802565b6102d3565b60405161010f919061083e565b60405180910390f35b34801561012457600080fd5b5061013f600480360381019061013a9190610885565b610310565b005b34801561014d57600080fd5b5061016860048036038101906101639190610802565b6104c0565b604051610175919061083e565b60405180910390f35b34801561018a57600080fd5b506101a560048036038101906101a091906108c5565b6104f3565b6040516101b291906107e7565b60405180910390f35b6101d560048036038101906101d09190610802565b610518565b005b60008054906101000a900473ffffffffffffffffffffffffffffffffffffffff1673ffffffffffffffffffffffffffffffffffffffff163373ffffffffffffffffffffffffffffffffffffffff1614610265576040517f08c379a000000000000000000000000000000000000000000000000000000000815260040161025c90610962565b60405180910390fd5b806001600084815260200190815260200160002060006101000a81548173ffffffffffffffffffffffffffffffffffffffff021916908373ffffffffffffffffffffffffffffffffffffffff1602179055505050565b60036020528060005260406000206000915090505481565b60006001600083815260200190815260200160002060009054906101000a900473ffffffffffffffffffffffffffffffffffffffff169050919050565b81600260003373ffffffffffffffffffffffffffffffffffffffff1673ffffffffffffffffffffffffffffffffffffffff16815260200190815260200160002060008381526020019081526020016000205410156103a3576040517f08c379a000000000000000000000000000000000000000000000000000000000815260040161039a906109ce565b60405180910390fd5b81600260003373ffffffffffffffffffffffffffffffffffffffff1673ffffffffffffffffffffffffffffffffffffffff168152602001908152602001600020600083815260200190815260200160002060008282546104039190610a1d565b925050819055506001600082815260200190815260200160002060009054906101000a900473ffffffffffffffffffffffffffffffffffffffff1673ffffffffffffffffffffffffffffffffffffffff1663a9059cbb33846040518363ffffffff1660e01b8152600401610478929190610a51565b6020604051808303816000875af1158015610497573d6000803e3d6000fd5b505050506040513d601f19601f820116820180604052508101906104bb9190610ab2565b505050565b60016020528060005260406000206000915054906101000a900473ffffffffffffffffffffffffffffffffffffffff1681565b6002602052816000526040600020602052806000526040600020600091509150505481565b6103e8341461055c576040517f08c379a000000000000000000000000000000000000000000000000000000000815260040161055390610b51565b60405180910390fd5b34600260003373ffffffffffffffffffffffffffffffffffffffff1673ffffffffffffffffffffffffffffffffffffffff168152602001908152602001600020600083815260200190815260200160002060008282546105bc9190610b71565b925050819055506001600082815260200190815260200160002060009054906101000a900473ffffffffffffffffffffffffffffffffffffffff1673ffffffffffffffffffffffffffffffffffffffff166323b872dd3330346040518463ffffffff1660e01b815260040161063393929190610ba5565b6020604051808303816000875af1158015610652573d6000803e3d6000fd5b505050506040513d601f19601f820116820180604052508101906106769190610ab2565b503373ffffffffffffffffffffffffffffffffffffffff167f57b0545e3662188b55012de236de11cef395c3757d43a2fb17b84dfe4aeab53a346040516106bd91906107e7565b60405180910390a250565b600080fd5b6000819050919050565b6106e0816106cd565b81146106eb57600080fd5b50565b6000813590506106fd816106d7565b92915050565b600073ffffffffffffffffffffffffffffffffffffffff82169050919050565b600061072e82610703565b9050919050565b61073e81610723565b811461074957600080fd5b50565b60008135905061075b81610735565b92915050565b60008060408385031215610778576107776106c8565b5b6000610786858286016106ee565b92505060206107978582860161074c565b9150509250929050565b6000602082840312156107b7576107b66106c8565b5b60006107c58482850161074c565b91505092915050565b6000819050919050565b6107e1816107ce565b82525050565b60006020820190506107fc60008301846107d8565b92915050565b600060208284031215610818576108176106c8565b5b6000610826848285016106ee565b91505092915050565b61083881610723565b82525050565b6000602082019050610853600083018461082f565b92915050565b610862816107ce565b811461086d57600080fd5b50565b60008135905061087f81610859565b92915050565b6000806040838503121561089c5761089b6106c8565b5b60006108aa85828601610870565b92505060206108bb858286016106ee565b9150509250929050565b600080604083850312156108dc576108db6106c8565b5b60006108ea8582860161074c565b92505060206108fb858286016106ee565b9150509250929050565b600082825260208201905092915050565b7f546869732066756e6374696f6e206973206e6f74207075626c69630000000000600082015250565b600061094c601b83610905565b915061095782610916565b602082019050919050565b6000602082019050818103600083015261097b8161093f565b9050919050565b7f496e737566666963656e742066756e6473000000000000000000000000000000600082015250565b60006109b8601183610905565b91506109c382610982565b602082019050919050565b600060208201905081810360008301526109e7816109ab565b9050919050565b7f4e487b7100000000000000000000000000000000000000000000000000000000600052601160045260246000fd5b6000610a28826107ce565b9150610a33836107ce565b9250828203905081811115610a4b57610a4a6109ee565b5b92915050565b6000604082019050610a66600083018561082f565b610a7360208301846107d8565b9392505050565b60008115159050919050565b610a8f81610a7a565b8114610a9a57600080fd5b50565b600081519050610aac81610a86565b92915050565b600060208284031215610ac857610ac76106c8565b5b6000610ad684828501610a9d565b91505092915050565b7f416d6f756e742073686f756c6420626520657175616c20746f2031204574686560008201527f7200000000000000000000000000000000000000000000000000000000000000602082015250565b6000610b3b602183610905565b9150610b4682610adf565b604082019050919050565b60006020820190508181036000830152610b6a81610b2e565b9050919050565b6000610b7c826107ce565b9150610b87836107ce565b9250828201905080821115610b9f57610b9e6109ee565b5b92915050565b6000606082019050610bba600083018661082f565b610bc7602083018561082f565b610bd460408301846107d8565b94935050505056fea2646970667358221220598aab7ddc57289373ecba7f1146a0d57418eb336072057014421abb136addb164736f6c63430008110033",
  "immutableReferences": {},
  "source": "pragma solidity ^0.8.0;\n\nimport \"@openzeppelin/contracts/token/ERC20/ERC20.sol\";\n\ncontract Recruitment {\n  event InitialDepositCompleted(address indexed sender, uint256 amount);\n  address owner;\n  mapping(bytes32 => address) public whitelistedTokens;\n  mapping(address => mapping(bytes32 => uint256)) public accountBalances;\n  mapping(address => uint)public balances;\n\n  constructor() {\n    owner = msg.sender;\n  }\n\n  function whitelistToken(bytes32 symbol, address tokenAddress) external {\n    require(msg.sender == owner, 'This function is not public');\n    whitelistedTokens[symbol] = tokenAddress;\n  }\n\n  function getWhitelistedTokenAddresses(bytes32 token) external view returns(address) {\n    return whitelistedTokens[token];\n  }\n\n  function initialDeposit(bytes32 symbol) external payable {\n    require(msg.value == 1000,\"Amount should be equal to 1 Ether\");\n    accountBalances[msg.sender][symbol] += msg.value;\n    ERC20(whitelistedTokens[symbol]).transferFrom(msg.sender, address(this), msg.value);\n    emit InitialDepositCompleted(msg.sender, msg.value);\n  }\n\n  function withdrawTokens(uint256 amount, bytes32 symbol) external {\n    require(accountBalances[msg.sender][symbol] >= amount, 'Insufficent funds');\n    accountBalances[msg.sender][symbol] -= amount;\n    ERC20(whitelistedTokens[symbol]).transfer(msg.sender, amount);\n  }\n}",
  "sourcePath": "/Users/pedropelicano/repos/recruitment-protocol/smart-contract/contracts/Recruitment.sol",
  "compiler": {
    "name": "solc",
    "version": "0.8.17+commit.8df45f5f.Emscripten.clang"
  },
  "schemaVersion": "3.4.10",
  "updatedAt": "2022-11-16T01:03:01.395Z",
  "networkType": "ethereum",
  "devdoc": {
    "kind": "dev",
    "methods": {},
    "version": 1
  },
  "userdoc": {
    "kind": "user",
    "methods": {},
    "version": 1
  }
}