{
  "contractName": "Recruitment",
  "abi": [
    {
      "inputs": [],
      "stateMutability": "nonpayable",
      "type": "constructor"
    },
    {
      "inputs": [
        {
          "internalType": "address",
          "name": "",
          "type": "address"
        },
        {
          "internalType": "bytes32",
          "name": "",
          "type": "bytes32"
        }
      ],
      "name": "accountBalances",
      "outputs": [
        {
          "internalType": "uint256",
          "name": "",
          "type": "uint256"
        }
      ],
      "stateMutability": "view",
      "type": "function",
      "constant": true
    },
    {
      "inputs": [
        {
          "internalType": "bytes32",
          "name": "",
          "type": "bytes32"
        }
      ],
      "name": "whitelistedTokens",
      "outputs": [
        {
          "internalType": "address",
          "name": "",
          "type": "address"
        }
      ],
      "stateMutability": "view",
      "type": "function",
      "constant": true
    },
    {
      "inputs": [
        {
          "internalType": "bytes32",
          "name": "symbol",
          "type": "bytes32"
        },
        {
          "internalType": "address",
          "name": "tokenAddress",
          "type": "address"
        }
      ],
      "name": "whitelistToken",
      "outputs": [],
      "stateMutability": "nonpayable",
      "type": "function"
    },
    {
      "inputs": [
        {
          "internalType": "bytes32",
          "name": "token",
          "type": "bytes32"
        }
      ],
      "name": "getWhitelistedTokenAddresses",
      "outputs": [
        {
          "internalType": "address",
          "name": "",
          "type": "address"
        }
      ],
      "stateMutability": "nonpayable",
      "type": "function"
    },
    {
      "inputs": [
        {
          "internalType": "uint256",
          "name": "amount",
          "type": "uint256"
        },
        {
          "internalType": "bytes32",
          "name": "symbol",
          "type": "bytes32"
        }
      ],
      "name": "depositTokens",
      "outputs": [],
      "stateMutability": "nonpayable",
      "type": "function"
    },
    {
      "inputs": [
        {
          "internalType": "uint256",
          "name": "amount",
          "type": "uint256"
        },
        {
          "internalType": "bytes32",
          "name": "symbol",
          "type": "bytes32"
        }
      ],
      "name": "withdrawTokens",
      "outputs": [],
      "stateMutability": "nonpayable",
      "type": "function"
    }
  ],
  "bytecode": "0x608060405234801561001057600080fd5b50336000806101000a81548173ffffffffffffffffffffffffffffffffffffffff021916908373ffffffffffffffffffffffffffffffffffffffff160217905550610a1e806100606000396000f3fe608060405234801561001057600080fd5b50600436106100625760003560e01c8063069fdaae146100675780633586932b146100835780638f97994b146100b3578063aa3d9a15146100cf578063d15b223e146100ff578063e64fe3661461011b575b600080fd5b610081600480360381019061007c919061062c565b61014b565b005b61009d6004803603810190610098919061066c565b61022f565b6040516100aa91906106a8565b60405180910390f35b6100cd60048036038101906100c891906106f9565b61026c565b005b6100e960048036038101906100e4919061066c565b61041c565b6040516100f691906106a8565b60405180910390f35b610119600480360381019061011491906106f9565b61044f565b005b61013560048036038101906101309190610739565b61056e565b6040516101429190610788565b60405180910390f35b60008054906101000a900473ffffffffffffffffffffffffffffffffffffffff1673ffffffffffffffffffffffffffffffffffffffff163373ffffffffffffffffffffffffffffffffffffffff16146101d9576040517f08c379a00000000000000000000000000000000000000000000000000000000081526004016101d090610800565b60405180910390fd5b806001600084815260200190815260200160002060006101000a81548173ffffffffffffffffffffffffffffffffffffffff021916908373ffffffffffffffffffffffffffffffffffffffff1602179055505050565b60006001600083815260200190815260200160002060009054906101000a900473ffffffffffffffffffffffffffffffffffffffff169050919050565b81600260003373ffffffffffffffffffffffffffffffffffffffff1673ffffffffffffffffffffffffffffffffffffffff16815260200190815260200160002060008381526020019081526020016000205410156102ff576040517f08c379a00000000000000000000000000000000000000000000000000000000081526004016102f69061086c565b60405180910390fd5b81600260003373ffffffffffffffffffffffffffffffffffffffff1673ffffffffffffffffffffffffffffffffffffffff1681526020019081526020016000206000838152602001908152602001600020600082825461035f91906108bb565b925050819055506001600082815260200190815260200160002060009054906101000a900473ffffffffffffffffffffffffffffffffffffffff1673ffffffffffffffffffffffffffffffffffffffff1663a9059cbb33846040518363ffffffff1660e01b81526004016103d49291906108ef565b6020604051808303816000875af11580156103f3573d6000803e3d6000fd5b505050506040513d601f19601f820116820180604052508101906104179190610950565b505050565b60016020528060005260406000206000915054906101000a900473ffffffffffffffffffffffffffffffffffffffff1681565b81600260003373ffffffffffffffffffffffffffffffffffffffff1673ffffffffffffffffffffffffffffffffffffffff168152602001908152602001600020600083815260200190815260200160002060008282546104af919061097d565b925050819055506001600082815260200190815260200160002060009054906101000a900473ffffffffffffffffffffffffffffffffffffffff1673ffffffffffffffffffffffffffffffffffffffff166323b872dd3330856040518463ffffffff1660e01b8152600401610526939291906109b1565b6020604051808303816000875af1158015610545573d6000803e3d6000fd5b505050506040513d601f19601f820116820180604052508101906105699190610950565b505050565b6002602052816000526040600020602052806000526040600020600091509150505481565b600080fd5b6000819050919050565b6105ab81610598565b81146105b657600080fd5b50565b6000813590506105c8816105a2565b92915050565b600073ffffffffffffffffffffffffffffffffffffffff82169050919050565b60006105f9826105ce565b9050919050565b610609816105ee565b811461061457600080fd5b50565b60008135905061062681610600565b92915050565b6000806040838503121561064357610642610593565b5b6000610651858286016105b9565b925050602061066285828601610617565b9150509250929050565b60006020828403121561068257610681610593565b5b6000610690848285016105b9565b91505092915050565b6106a2816105ee565b82525050565b60006020820190506106bd6000830184610699565b92915050565b6000819050919050565b6106d6816106c3565b81146106e157600080fd5b50565b6000813590506106f3816106cd565b92915050565b600080604083850312156107105761070f610593565b5b600061071e858286016106e4565b925050602061072f858286016105b9565b9150509250929050565b600080604083850312156107505761074f610593565b5b600061075e85828601610617565b925050602061076f858286016105b9565b9150509250929050565b610782816106c3565b82525050565b600060208201905061079d6000830184610779565b92915050565b600082825260208201905092915050565b7f546869732066756e6374696f6e206973206e6f74207075626c69630000000000600082015250565b60006107ea601b836107a3565b91506107f5826107b4565b602082019050919050565b60006020820190508181036000830152610819816107dd565b9050919050565b7f496e737566666963656e742066756e6473000000000000000000000000000000600082015250565b60006108566011836107a3565b915061086182610820565b602082019050919050565b6000602082019050818103600083015261088581610849565b9050919050565b7f4e487b7100000000000000000000000000000000000000000000000000000000600052601160045260246000fd5b60006108c6826106c3565b91506108d1836106c3565b92508282039050818111156108e9576108e861088c565b5b92915050565b60006040820190506109046000830185610699565b6109116020830184610779565b9392505050565b60008115159050919050565b61092d81610918565b811461093857600080fd5b50565b60008151905061094a81610924565b92915050565b60006020828403121561096657610965610593565b5b60006109748482850161093b565b91505092915050565b6000610988826106c3565b9150610993836106c3565b92508282019050808211156109ab576109aa61088c565b5b92915050565b60006060820190506109c66000830186610699565b6109d36020830185610699565b6109e06040830184610779565b94935050505056fea264697066735822122025b2d4344de359ba9199768cc0bd9463e20253d37c141cbc1f5e19b695ca5cc564736f6c63430008110033",
  "immutableReferences": {},
  "source": "pragma solidity ^0.8.0;\n\nimport \"@openzeppelin/contracts/token/ERC20/ERC20.sol\";\n\ncontract Recruitment {\n  address owner;\n  mapping(bytes32 => address) public whitelistedTokens;\n  mapping(address => mapping(bytes32 => uint256)) public accountBalances;\n\n  constructor() {\n    owner = msg.sender;\n  }\n\n  function whitelistToken(bytes32 symbol, address tokenAddress) external {\n    require(msg.sender == owner, 'This function is not public');\n\n    whitelistedTokens[symbol] = tokenAddress;\n  }\n\n  function getWhitelistedTokenAddresses(bytes32 token) external returns(address) {\n    return whitelistedTokens[token];\n  }\n\n  function depositTokens(uint256 amount, bytes32 symbol) external {\n    accountBalances[msg.sender][symbol] += amount;\n    ERC20(whitelistedTokens[symbol]).transferFrom(msg.sender, address(this), amount);\n  }\n\n  function withdrawTokens(uint256 amount, bytes32 symbol) external {\n    require(accountBalances[msg.sender][symbol] >= amount, 'Insufficent funds');\n\n    accountBalances[msg.sender][symbol] -= amount;\n    ERC20(whitelistedTokens[symbol]).transfer(msg.sender, amount);\n  }\n}",
  "sourcePath": "/Users/pedropelicano/repos/recruitment-protocol/smart-contract/contracts/Recruitment.sol",
  "compiler": {
    "name": "solc",
    "version": "0.8.17+commit.8df45f5f.Emscripten.clang"
  },
  "schemaVersion": "3.4.10",
  "updatedAt": "2022-11-10T08:53:03.786Z",
  "networkType": "ethereum",
  "devdoc": {
    "kind": "dev",
    "methods": {},
    "version": 1
  },
  "userdoc": {
    "kind": "user",
    "methods": {},
    "version": 1
  }
}